:020000040800F2
:1000000000800120DD7B00082D7C0008754B000876
:100010002D7C00082D7C00082D7C000800000000CD
:100020000000000000000000000000002D7C00081F
:100030002D7C0008000000002D7C000817510008EE
:100040002D7C00082D7C00082D7C00082D7C0008EC
:100050002D7C00082D7C00082D7C00082D7C0008DC
:100060002D7C00082D7C00082D7C00082D7C0008CC
:100070002D7C00082D7C00082D7C00082D7C0008BC
:10008000255100082D7C00082D7C00080000000090
:100090000000000000000000000000002D7C0008AF
:1000A0002D7C00082D7C00082D7C00089D51000847
:1000B000AD5100082D7C00082D7C00082D7C000827
:1000C0002D7C00082D7C00082D7C00082D7C00086C
:1000D0002D7C0008BD5100081952000800000000E6
:1000E0002D7C00082D7C00082D7C000800000000FD
:1000F0000000000000000000000000002D7C00084F
:10010000000000002D7C00082D7C00082D7C0008DC
:1001100000000000000000000000000000000000DF
:100120002D7C000875520008ED5200082D7C000857
:100130002D7C00080000000000000000000000000E
:100140000000000000000000000000002D7C0008FE
:100150002D7C00082D7C00082D7C000865530008CC
:10016000C15300082D7C00080000000000000000C2
:10017000000000000000000000000000000000007F
:10018000000000002D7C00080000000000000000BE
:040190002D7C0008BA
:1001A000034613F8012B002AFBD1181A01387047B7
:1001B00001F0FF01102A2BDB10F0070F08D010F818
:1001C000013B013A8B422DD010F0070F42B3F6D11C
:1001D000F0B441EA012141EA014122F007047FF035
:1001E00000070023F0E80256083C85EA010586EA8C
:1001F000010685FA47F5A3FA87F586FA47F6A5FAC8
:1002000087F68EB9EED1F0BC01F0FF0102F00702D3
:1002100032B110F8013B013A83EA010313B1F8D17E
:100220000020704701387047002D06BF354603385F
:10023000073815F0010F07D1013015F4807F02BF98
:10024000013015F4C03F0130F0BC0138704700BFE9
:1002500081F0004102E000BF83F0004330B54FEA77
:1002600041044FEA430594EA050F08BF90EA020FE4
:100270001FBF54EA000C55EA020C7FEA645C7FEA77
:10028000655C00F0E2804FEA5454D4EB5555B8BF9A
:100290006D420CDD2C4480EA020281EA030382EA0B
:1002A000000083EA010180EA020281EA0303362D9D
:1002B00088BF30BD11F0004F4FEA01314FF4801C70
:1002C0004CEA113102D0404261EB410113F0004F82
:1002D0004FEA03334CEA133302D0524263EB430339
:1002E00094EA050F00F0A780A4F10104D5F1200ED7
:1002F0000DDB02FA0EFC22FA05F2801841F1000132
:1003000003FA0EF2801843FA05F359410EE0A5F105
:1003100020050EF1200E012A03FA0EFC28BF4CF036
:10032000020C43FA05F3C01851EBE37101F00045EC
:1003300007D54FF0000EDCF1000C7EEB00006EEBF9
:100340000101B1F5801F1BD3B1F5001F0CD3490883
:100350005FEA30004FEA3C0C04F101044FEA4452DA
:1003600012F5800F80F09A80BCF1004F08BF5FEA61
:10037000500C50F1000041EB045141EA050130BD41
:100380005FEA4C0C404141EB010111F4801FA4F1E4
:100390000104E9D191F0000F04BF01460020B1FA39
:1003A00081F308BF2033A3F10B03B3F120020CDA71
:1003B0000C3208DD02F1140CC2F10C0201FA0CF04F
:1003C00021FA02F10CE002F11402D8BFC2F1200CB4
:1003D00001FA02F120FA0CFCDCBF41EA0C0190406A
:1003E000E41AA2BF01EB0451294330BD6FEA0404B3
:1003F0001F3C1CDA0C340EDC04F11404C4F120029E
:1004000020FA04F001FA02F340EA030021FA04F3AF
:1004100045EA030130BDC4F10C04C4F1200220FA06
:1004200002F001FA04F340EA0300294630BD21FA44
:1004300004F0294630BD94F0000F83F4801306BF0A
:1004400081F480110134013D4EE77FEA645C18BFFE
:100450007FEA655C29D094EA050F08BF90EA020F95
:1004600005D054EA000C04BF1946104630BD91EA8D
:10047000030F1EBF0021002030BD5FEA545C05D190
:100480004000494128BF41F0004130BD14F58004CF
:100490003CBF01F5801130BD01F0004545F0FE4143
:1004A00041F470014FF0000030BD7FEA645C1ABF78
:1004B000194610467FEA655C1CBF0B46024650EAAF
:1004C000013406BF52EA033591EA030F41F40021DB
:1004D00030BD00BF90F0000F04BF0021704730B561
:1004E0004FF4806404F132044FF000054FF0000136
:1004F00050E700BF90F0000F04BF0021704730B5F7
:100500004FF4806404F1320410F0004548BF4042CB
:100510004FF000013EE700BF42004FEAE2014FEA20
:1005200031014FEA02701FBF12F07F4393F07F4FFB
:1005300081F06051704732F07F4208BF704793F0FE
:100540007F4F04BF41F40021704730B54FF4607411
:1005500001F0004521F000411CE700BF50EA010214
:1005600008BF704730B54FF000050AE050EA0102BD
:1005700008BF704730B511F0004502D5404261EB2D
:1005800041014FF4806404F132045FEA915C3FF46E
:10059000D8AE4FF003025FEADC0C18BF03325FEA0B
:1005A000DC0C18BF033202EBDC02C2F1200300FABC
:1005B00003FC20FA02F001FA03FE40EA0E0021FAE1
:1005C00002F11444BDE600BF70B54FF0FF0C4CF4CF
:1005D000E06C1CEA11541DBF1CEA135594EA0C0F81
:1005E00095EA0C0F00F0DEF82C4481EA030621EABC
:1005F0004C5123EA4C5350EA013518BF52EA0335F7
:1006000041F4801143F4801338D0A0FB02CE4FF0A8
:100610000005E1FB02E506F00042E0FB03E54FF0D8
:100620000006E1FB03569CF0000F18BF4EF0010ED0
:10063000A4F1FF04B6F5007F64F5407404D25FEACC
:100640004E0E6D4146EB060642EAC62141EA55517F
:100650004FEAC52040EA5E504FEACE2EB4F1FD0CC1
:1006600088BFBCF5E06F1ED8BEF1004F08BF5FEA3F
:10067000500E50F1000041EB045170BD06F00046F1
:1006800046EA010140EA020081EA0301B4EB5C049E
:10069000C2BFD4EB0C0541EA045170BD41F4801196
:1006A0004FF0000E013C00F3AB8014F1360FDEBFBB
:1006B000002001F0004170BDC4F10004203C35DA97
:1006C0000C341BDC04F11404C4F1200500FA05F31A
:1006D00020FA04F001FA05F240EA020001F00042BB
:1006E00021F0004110EBD37021FA04F642EB060131
:1006F0005EEA430E08BF20EAD37070BDC4F10C045B
:10070000C4F1200500FA04F320FA05F001FA04F21E
:1007100040EA020001F0004110EBD37041F100010A
:100720005EEA430E08BF20EAD37070BDC4F1200515
:1007300000FA05F24EEA020E20FA04F301FA05F27D
:1007400043EA020321FA04F001F0004121FA04F225
:1007500020EA020000EBD3705EEA430E08BF20EAF5
:10076000D37070BD94F0000F0FD101F0004640002F
:1007700041EB010111F4801F08BF013CF7D041EAB1
:10078000060195F0000F18BF704703F000465200B5
:1007900043EB030313F4801F08BF013DF7D043EA86
:1007A0000603704794EA0C0F0CEA135518BF95EA3C
:1007B0000C0F0CD050EA410618BF52EA4306D1D1C3
:1007C00081EA030101F000414FF0000070BD50EAE2
:1007D000410606BF1046194652EA430619D094EA6C
:1007E0000C0F02D150EA013613D195EA0C0F05D156
:1007F00052EA03361CBF104619460AD181EA0301AA
:1008000001F0004141F0FE4141F470014FF0000061
:1008100070BD41F0FE4141F4780170BD70B54FF0FC
:10082000FF0C4CF4E06C1CEA11541DBF1CEA13557C
:1008300094EA0C0F95EA0C0F00F0A7F8A4EB05045E
:1008400081EA030E52EA03354FEA013100F0888055
:100850004FEA03334FF0805545EA131343EA12631E
:100860004FEA022245EA111545EA10654FEA0026D3
:100870000EF000419D4208BF964244F1FD0404F58C
:10088000407402D25B084FEA3202B61A65EB0305E8
:100890005B084FEA32024FF480104FF4002CB6EBA5
:1008A000020E75EB030E22BFB61A754640EA0C0025
:1008B0005B084FEA3202B6EB020E75EB030E22BF65
:1008C000B61A754640EA5C005B084FEA3202B6EBA6
:1008D000020E75EB030E22BFB61A754640EA9C0065
:1008E0005B084FEA3202B6EB020E75EB030E22BF35
:1008F000B61A754640EADC0055EA060E18D04FEAF3
:10090000051545EA16754FEA06164FEAC30343EA92
:1009100052734FEAC2025FEA1C1CC0D111F4801F5F
:100920000BD141EA00014FF000004FF0004CB6E758
:1009300011F4801F04BF01430020B4F1FD0C88BFF7
:10094000BCF5E06F3FF6AFAEB5EB030C04BFB6EB02
:10095000020C5FEA500C50F1000041EB045170BDF5
:100960000EF0004E4EEA113114EB5C04C2BFD4EB22
:100970000C0541EA045170BD41F480114FF0000EA6
:10098000013C90E645EA060E8DE60CEA135594EA22
:100990000C0F08BF95EA0C0F3FF43BAF94EA0C0F25
:1009A0000AD150EA01347FF434AF95EA0C0F7FF49A
:1009B00025AF104619462CE795EA0C0F06D152EAEE
:1009C00003353FF4FDAE1046194622E750EA4106D2
:1009D00018BF52EA43067FF4C5AE50EA41047FF4E3
:1009E0000DAF52EA43057FF4EBAE12E74FF0FF3C48
:1009F00006E000BF4FF0010C02E000BF4FF0010C19
:100A00004DF804CD4FEA410C7FEA6C5C4FEA430C91
:100A100018BF7FEA6C5C1BD001B050EA410C0CBFE0
:100A200052EA430C91EA030F02BF90EA020F002042
:100A3000704710F1000F91EA030F58BF994208BFA9
:100A400090422CBFD8176FEAE37040F00100704766
:100A50004FEA410C7FEA6C5C02D150EA013C07D1BD
:100A60004FEA430C7FEA6C5CD6D152EA033CD3D008
:100A70005DF8040B704700BF8446104662468C4602
:100A80001946634600E000BF01B5FFF7B7FF002835
:100A900048BF10F1000F01BD4DF808EDFFF7F4FF5E
:100AA0000CBF012000205DF808FB00BF4DF808EDE9
:100AB000FFF7EAFF34BF012000205DF808FB00BF0C
:100AC0004DF808EDFFF7E0FF94BF012000205DF82E
:100AD00008FB00BF4DF808EDFFF7CEFF94BF0120E3
:100AE00000205DF808FB00BF4DF808EDFFF7C4FFDC
:100AF00034BF012000205DF808FB00BF4FEA410C25
:100B00007FEA6C5C02D150EA013C0AD14FEA430C07
:100B10007FEA6C5C02D152EA033C02D14FF0000044
:100B200070474FF0010070474FEA410212F5001282
:100B300015D211D56FF47873B3EB625212D94FEA24
:100B4000C12343F0004343EA505311F0004F23FA0E
:100B500002F018BF404270474FF00000704750EA63
:100B6000013005D111F0004008BF6FF00040704720
:100B70004FF00000704700BF4FEA4102B2F1E0437E
:100B800024BFB3F5001CDCF1FE5C0DD901F0004C74
:100B90004FEAC0024CEA5070B2F1004F40EB8300C4
:100BA00008BF20F00100704711F0804F21D113F1F0
:100BB0003872BCBF01F00040704741F480114FEA29
:100BC0005252C2F11802C2F1200C10FA0CF320FAB2
:100BD00002F018BF40F001004FEAC1234FEAD323CF
:100BE00003FA0CFC40EA0C0023FA02F34FEA430339
:100BF000CCE77FEA625307D150EA01331EBF4FF0C2
:100C0000FE4040F44000704701F0004040F0FE40DC
:100C100040F40000704700BF53B94AB9002908BF2B
:100C200000281CBF4FF0FF314FF0FF3000F00CB830
:100C3000ADF1080C6DE904CE09F096F8DDF804E09A
:100C4000DDE9022304B07047704700BF10B5054CC2
:100C5000227832B9044B13B10448AFF3008001236A
:100C6000237010BD9C0600200000000020A000089A
:100C700008B5034B1BB103490348AFF3008008BD1F
:100C800000000000A006002020A00008D0F80834D2
:100C90005A1CC0F808241B782BB180F80434074B89
:100CA000C0F800347047064BC0F800340023A0F8A9
:100CB000103400F58573C0F80C347047F90C000847
:100CC0008D0C0008C0F8181402604360002380F8FF
:100CD0001234074AC0F8002400F10802C0F80824C2
:100CE00000F58572C0F80C24A0F81034704700BFDE
:100CF0008D0C000870470000D0F808345A1CC0F86A
:100D000008241B78D3B190F80424013AD2B280F8B9
:100D1000042412B980F80434134680F80831B0F87E
:100D2000102483EA12230F4931F9133083EA022396
:100D3000A0F810340C4BC0F80034704710B50446CE
:100D400040F20121094B1980FFF7D4FF084BC4F88A
:100D500000340023A4F8103404F58573C4F80C346F
:100D600010BD00BF00000020750D0008B80600206F
:100D70008D0C000810B50446D0F808345A1CC0F891
:100D800008241B78EBB190F80424013A80F804247D
:100D9000B0F8101483EA11201B4A32F9102082EABD
:100DA0000122A4F81024043BDBB284F8063484F852
:100DB000053484F80931FA2B14D8144BC4F80034E4
:100DC00010BD40F20121124B1980FFF793FF114B28
:100DD000C4F800340023A4F8103404F58573C4F873
:100DE0000C34EDE740F20221094B19802046FFF751
:100DF00081FF084BC4F800340023A4F8103404F534
:100E00008573C4F80C34DBE700000020190E0008DD
:100E1000B80600208D0C0008D0F808345A1CC0F821
:100E200008241B782BB390F80424013AD2B280F83E
:100E3000042412B980F804341346D0F80C24511C51
:100E4000C0F80C141370B0F8102483EA122313496D
:100E500031F9133083EA0223A0F8103490F80634F5
:100E6000013BDBB280F80634B3B90D4BC0F8003457
:100E7000704710B5044640F201210A4B1980FFF774
:100E800039FF094BC4F800340023A4F8103404F5EA
:100E90008573C4F80C3410BD704700BF00000020FB
:100EA000AD0E0008B80600208D0C000810B50446F1
:100EB000D0F808345A1CC0F808241A788AB190F87F
:100EC000101490F80434013BDBB280F8043413B9F9
:100ED00080F804240022914214D1134BC4F800344A
:100EE00010BD40F20121114B1980FFF703FF104B99
:100EF000C4F800340023A4F8103404F58573C4F852
:100F00000C34EDE740F20321084B19802046FFF72F
:100F1000F1FE074BC4F800340023A4F8103404F5A4
:100F20008573C4F80C34DBE7350F0008B8060020E1
:100F30008D0C000810B50446D0F808345A1CC0F8CF
:100F400008241A7892B1B0F81014090A90F8043401
:100F5000013BDBB280F8043413B980F8042400228A
:100F6000914214D1134BC4F8003410BD40F201215A
:100F7000114B1980FFF7BEFE104BC4F8003400235C
:100F8000A4F8103404F58573C4F80C34EDE740F28E
:100F90000321094B19802046FFF7ACFE074BC4F82C
:100FA00000340023A4F8103404F58573C4F80C341D
:100FB000DBE700BFC10F0008B80600208D0C000859
:100FC00010B50446D0F808345A1CC0F808241B7821
:100FD00083B140F20221104B1980FFF78BFE0F4BBB
:100FE000C4F800340023A4F8103404F58573C4F861
:100FF0000C3410BD012380F8123400F5847103F025
:1010000047FC064BC4F800340023A4F8103404F560
:101010008573C4F80C34ECE7B80600208D0C00088A
:101020004378FBB19A1DB2F5807F1BDCFA2B19D8EF
:10103000F0B44F1C02782A4B33F81250CAB90C4650
:10104000012304F8023B42780432D2B282EA152628
:10105000234B33F9163083EA05239BB2651C2270BB
:1010600000220DE01F4B4FF480721A804FF0FF30CA
:1010700070478C1C4A700F46E5E72E70013501322F
:101080004478944210DD8418A67886EA132C144C18
:1010900034F91C4084EA03239BB2002EEDD1EC1BF3
:1010A0003C702F460135EAE7180A13F0FF030ED112
:1010B000EB1B3B706A1C70B9531B2B70531C981AA6
:1010C0001070581C00221A70401AF0BC70476A1C3D
:1010D0002B703D46EFE7531C10702A46EFE700BF28
:1010E00000000020B806002030B583B002AC002319
:1010F00004F8013D05680B4601222146D0F818048A
:10110000A84710B9002003B030BD034B4FF4007264
:101110001A804FF0FF30F6E7B8060020F8B5044615
:101120000846164604F540752946FFF779FFB0F1E9
:10113000FF3F08D02768334682B22946D4F8180406
:10114000B84708B90020F8BD034B4FF400721A806D
:101150004FF0FF30F7E700BFB806002038B505466E
:10116000C0F8081404E0D5F8003428469847224611
:10117000531E9CB2002AF6D138BD70B504460E4607
:10118000436898470546002384F8123494F81234D3
:1011900023B963689847401BB042F7D394F81234E0
:1011A0001BB1002084F8120470BD4FF0FF30FBE744
:1011B00030B400252B4601E001350133072B7FDCDD
:1011C000CA5CC254002A7BD0A2F14204332C77D8E7
:1011D0000FF2040C5CF824F0A9120008C1120008F8
:1011E000C1120008C1120008B9120008C11200089B
:1011F000C1120008C1120008C1120008C112000883
:10120000C1120008C1120008C1120008C112000872
:10121000C1120008C1120008C1120008C112000862
:10122000C1120008C1120008C1120008C112000852
:10123000C1120008C1120008C1120008C112000842
:10124000C1120008C1120008C1120008C112000832
:10125000C1120008C1120008B9110008C11200082B
:10126000C1120008C1120008B5120008C11200081E
:10127000C1120008B1120008C1120008C112000812
:10128000C1120008C1120008C1120008C1120008F2
:10129000C1120008C1120008C1120008BD120008E6
:1012A000C1120008AD120008023586E7043584E754
:1012B000043582E7043580E708357EE740357CE772
:1012C00022B9F92D02DC002030BC7047024B01220C
:1012D0001A604FF0FF30F7E7BC0600202DE9F0411F
:1012E00082B00D4690461F46144601220BE03B6833
:1012F0001A1D3A601B788DF80030631EDA43D20F56
:10130000002B2FDA3046461C0378002B00F0B1800A
:10131000002A00F0AE80622BE9D0422B24D0752B3E
:1013200037D0692B49D0662B5BD0462B7DD13B68EB
:10133000073323F0070303F108023A60D3E90023DF
:10134000CDE90023A4F10800C243D20F0028D9DB65
:101350006B4667E008782870013C013101359C42FA
:10136000F8DCCFE76946FAE73B681A1D3A601B884C
:10137000ADF80030A31EDA43D20F002BC2DB694662
:1013800004E008782870013C013101359C42F8DC0A
:10139000B8E73B681A1D3A601B680093211FCA43D7
:1013A000D20F0029AEDB6B4604E018782870013CB0
:1013B000013301358C42F8DCA4E73B681A1D3A6022
:1013C0001B680093211FCA43D20F00299ADB6B468A
:1013D00004E018782870013C013301358C42F8DCB8
:1013E00090E73B68073323F0070303F108023A60F4
:1013F000D3E90001FFF7C0FB0090211FCA43D20FC1
:101400000029FFF67FAF6B468C427FF77BAF1878E1
:101410002870013C01330135F6E719782970013C49
:10142000013301358442F8DC6CE7732B19D13B683A
:101430001A1D3A6019682A4640202A2302E0013C1E
:1014400061462A4644B101F1010C551C0B7813701A
:101450001BB10138F3D100E0154643B9013C01222C
:1014600050E7084B01221A604FF0FF3004E00022E1
:1014700048E722B1A8EB040002B0BDE8F0814FF0CC
:10148000FF30F9E7BC060020F0B4012409E0186839
:10149000041D1C600668501EC443E40F002824DAB3
:1014A0002846451C0078002800F09580002C00F0AC
:1014B00092806228EBD042281AD075282AD0692859
:1014C0003AD066284AD0462861D11868041D1C60AD
:1014D0000068A2F10807FC43E40F002FE0DB53E0B3
:1014E0000F783770013A013601318242F8DCD7E7D4
:1014F0001868041D1C600668901EC443E40F002891
:10150000CEDB04E00F783770013A013601318242B8
:10151000F8DCC5E71868041D1C600068161FF4435A
:10152000E40F002EBCDB04E00F780770013A0130B5
:101530000131B242F8DCB3E71868041D1C60006892
:10154000161FF443E40F002EAADB04E00F780770A7
:10155000013A01300131B242F8DCA1E71868041DFC
:101560001C600068161FF443E40F002E98DBB242A3
:1015700096DD0F780770013A01300131F7E70E78F8
:101580000670013A01300131BA42F8DC88E773286D
:1015900019D11868041D1C6006680C4640272A20D3
:1015A00002E0013A66460C4642B1611C06F1010CAC
:1015B0002078307018B1013FF3D100E0214640B9E6
:1015C000013A01246CE7094B01221A604FF0FF3207
:1015D00003E0002464E734B112B91046F0BC704750
:1015E0004FF0FF32F9E74FF0FF32F6E7BC0600207C
:1015F0000160C0F82422002305E003EB031202443B
:101600000021117101331F2BF7DD70471F291FD8EF
:1016100070B51E460C46054601EB011028441146E4
:101620000530FFF7C5FDB0F1FF3F10D004EB04100B
:101630000830284431460530FFF7BAFDB0F1FF3FCE
:1016400005D004EB04142C4401232371002070BD49
:10165000024B00221A604FF0FF307047BC0600209A
:101660000EB4F0B582B007AB53F8044B01931F2CB6
:101670004BD8054604EB041303441B79002B4AD0D6
:10168000066806F5017786F80642D0F8243286F817
:10169000043204EB0410284401ABF92206F20721BE
:1016A0000530FFF71BFE0130C0B286F805020028A6
:1016B00037D0012239462868FFF730FD002836D19F
:1016C0000A212868FFF759FD002836D1296891F8CA
:1016D0000921002A37D091F80A31A34233D191F879
:1016E0000801D5F8243298422DD104EB04140834B3
:1016F0002C4401AB013A01F20B11601DFFF7C4FE4F
:1017000002B0BDE8F04003B07047124B00221A60EF
:101710004FF0FF30F4E70F4B02221A604FF0FF301A
:10172000EEE70C4B01221A604FF0FF30E8E7094B5F
:1017300003221A604FF0FF30E2E7064B04221A60E2
:101740004FF0FF30DCE7034B05221A604FF0FF300B
:10175000D6E700BFBC06002008B5C0F85C1180F8D1
:1017600060210022C0F86821882102F0D7FF08BD5F
:1017700000B583B00DF10602C02103F027F860B96F
:10178000BDF806204EF6AA639A4203D1002003B0AA
:101790005DF804FB4FF0FF30F9E74FF0FF30F6E75C
:1017A00038B504460D4600F0A3F928B984F8605115
:1017B0002046FFF7DDFF38BD4FF0FF30FBE710B5E7
:1017C000044600F025FC58B90123C4F868312046CE
:1017D00000F0B2FF08B9002010BD4FF0FF30FBE76A
:1017E0004FF0FF30F8E770B504460D464E1C324608
:1017F00000F0F0FC05F10802291D204601F0C9F8AF
:101800000021204600F07AF901220021204600F054
:10181000ACFA01221146204600F0A7FAEA6801213D
:10182000204600F0F9FA2A690021204600F0F4FA77
:101830006969204600F089F92A7E0021204600F0DF
:101840008CF96A7E0121204600F087F9324629464C
:10185000204600F0BFFC0123C4F87C31002070BD9D
:1018600038B5D0F8683113B30D46044600F09BFE3E
:101870002B7EBBB9D4F87C0130B10020C4F87C01C8
:101880002B89C4F8783111E0D4F8783103EBC30325
:1018900003EB03132A89672101FB02331B12C4F8EF
:1018A000783103E00123C4F87C31002038BD4FF0CB
:1018B000FF30FBE770B50524002517E040211348F1
:1018C00004F008FA0546124E012814BF0022012236
:1018D0008021304604F005FAB5FA85F2520940211C
:1018E000304604F0FEF9012005F0CEFC013C08D0A2
:1018F0004FF48071054804F0EDF90028DED105248D
:10190000DCE7044805F00FFD284670BD00080240E2
:10191000000002407016002010B50524013C08D0DC
:101920004FF48071044804F0D5F90028F6D005245E
:10193000F4E703F0B3FB10BD0008024072B6FEE707
:1019400008B5034805F0FBFC00F078F8FFF7F6FF58
:101950007016002010B5274C002227492046FFF7BB
:1019600047FE264A134600212046FFF74FFE78BB6C
:10197000224A134601212046FFF748FE58BB1F4A62
:10198000134602212046FFF741FE38BB1B4B1C4A81
:1019900003212046FFF73AFE18BB1A4B174A0421D1
:1019A0002046FFF733FEF8B9144B174A05212046AD
:1019B000FFF72CFED8B9154B154A06212046FFF734
:1019C00025FE034608B9184610BD4FF0FF33FAE76D
:1019D0004FF0FF33F7E74FF0FF33F4E74FF0FF33FB
:1019E000F1E74FF0FF33EEE74FF0FF33EBE74FF057
:1019F000FF33E8E7C0060020500D002048A0000893
:101A00004CA0000850A0000854A0000858A00008EE
:101A100060A0000808B501210648FFF765FB00211A
:101A20000548FFF71DFE034608B9184608BD4FF0EC
:101A3000FF33FAE7500D0020C006002008B5012151
:101A40000448FFF70DFE034608B9184608BD4FF0DD
:101A5000FF33FAE7C006002008B502210448FFF76B
:101A6000FFFD034608B9184608BD4FF0FF33FAE7FB
:101A7000C00600200FB400B593B014AB53F8042B8C
:101A80001193402101A806F09BFD01AA05210448FD
:101A9000FFF7E6FD13B05DF804EB04B0704700BF3C
:101AA000C006002000B58BB005AB039306AB0293D4
:101AB00007AB019308AB00930DF127030222062127
:101AC0000748FFF7CDFD0798FEF726FD02460B46B7
:101AD0000448FFF7CFFF00200BB05DF804FB00BF08
:101AE000C006002038A0000808B500F056FF08BD69
:101AF00008B54A088A2102F011FE08BD15290FD841
:101B0000DFE801F00B0B0E0B0E0E0E0E0E0E0E0E7E
:101B10000E0E0E0E0E0E0E0E0B0B017400207047F3
:101B20006FF007007047037C0B700020704710B502
:101B30000C460A46092102F013FE024618B9237822
:101B400003F001032370104610BD08B502F040F900
:101B500008BD08B502F0AEF908BD08B501F08CFF6C
:101B600008BD08B502F015F908BDF0B583B006460A
:101B70000D46174602AA002302F8013D012102F09A
:101B8000EFFD9DF80730044668BB012F06D0042DF9
:101B900038D8DFE805F0191C1F222500042D2DD8A8
:101BA000DFE805F00306090C0F0043F010051BE009
:101BB00043F0280518E043F0040515E043F0400524
:101BC00012E043F080050FE003F0EF050CE003F0B6
:101BD000D70509E003F0FB0506E003F0BF0503E0CD
:101BE00003F07F0500E01D469D4204D074B10CB99E
:101BF00086F830518CB1204603B0F0BD1D466FF021
:101C00000304F1E71D466FF00304EDE72A460121C6
:101C1000304602F083FD0446E9E771693046FFF77C
:101C200094FFE8E70020187004291CD8DFE801F0D1
:101C300003080D121700C2F300121A70002070473B
:101C4000C2F3C0021A7000207047C2F380021A70FB
:101C500000207047C2F380121A7000207047D2092A
:101C60001A70002070476FF00300704730B583B0E2
:101C700004460D4602AA002302F8013D012102F0AC
:101C80006FFD034630B173B1B3B1F3B133B318464E
:101C900003B030BD2B469DF8072000212046FFF7FA
:101CA000C1FF0346EFE7AB1C9DF80720012120464A
:101CB000FFF7B8FF0346E7E76B1C9DF807200221FA
:101CC0002046FFF7AFFF0346DFE7EB1C9DF8072038
:101CD00003212046FFF7A6FF0346D7E72B1D9DF8FB
:101CE000072004212046FFF79DFF0346CFE730B5CC
:101CF00083B004460D460DF10602F82102F066FDA0
:101D0000034660B143B9BDF806201AB10099B1FB92
:101D1000F2F22A602A68A261184603B030BD6A4612
:101D20000421204602F074FD0346EBE7037F0B70AD
:101D30000020704730B583B004460D460DF1060211
:101D4000202102F043FD024638B9BDF806303BB110
:101D5000DB002B60236201232377104603B030BDE4
:101D6000236A2B6000232377F7E7052941D8F8B5CC
:101D70008AB101F10C0300EB8303D3F804C0002304
:101D8000012716460C460546052935D8DFE801F03F
:101D9000080C181C2026174601234FF0000CF0E712
:101DA00080F82870002005E0CCF34F22442102F097
:101DB000C5FC20B9C6B12C44012384F82830F8BDF5
:101DC00080F82A700020F5E780F82B700020F1E7FA
:101DD0005B00FE22602102F0DDFCEAE71B01EF223E
:101DE000602102F0D7FCE4E72C44002384F828307B
:101DF000E5E76FF0030070476FF00300DFE70529A8
:101E000005D8084490F8283013700020704700234C
:101E100013706FF003007047431893F8283053B1E4
:101E200070B516460C460546052925D8DFE801F0B1
:101E3000090C181B1E1E0C3100EB81014A600020AA
:101E400070476A63002005E0C2F34F22442102F08C
:101E500075FC20B904F10C0105EB81014E6070BDE9
:101E6000EA630020F6E72A640020F3E7C2F34F227A
:101E7000642102F063FCECE76FF00300EFE7F0B5DC
:101E800083B005460C46174605292DD8DFE801F03A
:101E9000030C181C2020466B002213460BB95ABBBA
:101EA0003E60184603B0F0BD0DF10602442102F079
:101EB0008DFC0346E0B9BDF8066076020122EDE72D
:101EC000C66B00221346E9E7066C00221346E5E7DD
:101ED0000DF10602642102F079FC034650B9BDF809
:101EE000066076020022D9E700226FF00303D5E7EF
:101EF0000122D3E70022D1E756B904F10C0205EB29
:101F0000820252683A602C44002284F82820C8E7F4
:101F10003E6004F10C0205EB820256602C44012263
:101F200084F82820BDE730B583B004460D460DF196
:101F30000702012102F014FC034640B99DF8072076
:101F400084F8302112F0800F08D100222A7013B9D2
:101F50002A7884F84C20184603B030BD01222A703C
:101F6000F5E72DE9F04107460E46FFF7DCFD044694
:101F700060B10CB9002333737CB1ACB1DCB1002C7F
:101F800038D0002C3DD02046BDE8F08106F1080194
:101F90003846FFF7ACFE0446EBE706F11001384681
:101FA000FFF7C8FE0446E8E706F114013846FFF7DC
:101FB0009BFD0446E2E70025052DE0DC002CDED188
:101FC0001FFA85F805F1080206EB82020432414649
:101FD0003846FFF754FF044364B2002CCFD105F11B
:101FE0001802324441463846FFF709FF044364B201
:101FF0000135E1E706F13C013846FFF794FF04465E
:10200000BFE7311D3846FFF7A4FD0446BBE70000DB
:10201000F0B593B005460022882102F07FFB002333
:1020200085F8F0304FF47A72A5F852214FF4C87257
:10203000A5F85421654AC5F85821654AC5F8D42049
:102040002B6202A92846FFF78CFF044688B90023BB
:102050008DF808308DF8093005F1100602AF0FCF6A
:102060000FC60FCF0FC60FCF0FC697E80F0086E839
:102070000F006423A5F834314FF46173A5F83631AD
:102080004FF4FA73A5F838314FF42063A5F83C31CA
:10209000012685F8506132468021284602F03EFB39
:1020A000044364B23246FF21284602F037FB044362
:1020B00064B200221146284602F030FB044364B2A9
:1020C0000DF107029121284602F04AFB044364B255
:1020D0009DF8073085F83A3132460021284602F053
:1020E0001DFB044364B20022FF21284602F016FBC8
:1020F000044364B200228021284602F00FFB04430F
:1021000064B20026052E09DC44B90122B1B228468A
:10211000FFF72BFE044364B20136F3E77CB1ACB1A8
:10212000DCB10CB33CB374B3ACB3E4B3002C41D01A
:1021300014B9002385F81531204613B0F0BD0022F4
:1021400002212846FFF711FE0446E8E7002203219A
:102150002846FFF70AFE0446E2E70022042128464B
:10216000FFF703FE0446DCE7002205212846FFF7BF
:10217000FCFD0446D6E74FF4901200212846FFF7F5
:102180004BFE0446CFE74FF4804201212846FFF77B
:1021900043FE0446C8E74FF40C1202212846FFF71D
:1021A0003BFE0446C1E7002203212846FFF734FE28
:1021B0000446BBE7FF2285F830210121284602F0C2
:1021C000ADFA0446012385F83231B1E7856B010091
:1021D000A470090008B5012300F03AFE08BD000014
:1021E0002DE9F0418EB005460C460C230AAA1421B5
:1021F00002F078FA0646002864D10023A375236014
:102200009DF832209DF8330000EB022080B263601D
:102210009DF82E309DF82F2002EB032292B252023D
:10222000E2609DF830109DF8313003EB01239BB242
:102230005B0223619DF82A109DF82B3003EB0123EC
:102240009BB2A3829DF82810B5F8527195F831C160
:10225000B7F57A7F21D000FB07F000F5FA70364F12
:1022600087FB00E7C017C0EBA717B8B2D5F820E08E
:1022700095F81C80B8F1000F0FD01FFA8EFE03FBFB
:102280000EFE4FEA2E2E724549D0B8B202FB00F086
:10229000A2EB0E0EB0FBFEF080B2BCF1000F47D0F7
:1022A00087082781C0B28001E0750DF137000190E9
:1022B0000094284602F098F8064376B216B99DF8C5
:1022C000373023763EBB03AF05F1500CBCE80F005E
:1022D0000FC79CE8070087E807002389ADF8143092
:1022E000E37D8DF823306389ADF81630636804937D
:1022F000E368069323690793A38AADF82030237E11
:102300008DF8243005F1500403AD0FCD0FC495E8CE
:10231000070084E8070030460EB0BDE8F081BCF14C
:10232000000F02D042F2B820B7E748F6E020B4E749
:1023300020810020E075B8E7D34D621070B582B0FF
:10234000064614461D460DF106020E2102F03EFA25
:10235000BDF806200B4B03EA42432360034610B14D
:10236000184602B070BD0DF106020C21304602F095
:102370002DFA0346BDF80610024A02EA41422A60DD
:10238000EEE700BF0000FE1F70B582B090F8DA30B3
:10239000013BDBB2022B03D90024204602B070BD02
:1023A0000E4605466B4601AA0121FFF7C7FF04460A
:1023B000019BB3F57F0F03D8009BB3F57F0FECD9DA
:1023C000002CEAD1E6B90422FF21284602F0A6F942
:1023D000044364B200227021284602F09FF90443AE
:1023E00064B20022FF21284602F098F9044364B247
:1023F00000228021284602F091F9044364B2CCE720
:102400000249284601F0BDFD0446C6E7F40200205B
:1024100030B583B004460DF10701FFF784FB0122BC
:102420008021204602F07AF90122FF21204602F0A5
:1024300075F900221146204602F070F994F83A210D
:102440009121204602F06AF901220021204602F083
:1024500065F90022FF21204602F060F90022802168
:10246000204602F05BF99DF80730012B2BD033B1E9
:10247000032B3AD06FF00703184603B030BD01229A
:102480000021204602F04AF901238DF80630034668
:102490000028F1D1002535B10DF1060200212046BA
:1024A00002F05EF9034601359DF8062012F0010F97
:1024B00003D013B9B5F5FA6FEDD3B5F5FA6FDBD3E9
:1024C0006FF00603D8E758B102220021204602F03F
:1024D00025F903460028CFD1042284F83221CBE726
:1024E00001212046FFF750FFEEE758B104220021FA
:1024F000204602F013F903460028BDD1042284F8D7
:102500003221B9E701212046FFF73EFFEEE710B583
:1025100082B004460DF10701FFF705FB034610B931
:102520009DF8072052B173B12BB99DF8072012B95D
:10253000032284F83221184602B010BD2046FFF76E
:1025400067FF0346EFE7204600F00BFE0346EBE78C
:1025500070B582B00646002501220B21304602F0FC
:10256000DDF8044600220B21304602F0D7F8044380
:1025700064B20DF107021321304602F0F1F8204356
:1025800040B20135EDB29DF8073013F0070F03D0CC
:10259000022D01D80028DFD0022D01D802B070BD75
:1025A0006FF00B00FAE738B504460D460021FFF73F
:1025B000A5FA034618B13BB163B1184638BD2046B1
:1025C000FFF7A5FF0346F6E729462046FFF708FE7A
:1025D0000346F1E700212046FFF7BAFF0346ECE788
:1025E000F8B59DF81860002940F0A38005461C4608
:1025F0000F46142A09D0152A10D0042C00F291801D
:10260000DFE804F07A78767C74002EB10122842110
:10261000284602F083F883E01022F8E70122FF2128
:1026200002F07CF8044600221146284602F076F8B3
:10263000044364B20022FF21284602F06FF80443ED
:1026400064B201228021284602F068F8044364B293
:1026500002228521284602F061F8044364B2042274
:10266000FF21284602F05AF8044364B20022CD212B
:10267000284602F053F8044364B21122CC212846C4
:1026800002F04CF8044364B20722FF21284602F00E
:1026900045F8044364B20022BE21284602F03EF809
:1026A000044364B20622FF21284602F037F80443AF
:1026B00064B20922CC21284602F030F8044364B207
:1026C0000022FF21284602F029F8044364B20122C7
:1026D000FF21284602F022F8044364B2002211468A
:1026E000284602F01BF8204340B219E0042206E01D
:1026F000022204E0012202E00A4600E003220A214D
:10270000284602F00BF838B906B110273B46EF22F5
:102710008421284602F03EF808B985F8DA4018B15D
:10272000F8BD6FF00A00EEE700212846FFF710FF22
:10273000F6E76FF00900F3E7F0B597B007464022DF
:10274000002106A805F0A3FA0023ADF816308DF895
:1027500015308DF8143004930121384600F064FDE3
:1027600097F8131197F81421012A03D810D092B9C1
:102770000C2910D905AA04A9384600F08BFB0446A1
:1027800074B997F85031002B50D1D7F84C1108E0AC
:102790002029EFD8EBE7384600F0F6F90446EFE7DA
:1027A0005C49002C44D0002C47D0002C4ED024B9DA
:1027B000BDF816301B01C7F8D430002C5CD0002CBB
:1027C00060D064B907F1100506AE0FCE0FC50FCE6D
:1027D0000FC50FCE0FC596E80F0085E80F00002C3F
:1027E0005DD0002C69D0002C6ED014B9032387F87B
:1027F0003231002C6FD01CB99DF80F3087F8E830CB
:10280000002C70D01CB99DF80F3087F8E030002CF8
:1028100071D014B9029BC7F8E430002C72D014B9FF
:10282000029BC7F8DC30204617B0F0BD3949B8E745
:10283000384601F0A6FB0446B5E7002100910423C9
:102840000A463846FFF7CCFE0446AEE70122FF21D8
:10285000384601F063FF04460DF116028421384624
:1028600001F0B4FF044364B20022FF21384601F0B6
:1028700055FF044364B29AE706A93846FFF771FB97
:1028800004469CE70DF115013846FFF750F9044660
:10289000002896D19DF8153087F8313191E70DF178
:1028A00015020121384601F05BFF0446002898D14B
:1028B0009DF8153087F8303193E7002211463846ED
:1028C000FFF753F904468EE7002202213846FFF74E
:1028D0004CF9044689E70DF10F0200213846FFF755
:1028E00040F9044687E70DF10F0201213846FFF752
:1028F00038F9044686E702AA0321384600F0A2FF11
:10290000044686E702AA0421384600F09BFF0446ED
:1029100085E700BF0002002010B582B00C460DF123
:102920000702132101F01CFF9DF8073003F0070296
:10293000226013F0180F01D102B010BD6FF0050036
:10294000FAE710B582B00C4690F8DA30042B0ED0BE
:102950000DF10702142101F003FF034680B99DF831
:10296000072012F0010F11D10022227008E0694601
:10297000FFF7D2FF0346009A042A04D000222270F7
:10298000184602B010BD01222270F9E70122227020
:10299000F6E708B500F07EFA08BD10B582B00C4627
:1029A0000DF10602282101F011FF024650B9BDF8D1
:1029B0000630C3F30B03B3F5006F06D2FA2103FB15
:1029C00001F32360104602B010BDA3F58053FA2135
:1029D00001FB03F32360F5E7F0B44FF0FF341C6014
:1029E0004FEAD20C02F007026646002708E01541C4
:1029F000EDB214460BE004EBC6041C60012701365F
:102A00008E420CD25FB9855D6645F0D00024072C5C
:102A1000F5D815F0010FEED16D080134F7E7F0BCE1
:102A2000704700008009044B53F820300BB9002098
:102A300070470120704700BFAC040020D30802F0AB
:102A400007028B4206D201219140C25C0A43C25464
:102A5000002070476FF03100704708B506230A4622
:102A6000B02101F021FE08BD08B506230A46B021B9
:102A700001F038FE08BD2DE9F04F87B001908B467C
:102A800000929846109EDDF844A0129FDDF84C900D
:102A9000059700254D4517D205AB3A4631460098BB
:102AA000FFF79AFF059CB4F1FF3F15D004EB0A0035
:102AB000FFF7B8FF584512D1224631464046FFF78E
:102AC000BDFF671C0135E5E70020149B1F6048B17E
:102AD00068B107B0BDE8F08F6FF03100F5E76FF037
:102AE0003100F2E741460198FFF7B7FFF0E703A98D
:102AF0000198FFF7B9FF0023B342EAD218F8031098
:102B000006AA1A4412F80C2C914201D10133F3E7C2
:102B10006FF03100DDE770B588B004460E4690F8DE
:102B20003051C022012101F0F9FD034630B15BB103
:102B30008BB1BBB1EBB1184608B070BD01A92046FE
:102B4000FFF731FD0346F2E70122FF21204601F0A5
:102B5000E5FD0346ECE73246B621204601F036FE9D
:102B60000346E6E70022FF21204601F0D7FD034699
:102B7000E0E72A460121204601F0D0FD0346002867
:102B8000D9D184F83051D6E7F0B589B005460F4663
:102B900016460122FF2101F0C1FD034620B153B1C9
:102BA00083B1B3B100231FE000224F21284601F07A
:102BB000B5FD0346F3E72C224E21284601F0AEFD79
:102BC0000346EDE70022FF21284601F0A7FD03465A
:102BD000E7E7B422B621284601F0A0FDE2E7EA18B3
:102BE000002182F824110133052BF8D936BB0024CB
:102BF00007AB049303970294B42301930623009335
:102C000005F5927305F5957231462846FFF733FFB7
:102C1000034630B9012285F8152185F8137185F82E
:102C20001461184609B0F0BD013404F1B400FFF797
:102C3000F9FE0028DCD12B2CF6D9D9E70024F4E7E3
:102C400010B5044641F00102002101F067FD034682
:102C500018B13BB163B1184610BD204600F081FAAF
:102C60000346F6E700212046FFF772FC0346F1E732
:102C700000221146204601F051FD0346EBE72DE905
:102C8000F04F83B005468846924699469DF83870C5
:102C90009DF83C604FF0000B8DF807B00122FF213A
:102CA00001F03CFD04465A465946284601F036FDDF
:102CB000044364B25A46FF21284601F02FFD044325
:102CC00064B2B8F1000F30D0F7B92EBB0122FF215A
:102CD000284601F023FD044364B201220021284666
:102CE00001F01CFD044364B20022FF21284601F0DC
:102CF00015FD20439DF8073003F0EF030D9A137084
:102D000040B203B0BDE8F08F0C9ACB21284601F009
:102D100027FD044364B2D8E70DF10702EE212846EF
:102D200001F01EFD044364B2D0E757B9002ECDD0A8
:102D30004B468022EE21284601F02CFD044364B26C
:102D4000C4E75246CB21284601F0E8FC044364B2B4
:102D5000ECE72DE9F04186B004460D461746002207
:102D60008DF817201E469BB190F830810122114644
:102D7000204601F0D3FC034668B10BB9012F10D0F7
:102D800000222A7003B9D6B9184606B0BDE8F08112
:102D90004FF00008EAE740212046FFF751FF0346C5
:102DA000EBE700220392012102910DF11703019339
:102DB000009513462046FFF762FF0346E2E74246CE
:102DC0000121204601F0AAFC03460028DCD184F84A
:102DD0003081D9E72DE9F04186B004460D4617460B
:102DE0001E469BB190F8308102220121204601F05D
:102DF00095FC034668B10BB9012F10D000222A7050
:102E000003B9D6B9184606B0BDE8F0814FF0000806
:102E1000EAE700212046FFF713FF0346EBE7012115
:102E200003910022029201950DF1170300931346BE
:102E30002046FFF724FF0346E2E7424601212046F1
:102E400001F06CFC03460028DCD184F83081D9E71E
:102E5000F8B5044617461D4690F8306100232A460F
:102E6000FFF777FF034610B14BB11846F8BD0023BA
:102E70002A4639462046FFF7ADFF0346F4E73246BF
:102E80000121204601F04AFC03460028EDD184F8D8
:102E90003061EAE72DE9F04F95B004460C910D92B0
:102EA0000023119310938DF83D308DF83C30B0F82D
:102EB0003CA104E0E218002182F824110133052B23
:102EC000F8D90122FF21204601F028FC0546002800
:102ED00032D0002D37D0002D3CD0002D41D0002D18
:102EE00046D0002D4BD0002D52D0002D65D00023B0
:102EF0001F460A9398460893002D40F01A81BDF8AA
:102F00003E30534580F015819DF820200A92D4F878
:102F100024011290B4F82821ADF84C20CDF824A05B
:102F2000A3EB0A03002BB8BF5B420B934FF00308DF
:102F30004FF0000B0797C1E000224F21204601F01F
:102F4000EDFB0546C5E72C224E21204601F0E6FBAD
:102F50000546C0E70022FF21204601F0DFFB0546C1
:102F6000BBE7B422B621204601F0D8FB0546B6E700
:102F700000228021204601F0D1FB0546B1E7002365
:102F80000FAA0DF13D012046FFF762FF0546AAE7B3
:102F9000002114AB43F80C1D049303230393029107
:102FA000B42301930623009304F5927304F59572FC
:102FB0002046FFF760FD054697E7119F0DF13E01A2
:102FC0002046FFF7A8FD0546002845D1BDF83E3054
:102FD00053450CD800230A93984608938CE7E218CF
:102FE000002182F824110133052BF8D902E00023D7
:102FF000FAE7013707F1B400FFF714FD08B92B2FEA
:10300000F7D911AB0493032303930297B4230193DD
:103010000623009304F5927304F59572012120466E
:10302000FFF729FD054628B100230A93984601239E
:10303000089361E7119F0DF13E012046FFF76BFDFC
:10304000054670B9BDF83E30534510D800230A93A9
:103050009846012308934FE700230A939846089364
:103060004AE700230A9398460123089344E7012383
:103070000A934FF0030808933EE7731C07934946F1
:103080002046FFF7EAFC05463AE012A92046FFF782
:10309000E4FC05461298C4F82401BDF84C30A4F8AD
:1030A000283147464FF0010B07E0D4F82401129075
:1030B000B4F82821ADF84C200B93B846BBF1000FB3
:1030C00037D110AB079A062104F59570FFF784FC01
:1030D000109EB6F1FF3F2AD0079606F1B400FFF725
:1030E000A1FC089B984224D108F1010704F59279CC
:1030F000324606214846FFF7A1FC05460028BCD011
:103100005DBB0DF13E012046FFF705FD054630BBD6
:10311000BDF83E20099BD31A002BB8BF5B42524535
:10312000C3D90B9A9A42B0D34FF0010BC5E76FF0A9
:10313000310575B90C9AC2F800800D990A9808708B
:10314000012384F81531137884F813310B7884F84F
:103150001431284615B0BDE8F08FB846E9E7B84607
:10316000E7E730B583B0054600248DF807400DF140
:1031700007012846FFF7E5FB024668B99DF80730CE
:10318000012B09D00134B4F5FA6F03D2284601F0BF
:1031900067FBECE76FF00602104603B030BD01306C
:1031A000C0B2400000F0FE00704740080138C0B2D5
:1031B00070474FF0804300E09B088342FCD8002218
:1031C00001E052089B0833B1D1188142F9D8401A66
:1031D00003EB5202F6E71046704770B582B0064620
:1031E0000022832101F09AFA0546A0B900240DF1CE
:1031F00007028321304601F0B3FA05469DF80730F7
:1032000023B918B90134B4F5FA6FF0D3B4F5FA6FF5
:1032100001D36FF0060501228321304601F07EFACA
:10322000284340B202B070BD2DE9F04F8DB0054685
:103230000F4600230893079390F8F060072E19D1EA
:103240004FF00008C246C146C3464446002C40F039
:103250009882072E00F0958217F0010F00F06B8224
:1032600016F0010F40F0678285F813B185F81491CC
:1032700000235EE20122802101F050FA044601227F
:10328000FF21284601F04AFA044364B200221146A5
:10329000284601F043FA044364B20622FF2128467F
:1032A00001F03CFA044364B20DF12F028321284659
:1032B00001F056FA044364B29DF82F2042F0040254
:1032C0008321284601F02AFA044364B20722FF2131
:1032D000284601F023FA044364B2012281212846E2
:1032E00001F01CFA044364B2284601F0B9FA044321
:1032F00064B201228021284601F010FA044364B22E
:1033000017F0010F5BD016F0010F03D04FF000094A
:10331000CB4657E06B229421284601F0FFF9044385
:1033200064B22846FFF759FF044364B20AAA902109
:10333000284601F06DFA044364B20A9BC3F3062BDE
:10334000C3F3C03924229421284601F0E7F904434D
:1033500064B22846FFF741FF044364B20AAA9021F1
:10336000284601F055FA044364B20A9B1A0E8DF800
:103370000020C3F307428DF80120C3F307228DF824
:1033800002208DF8033025229421284601F0C6F949
:10339000044364B22846FFF720FF044364B20AAA3C
:1033A0009021284601F034FA044364B20A9B1A0EB5
:1033B0008DF80420C3F307438DF8053002E04FF089
:1033C0000009CB4617F0020F02D016F0020F0BD007
:1033D00017F0040F00F0658116F0040F00F0DC8098
:1033E0004FF00008C2465FE102229421284601F016
:1033F00095F9044364B22846FFF7EFFE044364B234
:103400000DF127029021284601F0AAF9044364B285
:103410007B229421284601F081F9044364B22846B6
:10342000FFF7DBFE044364B20DF12602902128462B
:1034300001F096F9044364B277229421284601F002
:103440006DF9044364B22846FFF7C7FE044364B233
:103450000AAA9021284601F0DBF9044364B20A9BD2
:103460005A0E8DF80820C3F386428DF80920C3F365
:10347000C6228DF80A20C3F306128DF80B20DB005C
:1034800003F078038DF82F3078229421284601F03C
:1034900045F9044364B22846FFF79FFE044364B233
:1034A0000AAA9021284601F0B3F9044364B20A9BAA
:1034B0009DF82F2002EB53728DF80C20C3F3865237
:1034C0008DF80D20C3F3C6328DF80E20C3F306220B
:1034D0008DF80F20C3F346028DF810209B0103F0F6
:1034E00040038DF82F3079229421284601F016F9F7
:1034F000044364B22846FFF770FE044364B20AAA8C
:103500009021284601F084F9044364B20A9B9DF897
:103510002F2002EB93628DF81120C3F3C6428DF881
:103520001220C3F306328DF81320C3F346128DF830
:1035300014209B0003F07C038DF82F307A22942115
:10354000284601F0EBF8044364B22846FFF745FE35
:10355000044364B20AAA9021284601F059F90443B1
:1035600064B20A9B9DF82F2002EB93728DF8152010
:10357000C3F3C6528DF81620C3F306428DF8172008
:10358000C3F346228DF81820C3F386038DF8193053
:1035900000238DF81A301BE77B229421284601F086
:1035A000BDF8044364B22846FFF717FE044364B233
:1035B00008AA9021284601F02BF9044364B27C222A
:1035C0009421284601F0AAF8044364B22846FFF784
:1035D00004FE044364B207AA9021284601F018F9BA
:1035E000044364B273229421284601F097F80443FF
:1035F00064B22846FFF7F1FD044364B20AAA9021A1
:10360000284601F005F9044364B20A9B4FEA0328F7
:103610001FFA88F874229421284601F07FF80443A9
:1036200064B22846FFF7D9FD044364B20AAA902188
:10363000284601F0EDF8044364B29DF82B3043EACC
:10364000080875229421284601F068F8044364B202
:103650002846FFF7C2FD044364B20AAA9021284617
:1036600001F0D6F8044364B20A9B4FEA032A1FFA1A
:103670008AFA76229421284601F050F8044364B275
:103680002846FFF7AAFD044364B20AAA90212846FF
:1036900001F0BEF8044364B29DF82B3043EA0A0AF5
:1036A00002E04FF00008C24600228121284601F0C6
:1036B00035F8044364B20622FF21284601F02EF8B3
:1036C000044364B20DF12F028321284601F048F82B
:1036D000044364B29DF82F2002F0FB0283212846A8
:1036E00001F01CF8044364B20122FF21284601F0D6
:1036F00015F8044364B201220021284601F00EF8B7
:10370000044364B20022FF21284601F007F8044375
:1037100064B200228021284601F000F8044364B21C
:1037200094E50CAA1A4412F8301CEA1882F82A11FF
:103730000133052BF5DD17F0020F02D016F0020F52
:1037400023D017F0040F19D016F0040F16D1089BE0
:10375000C5F81831079BC5F81C314FEA4823C5F856
:103760002031BAF1000F1ED0AAF5C85A4FF47A736F
:1037700003FB0AF31B095B421BB2EB603E4385F877
:10378000F06020460DB0BDE8F08F9DF8273085F839
:10379000F1309DF8263085F8F23002A905F1F300EA
:1037A00004F0DAFECDE70023E7E701EBC1010B02ED
:1037B00040F2776000FB03F0704770B101380023DE
:1037C00002E0400801339BB230F0FF02F9D11B0246
:1037D0009BB253FA80F080B2704700207047C3B2AA
:1037E000000A03FA00F001307047000010B50C46E3
:1037F0001146FFF7DAFF00F5FA70064BA3FB002332
:103800009809DB094FF47A7202FB0433B3FBF0F042
:1038100010BD00BFD34D621010B50C461146FFF726
:10382000C4FF00F5FA70064BA3FB0020800900FBE3
:1038300004F000F5FA70A3FB0030800910BD00BF52
:10384000D34D6210F0B585B00446164600238DF8BE
:103850000E30ADF80C30022909D9032921D00429F2
:1038600042D0002005463060284605B0F0BD0DF17D
:103870000F021946FEF775F9054650B19DF80E0086
:10388000FFF7ADFF9DF80F2081B22046FFF7C4FF80
:10389000E9E70DF10E024621204600F061FF0546E2
:1038A000ECE70DF10F020021FEF75BF9054608B1C8
:1038B0000020D8E70DF10F0200212046FEF751F954
:1038C000054650B1BDF80C00FFF789FF9DF80F20A9
:1038D00081B22046FFF7A0FFC5E703AA5121204689
:1038E00000F074FF0546EDE701A9FEF7BFF99DF86A
:1038F0000730B3B10DF10F0200212046FEF731F978
:10390000054610B10027A5B90CE003AA51212046B5
:1039100000F05CFF0546BDF80C00FFF760FF87B2C2
:10392000F1E700270DF10F0201212046FEF719F9FA
:10393000054645B10021C91B9DF80F2089B22046DC
:10394000FFF76AFF8FE70DF10A027121204600F0B0
:103950003DFF0546BDF80A00FFF741FF81B2EAE7E7
:10396000F0B585B004461646022917D9032935D08B
:1039700004297ED101A9FEF779F99DF80730002BC3
:1039800057D00DF10F0200212046FEF7EAF8054658
:10399000002842D00027002D53D14BE00DF10F023B
:1039A0000021FEF7DEF8054670B99DF80F2031467C
:1039B0002046FFF71BFF83B2B3F5807F0CD8C7B258
:1039C000013FFFB2A4F8D870E5BB3A464621204635
:1039D00000F0A4FE054635E0FF27F3E70DF10F02E6
:1039E0000021FEF7BEF805469DF80F20314620461F
:1039F000FFF7FCFE80B2FFF7E0FEADF80C00A4F884
:103A0000D8001DB1F5B9C4F8E4601BE002465121AD
:103A1000204600F093FE0546F4E703AA5121204614
:103A200000F0D4FE0546BDF80C00FFF7D8FE87B2C3
:103A3000B1E700270DF10F0201212046FEF791F8B2
:103A4000054615B1284605B0F0BD9DF80F2031465A
:103A50002046FFF7CBFE3844FFF7AFFE0246712148
:103A6000204600F06BFE05460028EBD1C4F8DC6070
:103A7000E8E76FF00305E5E7F0B585B000238DF8C2
:103A8000033012F0010F40F0788129B90B2A40F27F
:103A90007781122A00F2778101290DD015460E4652
:103AA0000746E9BB0C2A0FD00E2A18D0102A21D0C5
:103AB000122A2AD0002336E0072A40F267810E2A14
:103AC000ECD96FF0030311E11822572100F026FE14
:103AD00008225621384600F021FE034623E030221A
:103AE000572100F01BFE08225621384600F016FE32
:103AF000034618E04022572100F010FE082256210C
:103B0000384600F00BFE03460DE05022572100F02E
:103B100005FE08225621384600F000FE034602E06A
:103B2000012910D00023002B40F0DC802846FFF74D
:103B30003CFB0446002E00F0C980012E00F0F58009
:103B40006FF00303D0E0082A08D00A2A34D00C2AE8
:103B500060D00E2A00F08C800023E4E71022482178
:103B600000F0DCFD08224721384600F0D7FD04466E
:103B700002223221384600F0D1FD044364B20C2207
:103B80003021384600F0CAFD044364B20122FF210F
:103B9000384600F0C3FD044364B230221146384673
:103BA00000F0BCFD044364B20022FF21384600F05F
:103BB000B5FD204343B2B6E72822482100F0AEFD10
:103BC00008224721384600F0A9FD0446032232218D
:103BD000384600F0A3FD044364B209223021384680
:103BE00000F09CFD044364B20122FF21384600F03E
:103BF00095FD044364B220223021384600F08EFD4A
:103C0000044364B20022FF21384600F087FD2043C0
:103C100043B288E73822482100F080FD082247217E
:103C2000384600F07BFD044603223221384600F07E
:103C300075FD044364B208223021384600F06EFD61
:103C4000044364B20122FF21384600F067FD0443BB
:103C500064B220223021384600F060FD044364B293
:103C60000022FF21384600F059FD204343B25AE7B5
:103C70004822114600F052FD08224721384600F044
:103C80004DFD044603223221384600F047FD04432F
:103C900064B207223021384600F040FD044364B28C
:103CA0000122FF21384600F039FD044364B220228E
:103CB0003021384600F032FD044364B20022FF2177
:103CC000384600F02BFD204343B22CE702AA032123
:103CD0003846FFF7B7FD034658B18BB1BBB1EBB126
:103CE00087F8E850002B39D0002B3DD0184605B09E
:103CF000F0BD01AA02213846FFF7A4FD0346ECE718
:103D000022465021384600F009FD0346E6E7029AB4
:103D100003213846FFF724FE0346E0E7019A02211B
:103D20003846FFF71DFE0346DAE703AA04213846AA
:103D3000FFF788FD034618B14BB187F8E050D1E793
:103D400022467021384600F0E9FC0346F4E7039A66
:103D500004213846FFF704FE0346EEE7796938464A
:103D6000FDF7F3FE0346BFE7012300220DF1030137
:103D70003846FFF72FF80346B8E76FF00303B5E7BF
:103D80006FF00303B2E76FF00303AFE76FF00303D5
:103D9000ACE730B583B0154621B1012911D06FF0E1
:103DA00003040BE00DF10702502100F0D9FC04469A
:103DB00024B99DF80700FFF7F2F92870204603B0F8
:103DC00030BD0DF10702702100F0CAFC0446EFE798
:103DD00070B584B04FF4FA6301930023009344F666
:103DE0001F63994257D90D460446A1F6363602A9FB
:103DF000FDF73CFF034610BB9DF808202AB99DF84B
:103E0000092012B99DF80A20CAB101AA0221204650
:103E1000FFF718FD0346D0B99DF808202AB1019A92
:103E200002F24E22964239D9B61A9DF80A208AB17A
:103E3000019A02F2B2225200964232D9B61A33B92E
:103E40009DF80B208AB913B99DF80C20D2B91846F9
:103E500004B070BD9DF80920002AF0D0019A02F547
:103E60002572964220D9B61AE9E76A460321204610
:103E7000FFF7E8FC0346009A02F52572964216D930
:103E8000B61AE0E7A6F2262204212046FFF768FDD5
:103E900003466561DBE76FF00303D8E76FF00303C8
:103EA000D5E76FF00303D2E76FF00303CFE76FF0BE
:103EB0000303CCE730B587B005460C464FF4FA63F0
:103EC00002930023019340F636330B6004A9FDF7FB
:103ED000CDFE034668BB9DF810202AB99DF811203D
:103EE00012B99DF81220CAB102AA02212846FFF792
:103EF000A9FC034690B99DF810202AB1029A02F25B
:103F00004E2122680A4422609DF81220A2B1029A32
:103F100002F2B221226802EB4102226013B99DF83D
:103F20001320A2B913B99DF81420EAB90BB922687D
:103F30006A61184607B030BD9DF81120002AEDD007
:103F4000029A02F5257122680A442260E6E701AA76
:103F500003212846FFF776FC0346019A02F52571F6
:103F600022680A442260DDE703AA04212846FFF7FD
:103F700069FC0346039A02F2262122680A44226061
:103F8000D4E7F0B583B006460D46002420463CE059
:103F9000AB5CA21C032B44D8DFE803F0020B141D1A
:103FA000A95CE21CAB5C043403EB0123A6F83431BA
:103FB0002BE0A95CE21CAB5C043403EB0123A6F804
:103FC000363122E0A95CE21CAB5C043403EB012334
:103FD000A6F8383119E0A95CE21CAB5C043403EBB1
:103FE0000123A6F83C3110E0A95C0234002206E06F
:103FF0002F5D02A8104400F8047C01340132934282
:10400000F6DC01AA304600F04FFB2B5D6BB160B9C6
:10401000621CFF2BBCD0042BE6D914466FF00300C2
:10402000F3E714466FF00300EFE703B0F0BD70B59F
:1040300082B006460D461446002313600DF10701B9
:10404000FDF774FE024648B99DF8073033B1336A74
:10405000A98A03FB01F380331B0A2360104602B0D8
:1040600070BD10B582B01446CB68136001AAFFF78B
:10407000DEFF024618B9236801990B4423601046FD
:1040800002B010BD2DE9F041079DDDF820C0099F69
:10409000B0F85441D0F8586106FB04F68036360A71
:1040A00006FB04F610465AB1540804EB8124B4FB15
:1040B000F2F000EB400000FB00F000F50044200CA3
:1040C000069A02FB03F404F50044240C04FB04F2FA
:1040D00005F500431B0C03332449A1FB03139B0884
:1040E000C3EBC303B3F5803F3ED203351F4CA4FBA3
:1040F0000535AD08C5EBC50505F500452C0C04FBE1
:1041000004F4144404EB5C04B4FBFCF4A4037F3417
:104110006408174BA3FB0434A40904FB00F404F562
:10412000FA74144DA5FB0434A409240104F5FA74AF
:10413000A5FB0435AD0906F120008009FFF739F829
:10414000804635B10B4BA3FB043406EBD416B6FB0B
:10415000F5F52846FFF72DF8C7F80080804500D90F
:1041600038600020BDE8F081034CCAE7ABAAAAAAD8
:1041700009040281D34D62100000F0FF2DE9F04FD9
:104180008FB00646894606920793036A0D930B6922
:104190004FF47A7404FB03F30893CB6809930CAAD9
:1041A000FFF75FFF0DAA49463046FFF740FF824602
:1041B0000C9F04FB07F505F500452B0C05930D9BA3
:1041C00004FB03F4B4F5481F01D94FF44814BAF1C5
:1041D000000F36D1D6F8DC300A9396F8E0B05A4694
:1041E00019463046FFF702FB8046D6F8E4300B93C1
:1041F00096F8E82019463046FFF7F8FABBF1080FA9
:1042000000F0BE800323804403FB08F3DB0203F5C8
:10421000FA736E4AA2FB03139B0940F2776808FB0E
:1042200003F808F5FA78A2FB08384FEA98188037A7
:104230003F0A08FB07FB0BF1800B4FEA1B2B3F02E9
:104240000C97BAF1000F40F0BD80059B002B00F0E9
:104250009980BBF1000F01D14FF0010B089B1F0C9F
:104260003F04059BB7FBF3F7594B9F4200D91F460C
:104270004FF4167303FB07F70BEB4B039800FEF7A5
:1042800098FF4FEA400AB9F80830524A02FB03F39C
:104290002D0C2D04A5EB440404F5FA744B4AA2FB43
:1042A0000414A40905F5FA75A2FB0525AD0924023D
:1042B000B4FBF5F52D0299F81820002A6BD1464C75
:1042C000A4FB0334A40AC5F5803504FB05F404F50A
:1042D0000044240C04F58034640804FB04F4A40BAB
:1042E0004FF4487000FB04F000F50040000C07F5A7
:1042F00000431B0C03FB03F300FB0030FEF759FFE8
:1043000000043230354BA3FB00304009B0FBFAFA11
:1043100040F6B53241F2883302FB0A3A304BA3FB38
:104320000A3A4FEA5A3ABAF5704F01D94FF4704A37
:104330000A9B0B9A134403F5FA73244DA5FB032340
:104340009809DB0903F5C813B3FBF0F0FEF731FF62
:10435000000200F5FA70A5FB0030800900FB00F0B8
:104360000AFB0A00FEF725FF4FF47A7303FB00F007
:10437000BBF1000F12D01B4B984210D919480EE028
:10438000022340E7174B069A1360C6F8403100231A
:10439000079A136016E04FF48034A1E71148069B9A
:1043A0001860C6F84001079B0393CDF80880019779
:1043B0004FF4487300932346099A0C993046FFF74F
:1043C00061FE824650460FB0BDE8F08FD34D6210BB
:1043D000666666009A990600517BC6371F85EB51C9
:1043E0005917B7D1AE878F022DE9F04F89B0044637
:1043F00091469B4600238DF81F308DF81E308DF8B6
:104400001D308DF81C30ADF80A300193C1F3C3059F
:104410008DB1052D4BD0072D4CD00C2D4DD00D2D31
:104420004ED00E2D4FD00F2D02D04FF0000A04E0D9
:104430004FF0010A01E04FF0010A0DF11F020021C7
:104440002046FDF7DCFC03469DF81F80B8F1000F05
:1044500003D000283AD04FF00008002B59D09DF827
:104460001D6016B1002B5CD00026002B00F0878069
:104470009DF81C70002F00F08D80002B40F089808B
:10448000BBF1000F00F082804FEA0929B9FBFBFB6A
:1044900003AA03212046FDF7F2FC0346039A002AF3
:1044A00000F084805A4500F28380002772E04FF0CC
:1044B000010AC2E74FF0010ABFE74FF0010ABCE76B
:1044C0004FF0010AB9E74FF0010AB6E701AB06AABF
:1044D00012992046FFF752FE034610B9019A12992D
:1044E0004A8113B14FF00008B7E705AA0021204622
:1044F000FDF7C5FC0346059A2AB106998A4205D301
:104500004FF00008A9E74FF00008A6E74FF00108B8
:10451000A3E70DF11D0202212046FDF770FC0346C2
:104520009DE704AA02212046FDF7A9FC034660B1DD
:1045300093B1CBB1BDF80A205202C4F848210499C6
:10454000C9B1914219D300268FE70122FF212046ED
:1045500000F0E4F80346EBE70DF10A02B62120462D
:1045600000F034F90346E4E70022FF21204600F082
:10457000D5F80346DEE7002677E7012675E707AAA8
:1045800003212046FDF73BFC034671E74FF0000B8B
:104590007EE700278BB9BAF1000F0BD16B1EDBB29F
:1045A000022B26D80523139A137006E00027F1E7A3
:1045B0000127EFE7FF23139A1370139B1B780BB9A6
:1045C000129A53810DF11E0201212046FDF717FCBE
:1045D0000346002841D19DF81F200AB94FF0010879
:1045E00084F82E80042D29D09DF81E20CABB0122FC
:1045F00025E0062D12D0092D10D0082D12D00A2D3D
:1046000010D0012E0ED0042D10D0012F0ED0B8F1F5
:10461000010F0FD00023139A1370CEE70423139ACF
:104620001370CAE70323139A1370C6E70223139A81
:104630001370C2E70123139A1370BEE7012284F8B6
:104640002F209DF81D2002B9012684F830609DF8C6
:104650001C2002B9012784F83170184609B0BDE862
:10466000F08F0022EBE710B582B002F10A0390F858
:104670006041D0F85C01009393B20A46214601F0F4
:1046800049FF02B010BD10B582B002F10A0390F8E4
:104690006041D0F85C01009393B20A4644F00101F6
:1046A00001F0FAFF02B010BD3F2B12D8F8B51E463C
:1046B000154604460A4F384600F8011B1A4629469B
:1046C00003F0DAFA721C39462046FFF7CCFF18B91E
:1046D000F8BD6FF0030070476FF01300F8E700BFFC
:1046E000F408002070B582B0044615461E4602ABA1
:1046F00003F8011D01221946FFF7B5FF38B932460C
:1047000029462046FFF7BFFF20B902B070BD6FF009
:104710001300FAE76FF01300F7E7000008B5064B47
:1047200019705A7002221946FFF79DFF00B908BDA3
:104730006FF01300FBE700BFF408002008B5074B3B
:104740001970110A59709A7003221946FFF78BFFEE
:1047500000B908BD6FF01300FBE700BFF4080020AC
:1047600030B583B00446154602AB03F8011D0122A3
:104770001946FFF778FF38B9012229462046FFF78E
:1047800082FF20B903B030BD6FF01300FAE76FF07D
:104790001300F7E7F0B583B006460F4615461C46F2
:1047A0000DF10702FFF7DCFF034610B1184603B016
:1047B000F0BD9DF807202A4022438DF80720394696
:1047C0003046FFF7ABFF0346F0E7000030B583B09B
:1047D0000446154602AB03F8011D01221946FFF7F6
:1047E00042FF68B9022209492046FFF74CFF50B941
:1047F000064A1178537803EB01232B8003B030BDB8
:104800006FF01300FAE76FF01300F7E7F4080020E9
:1048100030B583B00546144602AB03F8011D0122F2
:104820001946FFF720FF98B904220C492846FFF7E4
:104830002AFF80B9094A117853781B0403EB0163FE
:10484000917803EB0123D2781344236003B030BD89
:104850006FF01300FAE76FF01300F7E7F408002099
:1048600008B5022002F010FD002008BD10B400249D
:1048700008E072B60B5D4360036813F0800FFBD055
:1048800062B60134A242F4DC00205DF8044B7047AC
:1048900008B54B78012B00D008BD8B78FF2BFBD1DE
:1048A000FDF73AF8F8E7000010B58EB0344B5A6CBB
:1048B00042F010025A645B6C03F010030093009BFB
:1048C0004FF4C06301930223029303230393002454
:1048D0000494012305930723069301A9294803F0B3
:1048E00021F8294B1A6822F0606242F000621A60D7
:1048F0001A6822F0C0021A601A6822F440321A6064
:104900001A6822F4907242F480721A601A6822F4D3
:1049100000721A601A6842F480621A601A6822F4FF
:10492000C0521A601A6822F4C0421A605A6922F012
:1049300004025A61154BDB68154B83F8254320228E
:104940005A60144B0793089409940A940C230B9310
:104950000C940D9404F1804404F5883407A9204692
:1049600002F0DEFE236923F490432361636923F0A0
:104970002A036361E36843F40053E3600EB010BDA3
:1049800000380240000002404064024000ED00E0B8
:1049900000E100E040420F0030B58FB0324B1A6C9E
:1049A00042F400321A641B6C03F400330093009B42
:1049B0000C250195022302930323039300240494FE
:1049C000012305930723069301A9284802F0AAFFB3
:1049D000274B1A6822F0606242F000621A601A687F
:1049E00022F0C0021A601A6822F440321A601A6873
:1049F00022F4907242F480721A601A6822F40072F3
:104A00001A601A6842F480621A601A6822F4C0526E
:104A10001A601A6822F4C0421A605A6922F004022D
:104A20005A61144BDB68144B83F8264340225A60CA
:104A3000124B0793089409940A940B950C940D94C7
:104A40000F4C07A9204602F06BFE236923F4904324
:104A50002361636923F02A036361E36843F400532D
:104A6000E3600FB030BD00BF0038024000000240DC
:104A70008860024000ED00E000E100E040420F00ED
:104A80000044004010B58EB0334B5A6C42F0200207
:104A90005A645B6C03F020030093009B4FF4C053F7
:104AA000019302230293032303930024049401231C
:104AB00005930823069301A9284802F033FF284BE9
:104AC0001A6822F0606242F020621A601A6822F0CE
:104AD000C0021A601A6822F440321A601A6822F47E
:104AE000907242F480721A601A6822F400721A609E
:104AF0001A6842F480621A601A6822F4C0521A607E
:104B00001A6822F4C0421A605A6922F004025A61FB
:104B1000144BDB68144B83F8474380229A60134B95
:104B20000793089409940A940C230B930C940D9406
:104B30000F4C07A9204602F0F3FD236923F49043AC
:104B40002361636923F02A036361E36843F400533C
:104B5000E3600EB010BD00BF00380240000002400C
:104B60002864024000ED00E000E100E040420F0058
:104B70000014014008B5FCF76FFFFCF7DFFE08BD2D
:104B8000FEE7000000B595B0002201922B4B196C96
:104B900041F0805119641B6C03F080530193019B19
:104BA000029227490B6823F4404343F400430B600F
:104BB0000B6803F440430293029B022108910123F6
:104BC0000B9310230C930E910F9210934FF4A87334
:104BD0001193042312930723139308A800F024FCD5
:104BE00008BB0F23039302210491002305934FF484
:104BF00080520692079303A800F036FEC0B900F079
:104C0000DFFE104BA3FB0030800900F059FA0420AE
:104C100000F06CFA002211464FF0FF3000F0FEF970
:104C200015B05DF804FB4FF487710748FFF7A8FF44
:104C30004FF48E710448FFF7A3FF00BF0038024015
:104C400000700040D34D621064A00008F0B5F3B0CE
:104C500002F0EEFAFFF796FF00F0C8FE02F02EFD1C
:104C600000F0F8F800F018F9FFF71EFEFFF794FEC9
:104C7000FFF708FF02F004FF02F03CFF674E684DAB
:104C8000684C694F33462A4621463846FCF71AF8E5
:104C90000837664BDF605A68120C120442F48072C7
:104CA0005A60634A9A601A6842F008021A601A68E9
:104CB00042F010021A601A6842F001021A60636939
:104CC00043F040036361E36843F01003E360E3688B
:104CD00043F40053E360A4F54C44564F33462A4650
:104CE00021463846FBF7EEFF0837534BDF605A6822
:104CF000120C120442F480725A60504A9A601A6888
:104D000042F008021A601A6842F010021A601A682B
:104D100042F001021A60636943F040036361E36893
:104D200043F01003E360E36843F40053E36004F5E9
:104D30005044434F33462A4621463846FBF7C2FFCC
:104D40000837404BDF605A68120C120442F480723C
:104D50005A603D4A9A601A6842F008021A601A685E
:104D600042F010021A601A6842F001021A60636988
:104D700043F040036361E36843F01003E360E368DA
:104D800043F40053E360FCF7E5FDFCF793FDFCF70B
:104D900041FE4FF4FA6002F077FAFCF783FE5222EC
:104DA0002A490EA8FCF7D8FC0EA8FCF7E1FCB0F1EC
:104DB000FF3F25D052210EA8FCF7F2FCB0F1FF3FD7
:104DC0001ED00EA8FCF7FBFCB0F1FF3F18D04FF44B
:104DD00080430A934FF490130B9348F2E8030C932B
:104DE0000E238DF834300A238DF8353007A90EA82C
:104DF000FCF7F9FC04E000222021154800F071FFC7
:104E000069460EA8FCF72CFD9DF81830002BF2D156
:104E1000012220210E4800F064FFF1E77D720008B6
:104E20006D48000800100140500D00204064024011
:104E3000041001406C1100208860024004440040CE
:104E40003409002028640240041401408815002021
:104E50000000024008B50C480C4B03600C4B43604B
:104E600000238360C3604FF4804202614361836129
:104E7000C361036201F0C0FA00B908BD43210548CF
:104E8000FFF77EFEF9E700BFDC150020005400406C
:104E9000A086010070A0000808B50C480C4B036008
:104EA0000C4B436000238360C3604FF48042026177
:104EB00043618361C361036201F09EFA00B908BDDA
:104EC00056210548FFF75CFEF9E700BF8815002072
:104ED000005C0040801A060070A0000870B588B021
:104EE0000368284A934204D0274A93421CD008B052
:104EF00070BDC0230393122304930123059303235E
:104F000006930423079303A9204800F011FE002311
:104F100001931F4B1A6C42F400121A641B6C03F4C9
:104F200000130193019BE2E74FF480730393122671
:104F3000049601250595032406940423079303A9E9
:104F4000144800F0F5FD102303930496059506948C
:104F50000923079303A90D4800F0EAFD00210291FF
:104F60000B4B1A6C42F400021A641B6C03F400032E
:104F70000293029B0A46482000F050F8482000F0B7
:104F800081F8B4E700540040005C00400004024097
:104F9000003802400000024008B5032000F02CF861
:104FA000002211466FF00B0000F038F80022114685
:104FB0006FF00A0000F032F8002211466FF009008D
:104FC00000F02CF8002211466FF0040000F026F8E3
:104FD000002211466FF0030000F020F80022114675
:104FE0006FF0010000F01AF8002211464FF0FF3078
:104FF00000F014F808BD0000074AD36823F4E0630A
:105000001B041B0C000200F4E060184340F0BF607A
:1050100040F40030D060704700ED00E030B4174B32
:10502000DB68C3F30223C3F10704042C28BF042464
:105030001D1D062D18D9033B4FF0FF3505FA04F46A
:1050400021EA0401994005FA03F322EA0303194314
:1050500000280BDB0901C9B200F1604000F5614096
:1050600080F8001330BC70470023E5E700F00F0024
:105070000901C9B2024B1954F4E700BF00ED00E08A
:1050800014ED00E000F01F02400901239340024AA2
:1050900042F82030704700BF00E100E0BFF34F8FBF
:1050A0000549CA6802F4E062044B1343CB60BFF3C6
:1050B0004F8F00BFFDE700BF00ED00E00400FA05E0
:1050C0000138B0F1807F0AD2064B5860064AF021C1
:1050D00082F823100020986007221A607047012090
:1050E000704700BF10E000E000ED00E0042805D0AC
:1050F000054A136823F0040313607047024A1368DB
:1051000043F004031360704710E000E0704708B5F7
:10511000FFF7FCFF08BD08B502F0A4F8FFF7F7FFA2
:1051200008BD000038B51B4B5B6813F4006F05D158
:10513000184B5B6813F4806F14D138BD154B4FF4D6
:105140000062DA60144CB4F81434C3F5807204F1D0
:10515000080192B219442046FCF700F80023A4F895
:105160001434EAE70B4B4FF48062DA6088335C68F2
:10517000A4B2C4F58074A4B2074DB5F81434E21A91
:1051800005F1080192B219442846FBF7E7FFA5F89C
:105190001444D2E7006002406C11002008B50248B8
:1051A00002F06BF908BD00BF3416002008B50248B4
:1051B00002F063F908BD00BF70160020134B1B6896
:1051C00013F0100F20D010B582B0104B1A68019266
:1051D000019A5B680193019B0D4B5C68A4B2C4F516
:1051E0008074A4B20B4BB3F81414621A92B222B9B1
:1051F000084BA3F8144402B010BD03F108000144A9
:105200000838FBF7ABFFF3E7704700BF0010014021
:1052100040640240500D0020134B1B6813F0100F28
:1052200020D010B582B0104B1A680192019A5B68C9
:105230000193019B0D4B5C68A4B2C4F58074A4B2C9
:105240000B4BB3F81414621A92B222B9084BA3F8AC
:10525000144402B010BD03F1080001440838FBF704
:105260007DFFF3E7704700BF0044004088600240C4
:105270006C11002038B51B4B1B6813F4006F05D16F
:10528000184B1B6813F4806F14D138BD154B4FF4C5
:1052900000629A60144CB4F81434C3F5807204F1BF
:1052A000080192B219442046FBF758FF0023A4F8E6
:1052B0001434EAE70B4B4FF480629A6028335C6841
:1052C000A4B2C4F58074A4B2074DB5F81434E21A40
:1052D00005F1080192B219442846FBF73FFFA5F8F3
:1052E0001444D2E7006402403409002038B51B4B57
:1052F0001B6813F4001F05D1184B1B6813F4801FA3
:1053000014D138BD154B4FF400129A60144CB4F808
:105310001434C3F5807204F1080192B21944204696
:10532000FBF71CFF0023A4F81434EAE70B4B4FF4FF
:1053300080129A6040335C68A4B2C4F58074A4B251
:10534000074DB5F81434E21A05F1080192B2194478
:105350002846FBF703FFA5F81444D2E70064024097
:10536000500D0020134B1B6813F0100F20D010B508
:1053700082B0104B1A680192019A5B680193019BFD
:105380000D4B5C68A4B2C4F58074A4B20B4BB3F8A7
:105390001414621A92B222B9084BA3F8144402B052
:1053A00010BD03F1080001440838FBF7D7FEF3E70E
:1053B000704700BF001401402864024034090020F7
:1053C00008B5024801F02AFE08BD00BF881500207C
:1053D00090F83830012B22D030B4012280F83820E8
:1053E000022380F839300468636823F07003636037
:1053F000046863680D682B4363600468A36823F046
:105400008003A3600468A36849680B43A36080F825
:105410003920002380F83830184630BC704702200D
:105420007047704770470000002800F0BB8170B5DE
:1054300082B00446036813F0010F3BD0A74B9B6872
:1054400003F00C03042B2CD0A44B9B6803F00C033B
:10545000082B21D06368B3F5803F4FD0B3F5A02F60
:1054600052D09E4B1A6822F480321A601A6822F4D5
:1054700080221A606368002B50D001F0FFFE0546C1
:10548000964B1B6813F4003F14D101F0F7FE401B4C
:105490006428F5D903208AE1904B5B6813F4800FF0
:1054A000D8D08E4B1B6813F4003F03D06368002BE9
:1054B00000F07A81236813F0020F55D0874B9B6868
:1054C00013F00C0F3ED0854B9B6803F00C03082BA8
:1054D00033D0E368002B68D0814B01221A6001F0C1
:1054E000CDFE05467D4B1B6813F0020F54D101F031
:1054F000C5FE401B0228F5D9032058E1774A1368FE
:1055000043F480331360B5E7744B1A6842F4802289
:105510001A601A6842F480321A60ABE701F0AEFEFE
:1055200005466E4B1B6813F4003FC3D001F0A6FE86
:10553000401B6428F5D9032039E1684B5B6813F4FC
:10554000800FC6D1654B1B6813F0020F04D0E368CF
:10555000012B01D001202AE1604A136823F0F803EF
:10556000216943EAC1031360236813F0080F40D098
:10557000636963B35B4B01221A6001F07FFE05464D
:10558000564B5B6F13F0020F33D101F077FE401BD7
:105590000228F5D903200AE1504A136823F0F803E2
:1055A000216943EAC1031360DEE74D4B00221A6014
:1055B00001F064FE0546494B1B6813F0020FD3D07F
:1055C00001F05CFE401B0228F5D90320EFE0454BBB
:1055D00000221A6001F052FE0546404B5B6F13F04B
:1055E000020F06D001F04AFE401B0228F5D9032025
:1055F000DDE0236813F0040F79D0384B1B6C13F0F7
:10560000805F33D100230193344B1A6C42F08052F7
:105610001A641B6C03F080530193019B0125324BEC
:105620001B6813F4807F23D0A368012B34D0052B93
:1056300038D02A4B1A6F22F001021A671A6F22F033
:1056400004021A67A368002B36D001F017FE064645
:10565000224B1B6F13F0020F48D101F00FFE801B8D
:1056600041F288339842F3D90320A0E00025D6E721
:105670001D4A136843F48073136001F0FFFD064672
:10568000194B1B6813F4807FCED101F0F7FD801B0E
:105690000228F5D903208AE0104A136F43F0010372
:1056A0001367CFE70D4B1A6F42F004021A671A6FA7
:1056B00042F001021A67C5E701F0E0FD0646074B1C
:1056C0001B6F13F0020F11D001F0D8FD801B41F2C7
:1056D00088339842F3D9032069E000BF00380240C4
:1056E00000004742800E474200700040E5B9A369C0
:1056F000002B5BD0304A926802F00C02082A58D086
:10570000022B17D02D4B00221A6001F0B7FD044682
:10571000294B1B6813F0007F42D001F0AFFD001B46
:105720000228F5D9032042E0234A136C23F080536A
:105730001364DCE7214B00221A6001F09FFD05464F
:105740001D4B1B6813F0007F06D001F097FD401B36
:105750000228F5D903202AE0E369226A1343626A2A
:1057600043EA8213A26A5208013A43EA0243E26A18
:1057700043EA0263104A5360104B01221A6001F0A1
:105780007DFD04460C4B1B6813F0007F06D101F031
:1057900075FD001B0228F5D9032008E0002006E073
:1057A000002004E001207047012000E0002002B04A
:1057B00070BD0120FBE700BF003802406000474297
:1057C000264B9B6803F00C03042B44D0082B01D01C
:1057D000234870472DE9F04B204B5A6802F03F02F6
:1057E0005B6813F4800F13D01C4B5968C1F3881108
:1057F00000231C48A1FB0001FBF70EFA174B5B6866
:10580000C3F3014301335B00B0FBF3F0BDE8F08B61
:10581000124B5B68C3F388131E4600275C0100250A
:10582000E41A65EB0705A90141EA9461A001001B98
:1058300061EB0501CB0043EA5073C400A01943EBB0
:1058400007018B0243EA9053840220461946002345
:10585000FBF7E2F9D2E70348704700BF0038024087
:105860000024F40040787D01002800F09D8070B590
:1058700004464F4B1B6803F00F038B4209D2CBB297
:105880004B4A1370136803F00F038B4201D00120C1
:1058900070BD236813F0020F17D013F0040F04D06B
:1058A000444A936843F4E0539360236813F0080F6D
:1058B00004D0404A936843F4604393603D4A936840
:1058C00023F0F003A068034393600D46236813F0B0
:1058D000010F32D06368012B21D09A1E012A25D9ED
:1058E000344A126812F0020F60D032498A6822F0FE
:1058F000030213438B6001F0C1FC06462D4B9B68ED
:1059000003F00C036268B3EB820F16D001F0B6FC13
:10591000801B41F288339842F0D90320B8E7254A2A
:10592000126812F4003FE0D10120B1E7214A126869
:1059300012F0007FD9D10120AAE71D4B1B6803F0AC
:105940000F03AB4209D9EAB2194B1A701B6803F076
:105950000F03AB4201D001209AE7236813F0040F34
:1059600006D0144A936823F4E053E1680B43936034
:10597000236813F0080F07D00E4A936823F460439E
:10598000216943EAC1039360FFF71AFF094B9B6843
:10599000C3F30313084AD35CD840084B18600020B7
:1059A00001F020FC002073E70120704701206FE721
:1059B000003C0240003802407CA00008BC040020EB
:1059C000014B1868704700BFBC04002008B5FFF702
:1059D000F7FF044B9B68C3F38223034AD35CD84090
:1059E00008BD00BF003802408CA000082DE9F0433C
:1059F0008BB000240094484B1A6B42F004021A63E7
:105A00001A6B02F004020092009A01941A6B42F0A1
:105A100080021A631A6B02F080020192019A0294CA
:105A20001A6B42F001021A631A6B02F00102029231
:105A3000029A03941A6B42F002021A631A6B02F084
:105A400002020392039A04941A6B42F008021A634A
:105A50001B6B03F008030493049BDFF8CC902246F1
:105A6000E021484600F03DF9DFF8C08022464FF4BF
:105A70008061404600F035F94FF400530593274B01
:105A800006930794264E05A9304600F051F841F6DA
:105A9000BF63059303250695079405A9304600F0DA
:105AA00047F848F2130305930695079405A948465D
:105AB00000F03EF8E0230593012706970794089429
:105AC00005A9484600F034F84FF2273305930695B0
:105AD000079405A9404600F02BF84FF48063059326
