:020000040800F2
:1000000000800120358F0008858F00086D5D000895
:10001000858F0008858F0008858F0008000000008C
:10002000000000000000000000000000858F0008B4
:10003000858F000800000000858F0008EB63000832
:10004000858F0008858F0008858F0008858F000840
:10005000858F0008858F0008858F0008858F000830
:10006000858F0008858F0008858F0008858F000820
:10007000858F0008858F0008858F0008858F000810
:10008000F9630008858F0008858F000800000000D4
:10009000000000000000000000000000858F000844
:1000A000858F0008858F0008858F0008858F0008E0
:1000B0007164000881640008858F0008858F00083E
:1000C000858F0008858F0008858F0008858F0008C0
:1000D000858F000891640008ED64000800000000AE
:1000E000858F0008858F0008858F000800000000BC
:1000F000000000000000000000000000858F0008E4
:1001000000000000858F0008858F0008858F00089B
:1001100000000000000000000000000000000000DF
:10012000858F000849650008C1650008858F0008B3
:10013000858F0008000000000000000000000000A3
:10014000000000000000000000000000858F000893
:10015000858F0008858F0008858F000839660008A4
:1001600095660008858F0008000000000000000070
:10017000000000000000000000000000000000007F
:1001800000000000858F0008000000000000000053
:04019000858F00084F
:1001A000034613F8012B002AFBD1181A01387047B7
:1001B00001F0FF01102A2BDB10F0070F08D010F818
:1001C000013B013A8B422DD010F0070F42B3F6D11C
:1001D000F0B441EA012141EA014122F007047FF035
:1001E00000070023F0E80256083C85EA010586EA8C
:1001F000010685FA47F5A3FA87F586FA47F6A5FAC8
:1002000087F68EB9EED1F0BC01F0FF0102F00702D3
:1002100032B110F8013B013A83EA010313B1F8D17E
:100220000020704701387047002D06BF354603385F
:10023000073815F0010F07D1013015F4807F02BF98
:10024000013015F4C03F0130F0BC0138704700BFE9
:1002500081F0004102E000BF83F0004330B54FEA77
:1002600041044FEA430594EA050F08BF90EA020FE4
:100270001FBF54EA000C55EA020C7FEA645C7FEA77
:10028000655C00F0E2804FEA5454D4EB5555B8BF9A
:100290006D420CDD2C4480EA020281EA030382EA0B
:1002A000000083EA010180EA020281EA0303362D9D
:1002B00088BF30BD11F0004F4FEA01314FF4801C70
:1002C0004CEA113102D0404261EB410113F0004F82
:1002D0004FEA03334CEA133302D0524263EB430339
:1002E00094EA050F00F0A780A4F10104D5F1200ED7
:1002F0000DDB02FA0EFC22FA05F2801841F1000132
:1003000003FA0EF2801843FA05F359410EE0A5F105
:1003100020050EF1200E012A03FA0EFC28BF4CF036
:10032000020C43FA05F3C01851EBE37101F00045EC
:1003300007D54FF0000EDCF1000C7EEB00006EEBF9
:100340000101B1F5801F1BD3B1F5001F0CD3490883
:100350005FEA30004FEA3C0C04F101044FEA4452DA
:1003600012F5800F80F09A80BCF1004F08BF5FEA61
:10037000500C50F1000041EB045141EA050130BD41
:100380005FEA4C0C404141EB010111F4801FA4F1E4
:100390000104E9D191F0000F04BF01460020B1FA39
:1003A00081F308BF2033A3F10B03B3F120020CDA71
:1003B0000C3208DD02F1140CC2F10C0201FA0CF04F
:1003C00021FA02F10CE002F11402D8BFC2F1200CB4
:1003D00001FA02F120FA0CFCDCBF41EA0C0190406A
:1003E000E41AA2BF01EB0451294330BD6FEA0404B3
:1003F0001F3C1CDA0C340EDC04F11404C4F120029E
:1004000020FA04F001FA02F340EA030021FA04F3AF
:1004100045EA030130BDC4F10C04C4F1200220FA06
:1004200002F001FA04F340EA0300294630BD21FA44
:1004300004F0294630BD94F0000F83F4801306BF0A
:1004400081F480110134013D4EE77FEA645C18BFFE
:100450007FEA655C29D094EA050F08BF90EA020F95
:1004600005D054EA000C04BF1946104630BD91EA8D
:10047000030F1EBF0021002030BD5FEA545C05D190
:100480004000494128BF41F0004130BD14F58004CF
:100490003CBF01F5801130BD01F0004545F0FE4143
:1004A00041F470014FF0000030BD7FEA645C1ABF78
:1004B000194610467FEA655C1CBF0B46024650EAAF
:1004C000013406BF52EA033591EA030F41F40021DB
:1004D00030BD00BF90F0000F04BF0021704730B561
:1004E0004FF4806404F132044FF000054FF0000136
:1004F00050E700BF90F0000F04BF0021704730B5F7
:100500004FF4806404F1320410F0004548BF4042CB
:100510004FF000013EE700BF42004FEAE2014FEA20
:1005200031014FEA02701FBF12F07F4393F07F4FFB
:1005300081F06051704732F07F4208BF704793F0FE
:100540007F4F04BF41F40021704730B54FF4607411
:1005500001F0004521F000411CE700BF50EA010214
:1005600008BF704730B54FF000050AE050EA0102BD
:1005700008BF704730B511F0004502D5404261EB2D
:1005800041014FF4806404F132045FEA915C3FF46E
:10059000D8AE4FF003025FEADC0C18BF03325FEA0B
:1005A000DC0C18BF033202EBDC02C2F1200300FABC
:1005B00003FC20FA02F001FA03FE40EA0E0021FAE1
:1005C00002F11444BDE600BF70B54FF0FF0C4CF4CF
:1005D000E06C1CEA11541DBF1CEA135594EA0C0F81
:1005E00095EA0C0F00F0DEF82C4481EA030621EABC
:1005F0004C5123EA4C5350EA013518BF52EA0335F7
:1006000041F4801143F4801338D0A0FB02CE4FF0A8
:100610000005E1FB02E506F00042E0FB03E54FF0D8
:100620000006E1FB03569CF0000F18BF4EF0010ED0
:10063000A4F1FF04B6F5007F64F5407404D25FEACC
:100640004E0E6D4146EB060642EAC62141EA55517F
:100650004FEAC52040EA5E504FEACE2EB4F1FD0CC1
:1006600088BFBCF5E06F1ED8BEF1004F08BF5FEA3F
:10067000500E50F1000041EB045170BD06F00046F1
:1006800046EA010140EA020081EA0301B4EB5C049E
:10069000C2BFD4EB0C0541EA045170BD41F4801196
:1006A0004FF0000E013C00F3AB8014F1360FDEBFBB
:1006B000002001F0004170BDC4F10004203C35DA97
:1006C0000C341BDC04F11404C4F1200500FA05F31A
:1006D00020FA04F001FA05F240EA020001F00042BB
:1006E00021F0004110EBD37021FA04F642EB060131
:1006F0005EEA430E08BF20EAD37070BDC4F10C045B
:10070000C4F1200500FA04F320FA05F001FA04F21E
:1007100040EA020001F0004110EBD37041F100010A
:100720005EEA430E08BF20EAD37070BDC4F1200515
:1007300000FA05F24EEA020E20FA04F301FA05F27D
:1007400043EA020321FA04F001F0004121FA04F225
:1007500020EA020000EBD3705EEA430E08BF20EAF5
:10076000D37070BD94F0000F0FD101F0004640002F
:1007700041EB010111F4801F08BF013CF7D041EAB1
:10078000060195F0000F18BF704703F000465200B5
:1007900043EB030313F4801F08BF013DF7D043EA86
:1007A0000603704794EA0C0F0CEA135518BF95EA3C
:1007B0000C0F0CD050EA410618BF52EA4306D1D1C3
:1007C00081EA030101F000414FF0000070BD50EAE2
:1007D000410606BF1046194652EA430619D094EA6C
:1007E0000C0F02D150EA013613D195EA0C0F05D156
:1007F00052EA03361CBF104619460AD181EA0301AA
:1008000001F0004141F0FE4141F470014FF0000061
:1008100070BD41F0FE4141F4780170BD70B54FF0FC
:10082000FF0C4CF4E06C1CEA11541DBF1CEA13557C
:1008300094EA0C0F95EA0C0F00F0A7F8A4EB05045E
:1008400081EA030E52EA03354FEA013100F0888055
:100850004FEA03334FF0805545EA131343EA12631E
:100860004FEA022245EA111545EA10654FEA0026D3
:100870000EF000419D4208BF964244F1FD0404F58C
:10088000407402D25B084FEA3202B61A65EB0305E8
:100890005B084FEA32024FF480104FF4002CB6EBA5
:1008A000020E75EB030E22BFB61A754640EA0C0025
:1008B0005B084FEA3202B6EB020E75EB030E22BF65
:1008C000B61A754640EA5C005B084FEA3202B6EBA6
:1008D000020E75EB030E22BFB61A754640EA9C0065
:1008E0005B084FEA3202B6EB020E75EB030E22BF35
:1008F000B61A754640EADC0055EA060E18D04FEAF3
:10090000051545EA16754FEA06164FEAC30343EA92
:1009100052734FEAC2025FEA1C1CC0D111F4801F5F
:100920000BD141EA00014FF000004FF0004CB6E758
:1009300011F4801F04BF01430020B4F1FD0C88BFF7
:10094000BCF5E06F3FF6AFAEB5EB030C04BFB6EB02
:10095000020C5FEA500C50F1000041EB045170BDF5
:100960000EF0004E4EEA113114EB5C04C2BFD4EB22
:100970000C0541EA045170BD41F480114FF0000EA6
:10098000013C90E645EA060E8DE60CEA135594EA22
:100990000C0F08BF95EA0C0F3FF43BAF94EA0C0F25
:1009A0000AD150EA01347FF434AF95EA0C0F7FF49A
:1009B00025AF104619462CE795EA0C0F06D152EAEE
:1009C00003353FF4FDAE1046194622E750EA4106D2
:1009D00018BF52EA43067FF4C5AE50EA41047FF4E3
:1009E0000DAF52EA43057FF4EBAE12E74FF0FF3C48
:1009F00006E000BF4FF0010C02E000BF4FF0010C19
:100A00004DF804CD4FEA410C7FEA6C5C4FEA430C91
:100A100018BF7FEA6C5C1BD001B050EA410C0CBFE0
:100A200052EA430C91EA030F02BF90EA020F002042
:100A3000704710F1000F91EA030F58BF994208BFA9
:100A400090422CBFD8176FEAE37040F00100704766
:100A50004FEA410C7FEA6C5C02D150EA013C07D1BD
:100A60004FEA430C7FEA6C5CD6D152EA033CD3D008
:100A70005DF8040B704700BF8446104662468C4602
:100A80001946634600E000BF01B5FFF7B7FF002835
:100A900048BF10F1000F01BD4DF808EDFFF7F4FF5E
:100AA0000CBF012000205DF808FB00BF4DF808EDE9
:100AB000FFF7EAFF34BF012000205DF808FB00BF0C
:100AC0004DF808EDFFF7E0FF94BF012000205DF82E
:100AD00008FB00BF4DF808EDFFF7CEFF94BF0120E3
:100AE00000205DF808FB00BF4DF808EDFFF7C4FFDC
:100AF00034BF012000205DF808FB00BF4FEA410C25
:100B00007FEA6C5C02D150EA013C0AD14FEA430C07
:100B10007FEA6C5C02D152EA033C02D14FF0000044
:100B200070474FF0010070474FEA410212F5001282
:100B300015D211D56FF47873B3EB625212D94FEA24
:100B4000C12343F0004343EA505311F0004F23FA0E
:100B500002F018BF404270474FF00000704750EA63
:100B6000013005D111F0004008BF6FF00040704720
:100B70004FF00000704700BF4A0011D212F500127A
:100B800011D20DD56FF47873B3EB62520ED44FEAE5
:100B9000C12343F0004343EA505323FA02F0704765
:100BA0004FF00000704750EA013002D14FF0FF30A3
:100BB00070474FF0000070474FEA4102B2F1E04346
:100BC00024BFB3F5001CDCF1FE5C0DD901F0004C34
:100BD0004FEAC0024CEA5070B2F1004F40EB830084
:100BE00008BF20F00100704711F0804F21D113F1B0
:100BF0003872BCBF01F00040704741F480114FEAE9
:100C00005252C2F11802C2F1200C10FA0CF320FA71
:100C100002F018BF40F001004FEAC1234FEAD3238E
:100C200003FA0CFC40EA0C0023FA02F34FEA4303F8
:100C3000CCE77FEA625307D150EA01331EBF4FF081
:100C4000FE4040F44000704701F0004040F0FE409C
:100C500040F40000704700BF53B94AB9002908BFEB
:100C600000281CBF4FF0FF314FF0FF3000F00CB8F0
:100C7000ADF1080C6DE904CE0CF00CFDDDF804E0DC
:100C8000DDE9022304B07047704700BF10B5054C82
:100C9000227832B9044B13B10448AFF3008001232A
:100CA000237010BD780700200000000058D900080C
:100CB00008B5034B1BB103490348AFF3008008BDDF
:100CC000000000007C07002058D90008D0F8083444
:100CD0005A1CC0F808241B782BB180F80434074B49
:100CE000C0F800347047064BC0F800340023A0F869
:100CF000103400F58573C0F80C347047390D0008C6
:100D0000CD0C0008C0F8181402604360002380F87E
:100D10001234074AC0F8002400F10802C0F8082481
:100D200000F58572C0F80C24A0F81034704700BF9D
:100D3000CD0C000870470000D0F808345A1CC0F8E9
:100D400008241B78D3B190F80424013AD2B280F879
:100D5000042412B980F80434134680F80831B0F83E
:100D6000102483EA12230F4931F9133083EA022356
:100D7000A0F810340C4BC0F80034704710B504468E
:100D800040F20121094B1980FFF7D4FF084BC4F84A
:100D900000340023A4F8103404F58573C4F80C342F
:100DA00010BD00BF00000020B50D00089407002012
:100DB000CD0C000810B50446D0F808345A1CC0F811
:100DC00008241B78EBB190F80424013A80F804243D
:100DD000B0F8101483EA11201B4A32F9102082EA7D
:100DE0000122A4F81024043BDBB284F8063484F812
:100DF000053484F80931FA2B14D8144BC4F80034A4
:100E000010BD40F20121124B1980FFF793FF114BE7
:100E1000C4F800340023A4F8103404F58573C4F832
:100E20000C34EDE740F20221094B19802046FFF710
:100E300081FF084BC4F800340023A4F8103404F5F3
:100E40008573C4F80C34DBE700000020590E00085D
:100E500094070020CD0C0008D0F808345A1CC0F8C4
:100E600008241B782BB390F80424013AD2B280F8FE
:100E7000042412B980F804341346D0F80C24511C11
:100E8000C0F80C141370B0F8102483EA122313492D
:100E900031F9133083EA0223A0F8103490F80634B5
:100EA000013BDBB280F80634B3B90D4BC0F8003417
:100EB000704710B5044640F201210A4B1980FFF734
:100EC00039FF094BC4F800340023A4F8103404F5AA
:100ED0008573C4F80C3410BD704700BF00000020BB
:100EE000ED0E000894070020CD0C000810B5044654
:100EF000D0F808345A1CC0F808241A788AB190F83F
:100F0000101490F80434013BDBB280F8043413B9B8
:100F100080F804240022914214D1134BC4F8003409
:100F200010BD40F20121114B1980FFF703FF104B58
:100F3000C4F800340023A4F8103404F58573C4F811
:100F40000C34EDE740F20321084B19802046FFF7EF
:100F5000F1FE074BC4F800340023A4F8103404F564
:100F60008573C4F80C34DBE7750F00089407002084
:100F7000CD0C000810B50446D0F808345A1CC0F84F
:100F800008241A7892B1B0F81014090A90F80434C1
:100F9000013BDBB280F8043413B980F8042400224A
:100FA000914214D1134BC4F8003410BD40F201211A
:100FB000114B1980FFF7BEFE104BC4F8003400231C
:100FC000A4F8103404F58573C4F80C34EDE740F24E
:100FD0000321094B19802046FFF7ACFE074BC4F8EC
:100FE00000340023A4F8103404F58573C4F80C34DD
:100FF000DBE700BF0110000894070020CD0C0008BB
:1010000010B50446D0F808345A1CC0F808241B78E0
:1010100083B140F20221104B1980FFF78BFE0F4B7A
:10102000C4F800340023A4F8103404F58573C4F820
:101030000C3410BD012380F8123400F5847104F0E3
:10104000D7FC064BC4F800340023A4F8103404F590
:101050008573C4F80C34ECE794070020CD0C00082D
:101060004378FBB19A1DB2F5807F1BDCFA2B19D8AF
:10107000F0B44F1C02782A4B33F81250CAB90C4610
:10108000012304F8023B42780432D2B282EA1526E8
:10109000234B33F9163083EA05239BB2651C22707B
:1010A00000220DE01F4B4FF480721A804FF0FF308A
:1010B00070478C1C4A700F46E5E72E7001350132EF
:1010C0004478944210DD8418A67886EA132C144CD8
:1010D00034F91C4084EA03239BB2002EEDD1EC1BB3
:1010E0003C702F460135EAE7180A13F0FF030ED1D2
:1010F000EB1B3B706A1C70B9531B2B70531C981A66
:101100001070581C00221A70401AF0BC70476A1CFC
:101110002B703D46EFE7531C10702A46EFE700BFE7
:10112000000000209407002030B583B002AC0023FB
:1011300004F8013D05680B4601222146D0F8180449
:10114000A84710B9002003B030BD034B4FF4007224
:101150001A804FF0FF30F6E794070020F8B50446F8
:101160000846164604F540752946FFF779FFB0F1A9
:10117000FF3F08D02768334682B22946D4F81804C6
:10118000B84708B90020F8BD034B4FF400721A802D
:101190004FF0FF30F7E700BF9407002038B5054651
:1011A000C0F8081404E0D5F80034284698472246D1
:1011B000531E9CB2002AF6D138BD70B504460E46C7
:1011C000436898470546002384F8123494F8123493
:1011D00023B963689847401BB042F7D394F81234A0
:1011E0001BB1002084F8120470BD4FF0FF30FBE704
:1011F00030B400252B4601E001350133082B7FDC9C
:10120000CA5CC254002A7BD0A2F14204332C77D8A6
:101210000FF2040C5CF824F0E91200080113000836
:101220000113000801130008F91200080113000857
:10123000011300080113000801130008011300083E
:10124000011300080113000801130008011300082E
:10125000011300080113000801130008011300081E
:10126000011300080113000801130008011300080E
:1012700001130008011300080113000801130008FE
:1012800001130008011300080113000801130008EE
:101290000113000801130008F911000801130008E8
:1012A0000113000801130008F512000801130008DB
:1012B00001130008F11200080113000801130008CF
:1012C00001130008011300080113000801130008AE
:1012D000011300080113000801130008FD120008A3
:1012E00001130008ED120008023586E7043584E793
:1012F000043582E7043580E708357EE740357CE732
:1013000022B9F92D02DC002030BC7047024B0122CB
:101310001A604FF0FF30F7E7980700202DE9F04101
:1013200082B00D4690461F46144601220BE03B68F2
:101330001A1D3A601B788DF80030631EDA43D20F15
:10134000002B2FDA3046461C0378002B00F0B180CA
:10135000002A00F0AE80622BE9D0422B24D0752BFE
:1013600037D0692B49D0662B5BD0462B7DD13B68AB
:10137000073323F0070303F108023A60D3E900239F
:10138000CDE90023A4F10800C243D20F0028D9DB25
:101390006B4667E008782870013C013101359C42BA
:1013A000F8DCCFE76946FAE73B681A1D3A601B880C
:1013B000ADF80030A31EDA43D20F002BC2DB694622
:1013C00004E008782870013C013101359C42F8DCCA
:1013D000B8E73B681A1D3A601B680093211FCA4397
:1013E000D20F0029AEDB6B4604E018782870013C70
:1013F000013301358C42F8DCA4E73B681A1D3A60E2
:101400001B680093211FCA43D20F00299ADB6B4649
:1014100004E018782870013C013301358C42F8DC77
:1014200090E73B68073323F0070303F108023A60B3
:10143000D3E90001FFF7C0FB0090211FCA43D20F80
:101440000029FFF67FAF6B468C427FF77BAF1878A1
:101450002870013C01330135F6E719782970013C09
:10146000013301358442F8DC6CE7732B19D13B68FA
:101470001A1D3A6019682A4640202A2302E0013CDE
:1014800061462A4644B101F1010C551C0B781370DA
:101490001BB10138F3D100E0154643B9013C0122EC
:1014A00050E7084B01221A604FF0FF3004E00022A1
:1014B00048E722B1A8EB040002B0BDE8F0814FF08C
:1014C000FF30F9E798070020F0B4012409E018681C
:1014D000041D1C600668501EC443E40F002824DA73
:1014E0002846451C0078002800F09580002C00F06C
:1014F00092806228EBD042281AD075282AD0692819
:101500003AD066284AD0462861D11868041D1C606C
:101510000068A2F10807FC43E40F002FE0DB53E072
:101520000F783770013A013601318242F8DCD7E793
:101530001868041D1C600668901EC443E40F002850
:10154000CEDB04E00F783770013A01360131824278
:10155000F8DCC5E71868041D1C600068161FF4431A
:10156000E40F002EBCDB04E00F780770013A013075
:101570000131B242F8DCB3E71868041D1C60006852
:10158000161FF443E40F002EAADB04E00F78077067
:10159000013A01300131B242F8DCA1E71868041DBC
:1015A0001C600068161FF443E40F002E98DBB24263
:1015B00096DD0F780770013A01300131F7E70E78B8
:1015C0000670013A01300131BA42F8DC88E773282D
:1015D00019D11868041D1C6006680C4640272A2093
:1015E00002E0013A66460C4642B1611C06F1010C6C
:1015F0002078307018B1013FF3D100E0214640B9A6
:10160000013A01246CE7094B01221A604FF0FF32C6
:1016100003E0002464E734B112B91046F0BC70470F
:101620004FF0FF32F9E74FF0FF32F6E7980700205E
:101630000160C0F86422002307E003EBC30203EB60
:10164000420202440021117101331F2BF5DD704766
:101650001F2925D870B51E460C46054601EBC10072
:1016600001EB4000284411460530FFF7C1FDB0F101
:10167000FF3F14D004EBC40004EB400008302844C2
:1016800031460630FFF7B4FDB0F1FF3F07D004EB61
:10169000C40104EB41042C4401232371002070BDDC
:1016A000024B00221A604FF0FF307047980700206D
:1016B0000EB4F0B582B007AB53F8044B01931F2C66
:1016C00053D8054604EBC40304EB430303441B79DE
:1016D000002B50D0066806F5017786F80642D0F850
:1016E000643286F8043204EBC40004EB4000284462
:1016F00001ABF92206F207210530FFF70FFE01309A
:10170000C0B286F8050200283BD00122394628687D
:10171000FFF724FD00283AD10A212868FFF74DFD84
:101720000646002839D1296891F80921002A3AD0C3
:1017300091F80A31A34236D191F80801D5F8643204
:10174000984230D104EBC40004EB40000830284438
:1017500001AB013A01F20B110630FFF7B5FE30463E
:1017600002B0BDE8F04003B07047124B00221A608F
:101770004FF0FF36F3E70F4B02221A604FF0FF36AF
:10178000EDE70C4B01221A604FF0FF36E7E7094BFB
:1017900003221A604FF0FF36E1E7064B04221A607D
:1017A0004FF0FF36DBE7034B05221A604FF0FF36A0
:1017B000D5E700BF980700200B7EBBB9D0F87C317D
:1017C00033B10023C0F87C310B89C0F87831704701
:1017D000D0F8783103EBC30303EB03130A896721C5
:1017E00001FB02331B12C0F8783170470123C0F8A7
:1017F0007C31704708B5C0F85C11522280F8602136
:101800000022C0F86821882104F038F808BD00B52E
:1018100083B002AA002322F8023DC02104F086F81A
:1018200060B9BDF806204EF6AA639A4203D10020A3
:1018300003B05DF804FB4FF0FF30F9E74FF0FF30E5
:10184000F6E738B504460D4601F0FCF928B984F8EE
:1018500060512046FFF7DBFF38BD4FF0FF30FBE75C
:1018600010B5044601F07EFC58B90123C4F8683174
:10187000204602F00BF808B9002010BD4FF0FF30F1
:10188000FBE74FF0FF30F8E7F8B504460D46174682
:1018900001F10802043102F026F900283ED16E1C45
:1018A00032462946204601F03FFDD0BB394620464E
:1018B00001F0CEF9C0BB01220021204601F0FFFA61
:1018C000A8BB01221146204601F0F9FA90BBEA6854
:1018D0000121204601F04AFB78BB2A6900212046FD
:1018E00001F044FB60BB6969204601F0D8F950BBA8
:1018F0002A7E0021204601F0DAF938BB6A7E0121F8
:10190000204601F0D4F920BB32462946204601F09A
:101910000BFD08BB0123C4F87C31F8BD4FF0FF304C
:10192000FBE74FF0FF30F8E74FF0FF30F5E74FF0FF
:10193000FF30F2E74FF0FF30EFE74FF0FF30ECE71A
:101940004FF0FF30E9E74FF0FF30E6E74FF0FF30B0
:10195000E3E74FF0FF30E0E74FF0FF30DDE7D0F88E
:101960006831FBB130B583B004460DF1070102F0D8
:1019700092F8D0B99DF8073013B9012003B030BDFB
:1019800004F5C8752946204601F0D4FC80B92946E3
:101990002046FFF711FF4FF0FF31204601F082FE95
:1019A0000020EBE74FF0FF3070474FF0FF30E5E7E6
:1019B0004FF0FF30E2E772B690F8A8311BB9D0F8CB
:1019C000780162B670470020FBE7000070B51B4845
:1019D00000F0D6F81A4B00221A70052419E04021B5
:1019E000184805F0EFFA164E3070174D012814BF55
:1019F000002201224021284605F0EBFA3278B2FAA3
:101A000082F252098021284605F0E3FA012006F00F
:101A10008BFD013C07D020210A4805F0D3FA0028AD
:101A2000DDD10524DBE7094806F0CDFD084806F0C6
:101A3000CAFD084800F0A4F870BD00BF78D90008BE
:101A4000BAFA00200008024000000240E80E01201F
:101A5000AC0E01208CD9000810B50524013C07D03C
:101A60002021054805F0AEFA0028F7D00524F5E757
:101A700004F07EFC10BD00BF0008024072B6FEE715
:101A800008B5064806F0ABFD054806F0A8FD00F0D5
:101A900067F800F0F9FEFFF7F1FF00BFE80E012044
:101AA000AC0E012010B5244C002224492046FFF73B
:101AB000BFFD234A134600212046FFF7C9FD48BB5E
:101AC0001F4A134601212046FFF7C2FD28BB1C4ACE
:101AD000134602212046FFF7BBFD08BB184B194AED
:101AE00003212046FFF7B4FDE8B9174B144A04213F
:101AF0002046FFF7ADFDC8B9114B144A0521204619
:101B0000FFF7A6FD0446A0B901210C48FFF70CFB26
:101B1000204610BD4FF0FF34FAE74FF0FF34F7E7EF
:101B20004FF0FF34F4E74FF0FF34F1E74FF0FF34AC
:101B3000EEE74FF0FF34EBE79C07002018FF002092
:101B4000F8D9000894D9000898D900089CD9000851
:101B500008B500210148FFF7ABFD08BD9C07002038
:101B600008B501210148FFF7A3FD08BD9C0700202F
:101B700008B502210148FFF79BFD08BD9C07002026
:101B80000FB400B593B014AB53F8042B119340215C
:101B900001A807F0C1FE01AA05210448FFF788FD4E
:101BA00013B05DF804EB04B0704700BF9C07002041
:101BB000F8B52DED028B6E2802D96E386E3200E03A
:101BC000002084186E3440F6B735AC4207D802F1D5
:101BD0006E046E2907D9A1F16E066E3304E0C0F5DC
:101BE0003B640834F5E70026F2186E32B2F5FA6F5E
:101BF00049D203F16E0707EE900AF8EE677A9FED7F
:101C0000308AC7EE887A17EE900AFEF785FC00222C
:101C10002C4BFEF723FBFEF7AFFFC5B207EE906A31
:101C2000F8EE677AC7EE887A17EE900AFEF774FC32
:101C30000022244BFEF712FBFEF79EFFC6B207EE12
:101C4000904AF8EE677AC7EE887A17EE900AFEF7A8
:101C500063FC00221B4BFEF701FBFEF78DFFC4B2B5
:101C600007EE907AF8EE677AC7EE887A17EE900A58
:101C7000FEF752FC0022134BFEF7F0FAFEF77CFF52
:101C8000C0B2B44611E0C6F5FA67B4E706EB8603C6
:101C9000C3EB031313440C4901EB03130121197126
:101CA0000A44E3199342F1DC013600EB0C03B34222
:101CB00002DD2F462A46F4E7BDEC028BF8BD00BFDB
:101CC000000020420000E03F800F00202DE9F84393
:101CD0002DED028B6E32504CA4FB00356D09A4FB38
:101CE0000134640905EB8503DE00861B04EB8400E8
:101CF000C300CB1AB1B29BB2C1F12800C3F12806D0
:101D0000B042B8BF30468342B8BF03469942ACBF29
:101D1000531AD31A414A82FB0312DB17C3EB221377
:101D2000ADB2AB4274DC5F1CC7F14B0295426FDC75
:101D3000A4B2A3426CDCC7F132039C4268DC07EB1F
:101D40008703D800FEF7D6FB0022354BFEF784FA56
:101D5000FEF732FF08EE100A4FF0000846462CE06E
:101D600004EB0C03AA192F4903EB8303C3EB031302
:101D700003EB020901EB09194FF0010E89F804E0A9
:101D8000A5EB06094B4401EB031383F804E0A4EB35
:101D90000C0303EB8303C3EB03131A4401EB02129E
:101DA00082F804E04B4401EB031383F804E0F444AD
:101DB0008445D5DB013608F12808BE4228DA28EE32
:101DC000087A08FB08F307EE903AF8EEE77A77EE28
:101DD000677A17EE900AFEF79FFB41EC100B09F0B3
:101DE000BFFB51EC100BFEF7E7FEFEF795FB002260
:101DF0000B4BFEF731FA00220B4BFEF70FFD0022D2
:101E00000A4BFEF72BFAFEF78FFE4FF0000CCFE7E0
:101E1000BDEC028BBDE8F883CDCCCCCC67666666A2
:101E200000003440800F0020000044400000F03FDC
:101E300000200DE000EB8003C3EB031313440749BC
:101E400001EB03135A71987101324A2AF2DD013015
:101E5000312801DC0022F8E7704700BF800F002026
:101E600038B500200DE000EB8003C3EB03131344EF
:101E7000494901EB03130021197101324A2AF2DDAD
:101E80000130312801DC0022F8E7002413E0424948
:101E900004EB8403C3EB0313981801EB0010012536
:101EA0000571C2F14A00034401EB03131D712A447A
:101EB000012AECDD0134312C01DC0022F8E700249A
:101EC00017E0354801EB8102C2EB0212224400EB1D
:101ED000021201251571C1F1310303EB8303C3EB3A
:101EE0000313234400EB03131D7129440129E8DD8A
:101EF00001344A2C01DC0021F8E7002400E0013421
:101F00001D2C0FDC04EB44035A00244B13445B7874
:101F1000002BF4D0214B13445A2299885888FFF79C
:101F2000D5FEECE7822340F23A2200214FF4C8703C
:101F3000FFF73EFE822340F23A22002140F2EE708B
:101F4000FFF736FE64231A4640F216310020FFF7F1
:101F50002FFE64231A4640F2163140F65330FFF745
:101F600027FE64231A4640F26B714FF40C70FFF7A2
:101F70001FFE64231A4640F26B7140F6F200FFF731
:101F800017FEFA234FF4966240F2D66140F27E309B
:101F9000FFF70EFE38BD00BF800F002000020020BA
:101FA0002DE9F04F2DED028B87B004460D46924689
:101FB0009B4606F0B3FA20600BFB0BF00AFB0A000D
:101FC000FEF798FA41EC100B09F0CAFA51EC100B2D
:101FD000FEF7D2FDA08007EE90AAF8EEE77A17EEA2
:101FE000900AFEF799FA06460F466868FEF794FADB
:101FF00041EC180B41EC100B09F056F853EC102B88
:102000008DED020B30463946FEF7DEFA80468946F2
:1020100007EE90BAF8EEE77A17EE900AFEF77CFA30
:10202000CDE90001B0EE480AF0EE680A09F09CF82C
:1020300053EC102B8DED040BDDE90001FEF7C4FA23
:1020400002460B4640464946FEF706F9FEF76CFD90
:102050000FFA80F8DDE9042330463946FEF7B4FA7A
:1020600006460F46DDE90023DDE90201FEF7ACFA82
:1020700002460B4630463946FEF7F0F8FEF754FDAF
:102080002B8898440FFA88F8A4F80680B5F80290D7
:1020900009FA80F90FFA89F9A4F808906868FEF740
:1020A0003BFA41EC100B08F0FFFF45A3D3E90023F6
:1020B00051EC100BFEF788FA06460F464046FEF735
:1020C00019FA32463B46FEF7C9F8FEF72DFD60814E
:1020D0006868FEF721FA41EC100B09F045F838A3C7
:1020E000D3E9002351EC100BFEF76EFA06460F46BB
:1020F0004846FEF7FFF932463B46FEF7AFF8FEF7DB
:1021000013FD00B2A0816B889FED2B8BC01AFEF7E8
:10211000F1F9B0EE481AF0EE681A41EC100B09F034
:1021200083F857EC106BB4F90A002B88C01AFEF73D
:10213000E1F9B0EE481AF0EE681A41EC100B09F024
:1021400073F853EC102B30463946FEF787F841EC14
:10215000100B09F005FA51EC100BFEF70DFDE081B4
:10216000B4F90A30BD2B1ADDB4F90C20BD2A19DDF3
:1021700040F6FA218B4218DC40F212739A4217DCC7
:10218000002020748245CCBF4FF0000A4FF0010AB6
:1021900084F811A007B0BDEC028BBDE8F08F4FF0C2
:1021A000FF30F7E74FF0FF30F4E74FF0FF30F1E793
:1021B0004FF0FF30EEE700BF0000000000000040DD
:1021C0000000000000C067402DE9F04F2DED048BAA
:1021D000B9B081468846104607921C460893BDF860
:1021E00018210992924B198058809C80DA8008F15E
:1021F00050030FFA83FAADF884A000F1500636B20E
:10220000ADF886604FF6B0752F1B3FB2ADF8887001
:10221000AD1A2DB2ADF88A50864A1FAB92E8030082
:1022200083E8030006F07AF98346002416E004EB05
:102230008403980038AB03EB440232F9643C32F972
:102240005C2C49460DF1900C6044FFF7A9FE70B973
:10225000012238AB234403F8542C0134032C08DC4E
:10226000734B33F81430002BE1D10022F1E7002248
:10227000EFE79DF88C4014B19DF88D3053B9002CD8
:102280004CD00BAC24AE0FCE0FC4336823604FF09C
:10229000010A45E0BDF9AC00BDF998309FED608BB7
:1022A000C01AFEF727F9B0EE481AF0EE681A41ECB2
:1022B000100B08F0B9FFB0EE409AF0EE609ABDF94D
:1022C000AA00BDF99630C01AFEF714F9B0EE481A0C
:1022D000F0EE681A41EC100B08F0A6FF53EC102B3F
:1022E00051EC190BFDF7BAFF41EC100B09F038F96E
:1022F0004DA3D3E9002351EC100BFEF7D7FB0028C8
:10230000BDD0079B984500D2564600233246494629
:102310000BA8FFF745FE4FF0010A11E04FF0000A4D
:102320009DF88D3063B10AEB8A039C0038AB1C44E6
:10233000B43C29AE0FCE0FC4336823600AF1010A02
:102340009DF88E4014B19DF88F30FBB964B10AEB53
:102350008A039C0038AB1C44B43C2EAD0FCD0FC497
:102360002B6823600AF1010A9DF88F3063B10AEBF4
:102370008A039C0038AB1C44B43C33AD0FCD0FC472
:102380002B6823600AF1010A002424E1BDF9D4007E
:10239000BDF9C0309FED228BC01AFEF7ABF8B0EE4E
:1023A000481AF0EE681A41EC100B08F03DFFB0EE51
:1023B000409AF0EE609ABDF9D200BDF9BE30C01A65
:1023C000FEF798F8B0EE481AF0EE681A41EC100BE0
:1023D00008F02AFF53EC102B51EC190BFDF73EFFD0
:1023E00041EC100B09F0BCF80FA3D3E9002351EC2A
:1023F000100BFEF75BFB0028A8D00AF101040AEBE2
:102400008A0398000BAB1844089B099A934200D2A8
:102410003D4600232A464946FFF7C2FDA246B3E7E0
:1024200000000000000000400000000000C07740F5
:1024300030FA002070D90008BA4540F0B181A200FE
:1024400022449100C84B0B445889B9F80020801AE7
:1024500000B29B89B9F802209B1A1DB207EE900AC0
:10246000F8EEE77A17EE900AFEF756F8CDE900018C
:10247000D9F8046086F00040FEF74EF841EC180BE6
:1024800041EC100B08F010FE53EC102B8DED020BFD
:10249000DDE90001FEF798F8CDE9040107EE905A56
:1024A000F8EEE77A17EE900AFEF736F8CDE900016C
:1024B0003046FEF731F841EC100B08F055FE53ECB6
:1024C000102BDDE90001FEF77FF802460B46DDE93F
:1024D0000401FDF7C3FEFEF727FB05B207EE905A95
:1024E000F8EEE77A17EE900AFEF716F806460F4662
:1024F000B0EE480AF0EE680A08F036FE53EC102BF6
:1025000030463946FEF760F806460F46DDE90023FF
:10251000DDE90201FEF758F802460B46304639461F
:10252000FDF79CFEFEF700FB00B2503080B2A02801
:102530002FD8002DD4BF0121002104EB84034FEAE2
:102540008302894B134459740CDDB8F1000F03D09A
:1025500005F1BE03434505DA079A8AB105F1BE03CA
:1025600093420DDB002D1BDA089A1AB1C5F1BE03A8
:10257000934215DA099B1BB1C5F1BE059D420FDAE6
:10258000A20022449100784B0B441A7C01321A7449
:1025900006E004EB84039A00734B134402225A743E
:1025A00004EB84039A00704B13441B7C052B00F052
:1025B000F7800AEB8A039D0038AB1D4404EB8402CC
:1025C0009300B43D684E1E440FCE0FC533682B6098
:1025D0000AF1010A0134BAF1030F00F3E180634B01
:1025E0001B68A34240F3DC8004EB840293005E4A44
:1025F000D358ABEB030341F288329342EAD8A300ED
:1026000023449A00584D1544B5F90C00B9F802302E
:102610009FED518BC01AFDF76DFFB0EE481AF0EE3A
:10262000681A41EC100B08F0FFFD57EC106BB5F980
:102630000A00B9F80030C01AFDF75CFFB0EE481A86
:10264000F0EE681A41EC100B08F0EEFD53EC102B85
:1026500030463946FDF702FE41EC100B08F080FFD2
:1026600051EC100BFEF788FAE881B5F90800B9F8CB
:102670000230C01AFDF73EFFB0EE481AF0EE681ABD
:1026800041EC100B08F0D0FD57EC106BB5F90600CB
:10269000B9F80030C01AFDF72DFFB0EE481AF0EE81
:1026A000681A41EC100B08F0BFFD53EC102B3046BC
:1026B0003946FDF7D3FD41EC100B08F051FF51EC0A
:1026C000100BFEF759FAA8800027BA457FF7B4AE81
:1026D000BB003B449D0038AB1D4435F9A80CA3005A
:1026E00023449A00204E1644B6F90C309FED1A8B05
:1026F000C01AFDF7FFFEB0EE481AF0EE681A41EC82
:10270000100B08F091FDB0EE409AF0EE609A35F9AA
:10271000AA0CB6F90A30C01AFDF7ECFEB0EE481A62
:10272000F0EE681A41EC100B08F07EFD53EC102B14
:1027300051EC190BFDF792FD41EC100B08F010FF66
:1027400007A3D3E9002351EC100BFEF7AFF90028E3
:102750007FF472AE0137B8E70000000000000040CF
:102760000000000000C07740E0F90020040A0020CB
:10277000B30099198A00144638AB1C44094D15441E
:10278000B43C0FCC0FC523682B6001365645EFDBF8
:10279000054BC3F800A039B0BDEC048BBDE8F08F49
:1027A0000026F3E7E0F90020040A0020002308E0F7
:1027B00003EB43025100044A0A44044941F8232030
:1027C00001331D2BF4DD704700020020280A002091
:1027D000002303754375704710B5244B1C7874B9FA
:1027E000F822234B1A8040F21F225A8054B900234A
:1027F0001F4A5360002313721E4A13800CE04FF4EB
:102800002C62EEE71C4BF3E7022003EB430251007E
:102810001A4A0A44507001331D2B0ADCB4FA84F2C0
:1028200052090E2BD4BF002101218A42ECD0032093
:10283000EBE700230EE003EB830202EB42025100C0
:102840000E4A0A44507803EB430251000C4A0A44F2
:1028500010710133052BEEDDFFF7EAFAFFF700FBFD
:102860000848FFF7B5FFFFF7A1FF10BDBAFA002037
:1028700038FA0020A00A0020DB0F494000020020A7
:10288000B40200200C0A002008B505E00548FFF757
:1028900077F90A2005F048FE00F0F6F80028F5D197
:1028A00008BD00BFA0D9000810B5554C00225549FD
:1028B0002046FEF7BDFE544A134601212046FEF78E
:1028C000C7FE002872D1504B504A02212046FEF725
:1028D000BFFE00286DD14C4B4C4A03212046FEF729
:1028E000B7FE002868D1484B494A04212046FEF72C
:1028F000AFFE002863D1464B434A05212046FEF730
:10290000A7FE00285ED1404B424A07212046FEF731
:102910009FFE002859D13C4B3E4A08212046FEF735
:1029200097FE002854D1384B3B4A0A212046FEF737
:102930008FFE00284FD1394B334A00212046FEF745
:1029400087FE00284AD1304A134606212046FEF76A
:102950007FFE002845D12C4A134609212046FEF768
:1029600077FE002840D1284A13460B212046FEF767
:102970006FFE00283BD1244B294A0C212046FEF74C
:1029800067FEB8BB204A13460D212046FEF760FEC5
:1029900098BB1D4B234A0E212046FEF759FE0346E5
:1029A00008B9184610BD4FF0FF33FAE74FF0FF3378
:1029B000F7E74FF0FF33F4E74FF0FF33F1E74FF065
:1029C000FF33EEE74FF0FF33EBE74FF0FF33E8E77D
:1029D0004FF0FF33E5E74FF0FF33E2E74FF0FF330F
:1029E000DFE74FF0FF33DCE74FF0FF33D9E74FF07D
:1029F000FF33D6E74FF0FF33D3E74FF0FF33D0E795
:102A0000A40A002034030120F8D90008C0D9000826
:102A1000C8D90008CCD90008D0D90008D8D90008F6
:102A2000DCD90008E0D9000830B583B0074B1C881A
:102A30005D885868FDF770FDCDE900012B46224600
:102A400004210348FEF734FE03B030BD38FA0020FD
:102A5000A40A002008B501210148FEF729FE08BD9F
:102A6000A40A002000B583B0054B9A1E111D0091E9
:102A700005210448FEF71CFE03B05DF804FB00BF0F
:102A80003AFA0020A40A002008B509210148FEF7FF
:102A90000FFE08BDA40A002010B53E4C00223E499E
:102AA0002046FEF7C5FD3D4B3D4A00212046FEF77E
:102AB000CFFD00284FD13A4A134601212046FEF7A8
:102AC000C7FD00284AD1364B364A02212046FEF780
:102AD000BFFD002845D1324A134603212046FEF7A8
:102AE000B7FD002840D12E4A134604212046FEF7A8
:102AF000AFFD00283BD12A4A134605212046FEF7A8
:102B0000A7FDB8BB264A134606212046FEF7A0FDC6
:102B100098BB234A134608212046FEF799FD78BB4F
:102B20001F4A134609212046FEF792FD58BB1C4A56
:102B300013460A212046FEF78BFD38BB184A134680
:102B40000B212046FEF784FD034608B9184610BD48
:102B50004FF0FF33FAE74FF0FF33F7E74FF0FF3363
:102B6000F4E74FF0FF33F1E74FF0FF33EEE74FF0BC
:102B7000FF33EBE74FF0FF33E8E74FF0FF33E5E7D4
:102B80004FF0FF33E2E74FF0FF33DFE74FF0FF3363
:102B9000DCE700BF0C0D0020FCFA0020D8D90008AB
:102BA000F8D90008C0D9000808B50246002102483B
:102BB000FEF77EFD08BD00BF0C0D002038B50446B1
:102BC000FFF7F2FF054640B14FF0FF350EE00A482F
:102BD000FEF7D6FF642005F0A7FC2046FFF7E4FFD0
:102BE00010B921780029F2D023780BB1284638BDDE
:102BF0004FF0FF35FAE700BFECD9000808B5012116
:102C00000148FEF755FD08BD0C0D002008B5062152
:102C10000148FEF74DFD08BD0C0D002008B505214B
:102C20000148FEF745FD08BD0C0D002008B50B213D
:102C30000148FEF73DFD08BD0C0D002008B500F071
:102C400056FF08BD08B54A088A2102F017FE08BDE4
:102C500015290FD8DFE801F00B0B0E0B0E0E0E0E30
:102C60000E0E0E0E0E0E0E0E0E0E0E0E0B0B017431
:102C7000002070476FF007007047037C0B70002046
:102C8000704710B50C460A46092102F019FE0246AB
:102C900018B9237803F001032370104610BD08B55E
:102CA00002F046F908BD08B502F0B4F908BD08B550
:102CB00001F092FF08BD08B502F01BF908BDF0B5A0
:102CC00083B006460D46174602AA002302F8013DCE
:102CD000012102F0F5FD9DF80730044668BB012F85
:102CE00006D0042D38D8DFE805F0191C1F22250076
:102CF000042D2DD8DFE805F00306090C0F0043F082
:102D000010051BE043F0280518E043F0040515E02A
:102D100043F0400512E043F080050FE003F0EF05BB
:102D20000CE003F0D70509E003F0FB0506E003F033
:102D3000BF0503E003F07F0500E01D469D4204D07F
:102D400074B10CB986F830518CB1204603B0F0BD97
:102D50001D466FF00304F1E71D466FF00304EDE735
:102D60002A460121304602F089FD0446E9E77169EF
:102D70003046FFF794FFE8E70020187004291CD8BC
:102D8000DFE801F003080D121700C2F300121A70F9
:102D900000207047C2F3C0021A7000207047C2F3CF
:102DA00080021A7000207047C2F380121A7000204F
:102DB0007047D2091A70002070476FF00300704707
:102DC00030B583B004460D4602AA002302F8013D47
:102DD000012102F075FD034630B173B1B3B1F3B117
:102DE00033B3184603B030BD2B469DF807200021B1
:102DF0002046FFF7C1FF0346EFE7AB1C9DF8072015
:102E000001212046FFF7B8FF0346E7E76B1C9DF85A
:102E1000072002212046FFF7AFFF0346DFE7EB1C48
:102E20009DF8072003212046FFF7A6FF0346D7E7BA
:102E30002B1D9DF8072004212046FFF79DFF034628
:102E4000CFE730B583B004460D460DF10602F821F8
:102E500002F06CFD034660B143B9BDF806201AB11B
:102E60000099B1FBF2F22A602A68A261184603B009
:102E700030BD6A460421204602F07AFD0346EBE7A6
:102E8000037F0B700020704730B583B004460D46B9
:102E90000DF10602202102F049FD024638B9BDF8C5
:102EA00006303BB1DB002B60236201232377104601
:102EB00003B030BD236A2B6000232377F7E7052991
:102EC00041D8F8B58AB101F10C0300EB8303D3F8C4
:102ED00004C00023012716460C460546052935D8AF
:102EE000DFE801F0080C181C2026174601234FF0DC
:102EF000000CF0E780F82870002005E0CCF34F22AA
:102F0000442102F0CBFC20B9C6B12C44012384F843
:102F10002830F8BD80F82A700020F5E780F82B7083
:102F20000020F1E75B00FE22602102F0E3FCEAE70B
:102F30001B01EF22602102F0DDFCE4E72C440023BA
:102F400084F82830E5E76FF0030070476FF0030066
:102F5000DFE7052905D8084490F8283013700020D1
:102F60007047002313706FF003007047431893F805
:102F7000283053B170B516460C460546052925D8AC
:102F8000DFE801F0090C181B1E1E0C3100EB81015B
:102F90004A60002070476A63002005E0C2F34F22B8
:102FA000442102F07BFC20B904F10C0105EB810106
:102FB0004E6070BDEA630020F6E72A640020F3E764
:102FC000C2F34F22642102F069FCECE76FF00300CA
:102FD000EFE7F0B583B005460C46174605292DD816
:102FE000DFE801F0030C181C2020466B002213467A
:102FF0000BB95ABB3E60184603B0F0BD0DF1060296
:10300000442102F093FC0346E0B9BDF80660760265
:103010000122EDE7C66B00221346E9E7066C0022A9
:103020001346E5E70DF10602642102F07FFC03463A
:1030300050B9BDF8066076020022D9E700226FF091
:103040000303D5E70122D3E70022D1E756B904F103
:103050000C0205EB820252683A602C44002284F88C
:103060002820C8E73E6004F10C0205EB820256609E
:103070002C44012284F82820BDE730B583B00446F3
:103080000D460DF10702012102F01AFC034640B97A
:103090009DF8072084F8302112F0800F08D100221B
:1030A0002A7013B92A7884F84C20184603B030BD32
:1030B00001222A70F5E72DE9F04107460E46FFF799
:1030C000DCFD044660B10CB9002333737CB1ACB1B4
:1030D000DCB1002C38D0002C3DD02046BDE8F0817A
:1030E00006F108013846FFF7ACFE0446EBE706F1AF
:1030F00010013846FFF7C8FE0446E8E706F1140160
:103100003846FFF79BFD0446E2E70025052DE0DC8D
:10311000002CDED11FFA85F805F1080206EB8202C9
:10312000043241463846FFF754FF044364B2002C92
:10313000CFD105F11802324441463846FFF709FF66
:10314000044364B20135E1E706F13C013846FFF77C
:1031500094FF0446BFE7311D3846FFF7A4FD04463F
:10316000BBE70000F0B593B005460022882102F0CD
:1031700085FB002385F8F0304FF47A72A5F85221D0
:103180004FF4C872A5F85421654AC5F85821654A1C
:10319000C5F8D4202B6202A92846FFF78CFF04460D
:1031A00088B900238DF808308DF8093005F1100634
:1031B00002AF0FCF0FC60FCF0FC60FCF0FC697E8C6
:1031C0000F0086E80F006423A5F834314FF46173D3
:1031D000A5F836314FF4FA73A5F838314FF420636F
:1031E000A5F83C31012685F85061324680212846F9
:1031F00002F044FB044364B23246FF21284602F049
:103200003DFB044364B200221146284602F036FB1F
:10321000044364B20DF107029121284602F050FBED
:10322000044364B29DF8073085F83A3132460021F4
:10323000284602F023FB044364B20022FF21284603
:1032400002F01CFB044364B200228021284602F0F5
:1032500015FB044364B20026052E09DC44B90122A3
:10326000B1B22846FFF72BFE044364B20136F3E700
:103270007CB1ACB1DCB10CB33CB374B3ACB3E4B36C
:10328000002C41D014B9002385F81531204613B025
:10329000F0BD002202212846FFF711FE0446E8E7B0
:1032A000002203212846FFF70AFE0446E2E7002237
:1032B00004212846FFF703FE0446DCE7002205212F
:1032C0002846FFF7FCFD0446D6E74FF49012002194
:1032D0002846FFF74BFE0446CFE74FF4804201211A
:1032E0002846FFF743FE0446C8E74FF40C120221BC
:1032F0002846FFF73BFE0446C1E70022032128468B
:10330000FFF734FE0446BBE7FF2285F83021012198
:10331000284602F0B3FA0446012385F83231B1E7BA
:10332000856B0100A470090008B5012300F03AFE86
:1033300008BD00002DE9F0418EB005460C460C2377
:103340000AAA142102F07EFA0646002864D100235E
:10335000A37523609DF832209DF8330000EB022016
:1033600080B263609DF82E309DF82F2002EB03227F
:1033700092B25202E2609DF830109DF8313003EBBA
:1033800001239BB25B0223619DF82A109DF82B302C
:1033900003EB01239BB2A3829DF82810B5F852716C
:1033A00095F831C1B7F57A7F21D000FB07F000F521
:1033B000FA70364F87FB00E7C017C0EBA717B8B20B
:1033C000D5F820E095F81C80B8F1000F0FD01FFA57
:1033D0008EFE03FB0EFE4FEA2E2E724549D0B8B288
:1033E00002FB00F0A2EB0E0EB0FBFEF080B2BCF1CF
:1033F000000F47D087082781C0B28001E0750DF12A
:10340000370001900094284602F09EF8064376B2F9
:1034100016B99DF8373023763EBB03AF05F1500C4B
:10342000BCE80F000FC79CE8070087E80700238966
:10343000ADF81430E37D8DF823306389ADF8163094
:1034400063680493E368069323690793A38AADF83E
:103450002030237E8DF8243005F1500403AD0FCDCC
:103460000FC495E8070084E8070030460EB0BDE8B9
:10347000F081BCF1000F02D042F2B820B7E748F665
:10348000E020B4E720810020E075B8E7D34D62105A
:1034900070B582B0064614461D460DF106020E2197
:1034A00002F044FABDF806200B4B03EA42432360C6
:1034B000034610B1184602B070BD0DF106020C2192
:1034C000304602F033FA0346BDF80610024A02EA1B
:1034D00041422A60EEE700BF0000FE1F70B582B0D7
:1034E00090F8DA30013BDBB2022B03D900242046EE
:1034F00002B070BD0E4605466B4601AA0121FFF7DA
:10350000C7FF0446019BB3F57F0F03D8009BB3F5BB
:103510007F0FECD9002CEAD1E6B90422FF2128461E
:1035200002F0ACF9044364B200227021284602F094
:10353000A5F9044364B20022FF21284602F09EF957
:10354000044364B200228021284602F097F9044324
:1035500064B2CCE70249284601F0C3FD0446C6E741
:10356000CC03002030B583B004460DF10701FFF70E
:1035700084FB01228021204602F080F90122FF21F4
:10358000204602F07BF900221146204602F076F92F
:1035900094F83A219121204602F070F9012200218D
:1035A000204602F06BF90022FF21204602F066F966
:1035B00000228021204602F061F99DF80730012B9E
:1035C0002BD033B1032B3AD06FF00703184603B06A
:1035D00030BD01220021204602F050F901238DF870
:1035E000063003460028F1D1002535B10DF1060261
:1035F0000021204602F064F9034601359DF80620BB
:1036000012F0010F03D013B9B5F5FA6FEDD3B5F58C
:10361000FA6FDBD36FF00603D8E758B1022200211E
:10362000204602F02BF903460028CFD1042284F86B
:103630003221CBE701212046FFF750FFEEE758B1DA
:1036400004220021204602F019F903460028BDD1CA
:10365000042284F83221B9E701212046FFF73EFF1A
:10366000EEE710B582B004460DF10701FFF705FB48
:10367000034610B99DF8072052B173B12BB99DF8DC
:10368000072012B9032284F83221184602B010BD77
:103690002046FFF767FF0346EFE7204600F00CFEE9
:1036A0000346EBE770B582B00646002501220B21E8
:1036B000304602F0E3F8044600220B21304602F0C7
:1036C000DDF8044364B20DF107021321304602F025
:1036D000F7F8204340B20135EDB29DF8073013F002
:1036E000070F03D0022D01D80028DFD0022D01D80A
:1036F00002B070BD6FF00B00FAE738B504460D4616
:103700000021FFF7A5FA034618B13BB163B1184693
:1037100038BD2046FFF7A5FF0346F6E729462046B9
:10372000FFF708FE0346F1E700212046FFF7BAFF46
:103730000346ECE7F8B59DF81860002940F0A38037
:1037400005461C460F46142A09D0152A10D0042C11
:1037500000F29180DFE804F07A78767C74002EB174
:1037600001228421284602F089F883E01022F8E73C
:103770000122FF2102F082F8044600221146284669
:1037800002F07CF8044364B20022FF21284602F0D4
:1037900075F8044364B201228021284602F06EF8D5
:1037A000044364B202228521284602F067F80443EC
:1037B00064B20422FF21284602F060F8044364B298
:1037C0000022CD21284602F059F8044364B21122A8
:1037D000CC21284602F052F8044364B20722FF21AC
:1037E000284602F04BF8044364B20022BE2128466A
:1037F00002F044F8044364B20622FF21284602F096
:103800003DF8044364B20922CC21284602F036F880
:10381000044364B20022FF21284602F02FF804433B
:1038200064B20122FF21284602F028F8044364B262
:1038300000221146284602F021F8204340B219E048
:10384000042206E0022204E0012202E00A4600E02F
:1038500003220A21284602F011F838B906B11027D0
:103860003B46EF228421284602F044F808B985F847
:10387000DA4018B1F8BD6FF00A00EEE700212846E3
:10388000FFF710FFF6E76FF00900F3E7F0B597B028
:1038900007464022002106A805F0A5FB0023ADF84D
:1038A00016308DF815308DF8143004930121384608
:1038B00000F06BFD97F8131197F81421012A03D833
:1038C00010D092B90C2910D905AA04A9384600F0E5
:1038D0008BFB044674B997F85031002B50D1D7F8C0
:1038E0004C1108E02029EFD8EBE7384600F0F6F954
:1038F0000446EFE75C49002C44D0002C47D0002C54
:103900004ED024B9BDF816301B01C7F8D430002CB6
:103910005CD0002C60D064B907F1100506AE0FCE64
:103920000FC50FCE0FC50FCE0FC596E80F0085E867
:103930000F00002C5DD0002C69D0002C6ED014B983
:10394000032387F83231002C6FD01CB99DF80F305B
:1039500087F8E830002C70D01CB99DF80F3087F83C
:10396000E030002C71D014B9029BC7F8E430002C71
:1039700072D014B9029BC7F8DC30204617B0F0BDF6
:103980003949B8E7384601F0ACFB0446B5E70021F9
:10399000009104230A463846FFF7CCFE0446AEE702
:1039A0000122FF21384601F069FF04460DF116029D
:1039B0008421384601F0BAFF044364B20022FF219B
:1039C000384601F05BFF044364B29AE706A9384623
:1039D000FFF771FB04469CE70DF115013846FFF730
:1039E00050F90446002896D19DF8153087F83131FA
:1039F00091E70DF115020121384601F061FF0446FF
:103A0000002898D19DF8153087F8303193E70022CF
:103A100011463846FFF753F904468EE7002202218B
:103A20003846FFF74CF9044689E70DF10F020021F3
:103A30003846FFF740F9044687E70DF10F020121F0
:103A40003846FFF738F9044686E702AA03213846CC
:103A500000F0A8FF044686E702AA0421384600F0D9
:103A6000A1FF044685E700BFD802002010B582B050
:103A70000C460DF10702132101F022FF9DF80730DB
:103A800003F00702226013F0180F01D102B010BD3D
:103A90006FF00500FAE710B582B00C4690F8DA3006
:103AA000042B0ED00DF10702142101F009FF03468B
:103AB00080B99DF8072012F0010F11D10022227069
:103AC00008E06946FFF7D2FF0346009A042A04D0B3
:103AD00000222270184602B010BD01222270F9E7C0
:103AE00001222270F6E708B500F07EFA08BD10B595
:103AF00082B00C460DF10602282101F017FF0246A4
:103B000050B9BDF80630C3F30B03B3F5006F06D20E
:103B1000FA2103FB01F32360104602B010BDA3F5A8
:103B20008053FA2101FB03F32360F5E7F0B44FF073
:103B3000FF341C604FEAD20C02F0070266460027F1
:103B400008E01541EDB214460BE004EBC6041C601E
:103B5000012701368E420CD25FB9855D6645F0D0F3
:103B60000024072CF5D815F0010FEED16D080134B3
:103B7000F7E7F0BC704700008009044B53F8203091
:103B80000BB9002070470120704700BF840500205A
:103B9000D30802F007028B4206D201219140C25C99
:103BA0000A43C254002070476FF03100704708B5D7
:103BB00006230A46B02101F027FE08BD08B50623FA
:103BC0000A46B02101F03EFE08BD2DE9F04F87B056
:103BD00001908B4600929846109EDDF844A0129FFB
:103BE000DDF84C90059700254D4517D205AB3A46B8
:103BF00031460098FFF79AFF059CB4F1FF3F15D0BE
:103C000004EB0A00FFF7B8FF584512D122463146AF
:103C10004046FFF7BDFF671C0135E5E70020149B18
:103C20001F6048B168B107B0BDE8F08F6FF0310098
:103C3000F5E76FF03100F2E741460198FFF7B7FF73
:103C4000F0E703A90198FFF7B9FF0023B342EAD2D6
:103C500018F8031006AA1A4412F80C2C914201D14C
:103C60000133F3E76FF03100DDE770B588B004464B
:103C70000E4690F83051C022012101F0FFFD0346AD
:103C800030B15BB18BB1BBB1EBB1184608B070BDC0
:103C900001A92046FFF731FD0346F2E70122FF218B
:103CA000204601F0EBFD0346ECE73246B621204604
:103CB00001F03CFE0346E6E70022FF21204601F02A
:103CC000DDFD0346E0E72A460121204601F0D6FD4E
:103CD00003460028D9D184F83051D6E7F0B589B031
:103CE00005460F4616460122FF2101F0C7FD034697
:103CF00020B153B183B1B3B100231FE000224F21A3
:103D0000284601F0BBFD0346F3E72C224E2128464E
:103D100001F0B4FD0346EDE70022FF21284601F043
:103D2000ADFD0346E7E7B422B621284601F0A6FD23
:103D3000E2E7EA18002182F824110133052BF8D9B3
:103D400036BB002407AB049303970294B42301937A
:103D50000623009305F5927305F5957231462846C2
:103D6000FFF733FF034630B9012285F8152185F8A6
:103D7000137185F81461184609B0F0BD013404F1DF
:103D8000B400FFF7F9FE0028DCD12B2CF6D9D9E7D7
:103D90000024F4E710B5044641F00102002101F0CF
:103DA0006DFD034618B13BB163B1184610BD204606
:103DB00000F082FA0346F6E700212046FFF772FC86
:103DC0000346F1E700221146204601F057FD034665
:103DD000EBE72DE9F04F83B00546884692469946B9
:103DE0009DF838709DF83C604FF0000B8DF807B0DF
:103DF0000122FF2101F042FD04465A465946284659
:103E000001F03CFD044364B25A46FF21284601F00C
:103E100035FD044364B2B8F1000F30D0F7B92EBBC2
:103E20000122FF21284601F029FD044364B201224A
:103E30000021284601F022FD044364B20022FF2144
:103E4000284601F01BFD20439DF8073003F0EF03E7
:103E50000D9A137040B203B0BDE8F08F0C9ACB21DD
:103E6000284601F02DFD044364B2D8E70DF10702A6
:103E7000EE21284601F024FD044364B2D0E757B98F
:103E8000002ECDD04B468022EE21284601F032FD97
:103E9000044364B2C4E75246CB21284601F0EEFC4D
:103EA000044364B2ECE72DE9F04186B004460D46C8
:103EB000174600228DF817201E469BB190F83081DE
:103EC00001221146204601F0D9FC034668B10BB926
:103ED000012F10D000222A7003B9D6B9184606B0B7
:103EE000BDE8F0814FF00008EAE740212046FFF7E7
:103EF00051FF0346EBE700220392012102910DF1ED
:103F000017030193009513462046FFF762FF03460F
:103F1000E2E742460121204601F0B0FC03460028BA
:103F2000DCD184F83081D9E72DE9F04186B0044630
:103F30000D4617461E469BB190F8308102220121A2
:103F4000204601F09BFC034668B10BB9012F10D04D
:103F500000222A7003B9D6B9184606B0BDE8F08130
:103F60004FF00008EAE700212046FFF713FF034661
:103F7000EBE7012103910022029201950DF1170355
:103F8000009313462046FFF724FF0346E2E742462C
:103F90000121204601F072FC03460028DCD184F8A0
:103FA0003081D9E7F8B5044617461D4690F83061D0
:103FB00000232A46FFF777FF034610B14BB118469E
:103FC000F8BD00232A4639462046FFF7ADFF0346D9
:103FD000F4E732460121204601F050FC0346002858
:103FE000EDD184F83061EAE72DE9F04F95B0044651
:103FF0000C910D920023119310938DF83D308DF8A4
:104000003C30B0F83CA104E0E218002182F8241111
:104010000133052BF8D90122FF21204601F02EFCA7
:104020000546002832D0002D37D0002D3CD0002D81
:1040300041D0002D46D0002D4BD0002D52D0002D68
:1040400065D000231F460A9398460893002D40F040
:104050001A81BDF83E30534580F015819DF820202F
:104060000A92D4F824011290B4F82821ADF84C201B
:10407000CDF824A0A3EB0A03002BB8BF5B420B933F
:104080004FF003084FF0000B0797C1E000224F21CB
:10409000204601F0F3FB0546C5E72C224E212046C1
:1040A00001F0ECFB0546C0E70022FF21204601F0AD
:1040B000E5FB0546BBE7B422B621204601F0DEFB56
:1040C0000546B6E700228021204601F0D7FB0546D1
:1040D000B1E700230FAA0DF13D012046FFF762FF73
:1040E0000546AAE7002114AB43F80C1D04930323F3
:1040F00003930291B42301930623009304F5927372
:1041000004F595722046FFF760FD054697E7119F7D
:104110000DF13E012046FFF7A8FD0546002845D1D8
:10412000BDF83E3053450CD800230A9398460893B7
:104130008CE7E218002182F824110133052BF8D90D
:1041400002E00023FAE7013707F1B400FFF714FD9E
:1041500008B92B2FF7D911AB0493032303930297CC
:10416000B42301930623009304F5927304F595722A
:1041700001212046FFF729FD054628B100230A93B7
:1041800098460123089361E7119F0DF13E012046F7
:10419000FFF76BFD054670B9BDF83E30534510D8AA
:1041A00000230A939846012308934FE700230A93BC
:1041B000984608934AE700230A93984601230893F8
:1041C00044E701230A934FF0030808933EE7731C6A
:1041D000079349462046FFF7EAFC05463AE012A954
:1041E0002046FFF7E4FC05461298C4F82401BDF808
:1041F0004C30A4F8283147464FF0010B07E0D4F8C3
:1042000024011290B4F82821ADF84C200B93B84645
:10421000BBF1000F37D110AB079A062104F595705A
:10422000FFF784FC109EB6F1FF3F2AD0079606F1F7
:10423000B400FFF7A1FC089B984224D108F10107C4
:1042400004F59279324606214846FFF7A1FC05465F
:104250000028BCD05DBB0DF13E012046FFF705FDF7
:10426000054630BBBDF83E20099BD31A002BB8BFD2
:104270005B425245C3D90B9A9A42B0D34FF0010B1F
:10428000C5E76FF0310575B90C9AC2F800800D9939
:104290000A980870012384F81531137884F81331D3
:1042A0000B7884F81431284615B0BDE8F08FB84675
:1042B000E9E7B846E7E7000030B583B005460024DB
:1042C0008DF807400DF107012846FFF7E4FB024691
:1042D00080B99DF80730012B0CD001340748FDF759
:1042E0004FFCB4F5FA6F03D2284601F069FBE9E709
:1042F0006FF00602104603B030BD00BFF0D90008D1
:104300000130C0B2400000F0FE00704740080138A4
:10431000C0B270474FF0804300E09B088342FCD856
:10432000002201E052089B0833B1D1188142F9D82C
:10433000401A03EB5202F6E71046704770B582B0A0
:1043400006460022832101F099FA0546A0B900240F
:104350000DF107028321304601F0B2FA05469DF8BF
:10436000073023B918B90134B4F5FA6FF0D3B4F5B6
:10437000FA6F01D36FF0060501228321304601F068
:104380007DFA284340B202B070BD2DE9F04F8DB0E8
:1043900005460F4600230893079390F8F060072E18
:1043A00019D14FF00008C246C146C3464446002C0E
:1043B00040F09882072E00F0958217F0010F00F070
:1043C0006B8216F0010F40F0678285F813B185F813
:1043D000149100235EE20122802101F04FFA04468D
:1043E0000122FF21284601F049FA044364B2002269
:1043F0001146284601F042FA044364B20622FF2126
:10440000284601F03BFA044364B20DF12F028321E8
:10441000284601F055FA044364B29DF82F2042F07B
:1044200004028321284601F029FA044364B20722DA
:10443000FF21284601F022FA044364B201228121BF
:10444000284601F01BFA044364B2284601F0B8FA8A
:10445000044364B201228021284601F00FFA04438C
:1044600064B217F0010F5BD016F0010F03D04FF0CC
:104470000009CB4657E06B229421284601F0FEF953
:10448000044364B22846FFF759FF044364B20AAA02
:104490009021284601F06CFA044364B20A9BC3F3EE
:1044A000062BC3F3C03924229421284601F0E6F9F3
:1044B000044364B22846FFF741FF044364B20AAAEA
:1044C0009021284601F054FA044364B20A9B1A0E64
:1044D0008DF80020C3F307428DF80120C3F30722B3
:1044E0008DF802208DF8033025229421284601F012
:1044F000C5F9044364B22846FFF720FF044364B2C1
:104500000AAA9021284601F033FA044364B20A9BB8
:104510001A0E8DF80420C3F307438DF8053002E02E
:104520004FF00009CB4617F0020F02D016F0020F31
:104530000BD017F0040F00F0658116F0040F00F0A7
:10454000DC804FF00008C2465FE102229421284639
:1045500001F094F9044364B22846FFF7EFFE0443E8
:1045600064B20DF127029021284601F0A9F9044315
:1045700064B27B229421284601F080F9044364B29E
:104580002846FFF7DBFE044364B20DF126029021BA
:10459000284601F095F9044364B277229421284615
:1045A00001F06CF9044364B22846FFF7C7FE0443E8
:1045B00064B20AAA9021284601F0DAF9044364B2F1
:1045C0000A9B5A0E8DF80820C3F386428DF8092005
:1045D000C3F3C6228DF80A20C3F306128DF80B2010
:1045E000DB0003F078038DF82F30782294212846E1
:1045F00001F044F9044364B22846FFF79FFE0443E8
:1046000064B20AAA9021284601F0B2F9044364B2C8
:104610000A9B9DF82F2002EB53728DF80C20C3F3F8
:1046200086528DF80D20C3F3C6328DF80E20C3F3E9
:1046300006228DF80F20C3F346028DF810209B014F
:1046400003F040038DF82F3079229421284601F0A1
:1046500015F9044364B22846FFF770FE044364B2C0
:104660000AAA9021284601F083F9044364B20A9B08
:104670009DF82F2002EB93628DF81120C3F3C64200
:104680008DF81220C3F306328DF81320C3F34612BF
:104690008DF814209B0003F07C038DF82F307A22D4
:1046A0009421284601F0EAF8044364B22846FFF753
:1046B00045FE044364B20AAA9021284601F058F945
:1046C000044364B20A9B9DF82F2002EB93728DF88D
:1046D0001520C3F3C6528DF81620C3F306428DF899
:1046E0001720C3F346228DF81820C3F386038DF8F4
:1046F000193000238DF81A301BE77B2294212846BD
:1047000001F0BCF8044364B22846FFF717FE0443E7
:1047100064B208AA9021284601F02AF9044364B241
:104720007C229421284601F0A9F8044364B228466B
:10473000FFF704FE044364B207AA9021284601F063
:1047400017F9044364B273229421284601F096F8C5
:10475000044364B22846FFF7F1FD044364B20AAA99
:104760009021284601F004F9044364B20A9B4FEA01
:1047700003281FFA88F874229421284601F07EF855
:10478000044364B22846FFF7D9FD044364B20AAA81
:104790009021284601F0ECF8044364B29DF82B30D8
:1047A00043EA080875229421284601F067F804437B
:1047B00064B22846FFF7C2FD044364B20AAA9021FE
:1047C000284601F0D5F8044364B20A9B4FEA032A55
:1047D0001FFA8AFA76229421284601F04FF8044302
:1047E00064B22846FFF7AAFD044364B20AAA9021E6
:1047F000284601F0BDF8044364B29DF82B3043EA2B
:104800000A0A02E04FF00008C24600228121284631
:1048100001F034F8044364B20622FF21284601F077
:104820002DF8044364B20DF12F028321284601F0D4
:1048300047F8044364B29DF82F2002F0FB02832165
:10484000284601F01BF8044364B20122FF212846E8
:1048500001F014F8044364B201220021284601F05B
:104860000DF8044364B20022FF21284601F006F847
:10487000044364B200228021284600F0FFFF044375
:1048800064B294E50CAA1A4412F8301CEA1882F8B3
:104890002A110133052BF5DD17F0020F02D016F0B7
:1048A000020F23D017F0040F19D016F0040F16D101
:1048B000089BC5F81831079BC5F81C314FEA4823FF
:1048C000C5F82031BAF1000F1ED0AAF5C85A4FF42E
:1048D0007A7303FB0AF31B095B421BB2EB603E4396
:1048E00085F8F06020460DB0BDE8F08F9DF82730C8
:1048F00085F8F1309DF8263085F8F23002A905F1EF
:10490000F30004F0D5FFCDE70023E7E701EBC10199
:104910000B0240F2776000FB03F0704770B1013882
:10492000002302E0400801339BB230F0FF02F9D1CE
:104930001B029BB253FA80F080B270470020704790
:10494000C3B2000A03FA00F00130704710B50C46FC
:104950001146FFF7DBFF00F5FA70064BA3FB0023BF
:104960009809DB094FF47A7202FB0433B3FBF0F0D1
:1049700010BD00BFD34D621010B50C461146FFF7B5
:10498000C5FF00F5FA70064BA3FB0020800900FB71
:1049900004F000F5FA70A3FB0030800910BD00BFE1
:1049A000D34D6210F0B585B00446164600238DF84D
:1049B0000E30ADF80C30022909D9032921D0042981
:1049C00042D0002005463060284605B0F0BD0DF10C
:1049D0000F021946FEF76FF9054650B19DF80E001B
:1049E000FFF7AEFF9DF80F2081B22046FFF7C4FF0E
:1049F000E9E70DF10E024621204600F061FF054671
:104A0000ECE70DF10F020021FEF755F9054608B15C
:104A10000020D8E70DF10F0200212046FEF74BF9E8
:104A2000054650B1BDF80C00FFF78AFF9DF80F2036
:104A300081B22046FFF7A0FFC5E703AA5121204617
:104A400000F074FF0546EDE701A9FEF7B9F99DF8FE
:104A50000730B3B10DF10F0200212046FEF72BF90C
:104A6000054610B10027A5B90CE003AA5121204644
:104A700000F05CFF0546BDF80C00FFF761FF87B250
:104A8000F1E700270DF10F0201212046FEF713F98F
:104A9000054645B10021C91B9DF80F2089B220466B
:104AA000FFF76AFF8FE70DF10A027121204600F03F
:104AB0003DFF0546BDF80A00FFF742FF81B2EAE775
:104AC000F0B585B004461646022917D9032935D01A
:104AD00004297ED101A9FEF773F99DF80730002B58
:104AE00057D00DF10F0200212046FEF7E4F80546ED
:104AF000002842D00027002D53D14BE00DF10F02CA
:104B00000021FEF7D8F8054670B99DF80F20314610
:104B10002046FFF71BFF83B2B3F5807F0CD8C7B2E6
:104B2000013FFFB2A4F8D870E5BB3A4646212046C3
:104B300000F0A4FE054635E0FF27F3E70DF10F0274
:104B40000021FEF7B8F805469DF80F2031462046B3
:104B5000FFF7FCFE80B2FFF7E1FEADF80C00A4F811
:104B6000D8001DB1F5B9C4F8E4601BE0024651213C
:104B7000204600F093FE0546F4E703AA51212046A3
:104B800000F0D4FE0546BDF80C00FFF7D9FE87B251
:104B9000B1E700270DF10F0201212046FEF78BF847
:104BA000054615B1284605B0F0BD9DF80F203146E9
:104BB0002046FFF7CBFE3844FFF7B0FE02467121D6
:104BC000204600F06BFE05460028EBD1C4F8DC60FF
:104BD000E8E76FF00305E5E7F0B585B000238DF851
:104BE000033012F0010F40F0788129B90B2A40F20E
:104BF0007781122A00F2778101290DD015460E46E1
:104C00000746E9BB0C2A0FD00E2A18D0102A21D053
:104C1000122A2AD0002336E0072A40F267810E2AA2
:104C2000ECD96FF0030311E11822572100F026FEA2
:104C300008225621384600F021FE034623E03022A8
:104C4000572100F01BFE08225621384600F016FEC0
:104C5000034618E04022572100F010FE082256219A
:104C6000384600F00BFE03460DE05022572100F0BD
:104C700005FE08225621384600F000FE034602E0F9
:104C8000012910D00023002B40F0DC802846FFF7DC
:104C90003DFB0446002E00F0C980012E00F0F58097
:104CA0006FF00303D0E0082A08D00A2A34D00C2A77
:104CB00060D00E2A00F08C800023E4E71022482107
:104CC00000F0DCFD08224721384600F0D7FD0446FD
:104CD00002223221384600F0D1FD044364B20C2296
:104CE0003021384600F0CAFD044364B20122FF219E
:104CF000384600F0C3FD044364B230221146384602
:104D000000F0BCFD044364B20022FF21384600F0ED
:104D1000B5FD204343B2B6E72822482100F0AEFD9E
:104D200008224721384600F0A9FD0446032232211B
:104D3000384600F0A3FD044364B20922302138460E
:104D400000F09CFD044364B20122FF21384600F0CC
:104D500095FD044364B220223021384600F08EFDD8
:104D6000044364B20022FF21384600F087FD20434F
:104D700043B288E73822482100F080FD082247210D
:104D8000384600F07BFD044603223221384600F00D
:104D900075FD044364B208223021384600F06EFDF0
:104DA000044364B20122FF21384600F067FD04434A
:104DB00064B220223021384600F060FD044364B222
:104DC0000022FF21384600F059FD204343B25AE744
:104DD0004822114600F052FD08224721384600F0D3
:104DE0004DFD044603223221384600F047FD0443BE
:104DF00064B207223021384600F040FD044364B21B
:104E00000122FF21384600F039FD044364B220221C
:104E10003021384600F032FD044364B20022FF2105
:104E2000384600F02BFD204343B22CE702AA0321B1
:104E30003846FFF7B7FD034658B18BB1BBB1EBB1B4
:104E400087F8E850002B39D0002B3DD0184605B02C
:104E5000F0BD01AA02213846FFF7A4FD0346ECE7A6
:104E600022465021384600F009FD0346E6E7029A43
:104E700003213846FFF724FE0346E0E7019A0221AA
:104E80003846FFF71DFE0346DAE703AA0421384639
:104E9000FFF788FD034618B14BB187F8E050D1E722
:104EA00022467021384600F0E9FC0346F4E7039AF5
:104EB00004213846FFF704FE0346EEE779693846D9
:104EC000FDF7EDFE0346BFE7012300220DF10301CC
:104ED0003846FFF729F80346B8E76FF00303B5E754
:104EE0006FF00303B2E76FF00303AFE76FF0030364
:104EF000ACE730B583B0154621B1012911D06FF070
:104F000003040BE00DF10702502100F0D9FC044628
:104F100024B99DF80700FFF7F3F92870204603B085
:104F200030BD0DF10702702100F0CAFC0446EFE726
:104F300070B584B04FF4FA6301930023009344F6F4
:104F40001F63994257D90D460446A1F6363602A989
:104F5000FDF736FF034610BB9DF808202AB99DF8DF
:104F6000092012B99DF80A20CAB101AA02212046DF
:104F7000FFF718FD0346D0B99DF808202AB1019A21
:104F800002F24E22964239D9B61A9DF80A208AB109
:104F9000019A02F2B2225200964232D9B61A33B9BD
:104FA0009DF80B208AB913B99DF80C20D2B9184688
:104FB00004B070BD9DF80920002AF0D0019A02F5D6
:104FC0002572964220D9B61AE9E76A46032120469F
:104FD000FFF7E8FC0346009A02F52572964216D9BF
:104FE000B61AE0E7A6F2262204212046FFF768FD64
:104FF00003466561DBE76FF00303D8E76FF0030357
:10500000D5E76FF00303D2E76FF00303CFE76FF04C
:105010000303CCE730B587B005460C464FF4FA637E
:1050200002930023019340F636330B6004A9FDF789
:10503000C7FE034668BB9DF810202AB99DF81120D1
:1050400012B99DF81220CAB102AA02212846FFF720
:10505000A9FC034690B99DF810202AB1029A02F2E9
:105060004E2122680A4422609DF81220A2B1029AC1
:1050700002F2B221226802EB4102226013B99DF8CC
:105080001320A2B913B99DF81420EAB90BB922680C
:105090006A61184607B030BD9DF81120002AEDD096
:1050A000029A02F5257122680A442260E6E701AA05
:1050B00003212846FFF776FC0346019A02F5257185
:1050C00022680A442260DDE703AA04212846FFF78C
:1050D00069FC0346039A02F2262122680A442260F0
:1050E000D4E7F0B583B006460D46002420463CE0E8
:1050F000AB5CA21C032B44D8DFE803F0020B141DA9
:10510000A95CE21CAB5C043403EB0123A6F8343148
:105110002BE0A95CE21CAB5C043403EB0123A6F892
:10512000363122E0A95CE21CAB5C043403EB0123C2
:10513000A6F8383119E0A95CE21CAB5C043403EB3F
:105140000123A6F83C3110E0A95C0234002206E0FD
:105150002F5D02A8104400F8047C01340132934210
:10516000F6DC01AA304600F04FFB2B5D6BB160B955
:10517000621CFF2BBCD0042BE6D914466FF0030051
:10518000F3E714466FF00300EFE703B0F0BD70B52E
:1051900082B006460D461446002313600DF1070148
:1051A000FDF76EFE024648B99DF8073033B1336A09
:1051B000A98A03FB01F380331B0A2360104602B067
:1051C00070BD10B582B01446CB68136001AAFFF71A
:1051D000DEFF024618B9236801990B44236010468C
:1051E00002B010BD2DE9F041079DDDF820C0099FF8
:1051F000B0F85441D0F8586106FB04F68036360A00
:1052000006FB04F610465AB1540804EB8124B4FBA3
:10521000F2F000EB400000FB00F000F50044200C31
:10522000069A02FB03F404F50044240C04FB04F288
:1052300005F500431B0C03332449A1FB03139B0812
:10524000C3EBC303B3F5803F3ED203351F4CA4FB31
:105250000535AD08C5EBC50505F500452C0C04FB6F
:1052600004F4144404EB5C04B4FBFCF4A4037F34A6
:105270006408174BA3FB0434A40904FB00F404F5F1
:10528000FA74144DA5FB0434A409240104F5FA743E
:10529000A5FB0435AD0906F120008009FFF73AF8B7
:1052A000804635B10B4BA3FB043406EBD416B6FB9A
:1052B000F5F52846FFF72EF8C7F80080804500D99D
:1052C00038600020BDE8F081034CCAE7ABAAAAAA67
:1052D00009040281D34D62100000F0FF2DE9F04F68
:1052E0008FB00646894606920793036A0D930B69B1
:1052F0004FF47A7404FB03F30893CB6809930CAA68
:10530000FFF75FFF0DAA49463046FFF740FF824690
:105310000C9F04FB07F505F500452B0C05930D9B31
:1053200004FB03F4B4F5481F01D94FF44814BAF153
:10533000000F36D1D6F8DC300A9396F8E0B05A4622
:1053400019463046FFF702FB8046D6F8E4300B934F
:1053500096F8E82019463046FFF7F8FABBF1080F37
:1053600000F0BE800323804403FB08F3DB0203F557
:10537000FA736E4AA2FB03139B0940F2776808FB9D
:1053800003F808F5FA78A2FB08384FEA9818803736
:105390003F0A08FB07FB0BF1800B4FEA1B2B3F0278
:1053A0000C97BAF1000F40F0BD80059B002B00F078
:1053B0009980BBF1000F01D14FF0010B089B1F0C2E
:1053C0003F04059BB7FBF3F7594B9F4200D91F469B
:1053D0004FF4167303FB07F70BEB4B039800FEF734
:1053E00099FF4FEA400AB9F80830524A02FB03F32A
:1053F0002D0C2D04A5EB440404F5FA744B4AA2FBD2
:105400000414A40905F5FA75A2FB0525AD092402CB
:10541000B4FBF5F52D0299F81820002A6BD1464C03
:10542000A4FB0334A40AC5F5803504FB05F404F598
:105430000044240C04F58034640804FB04F4A40B39
:105440004FF4487000FB04F000F50040000C07F535
:1054500000431B0C03FB03F300FB0030FEF75AFF75
:1054600000043230354BA3FB00304009B0FBFAFAA0
:1054700040F6B53241F2883302FB0A3A304BA3FBC7
:105480000A3A4FEA5A3ABAF5704F01D94FF4704AC6
:105490000A9B0B9A134403F5FA73244DA5FB0323CF
:1054A0009809DB0903F5C813B3FBF0F0FEF732FFF0
:1054B000000200F5FA70A5FB0030800900FB00F047
:1054C0000AFB0A00FEF726FF4FF47A7303FB00F095
:1054D000BBF1000F12D01B4B984210D919480EE0B7
:1054E000022340E7174B069A1360C6F840310023A9
:1054F000079A136016E04FF48034A1E71148069B29
:105500001860C6F84001079B0393CDF80880019707
:105510004FF4487300932346099A0C993046FFF7DD
:1055200061FE824650460FB0BDE8F08FD34D621049
:10553000666666009A990600517BC6371F85EB5157
:105540005917B7D1AE878F022DE9F04F89B00446C5
:1055500091469B4600238DF81F308DF81E308DF844
:105560001D308DF81C30ADF80A300193C1F3C3052E
:105570008DB1052D4BD0072D4CD00C2D4DD00D2DC0
:105580004ED00E2D4FD00F2D02D04FF0000A04E068
:105590004FF0010A01E04FF0010A0DF11F02002156
:1055A0002046FDF7D6FC03469DF81F80B8F1000F9A
:1055B00003D000283AD04FF00008002B59D09DF8B6
:1055C0001D6016B1002B5CD00026002B00F08780F8
:1055D0009DF81C70002F00F08D80002B40F089801A
:1055E000BBF1000F00F082804FEA0929B9FBFBFBF9
:1055F00003AA03212046FDF7ECFC0346039A002A88
:1056000000F084805A4500F28380002772E04FF05A
:10561000010AC2E74FF0010ABFE74FF0010ABCE7F9
:105620004FF0010AB9E74FF0010AB6E701AB06AA4D
:1056300012992046FFF752FE034610B9019A1299BB
:105640004A8113B14FF00008B7E705AA00212046B0
:10565000FDF7BFFC0346059A2AB106998A4205D395
:105660004FF00008A9E74FF00008A6E74FF0010847
:10567000A3E70DF11D0202212046FDF76AFC034657
:105680009DE704AA02212046FDF7A3FC034660B172
:1056900093B1CBB1BDF80A205202C4F84821049955
:1056A000C9B1914219D300268FE70122FF2120467C
:1056B00000F0E4F80346EBE70DF10A02B6212046BC
:1056C00000F034F90346E4E70022FF21204600F011
:1056D000D5F80346DEE7002677E7012675E707AA37
:1056E00003212046FDF735FC034671E74FF0000B20
:1056F0007EE700278BB9BAF1000F0BD16B1EDBB22E
:10570000022B26D80523139A137006E00027F1E731
:105710000127EFE7FF23139A1370139B1B780BB934
:10572000129A53810DF11E0201212046FDF711FC52
:105730000346002841D19DF81F200AB94FF0010807
:1057400084F82E80042D29D09DF81E20CABB01228A
:1057500025E0062D12D0092D10D0082D12D00A2DCB
:1057600010D0012E0ED0042D10D0012F0ED0B8F184
:10577000010F0FD00023139A1370CEE70423139A5E
:105780001370CAE70323139A1370C6E70223139A10
:105790001370C2E70123139A1370BEE7012284F845
:1057A0002F209DF81D2002B9012684F830609DF855
:1057B0001C2002B9012784F83170184609B0BDE8F1
:1057C000F08F0022EBE710B582B002F10A0390F8E7
:1057D0006041D0F85C01009393B20A46214601F083
:1057E000E9FF02B010BD10B582B002F10A0390F8D3
:1057F0006041D0F85C01009393B20A4644F0010185
:1058000002F09AF802B010BD3F2B12D8F8B51E4630
:10581000154604460A4F384600F8011B1A46294629
:1058200003F0D6FB721C39462046FFF7CCFF18B9AF
:10583000F8BD6FF0030070476FF01300F8E700BF8A
:10584000BCFA002070B582B0044615461E4602AB75
:1058500003F8011D01221946FFF7B5FF38B932469A
:1058600029462046FFF7BFFF20B902B070BD6FF098
:105870001300FAE76FF01300F7E7000008B5064BD6
:1058800019705A7002221946FFF79DFF00B908BD32
:105890006FF01300FBE700BFBCFA002008B5074B10
:1058A0001970110A59709A7003221946FFF78BFF7D
:1058B00000B908BD6FF01300FBE700BFBCFA002081
:1058C00030B583B00446154602AB03F8011D012232
:1058D0001946FFF778FF38B9012229462046FFF71D
:1058E00082FF20B903B030BD6FF01300FAE76FF00C
:1058F0001300F7E7F0B583B006460F4615461C4681
:105900000DF10702FFF7DCFF034610B1184603B0A4
:10591000F0BD9DF807202A4022438DF80720394624
:105920003046FFF7ABFF0346F0E7000030B583B029
:105930000446154602AB03F8011D01221946FFF784
:1059400042FF68B9022209492046FFF74CFF50B9CF
:10595000064A1178537803EB01232B8003B030BD46
:105960006FF01300FAE76FF01300F7E7BCFA0020BE
:1059700030B583B00546144602AB03F8011D012281
:105980001946FFF720FF98B904220C492846FFF773
:105990002AFF80B9094A117853781B0403EB01638D
:1059A000917803EB0123D2781344236003B030BD18
:1059B0006FF01300FAE76FF01300F7E7BCFA00206E
:1059C00008B5022002F0B0FD002008BD10B400248C
:1059D00008E072B60B5D4360036813F0800FFBD0E4
:1059E00062B60134A242F4DC00205DF8044B70473B
:1059F00008B5064B834200D008BD4B78012BFBD184
:105A00008B78FF2BF8D1FCF727F8F5E718FF00207B
:105A100010B58EB0344B5A6C42F010025A645B6C75
:105A200003F010030093009B4FF4C0630193022323
:105A30000293032303930024049401230593072373
:105A4000069301A9294803F0BDF8294B1A6822F0F2
:105A5000606242F000621A601A6822F0C0021A60A6
:105A60001A6822F440321A601A6822F4907242F4E2
:105A700080721A601A6822F400721A601A6842F47E
:105A800080621A601A6822F4C0521A601A6822F4FE
:105A9000C0421A605A6922F004025A61154BDB6851
:105AA000154B83F8254320225A60144B0793089422
:105AB00009940A940C230B930C940D9404F18044E4
:105AC00004F5883407A9204602F07AFF236923F4FD
:105AD00090432361636923F02A036361E36843F41D
