:020000040800F2
:1000000000800120456000089560000895600008A8
:1000100095600008956000089560000800000000E9
:1000200000000000000000000000000095600008D3
:100030009560000800000000956000081D3D000864
:1000400095600008956000089560000895600008BC
:1000500095600008956000089560000895600008AC
:10006000956000089560000895600008956000089C
:10007000956000089560000895600008956000088C
:10008000293D000895600008956000080000000008
:100090000000000000000000000000009560000863
:1000A000956000089560000895600008956000085C
:1000B000956000089560000895600008956000084C
:1000C000956000089560000895600008956000083C
:1000D00095600008393D0008493D00080000000017
:1000E0009560000895600008956000080000000019
:1000F0000000000000000000000000009560000803
:1001000000000000956000089560000895600008F8
:1001100000000000000000000000000000000000DF
:1001200095600008593D0008693D00089560000889
:1001300095600008000000000000000000000000C2
:1001400000000000000000000000000095600008B2
:10015000956000089560000895600008793D0008EA
:10016000893D0008956000080000000000000000C4
:10017000000000000000000000000000000000007F
:100180000000000095600008000000000000000072
:04019000956000086E
:1001940053B94AB9002908BF00281CBF4FF0FF31EA
:1001A4004FF0FF3000F00CB8ADF1080C6DE904CE4F
:1001B40005F0AFFFDDF804E0DDE9022304B0704789
:1001C400704700BF10B5054C227832B9044B13B107
:1001D4000448AFF300800123237010BD5C040020A9
:1001E40000000000CC63000808B5034B1BB10349B1
:1001F4000348AFF3008008BD000000006004002045
:10020400CC63000808B500F056FF08BD08B54A08DD
:100214008A2102F011FE08BD15290FD8DFE801F08C
:100224000B0B0E0B0E0E0E0E0E0E0E0E0E0E0E0EF3
:100234000E0E0E0E0B0B0174002070476FF00700BA
:100244007047037C0B700020704710B50C460A46BB
:10025400092102F013FE024618B9237803F00103C2
:100264002370104610BD08B502F040F908BD08B56A
:1002740002F0AEF908BD08B501F08CFF08BD08B561
:1002840002F015F908BDF0B583B006460D461746D1
:1002940002AA002302F8013D012102F0EFFD9DF8BE
:1002A4000730044668BB012F06D0042D38D8DFE898
:1002B40005F0191C1F222500042D2DD8DFE805F0B8
:1002C4000306090C0F0043F010051BE043F028055A
:1002D40018E043F0040515E043F0400512E043F054
:1002E40080050FE003F0EF050CE003F0D70509E00B
:1002F40003F0FB0506E003F0BF0503E003F07F0510
:1003040000E01D469D4204D074B10CB986F830510A
:100314008CB1204603B0F0BD1D466FF00304F1E735
:100324001D466FF00304EDE72A460121304602F032
:1003340083FD0446E9E771693046FFF794FFE8E777
:100344000020187004291CD8DFE801F003080D12FE
:100354001700C2F300121A7000207047C2F3C002E3
:100364001A7000207047C2F380021A700020704790
:10037400C2F380121A7000207047D2091A7000204C
:1003840070476FF00300704730B583B004460D46E4
:1003940002AA002302F8013D012102F06FFD034689
:1003A40030B173B1B3B1F3B133B3184603B030BD58
:1003B4002B469DF8072000212046FFF7C1FF034686
:1003C400EFE7AB1C9DF8072001212046FFF7B8FF9B
:1003D4000346E7E76B1C9DF8072002212046FFF740
:1003E400AFFF0346DFE7EB1C9DF8072003212046FF
:1003F400FFF7A6FF0346D7E72B1D9DF8072004212E
:100404002046FFF79DFF0346CFE730B583B004468F
:100414000D460DF10602F82102F066FD034660B1B7
:1004240043B9BDF806201AB10099B1FBF2F22A6073
:100434002A68A261184603B030BD6A4604212046EA
:1004440002F074FD0346EBE7037F0B700020704756
:1004540030B583B004460D460DF10602202102F0AA
:1004640043FD024638B9BDF806303BB1DB002B60D2
:10047400236201232377104603B030BD236A2B6027
:1004840000232377F7E7052941D8F8B58AB101F1AC
:100494000C0300EB8303D3F804C0002301271646A2
:1004A4000C460546052935D8DFE801F0080C181C70
:1004B4002026174601234FF0000CF0E780F828703F
:1004C400002005E0CCF34F22442102F0C5FC20B902
:1004D400C6B12C44012384F82830F8BD80F82A7072
:1004E4000020F5E780F82B700020F1E75B00FE2286
:1004F400602102F0DDFCEAE71B01EF22602102F03B
:10050400D7FCE4E72C44002384F82830E5E76FF0B7
:10051400030070476FF00300DFE7052905D808449E
:1005240090F82830137000207047002313706FF088
:1005340003007047431893F8283053B170B516463A
:100544000C460546052925D8DFE801F0090C181BDF
:100554001E1E0C3100EB81014A60002070476A6363
:10056400002005E0C2F34F22442102F075FC20B9BB
:1005740004F10C0105EB81014E6070BDEA630020BB
:10058400F6E72A640020F3E7C2F34F22642102F065
:1005940063FCECE76FF00300EFE7F0B583B00546CA
:1005A4000C46174605292DD8DFE801F0030C181C6A
:1005B4002020466B002213460BB95ABB3E601846F6
:1005C40003B0F0BD0DF10602442102F08DFC034698
:1005D400E0B9BDF8066076020122EDE7C66B0022A1
:1005E4001346E9E7066C00221346E5E70DF106021F
:1005F400642102F079FC034650B9BDF80660760226
:100604000022D9E700226FF00303D5E70122D3E7E4
:100614000022D1E756B904F10C0205EB82025268BC
:100624003A602C44002284F82820C8E73E6004F194
:100634000C0205EB820256602C44012284F8282027
:10064400BDE730B583B004460D460DF10702012124
:1006540002F014FC034640B99DF8072084F83021C9
:1006640012F0800F08D100222A7013B92A7884F876
:100674004C20184603B030BD01222A70F5E72DE95D
:10068400F04107460E46FFF7DCFD044660B10CB9A5
:10069400002333737CB1ACB1DCB1002C38D0002C16
:1006A4003DD02046BDE8F08106F108013846FFF749
:1006B400ACFE0446EBE706F110013846FFF7C8FE2E
:1006C4000446E8E706F114013846FFF79BFD0446AB
:1006D400E2E70025052DE0DC002CDED11FFA85F8C9
:1006E40005F1080206EB8202043241463846FFF760
:1006F40054FF044364B2002CCFD105F118023244F4
:1007040041463846FFF709FF044364B20135E1E787
:1007140006F13C013846FFF794FF0446BFE7311D5C
:100724003846FFF7A4FD0446BBE70000F0B593B0DC
:1007340005460022882102F07FFB002385F8F03073
:100744004FF47A72A5F852214FF4C872A5F85421D7
:10075400654AC5F85821654AC5F8D4202B6202A918
:100764002846FFF78CFF044688B900238DF808302B
:100774008DF8093005F1100602AF0FCF0FC60FCF69
:100784000FC60FCF0FC697E80F0086E80F0064234B
:10079400A5F834314FF46173A5F836314FF4FA7388
:1007A400A5F838314FF42063A5F83C31012685F8CB
:1007B400506132468021284602F03EFB044364B275
:1007C4003246FF21284602F037FB044364B200227C
:1007D4001146284602F030FB044364B20DF10702CF
:1007E4009121284602F04AFB044364B29DF8073085
:1007F40085F83A3132460021284602F01DFB0443B5
:1008040064B20022FF21284602F016FB044364B2BE
:1008140000228021284602F00FFB044364B2002624
:10082400052E09DC44B90122B1B22846FFF72BFE9C
:10083400044364B20136F3E77CB1ACB1DCB10CB370
:100844003CB374B3ACB3E4B3002C41D014B900236B
:1008540085F81531204613B0F0BD00220221284648
:10086400FFF711FE0446E8E7002203212846FFF7BC
:100874000AFE0446E2E7002204212846FFF703FEAD
:100884000446DCE7002205212846FFF7FCFD044668
:10089400D6E74FF4901200212846FFF74BFE04469A
:1008A400CFE74FF4804201212846FFF743FE044678
:1008B400C8E74FF40C1202212846FFF73BFE04461A
:1008C400C1E7002203212846FFF734FE0446BBE7B4
:1008D400FF2285F830210121284602F0ADFA0446B2
:1008E400012385F83231B1E7856B0100A47009005A
:1008F40008B5012300F03AFE08BD00002DE9F041DF
:100904008EB005460C460C230AAA142102F078FA8C
:100914000646002864D10023A37523609DF8322085
:100924009DF8330000EB022080B263609DF82E3006
:100934009DF82F2002EB032292B25202E2609DF84E
:1009440030109DF8313003EB01239BB25B0223612D
:100954009DF82A109DF82B3003EB01239BB2A38250
:100964009DF82810B5F8527195F831C1B7F57A7F22
:1009740021D000FB07F000F5FA70364F87FB00E743
:10098400C017C0EBA717B8B2D5F820E095F81C80C3
:10099400B8F1000F0FD01FFA8EFE03FB0EFE4FEAD4
:1009A4002E2E724549D0B8B202FB00F0A2EB0E0E17
:1009B400B0FBFEF080B2BCF1000F47D0870827815E
:1009C400C0B28001E0750DF1370001900094284613
:1009D40002F098F8064376B216B99DF837302376BC
:1009E4003EBB03AF05F1500CBCE80F000FC79CE8F9
:1009F400070087E807002389ADF81430E37D8DF8FC
:100A040023306389ADF8163063680493E368069372
:100A140023690793A38AADF82030237E8DF8243010
:100A240005F1500403AD0FCD0FC495E8070084E829
:100A3400070030460EB0BDE8F081BCF1000F02D0D3
:100A440042F2B820B7E748F6E020B4E7208100205E
:100A5400E075B8E7D34D621070B582B0064614460F
:100A64001D460DF106020E2102F03EFABDF80620E5
:100A74000B4B03EA42432360034610B1184602B00D
:100A840070BD0DF106020C21304602F02DFA03462A
:100A9400BDF80610024A02EA41422A60EEE700BFAE
:100AA4000000FE1F70B582B090F8DA30013BDBB273
:100AB400022B03D90024204602B070BD0E46054621
:100AC4006B4601AA0121FFF7C7FF0446019BB3F55A
:100AD4007F0F03D8009BB3F57F0FECD9002CEAD12C
:100AE400E6B90422FF21284602F0A6F9044364B2C1
:100AF40000227021284602F09FF9044364B20022C8
:100B0400FF21284602F098F9044364B200228021B0
:100B1400284602F091F9044364B2CCE7024928461E
:100B240001F0BDFD0446C6E7F400002030B583B0F3
:100B340004460DF10701FFF784FB012280212046C2
:100B440002F07AF90122FF21204602F075F9002211
:100B54001146204602F070F994F83A21912120467A
:100B640002F06AF901220021204602F065F9002210
:100B7400FF21204602F060F900228021204602F085
:100B84005BF99DF80730012B2BD033B1032B3AD0FE
:100B94006FF00703184603B030BD01220021204640
:100BA40002F04AF901238DF8063003460028F1D1FA
:100BB400002535B10DF106020021204602F05EF950
:100BC400034601359DF8062012F0010F03D013B936
:100BD400B5F5FA6FEDD3B5F5FA6FDBD36FF0060315
:100BE400D8E758B102220021204602F025F9034635
:100BF4000028CFD1042284F83221CBE701212046FA
:100C0400FFF750FFEEE758B104220021204602F01E
:100C140013F903460028BDD1042284F83221B9E730
:100C240001212046FFF73EFFEEE710B582B00446EF
:100C34000DF10701FFF705FB034610B99DF80720E6
:100C440052B173B12BB99DF8072012B9032284F86D
:100C54003221184602B010BD2046FFF767FF034655
:100C6400EFE7204600F00BFE0346EBE770B582B0D9
:100C74000646002501220B21304602F0DDF8044629
:100C840000220B21304602F0D7F8044364B20DF180
:100C940007021321304602F0F1F8204340B2013537
:100CA400EDB29DF8073013F0070F03D0022D01D8E1
:100CB4000028DFD0022D01D802B070BD6FF00B0008
:100CC400FAE738B504460D460021FFF7A5FA0346B6
:100CD40018B13BB163B1184638BD2046FFF7A5FFF4
:100CE4000346F6E729462046FFF708FE0346F1E7E8
:100CF40000212046FFF7BAFF0346ECE7F8B59DF85C
:100D04001860002940F0A38005461C460F46142AAB
:100D140009D0152A10D0042C00F29180DFE804F0E9
:100D24007A78767C74002EB101228421284602F060
:100D340083F883E01022F8E70122FF2102F07CF817
:100D4400044600221146284602F076F8044364B2B1
:100D54000022FF21284602F06FF8044364B2012206
:100D64008021284602F068F8044364B202228521F7
:100D7400284602F061F8044364B20422FF212846A5
:100D840002F05AF8044364B20022CD21284602F04E
:100D940053F8044364B21122CC21284602F04CF8E3
:100DA400044364B20722FF21284602F045F80443B5
:100DB40064B20022BE21284602F03EF8044364B225
:100DC4000622FF21284602F037F8044364B20922C0
:100DD400CC21284602F030F8044364B20022FF21FB
:100DE400284602F029F8044364B20122FF21284670
:100DF40002F022F8044364B200221146284602F0AD
:100E04001BF8204340B219E0042206E0022204E069
:100E1400012202E00A4600E003220A21284602F0E9
:100E24000BF838B906B110273B46EF228421284637
:100E340002F03EF808B985F8DA4018B1F8BD6FF051
:100E44000A00EEE700212846FFF710FFF6E76FF0EF
:100E54000900F3E7F0B597B007464022002106A841
:100E640005F047F90023ADF816308DF815308DF8EC
:100E7400143004930121384600F064FD97F81311EF
:100E840097F81421012A03D810D092B90C2910D94B
:100E940005AA04A9384600F08BFB044674B997F8F8
:100EA4005031002B50D1D7F84C1108E02029EFD84D
:100EB400EBE7384600F0F6F90446EFE75C49002C0E
:100EC40044D0002C47D0002C4ED024B9BDF81630A5
:100ED4001B01C7F8D430002C5CD0002C60D064B95E
:100EE40007F1100506AE0FCE0FC50FCE0FC50FCEFE
:100EF4000FC596E80F0085E80F00002C5DD0002C8C
:100F040069D0002C6ED014B9032387F83231002C39
:100F14006FD01CB99DF80F3087F8E830002C70D0E2
:100F24001CB99DF80F3087F8E030002C71D014B94B
:100F3400029BC7F8E430002C72D014B9029BC7F8A6
:100F4400DC30204617B0F0BD3949B8E7384601F027
:100F5400A6FB0446B5E70021009104230A4638465F
:100F6400FFF7CCFE0446AEE70122FF21384601F02C
:100F740063FF04460DF116028421384601F0B4FFE4
:100F8400044364B20022FF21384601F055FF0443B4
:100F940064B29AE706A93846FFF771FB04469CE75A
:100FA4000DF115013846FFF750F90446002896D193
:100FB4009DF8153087F8313191E70DF115020121C3
:100FC400384601F05BFF0446002898D19DF815309F
:100FD40087F8303193E7002211463846FFF753F97A
:100FE40004468EE7002202213846FFF74CF90446F6
:100FF40089E70DF10F0200213846FFF740F9044656
:1010040087E70DF10F0201213846FFF738F904464E
:1010140086E702AA0321384600F0A2FF044686E7C9
:1010240002AA0421384600F09BFF044685E700BF6E
:101034000000002010B582B00C460DF10702132108
:1010440001F01CFF9DF8073003F00702226013F043
:10105400180F01D102B010BD6FF00500FAE710B50A
:1010640082B00C4690F8DA30042B0ED00DF1070252
:10107400142101F003FF034680B99DF8072012F004
:10108400010F11D10022227008E06946FFF7D2FF58
:101094000346009A042A04D000222270184602B0A3
:1010A40010BD01222270F9E701222270F6E708B58B
:1010B40000F07EFA08BD10B582B00C460DF10602B0
:1010C400282101F011FF024650B9BDF80630C3F3E0
:1010D4000B03B3F5006F06D2FA2103FB01F323607F
:1010E400104602B010BDA3F58053FA2101FB03F3AF
:1010F4002360F5E7F0B44FF0FF341C604FEAD20CE4
:1011040002F007026646002708E01541EDB21446D6
:101114000BE004EBC6041C60012701368E420CD29E
:101124005FB9855D6645F0D00024072CF5D815F02D
:10113400010FEED16D080134F7E7F0BC70470000F1
:101144008009044B53F820300BB90020704701206C
:10115400704700BFAC020020D30802F007028B42A4
:1011640006D201219140C25C0A43C2540020704758
:101174006FF03100704708B506230A46B02101F02C
:1011840021FE08BD08B506230A46B02101F038FE49
:1011940008BD2DE9F04F87B001908B460092984628
:1011A400109EDDF844A0129FDDF84C9005970025B1
:1011B4004D4517D205AB3A4631460098FFF79AFFE2
:1011C400059CB4F1FF3F15D004EB0A00FFF7B8FF0C
:1011D400584512D1224631464046FFF7BDFF671CF1
:1011E4000135E5E70020149B1F6048B168B107B0E2
:1011F400BDE8F08F6FF03100F5E76FF03100F2E7F2
:1012040041460198FFF7B7FFF0E703A90198FFF7FC
:10121400B9FF0023B342EAD218F8031006AA1A440D
:1012240012F80C2C914201D10133F3E76FF0310035
:10123400DDE770B588B004460E4690F83051C02200
:10124400012101F0F9FD034630B15BB18BB1BBB1B3
:10125400EBB1184608B070BD01A92046FFF731FD77
:101264000346F2E70122FF21204601F0E5FD034693
:10127400ECE73246B621204601F036FE0346E6E7A7
:101284000022FF21204601F0D7FD0346E0E72A466D
:101294000121204601F0D0FD03460028D9D184F86D
:1012A4003051D6E7F0B589B005460F4616460122FF
:1012B400FF2101F0C1FD034620B153B183B1B3B1A5
:1012C40000231FE000224F21284601F0B5FD03460C
:1012D400F3E72C224E21284601F0AEFD0346EDE74C
:1012E4000022FF21284601F0A7FD0346E7E7B422C8
:1012F400B621284601F0A0FDE2E7EA18002182F8B1
:1013040024110133052BF8D936BB002407AB049311
:1013140003970294B42301930623009305F5927373
:1013240005F5957231462846FFF733FF034630B979
:10133400012285F8152185F8137185F81461184682
:1013440009B0F0BD013404F1B400FFF7F9FE002840
:10135400DCD12B2CF6D9D9E70024F4E710B50446E8
:1013640041F00102002101F067FD034618B13BB1D1
:1013740063B1184610BD204600F081FA0346F6E733
:1013840000212046FFF772FC0346F1E700221146D4
:10139400204601F051FD0346EBE72DE9F04F83B001
:1013A40005468846924699469DF838709DF83C60FB
:1013B4004FF0000B8DF807B00122FF2101F03CFD36
:1013C40004465A465946284601F036FD044364B2A1
:1013D4005A46FF21284601F02FFD044364B2B8F1B8
:1013E400000F30D0F7B92EBB0122FF21284601F0AF
:1013F40023FD044364B201220021284601F01CFDB0
:10140400044364B20022FF21284601F015FD204365
:101414009DF8073003F0EF030D9A137040B203B048
:10142400BDE8F08F0C9ACB21284601F027FD044338
:1014340064B2D8E70DF10702EE21284601F01EFD43
:10144400044364B2D0E757B9002ECDD04B46802276
:10145400EE21284601F02CFD044364B2C4E7524651
:10146400CB21284601F0E8FC044364B2ECE72DE903
:10147400F04186B004460D46174600228DF8172029
:101484001E469BB190F8308101221146204601F09E
:10149400D3FC034668B10BB9012F10D000222A7087
:1014A40003B9D6B9184606B0BDE8F0814FF000087C
:1014B400EAE740212046FFF751FF0346EBE700220D
:1014C4000392012102910DF1170301930095134634
:1014D4002046FFF762FF0346E2E742460121204629
:1014E40001F0AAFC03460028DCD184F83081D9E756
:1014F4002DE9F04186B004460D4617461E469BB1C1
:1015040090F8308102220121204601F095FC034627
:1015140068B10BB9012F10D000222A7003B9D6B9D3
:10152400184606B0BDE8F0814FF00008EAE7002154
:101534002046FFF713FF0346EBE701210391002246
:10154400029201950DF11703009313462046FFF70D
:1015540024FF0346E2E742460121204601F06CFCE9
:1015640003460028DCD184F83081D9E7F8B5044675
:1015740017461D4690F8306100232A46FFF777FF8F
:10158400034610B14BB11846F8BD00232A4639462C
:101594002046FFF7ADFF0346F4E73246012120461B
:1015A40001F04AFC03460028EDD184F83061EAE7F3
:1015B4002DE9F04F95B004460C910D920023119340
:1015C40010938DF83D308DF83C30B0F83CA104E028
:1015D400E218002182F824110133052BF8D90122E5
:1015E400FF21204601F028FC0546002832D0002DBA
:1015F40037D0002D3CD0002D41D0002D46D0002DF9
:101604004BD0002D52D0002D65D000231F460A93E5
:1016140098460893002D40F01A81BDF83E3053459A
:1016240080F015819DF820200A92D4F824011290AC
:10163400B4F82821ADF84C20CDF824A0A3EB0A037C
:10164400002BB8BF5B420B934FF003084FF0000B25
:101654000797C1E000224F21204601F0EDFB05462B
:10166400C5E72C224E21204601F0E6FB0546C0E7E3
:101674000022FF21204601F0DFFB0546BBE7B42230
:10168400B621204601F0D8FB0546B6E700228021AA
:10169400204601F0D1FB0546B1E700230FAA0DF166
:1016A4003D012046FFF762FF0546AAE7002114AB7F
:1016B40043F80C1D0493032303930291B423019371
:1016C4000623009304F5927304F595722046FFF700
:1016D40060FD054697E7119F0DF13E012046FFF797
:1016E400A8FD0546002845D1BDF83E3053450CD829
:1016F40000230A93984608938CE7E218002182F8A5
:1017040024110133052BF8D902E00023FAE701374D
:1017140007F1B400FFF714FD08B92B2FF7D911AB6B
:101724000493032303930297B423019306230093A2
:1017340004F5927304F5957201212046FFF729FD03
:10174400054628B100230A9398460123089361E7CC
:10175400119F0DF13E012046FFF76BFD054670B960
:10176400BDF83E30534510D800230A939846012310
:1017740008934FE700230A93984608934AE7002307
:101784000A9398460123089344E701230A934FF0F0
:10179400030808933EE7731C079349462046FFF766
:1017A400EAFC05463AE012A92046FFF7E4FC0546A8
:1017B4001298C4F82401BDF84C30A4F828314746E7
:1017C4004FF0010B07E0D4F824011290B4F828215B
:1017D400ADF84C200B93B846BBF1000F37D110ABDA
:1017E400079A062104F59570FFF784FC109EB6F164
:1017F400FF3F2AD0079606F1B400FFF7A1FC089B2F
:10180400984224D108F1010704F592793246062161
:101814004846FFF7A1FC05460028BCD05DBB0DF18E
:101824003E012046FFF705FD054630BBBDF83E20CE
:10183400099BD31A002BB8BF5B425245C3D90B9AFC
:101844009A42B0D34FF0010BC5E76FF0310575B97B
:101854000C9AC2F800800D990A980870012384F844
:101864001531137884F813310B7884F81431284631
:1018740015B0BDE8F08FB846E9E7B846E7E730B5FC
:1018840083B0054600248DF807400DF10701284672
:10189400FFF7E5FB024668B99DF80730012B09D034
:1018A4000134B4F5FA6F03D2284601F067FBECE784
:1018B4006FF00602104603B030BD0130C0B24000E4
:1018C40000F0FE00704740080138C0B270474FF086
:1018D400804300E09B088342FCD8002201E05208C8
:1018E4009B0833B1D1188142F9D8401A03EB520254
:1018F400F6E71046704770B582B006460022832191
:1019040001F09AFA0546A0B900240DF107028321DB
:10191400304601F0B3FA05469DF8073023B918B9EB
:101924000134B4F5FA6FF0D3B4F5FA6F01D36FF064
:10193400060501228321304601F07EFA284340B295
:1019440002B070BD2DE9F04F8DB005460F4600235F
:101954000893079390F8F060072E19D14FF0000810
:10196400C246C146C3464446002C40F09882072E26
:1019740000F0958217F0010F00F06B8216F0010F52
:1019840040F0678285F813B185F8149100235EE274
:101994000122802101F050FA04460122FF21284649
:1019A40001F04AFA044364B200221146284601F0C9
:1019B40043FA044364B20622FF21284601F03CFAAC
:1019C400044364B20DF12F028321284601F056FA34
:1019D400044364B29DF82F2042F004028321284678
:1019E40001F02AFA044364B20722FF21284601F0D9
:1019F40023FA044364B201228121284601F01CFA2F
:101A0400044364B2284601F0B9FA044364B20122E3
:101A14008021284601F010FA044364B217F0010F44
:101A24005BD016F0010F03D04FF00009CB4657E00E
:101A34006B229421284601F0FFF9044364B228463E
:101A4400FFF759FF044364B20AAA9021284601F023
:101A54006DFA044364B20A9BC3F3062BC3F3C03983
:101A640024229421284601F0E7F9044364B228466D
:101A7400FFF741FF044364B20AAA9021284601F00B
:101A840055FA044364B20A9B1A0E8DF80020C3F37E
:101A940007428DF80120C3F307228DF802208DF848
:101AA400033025229421284601F0C6F9044364B288
:101AB4002846FFF720FF044364B20AAA902128466F
:101AC40001F034FA044364B20A9B1A0E8DF8042020
:101AD400C3F307438DF8053002E04FF00009CB460D
:101AE40017F0020F02D016F0020F0BD017F0040FFC
:101AF40000F0658116F0040F00F0DC804FF0000860
:101B0400C2465FE102229421284601F095F904437C
:101B140064B22846FFF7EFFE044364B20DF12702D6
:101B24009021284601F0AAF9044364B27B2294214F
:101B3400284601F081F9044364B22846FFF7DBFE2E
:101B4400044364B20DF126029021284601F096F96F
:101B5400044364B277229421284601F06DF90443CA
:101B640064B22846FFF7C7FE044364B20AAA902170
:101B7400284601F0DBF9044364B20A9B5A0E8DF83F
:101B84000820C3F386428DF80920C3F3C6228DF8DA
:101B94000A20C3F306128DF80B20DB0003F0780350
:101BA4008DF82F3078229421284601F045F904431A
:101BB40064B22846FFF79FFE044364B20AAA902148
:101BC400284601F0B3F9044364B20A9B9DF82F2020
:101BD40002EB53728DF80C20C3F386528DF80D205E
:101BE400C3F3C6328DF80E20C3F306228DF80F20FE
:101BF400C3F346028DF810209B0103F040038DF8D7
:101C04002F3079229421284601F016F9044364B256
:101C14002846FFF770FE044364B20AAA90212846BE
:101C240001F084F9044364B20A9B9DF82F2002EB6F
:101C340093628DF81120C3F3C6428DF81220C3F3CA
:101C440006328DF81320C3F346128DF814209B003E
:101C540003F07C038DF82F307A229421284601F07A
:101C6400EBF8044364B22846FFF745FE044364B22C
:101C74000AAA9021284601F059F9044364B20A9B48
:101C84009DF82F2002EB93728DF81520C3F3C652F2
:101C94008DF81620C3F306428DF81720C3F34622AD
:101CA4008DF81820C3F386038DF8193000238DF8BE
:101CB4001A301BE77B229421284601F0BDF8044327
:101CC40064B22846FFF717FE044364B208AA9021C1
:101CD400284601F02BF9044364B27C22942128465F
:101CE40001F0AAF8044364B22846FFF704FE044353
:101CF40064B207AA9021284601F018F9044364B29B
:101D040073229421284601F097F8044364B22846CC
:101D1400FFF7F1FD044364B20AAA9021284601F0BA
:101D240005F9044364B20A9B4FEA03281FFA88F8B2
:101D340074229421284601F07FF8044364B22846B3
:101D4400FFF7D9FD044364B20AAA9021284601F0A2
:101D5400EDF8044364B29DF82B3043EA0808752279
:101D64009421284601F068F8044364B22846FFF73A
:101D7400C2FD044364B20AAA9021284601F0D6F8B1
:101D8400044364B20A9B4FEA032A1FFA8AFA7622B2
:101D94009421284601F050F8044364B22846FFF722
:101DA400AAFD044364B20AAA9021284601F0BEF8B1
:101DB400044364B29DF82B3043EA0A0A02E04FF070
:101DC4000008C24600228121284601F035F8044368
:101DD40064B20622FF21284601F02EF8044364B2BF
:101DE4000DF12F028321284601F048F8044364B220
:101DF4009DF82F2002F0FB028321284601F01CF8F5
:101E0400044364B20122FF21284601F015F804437B
:101E140064B201220021284601F00EF8044364B2A2
:101E24000022FF21284601F007F8044364B200228F
:101E34008021284601F000F8044364B294E50CAA1A
:101E44001A4412F8301CEA1882F82A110133052BBF
:101E5400F5DD17F0020F02D016F0020F23D017F0B1
:101E6400040F19D016F0040F16D1089BC5F81831C9
:101E7400079BC5F81C314FEA4823C5F82031BAF155
:101E8400000F1ED0AAF5C85A4FF47A7303FB0AF365
:101E94001B095B421BB2EB603E4385F8F0602046B1
:101EA4000DB0BDE8F08F9DF8273085F8F1309DF82E
:101EB400263085F8F23002A905F1F30004F021F987
:101EC400CDE70023E7E701EBC1010B0240F27760A5
:101ED40000FB03F0704770B10138002302E04008B2
:101EE40001339BB230F0FF02F9D11B029BB253FACB
:101EF40080F080B2704700207047C3B2000A03FA32
:101F040000F001307047000010B50C461146FFF791
:101F1400DAFF00F5FA70064BA3FB00239809DB09EE
:101F24004FF47A7202FB0433B3FBF0F010BD00BF30
:101F3400D34D621010B50C461146FFF7C4FF00F5EF
:101F4400FA70064BA3FB0020800900FB04F000F5A7
:101F5400FA70A3FB0030800910BD00BFD34D62109E
:101F6400F0B585B00446164600238DF80E30ADF862
:101F74000C30022909D9032921D0042942D0002098
:101F840005463060284605B0F0BD0DF10F02194634
:101F9400FEF775F9054650B19DF80E00FFF7ADFF49
:101FA4009DF80F2081B22046FFF7C4FFE9E70DF149
:101FB4000E024621204600F061FF0546ECE70DF1D4
:101FC4000F020021FEF75BF9054608B10020D8E7AF
:101FD4000DF10F0200212046FEF751F9054650B1DC
:101FE400BDF80C00FFF789FF9DF80F2081B2204651
:101FF400FFF7A0FFC5E703AA5121204600F074FFB4
:102004000546EDE701A9FEF7BFF99DF80730B3B126
:102014000DF10F0200212046FEF731F9054610B1FB
:102024000027A5B90CE003AA5121204600F05CFF6B
:102034000546BDF80C00FFF760FF87B2F1E7002703
:102044000DF10F0201212046FEF719F9054645B1AD
:102054000021C91B9DF80F2089B22046FFF76AFFB3
:102064008FE70DF10A027121204600F03DFF05467D
:10207400BDF80A00FFF741FF81B2EAE7F0B585B089
:1020840004461646022917D9032935D004297ED1DE
:1020940001A9FEF779F99DF80730002B57D00DF10F
:1020A4000F0200212046FEF7EAF80546002842D038
:1020B4000027002D53D14BE00DF10F020021FEF754
:1020C400DEF8054670B99DF80F2031462046FFF72B
:1020D4001BFF83B2B3F5807F0CD8C7B2013FFFB2B8
:1020E400A4F8D870E5BB3A464621204600F0A4FE89
:1020F400054635E0FF27F3E70DF10F020021FEF757
:10210400BEF805469DF80F2031462046FFF7FCFE39
:1021140080B2FFF7E0FEADF80C00A4F8D8001DB1C2
:10212400F5B9C4F8E4601BE002465121204600F0F2
:1021340093FE0546F4E703AA5121204600F0D4FE9D
:102144000546BDF80C00FFF7D8FE87B2B1E70027BB
:102154000DF10F0201212046FEF791F8054615B155
:10216400284605B0F0BD9DF80F2031462046FFF704
:10217400CBFE3844FFF7AFFE02467121204600F043
:102184006BFE05460028EBD1C4F8DC60E8E76FF08D
:102194000305E5E7F0B585B000238DF8033012F0B0
:1021A400010F40F0788129B90B2A40F27781122A75
:1021B40000F2778101290DD015460E460746E9BB8A
:1021C4000C2A0FD00E2A18D0102A21D0122A2AD075
:1021D400002336E0072A40F267810E2AECD96FF01B
:1021E400030311E11822572100F026FE082256218C
:1021F400384600F021FE034623E03022572100F048
:102204001BFE08225621384600F016FE034618E04D
:102214004022572100F010FE08225621384600F0D3
:102224000BFE03460DE05022572100F005FE082264
:102234005621384600F000FE034602E0012910D082
:102244000023002B40F0DC802846FFF73CFB0446CB
:10225400002E00F0C980012E00F0F5806FF003031A
:10226400D0E0082A08D00A2A34D00C2A60D00E2ADA
:1022740000F08C800023E4E71022482100F0DCFD0C
:1022840008224721384600F0D7FD044602223221B5
:10229400384600F0D1FD044364B20C2230213846A4
:1022A40000F0CAFD044364B20122FF21384600F065
:1022B400C3FD044364B230221146384600F0BCFD2D
:1022C400044364B20022FF21384600F0B5FD2043E8
:1022D40043B2B6E72822482100F0AEFD0822472188
:1022E400384600F0A9FD044603223221384600F0A6
:1022F400A3FD044364B209223021384600F09CFD5A
:10230400044364B20122FF21384600F095FD0443E2
:1023140064B220223021384600F08EFD044364B2BA
:102324000022FF21384600F087FD204343B288E7AE
:102334003822482100F080FD08224721384600F069
:102344007BFD044603223221384600F075FD044328
:1023540064B208223021384600F06EFD044364B2B2
:102364000122FF21384600F067FD044364B22022B5
:102374003021384600F060FD044364B20022FF219E
:10238400384600F059FD204343B25AE7482211462B
:1023940000F052FD08224721384600F04DFD044666
:1023A40003223221384600F047FD044364B2072279
:1023B4003021384600F040FD044364B20122FF217D
:1023C400384600F039FD044364B2202230213846F7
:1023D40000F032FD044364B20022FF21384600F0CD
:1023E4002BFD204343B22CE702AA03213846FFF712
:1023F400B7FD034658B18BB1BBB1EBB187F8E850D8
:10240400002B39D0002B3DD0184605B0F0BD01AAF1
:1024140002213846FFF7A4FD0346ECE7224650218B
:10242400384600F009FD0346E6E7029A03213846E0
:10243400FFF724FE0346E0E7019A02213846FFF73E
:102444001DFE0346DAE703AA04213846FFF788FD98
:10245400034618B14BB187F8E050D1E7224670210A
:10246400384600F0E9FC0346F4E7039A04213846B1
:10247400FFF704FE0346EEE779693846FDF7F3FEFD
:102484000346BFE7012300220DF103013846FFF79D
:102494002FF80346B8E76FF00303B5E76FF00303C3
:1024A400B2E76FF00303AFE76FF00303ACE730B5B7
:1024B40083B0154621B1012911D06FF003040BE05C
:1024C4000DF10702502100F0D9FC044624B99DF80F
:1024D4000700FFF7F2F92870204603B030BD0DF174
:1024E4000702702100F0CAFC0446EFE770B584B01F
:1024F4004FF4FA6301930023009344F61F63994257
:1025040057D90D460446A1F6363602A9FDF73CFF1D
:10251400034610BB9DF808202AB99DF8092012B97A
:102524009DF80A20CAB101AA02212046FFF718FD2E
:102534000346D0B99DF808202AB1019A02F24E222E
:10254400964239D9B61A9DF80A208AB1019A02F244
:10255400B2225200964232D9B61A33B99DF80B20F2
:102564008AB913B99DF80C20D2B9184604B070BDCD
:102574009DF80920002AF0D0019A02F525729642AE
:1025840020D9B61AE9E76A4603212046FFF7E8FC9A
:102594000346009A02F52572964216D9B61AE0E768
:1025A400A6F2262204212046FFF768FD0346656152
:1025B400DBE76FF00303D8E76FF00303D5E76FF0B1
:1025C4000303D2E76FF00303CFE76FF00303CCE715
:1025D40030B587B005460C464FF4FA6302930023E6
:1025E400019340F636330B6004A9FDF7CDFE034694
:1025F40068BB9DF810202AB99DF8112012B99DF8E6
:102604001220CAB102AA02212846FFF7A9FC0346F8
:1026140090B99DF810202AB1029A02F24E21226844
:102624000A4422609DF81220A2B1029A02F2B22159
:10263400226802EB4102226013B99DF81320A2B96B
:1026440013B99DF81420EAB90BB922686A611846D7
:1026540007B030BD9DF81120002AEDD0029A02F592
:10266400257122680A442260E6E701AA032128466C
:10267400FFF776FC0346019A02F5257122680A44A5
:102684002260DDE703AA04212846FFF769FC03461C
:10269400039A02F2262122680A442260D4E7F0B5A4
:1026A40083B006460D46002420463CE0AB5CA21CE9
:1026B400032B44D8DFE803F0020B141DA95CE21CD1
:1026C400AB5C043403EB0123A6F834312BE0A95CA2
:1026D400E21CAB5C043403EB0123A6F8363122E0A0
:1026E400A95CE21CAB5C043403EB0123A6F838318B
:1026F40019E0A95CE21CAB5C043403EB0123A6F8EB
:102704003C3110E0A95C0234002206E02F5D02A8EF
:10271400104400F8047C013401329342F6DC01AA2F
:10272400304600F04FFB2B5D6BB160B9621CFF2B90
:10273400BCD0042BE6D914466FF00300F3E714462B
:102744006FF00300EFE703B0F0BD70B582B006464A
:102754000D461446002313600DF10701FDF774FEC6
:10276400024648B99DF8073033B1336AA98A03FB9E
:1027740001F380331B0A2360104602B070BD10B50C
:1027840082B01446CB68136001AAFFF7DEFF02464D
:1027940018B9236801990B442360104602B010BD98
:1027A4002DE9F041079DDDF820C0099FB0F85441A0
:1027B400D0F8586106FB04F68036360A06FB04F6A8
:1027C40010465AB1540804EB8124B4FBF2F000EB38
:1027D400400000FB00F000F50044200C069A02FBC8
:1027E40003F404F50044240C04FB04F205F500434F
:1027F4001B0C03332449A1FB03139B08C3EBC30342
:10280400B3F5803F3ED203351F4CA4FB0535AD081C
:10281400C5EBC50505F500452C0C04FB04F4144474
:1028240004EB5C04B4FBFCF4A4037F346408174B8E
:10283400A3FB0434A40904FB00F404F5FA74144D56
:10284400A5FB0434A409240104F5FA74A5FB04359A
:10285400AD0906F120008009FFF739F8804635B14B
:102864000B4BA3FB043406EBD416B6FBF5F5284654
:10287400FFF72DF8C7F80080804500D938600020A4
:10288400BDE8F081034CCAE7ABAAAAAA09040281F5
:10289400D34D62100000F0FF2DE9F04F8FB00646D3
:1028A400894606920793036A0D930B694FF47A7471
:1028B40004FB03F30893CB6809930CAAFFF75FFFAB
:1028C4000DAA49463046FFF740FF82460C9F04FBA1
:1028D40007F505F500452B0C05930D9B04FB03F44C
:1028E400B4F5481F01D94FF44814BAF1000F36D19A
:1028F400D6F8DC300A9396F8E0B05A4619463046CA
:10290400FFF702FB8046D6F8E4300B9396F8E820F4
:1029140019463046FFF7F8FABBF1080F00F0BE8005
:102924000323804403FB08F3DB0203F5FA736E4AC6
:10293400A2FB03139B0940F2776808FB03F808F530
:10294400FA78A2FB08384FEA981880373F0A08FB48
:1029540007FB0BF1800B4FEA1B2B3F020C97BAF1DC
:10296400000F40F0BD80059B002B00F09980BBF167
:10297400000F01D14FF0010B089B1F0C3F04059B76
:10298400B7FBF3F7594B9F4200D91F464FF4167318
:1029940003FB07F70BEB4B039800FEF798FF4FEA96
:1029A400400AB9F80830524A02FB03F32D0C2D04F7
:1029B400A5EB440404F5FA744B4AA2FB0414A409DD
:1029C40005F5FA75A2FB0525AD092402B4FBF5F55E
:1029D4002D0299F81820002A6BD1464CA4FB03342D
:1029E400A40AC5F5803504FB05F404F50044240C61
:1029F40004F58034640804FB04F4A40B4FF4487019
:102A040000FB04F000F50040000C07F500431B0C2C
:102A140003FB03F300FB0030FEF759FF00043230E0
:102A2400354BA3FB00304009B0FBFAFA40F6B5324F
:102A340041F2883302FB0A3A304BA3FB0A3A4FEACD
:102A44005A3ABAF5704F01D94FF4704A0A9B0B9A5F
:102A5400134403F5FA73244DA5FB03239809DB09FA
:102A640003F5C813B3FBF0F0FEF731FF000200F5E5
:102A7400FA70A5FB0030800900FB00F00AFB0A0095
:102A8400FEF725FF4FF47A7303FB00F0BBF1000F50
:102A940012D01B4B984210D919480EE0022340E78C
:102AA400174B069A1360C6F840310023079A136047
:102AB40016E04FF48034A1E71148069B1860C6F86D
:102AC4004001079B0393CDF8088001974FF44873A6
:102AD40000932346099A0C993046FFF761FE82461B
:102AE40050460FB0BDE8F08FD34D621066666600A5
:102AF4009A990600517BC6371F85EB515917B7D1F8
:102B0400AE878F022DE9F04F89B0044691469B466B
:102B140000238DF81F308DF81E308DF81D308DF890
:102B24001C30ADF80A300193C1F3C3058DB1052DF6
:102B34004BD0072D4CD00C2D4DD00D2D4ED00E2D3D
:102B44004FD00F2D02D04FF0000A04E04FF0010ADD
:102B540001E04FF0010A0DF11F0200212046FDF7AC
:102B6400DCFC03469DF81F80B8F1000F03D0002859
:102B74003AD04FF00008002B59D09DF81D6016B1D3
:102B8400002B5CD00026002B00F087809DF81C7081
:102B9400002F00F08D80002B40F08980BBF1000FE6
:102BA40000F082804FEA0929B9FBFBFB03AA032149
:102BB4002046FDF7F2FC0346039A002A00F08480C5
:102BC4005A4500F28380002772E04FF0010AC2E701
:102BD4004FF0010ABFE74FF0010ABCE74FF0010ACA
:102BE400B9E74FF0010AB6E701AB06AA12992046ED
:102BF400FFF752FE034610B9019A12994A8113B1A4
:102C04004FF00008B7E705AA00212046FDF7C5FCF0
:102C14000346059A2AB106998A4205D34FF0000863
:102C2400A9E74FF00008A6E74FF00108A3E70DF16C
:102C34001D0202212046FDF770FC03469DE704AA0D
:102C440002212046FDF7A9FC034660B193B1CBB144
:102C5400BDF80A205202C4F848210499C9B191422E
:102C640019D300268FE70122FF21204600F0E4F863
:102C74000346EBE70DF10A02B621204600F034F9D1
:102C84000346E4E70022FF21204600F0D5F803467E
:102C9400DEE7002677E7012675E707AA0321204629
:102CA400FDF73BFC034671E74FF0000B7EE700277E
:102CB4008BB9BAF1000F0BD16B1EDBB2022B26D8F5
:102CC4000523139A137006E00027F1E70127EFE7C5
:102CD400FF23139A1370139B1B780BB9129A538119
:102CE4000DF11E0201212046FDF717FC03460028C2
:102CF40041D19DF81F200AB94FF0010884F82E80B5
:102D0400042D29D09DF81E20CABB012225E0062DE2
:102D140012D0092D10D0082D12D00A2D10D0012E5A
:102D24000ED0042D10D0012F0ED0B8F1010F0FD00A
:102D34000023139A1370CEE70423139A1370CAE77F
:102D44000323139A1370C6E70223139A1370C2E77E
:102D54000123139A1370BEE7012284F82F209DF8F3
:102D64001D2002B9012684F830609DF81C2002B9A8
:102D7400012784F83170184609B0BDE8F08F0022AD
:102D8400EBE710B582B002F10A0390F86041D0F885
:102D94005C01009393B20A46214602F04FFA02B056
:102DA40010BD10B582B002F10A0390F86041D0F86A
:102DB4005C01009393B20A4644F0010102F000FB67
:102DC40002B010BD3F2B12D8F8B51E461546044676
:102DD4000A4F384600F8011B1A46294603F07EF9CB
:102DE400721C39462046FFF7CCFF18B9F8BD6FF0C6
:102DF400030070476FF01300F8E700BF7804002069
:102E040070B582B0044615461E4602AB03F8011D98
:102E140001221946FFF7B5FF38B932462946204644
:102E2400FFF7BFFF20B902B070BD6FF01300FAE7DF
:102E34006FF01300F7E7000008B5064B19705A70DD
:102E440002221946FFF79DFF00B908BD6FF0130079
:102E5400FBE700BF7804002008B5074B1970110A7E
:102E640059709A7003221946FFF78BFF00B908BD09
:102E74006FF01300FBE700BF7804002030B583B087
:102E84000446154602AB03F8011D01221946FFF75B
:102E940078FF38B9012229462046FFF782FF20B97E
:102EA40003B030BD6FF01300FAE76FF01300F7E7DB
:102EB400F0B583B006460F4615461C460DF10702D1
:102EC400FFF7DCFF034610B1184603B0F0BD9DF8D0
:102ED40007202A4022438DF8072039463046FFF761
:102EE400ABFF0346F0E7000030B583B00446154657
:102EF40002AB03F8011D01221946FFF742FF68B92E
:102F0400022209492046FFF74CFF50B9064A1178BE
:102F1400537803EB01232B8003B030BD6FF0130013
:102F2400FAE76FF01300F7E77804002030B583B0B8
:102F34000546144602AB03F8011D01221946FFF7AA
:102F440020FF98B904220C492846FFF72AFF80B9CC
:102F5400094A117853781B0403EB0163917803EB5E
:102F64000123D2781344236003B030BD6FF0130003
:102F7400FAE76FF01300F7E77804002008B50220A1
:102F840003F016F8002008BD08B50B480B4B03608E
:102F94000B4B436000238360C36003610C224261D6
:102FA4008361C36100F098FD00B908BD482105485C
:102FB40000F058F9F9E700BFD805002000100140DF
:102FC40040420F00E463000808B50B480B4B036054
:102FD4000B4B436000238360C36003610C22426196
:102FE4008361C36100F078FD00B908BD5B21054829
:102FF40000F038F9F9E700BF58060020004400400B
:1030040040420F00E463000808B50B480B4B036013
:103014000B4B436000238360C36003610C22426155
:103024008361C36100F058FD00B908BD6E210548F5
:1030340000F018F9F9E700BF180600200014014059
:1030440040420F00E463000830B589B004460368C9
:10305400664A934208D0664A934246D0654A9342F0
:1030640000F0838009B030BD00250095624B5A6C96
:1030740042F010025A645B6C03F010030093009B4F
:103084004FF4C063039302230493012305930323A2
:1030940006930723079303A9584801F027FA5848D1
:1030A400584B03604FF0006343608560C5604FF484
:1030B40080630361456185614FF48073C361056278
:1030C400456201F07BFB58B94D4B63639C6300225E
:1030D4001146252000F0B8FA252000F0E9FAC1E7EE
:1030E4009821494800F0BEF8EEE700250195424BCF
:1030F4001A6C42F400321A641B6C03F4003301931B
:10310400019B0C23039302230493012305930323BC
:1031140006930723079303A9384801F0E7F93B48CE
:103124003B4B03604FF0006343608560C5604FF420
:1031340080630361456185614FF48073C3610562F7
:10314400456201F03BFB58B9304B63639C6300223A
:103154001146262000F078FA262000F0A9FA81E72B
:10316400C521294800F07EF8EEE700250295224BA0
:103174005A6C42F020025A645B6C03F02003029301
:10318400029B4FF4C053039302230493012305933A
:10319400032306930823079303A9184801F0A6F90B
:1031A4001C481D4B03604FF0206343608560C5607D
:1031B4004FF480630361456185614FF48073C3619B
:1031C4000562456201F0FAFA58B9124B63639C63D5
:1031D40000221146472000F037FA472000F068FA31
:1031E40040E7F221084800F03DF8EEE70010014006
:1031F4000044004000140140003802400000024036
:103204007805002040640240E4630008B80400200C
:103214008860024018050020286402400B7ED3B960
:10322400D0F87C3133B10023C0F87C310B89C0F86D
:103234007831704730B4D0F87831094A1468C4F54D
:1032440080750A8902FB05F204FB03231B12C0F8F4
:10325400783130BC70470123C0F87C31704700BF1F
:10326400BC020020FEE7000000B595B000220192E8
:103274002A4B196C41F0805119641B6C03F0805384
:103284000193019B029226490B6823F4404343F4C3
:1032940000430B600B6803F440430293029B02213A
:1032A400089101230B9310230C930E910F9210930A
:1032B4004FF4A8731193042312930723139308A8BC
:1032C40000F068FD08BB0F2303930221049100233F
:1032D40005934FF480520692079303A800F092FFDF
:1032E400B8B901F03BF80F4BA3FB0030800900F0A4
:1032F400EBF9042000F0FEF9002211464FF0FF30F4
:1033040000F0A2F915B05DF804FBF7210648FFF7B9
:10331400A9FF40F205110448FFF7A4FF003802405A
:1033240000700040D34D6210F063000830B585B0E2
:1033340002F012FEFFF798FF01F036F802F04CFE9F
:1033440000F09EF800F0BEF8FFF71EFEFFF73CFE0B
:10335400FFF75AFE8021474801F0A0F9464C0022AD
:1033640088212046FFF768FD0DF10E02C02120469A
:10337400FFF7BAFD002864D1BDF80E204EF6AA630B
:103384009A425ED152212046FCF740FF002858D1D2
:10339400522384F860310DF10E02C0212046FFF75C
:1033A400A3FD2046FDF7C2F900284AD10125C4F83F
:1033B40068512046FDF74EFD0DF106020DF10501A1
:1033C4002046FDF795FA0DF1070202A92046FDF704
:1033D4006EFE00212046FCF71FFF2A4600212046EE
:1033E400FDF751F82A4629462046FDF74CF84FF4DC
:1033F400804229462046FDF79DF84FF490120021A3
:103404002046FDF797F848F2E8012046FCF72BFF29
:103414000E2200212046FCF72EFF0A2229462046D0
:10342400FCF729FF0DF106020DF105012046FDF719
:103434005FFAC4F87C5104E0002220210D4801F019
:1034440027F90D4BD3F86831002BFAD00B4C0A4DF9
:1034540021462846FDF735FC21462846FFF7DEFEC7
:10346400237E002BE8D101222021024801F010F92B
:10347400E7E700BF00000240C002002098060020D9
:1034840008B50C480C4B03600C4B4360002383606D
:10349400C3604FF48042026143618361C36103628C
:1034A40001F03EFE00B908BD43210548FFF7DAFEEE
:1034B400F9E700BF0807002000540040A08601007F
:1034C400FC63000808B50C480C4B03600C4B4360CC
:1034D40000238360C3604FF48042026143618361CF
:1034E400C361036201F01CFE00B908BD5621054802
:1034F400FFF7B8FEF9E700BFB4060020005C004007
:10350400801A0600FC63000870B588B00368284A76
:10351400934204D0274A93421CD008B070BDC02304
:103524000393122304930123059303230693042393
:10353400079303A9204800F0D9FF002301931F4BF0
:103544001A6C42F400121A641B6C03F40013019306
:10355400019BE2E74FF4807303931226049601253E
:103564000595032406940423079303A9144800F043
:10357400BDFF10230393049605950694092307932E
:1035840003A90D4800F0B2FF002102910B4B1A6C05
:1035940042F400021A641B6C03F400030293029BBE
:1035A4000A46482000F050F8482000F081F8B4E7BB
:1035B40000540040005C0040000402400038024017
:1035C4000000024008B5072000F02CF80022114644
:1035D4006FF00B0000F038F8002211466FF00A007B
:1035E40000F032F8002211466FF0090000F02CF8C8
:1035F400002211466FF0040000F026F80022114664
:103604006FF0030000F020F8002211466FF0010073
:1036140000F01AF8002211464FF0FF3000F014F8C1
:1036240008BD0000074AD36823F4E0631B041B0CA5
:10363400000200F4E060184340F0BF6040F4003042
:10364400D060704700ED00E030B4174BDB68C3F383
:103654000223C3F10704042C28BF04241D1D062DD6
:1036640018D9033B4FF0FF3505FA04F421EA0401AD
:10367400994005FA03F322EA0303194300280BDBFC
:103684000901C9B200F1604000F5614080F80013FF
:1036940030BC70470023E5E700F00F000901C9B210
:1036A400024B1954F4E700BF00ED00E014ED00E014
:1036B40000F01F02400901239340024A42F82030DF
:1036C400704700BF00E100E00138B0F1807F0AD20A
:1036D400064B5860064AF02182F8231000209860B7
:1036E40007221A6070470120704700BF10E000E015
:1036F40000ED00E0042805D0054A136823F0040314
:1037040013607047024A136843F004031360704760
:1037140010E000E0704708B5FFF7FCFF08BD026841
:10372400D36823F49073D3600268536923F00103D0
:103734005361202380F83A30704790F83930DBB277
:10374400212B2AD18368B3F5805F16D0036A5A1CF3
:1037540002621A7803685A60C38C013B9BB2C3842B
:10376400EBB90268D36823F08003D3600268D3689E
:1037740043F04003D36000207047036A1B8802684B
:10378400C3F30803536003691BB9036A023303627A
:10379400E2E7036A01330362DEE702207047002098
:1037A400704700002DE9F843044601680A6922F4D1
:1037B4004052C36813430B610168CA6822F416427D
:1037C40022F00C0283680069034360690343E069E3
:1037D40003431343CB6021684A6922F44072A3690E
:1037E40013434B61E369B3F5004F60D02368B84AD3
:1037F400934200F0148102F58062934200F00F813D
:1038040000F0B2FD00EB800000EB80006568AD00C5
:10381400B0FBF5F5AF4FA7FB05356D092E0100F0A0
:10382400A3FD00EB800000EB80006568AD00B0FBF9
:10383400F5F900F099FD00EB800000EB800065686D
:10384400AD00B0FBF5F5A7FB05356D094FF0640835
:1038540008FB15952D013235A7FB05356D0905F0DB
:10386400F005354400F080FD00EB800000EB8000A3
:103874006668B600B0FBF6F600F076FD00EB80005B
:1038840000EB800063689B00B0FBF3F0A7FB003003
:10389400400908FB10684FEA081808F13208A7FB32
:1038A4000837C7F3431723682F449F600DE123684B
:1038B400874A93425BD002F58062934257D000F06E
:1038C40053FD00EB800000EB800065686D00B0FBE9
:1038D400F5F5804FA7FB05356D092E0100F044FD79
:1038E40000EB800000EB800065686D00B0FBF5F92B
:1038F40000F03AFD00EB800000EB800065686D008D
:10390400B0FBF5F5A7FB05356D094FF0640808FB1E
:103914001595ED003235A7FB05356D096D0005F4ED
:10392400F875354400F020FD00EB800000EB8000CA
:1039340066687600B0FBF6F600F016FD00EB80003A
:1039440000EB800063685B00B0FBF3F3A7FB032389
:103954005B0908FB13684FEAC80808F13208A7FBA3
:103964000837C7F3421723682F449F60ADE000F087
:103974000BFD00EB800000EB800065686D00B0FB80
:10398400F5F5544FA7FB05356D092E0100F0FCFC3D
:1039940000EB800000EB800065686D00B0FBF5F97A
:1039A40000F0F2FC00EB800000EB800065686D0025
:1039B400B0FBF5F5A7FB05356D094FF0640808FB6E
:1039C4001595ED003235A7FB05356D096D0005F43D
:1039D400F875354400F0D8FC00EB800000EB800063
:1039E40066687600B0FBF6F600F0CEFC00EB8000D3
:1039F40000EB800063685B00B0FBF3F3A7FB0323D9
:103A04005B0908FB13684FEAC80808F13208A7FBF2
:103A14000837C7F3421723682F449F6055E000F02E
:103A2400B3FC00EB800000EB80006568AD00B0FBE8
:103A3400F5F5284FA7FB05356D092E0100F0A4FC10
:103A440000EB800000EB80006568AD00B0FBF5F989
:103A540000F09AFC00EB800000EB80006568AD008C
:103A6400B0FBF5F5A7FB05356D094FF0640808FBBD
:103A740015952D013235A7FB05356D0905F0F005C7
:103A8400354400F081FC00EB800000EB80006668A8
:103A9400B600B0FBF6F600F077FC00EB800000EB1C
:103AA400800063689B00B0FBF3F0A7FB0030400983
:103AB40008FB10684FEA081808F13208A7FB08371A
:103AC400C7F3431723682F449F60BDE8F88300BF02
:103AD400001001401F85EB5158B310B5044690F80F
:103AE40039300BB3242384F839302268D36823F4A3
:103AF4000053D3602046FFF755FE2268136923F470
:103B0400904313612268536923F02A0353612268A6
:103B1400D36843F40053D3600020E063202384F887
:103B2400393084F83A3010BD80F83830FFF78CFA19
:103B3400D8E701207047704708B50168CB6823F0C7
:103B44004003CB60202380F83930FFF7F4FF0020D6
:103B540008BD704708B590F83A30DBB2222B40D14B
:103B64008368B3F5805F0ED0036903BB03685A68AA
:103B7400836A591C81621A70C38D013B9BB2C38551
:103B8400F3B100202EE0826A036943B903685B68DD
:103B9400C3F308031380836A02338362ECE7036888
:103BA4005B68DBB21380836A01338362E4E70368F2
:103BB4005B68826A511C816203F07F031370DBE748
:103BC4000268D36823F49073D3600268536923F0C6
:103BD40001035361202380F83A30FFF7BAFF002035
:103BE40000E0022008BD704710B50446026813685F
:103BF400D168526913F00F0005D113F0200F02D0E1
:103C040011F0200F53D1002867D012F0010202D125
:103C140011F4907F61D013F0010F06D011F4807F6E
:103C240003D0E06B40F00100E06313F0040F04D014
:103C34001AB1E06B40F00200E06313F0020F04D00D
:103C44001AB1E06B40F00400E06313F0080F04D0F5
:103C54001AB1E26B42F00802E263E26B002A48D038
:103C640013F0200F02D011F0200F24D123685B69D8
:103C740003F04003E26B12F0080F00D13BB320467F
:103C8400FFF74DFD23685A6912F0400F1BD05A69A3
:103C940022F040025A61636B8BB11A4A1A65606B59
:103CA40000F0F2FD28B3606B036D984721E02046D5
:103CB400FFF750FF1DE02046FFF74CFFD6E72046F4
:103CC400FFF791FF15E02046FFF78DFF11E0204636
:103CD400FFF789FF0023E3630BE013F0800F02D0AA
:103CE40011F0800F06D113F0400F02D011F0400FF5
:103CF40004D110BD2046FFF720FDFAE72046FFF768
:103D04001BFFF6E70D3D000808B5806B0023C38553
:103D1400C384FFF768FF08BD08B502F037F9FFF761
:103D2400FAFC08BD08B5024800F0C2FD08BD00BF9A
:103D3400B804002008B50248FFF756FF08BD00BFCD
:103D4400D805002008B50248FFF74EFF08BD00BFA4
:103D54005806002008B5024800F0AAFD08BD00BFBF
:103D64001805002008B5024800F0A2FD08BD00BFF8
:103D74007805002008B50248FFF736FF08BD00BFEC
:103D84001806002008B5024801F0DCFF08BD00BF9A
:103D9400B4060020002800F0BB8170B582B0044650
:103DA400036813F0010F3BD0A74B9B6803F00C038F
:103DB400042B2CD0A44B9B6803F00C03082B21D0BC
:103DC4006368B3F5803F4FD0B3F5A02F52D09E4B1C
:103DD4001A6822F480321A601A6822F480221A6067
:103DE4006368002B50D002F0DDF80546964B1B6843
:103DF40013F4003F14D102F0D5F8401B6428F5D920
:103E040003208AE1904B5B6813F4800FD8D08E4B6B
:103E14001B6813F4003F03D06368002B00F07A8121
:103E2400236813F0020F55D0874B9B6813F00C0FD7
:103E34003ED0854B9B6803F00C03082B33D0E3681A
:103E4400002B68D0814B01221A6002F0ABF80546C2
:103E54007D4B1B6813F0020F54D102F0A3F8401BF2
:103E64000228F5D9032058E1774A136843F48033D4
:103E74001360B5E7744B1A6842F480221A601A681A
:103E840042F480321A60ABE702F08CF805466E4BC0
:103E94001B6813F4003FC3D002F084F8401B64286D
:103EA400F5D9032039E1684B5B6813F4800FC6D160
:103EB400654B1B6813F0020F04D0E368012B01D09B
:103EC40001202AE1604A136823F0F803216943EAD8
:103ED400C1031360236813F0080F40D0636963B310
:103EE4005B4B01221A6002F05DF80546564B5B6F8E
:103EF40013F0020F33D102F055F8401B0228F5D914
:103F040003200AE1504A136823F0F803216943EAC5
:103F1400C1031360DEE74D4B00221A6002F042F841
:103F24000546494B1B6813F0020FD3D002F03AF850
:103F3400401B0228F5D90320EFE0454B00221A600C
:103F440002F030F80546404B5B6F13F0020F06D0C9
:103F540002F028F8401B0228F5D90320DDE023688D
:103F640013F0040F79D0384B1B6C13F0805F33D1FE
:103F740000230193344B1A6C42F080521A641B6C78
:103F840003F080530193019B0125324B1B6813F40A
:103F9400807F23D0A368012B34D0052B38D02A4B43
:103FA4001A6F22F001021A671A6F22F004021A67CC
:103FB400A368002B36D001F0F5FF0646224B1B6F99
:103FC40013F0020F48D101F0EDFF801B41F288335A
:103FD4009842F3D90320A0E00025D6E71D4A1368D0
:103FE40043F48073136001F0DDFF0646194B1B6830
:103FF40013F4807FCED101F0D5FF801B0228F5D9C0
:1040040003208AE0104A136F43F001031367CFE7DC
:104014000D4B1A6F42F004021A671A6F42F0010244
:104024001A67C5E701F0BEFF0646074B1B6F13F086
:10403400020F11D001F0B6FF801B41F28833984281
:10404400F3D9032069E000BF003802400000474272
:10405400800E474200700040E5B9A369002B5BD095
:10406400304A926802F00C02082A58D0022B17D06A
:104074002D4B00221A6001F095FF0446294B1B6862
:1040840013F0007F42D001F08DFF001B0228F5D908
:10409400032042E0234A136C23F080531364DCE7CB
:1040A400214B00221A6001F07DFF05461D4B1B6861
:1040B40013F0007F06D001F075FF401B0228F5D9EC
:1040C40003202AE0E369226A1343626A43EA821303
:1040D400A26A5208013A43EA0243E26A43EA0263EB
:1040E400104A5360104B01221A6001F05BFF044632
:1040F4000C4B1B6813F0007F06D101F053FF001B2B
:104104000228F5D9032008E0002006E0002004E09E
:1041140001207047012000E0002002B070BD0120A2
:10412400FBE700BF0038024060004742324B9B6807
:1041340003F00C03042B5CD0082B01D02F487047EC
:104144002DE9F04B2C4B5A6802F03F025B6813F4E4
:10415400800F2BD0284B5B68C3F388131E460027BF
:104164005C010025E41A65EB0705A90141EA9461A5
:10417400A001001B61EB0501CB0043EA5073C400AE
:10418400A01943EB07014B0243EAD05344022046F3
:1041940019460023FBF7FCFF174B5B68C3F301438D
:1041A40001335B00B0FBF3F0BDE8F08B124B5B68AE
:1041B400C3F388131E4600275C010025E41A65EB4F
:1041C4000705A90141EA9461A001001B61EB050107
:1041D400CB0043EA5073C400A01943EB07018B02E0
:1041E40043EA90538402204619460023FBF7D0FF8C
:1041F400D2E70348704700BF003802400024F400AF
:1042040000127A00002800F09D8070B504464F4BE0
:104214001B6803F00F038B4209D2CBB24B4A1370D5
:10422400136803F00F038B4201D0012070BD236893
:1042340013F0020F17D013F0040F04D0444A93680C
:1042440043F4E0539360236813F0080F04D0404A0A
:10425400936843F4604393603D4A936823F0F0030A
:10426400A068034393600D46236813F0010F32D016
:104274006368012B21D09A1E012A25D9344A126879
:1042840012F0020F60D032498A6822F0030213430D
:104294008B6001F087FE06462D4B9B6803F00C03F0
:1042A4006268B3EB820F16D001F07CFE801B41F2F2
:1042B40088339842F0D90320B8E7254A126812F4EB
:1042C400003FE0D10120B1E7214A126812F0007FDB
:1042D400D9D10120AAE71D4B1B6803F00F03AB42A1
:1042E40009D9EAB2194B1A701B6803F00F03AB42E9
:1042F40001D001209AE7236813F0040F06D0144A72
:10430400936823F4E053E1680B439360236813F04C
:10431400080F07D00E4A936823F46043216943EAE7
:10432400C1039360FFF702FF094B9B68C3F30313B8
:10433400084AD35CD840084B1860002001F0E6FD21
:10434400002073E70120704701206FE7003C024022
:10435400003802400864000850040020014B18682B
:10436400704700BF5004002008B5FFF7F7FF044B67
:104374009B68C3F38223034AD35CD84008BD00BFC3
:10438400003802401864000808B5FFF7E7FF044B43
:104394009B68C3F34233034AD35CD84008BD00BFD3
:1043A40000380240186400082DE9F0438BB0002463
:1043B4000094484B1A6B42F004021A631A6B02F021
:1043C40004020092009A01941A6B42F080021A636C
:1043D4001A6B02F080020192019A02941A6B42F065
:1043E40001021A631A6B02F001020292029A039408
:1043F4001A6B42F002021A631A6B02F00202039271
:10440400039A04941A6B42F008021A631B6B03F0BC
:1044140008030493049BDFF8CC902246E02148462D
:1044240000F036F9DFF8C08022464FF48061404640
:1044340000F02EF94FF400530593274B069307948D
:10444400264E05A9304600F051F841F6BF630593A6
:1044540003250695079405A9304600F047F848F26D
:10446400130305930695079405A9484600F03EF802
:10447400E0230593012706970794089405A9484665
:1044840000F034F84FF2273305930695079405A9F5
:10449400404600F02BF84FF4806305930697079489
:1044A400089405A9404600F021F84FF4A073059341
:1044B4000694079705A9304600F018F804230593DD
:1044C4000695079405A9064800F010F80BB0BDE85E
:1044D400F08300BF003802400000211000080240B1
:1044E400000C0240000002400004024000230F2B95
:1044F40000F2C580F0B482B039E0042200E000226A
:10450400B2403A4302345E4E46F824205D4A1468B1
:10451400EA4302EA04064F6817F4803F01D045EAF3
:104524000406584C2660646802EA04064F6817F4CF
:10453400003F01D045EA0406524C6660A46802EAD2
:1045440004064F6817F4801F01D045EA04064D4C59
:10455400A660E46822404E6816F4001F01D045EAC4
:104564000402484CE26001330F2B00F285800122E3
:104574009A400C6804EA0205AA42F4D14C68022C61
:1045840001D0122C10D1DE08083650F826C003F0F2
:104594000704A7000F24BC402CEA040C0C69BC409F
:1045A40044EA0C0440F8264004685F000326BE4039
:1045B400F64306EA040C4C6804F00304BC4044EAE5
:1045C4000C0404604C6804F1FF3CBCF1010F03D9F6
:1045D400112C01D0122C10D1846806EA040CCC688A
:1045E400BC4044EA0C048460446824EA02024C6837
:1045F400C4F300149C4014434460C26816408A68A3
:10460400BA403243C2604A6812F0805FABD00022E5
:1046140001921D4A546C44F480445464526C02F474
:1046240080420192019A9C08A61C154A52F82670F1
:1046340003F0030296000F22B24027EA0207134A4E
:1046440090423FF45CAF02F5806290420ED002F5D6
:10465400806290420CD002F5806290420AD002F54A
:10466400806290423FF449AF072249E7012247E7BD
:10467400022245E7032243E702B0F0BC70477047CB
:1046840000380140003C0140003802400000024074
:1046940012B90904816170478161704743695940C7
:1046A400416170470F49D1F8883043F47003C1F871
:1046B40088300D4B1A6842F001021A60002098609D
:1046C4001A6822F0847222F480321A60074A5A600F
:1046D4001A6822F480221A60D8604FF000638B605D
:1046E400704700BF00ED00E00038024010300024A5
:1046F4000268D3B2103B0B49A1FB03131B090A49FF
:10470400C95CC165032B06D822F47F7222F0030230
:104714008265806D704722F47F7222F003020432B6
:104724008265F6E7ABAAAAAA20640008836A8269B4
:1047340092B9012B0AD01BB1022B01D00020704783
:10474400C36A13F0807F2CD100207047C36AB3F191
:10475400C07F28D000207047B2F5005F05D0022B3F
:1047640029D9032B15D000207047032B03D8DFE889
:1047740003F01C041C0A00207047C36A13F0807FF6
:1047840015D100207047C36AB3F1C07F11D0002057
:104794007047C36A13F0807F01D001207047002066
:1047A40070470120704701207047012070470120A5
:1047B40070470120704701207047000070B504461F
:1047C40001F0F0FB002C5BD00546002384F8343064
:1047D400022384F835302268136823F00103136040
:1047E40023681A6812F0010F0AD001F0DBFB401BAA
:1047F4000528F5D920236365032084F8350070BDAE
:104804001A68204810406168A2680A43E1680A43B4
:1048140021690A4361690A43A1690A43E1690A43B8
:10482400216A0A430243616A04291ED01A60266879
:10483400756925F00705636A1D43042B07D1A36A34
:104844001D43E36A1BB12046FFF770FF90B9756101
:104854002046FFF74DFFE26D3F2393408360002025
:104864006065012384F83530C9E7E16A206B0143B0
:104874000A43DBE740236365012084F83500BEE783
:104884000120BCE73F8010F090F83530DBB2022BFA
:1048940003D08023436501207047052380F8353019
:1048A4000268136823F001031360002070470000BE
:1048B400F0B583B0044600230193724B1D68724B1C
:1048C400A3FB0535AD0A876D3E68C26D082393408E
:1048D400334210D003681A6812F0040F0BD01A6820
:1048E40022F004021A60C26D08239340BB60436D3A
:1048F40043F001034365E26D01239340334209D041
:104904002268526912F0800F04D0BB60636D43F0DB
:1049140002036365E26D04239340334209D02268A5
:10492400126812F0020F04D0BB60636D43F00403FD
:104934006365E26D10239340334224D022681268E9
:1049440012F0080F1FD0BB6023681A6812F4802F7E
:104954000DD01B6813F4002F04D1236C9BB12046A7
:10496400984710E0A36C73B1204698470BE01A688F
:1049740012F4807F03D11A6822F008021A60236CB3
:104984000BB120469847E26D20239340334255D023
:104994002268126812F0100F50D0BB6094F83530C2
:1049A400DBB2052B0ED023681A6812F4802F33D0A3
:1049B4001B6813F4002F2AD1636C002B3ED02046D1
:1049C40098473BE02268136823F0160313602268BB
:1049D400536923F080035361236CA3B122681368E5
:1049E40023F008031360E26D3F239340BB60002370
:1049F40084F83430012384F83530236D002B3FD004
:104A0400204698473CE0A36C002BE7D1EBE7E36B2F
:104A1400A3B12046984711E01A6812F4807F09D1A7
:104A24001A6822F010021A60002384F8343001233B
:104A340084F83530E36B0BB120469847636DFBB1C6
:104A4400636D13F0010F17D0052384F83530226805
:104A5400136823F001031360019B01330193AB42FC
:104A640004D823681B6813F0010FF5D1002384F8E0
:104A74003430012384F83530E36C0BB12046984779
:104A840003B0F0BD50040020B5814E1B90F83E30B9
:104A9400DBB2402B13D00369B3F5804F1ED0036DF6
:104AA400002B2DD0036D012B33D1436CC3F3C813FA
:104AB400026803F0060343F0F103136129E0036D78
:104AC4002BB9436C026803F0FE03136121E0436CCD
:104AD400026843F00103DBB213611AE090F83D3041
:104AE400DBB2212B06D0436C026843F00103DBB236
:104AF40013610EE0436C026803F0FE03136108E0E7
:104B0400436CC3F3C813026803F0060343F0F003D5
:104B1400136100207047436C0268DBB2136100200C
:104B2400704710B48BB090F83E30DAB2C16A046BAF
:104B340090F83D30DBB2222B0CD00023099303689C
:104B44005A6909929B690993099B00200BB05DF88F
:104B5400044B7047036D0BB9402A17D0036D1BB982
:104B64000369B3F5404F19D0438D9BB2002B25D177
:104B7400029303685A6902929A690292029A1A6825
:104B840042F400721A6000230365DEE700930368B1
:104B94005A6900929B690093009BD6E70023019316
:104BA40003685A6901929A690192019A1A6842F457
:104BB40080721A60036D01330365C6E7438D9BB2AF
:104BC400012B1AD0438D9BB2022B6BD00268136861
:104BD40043F48063136003685A6812F4006F03D0CF
:104BE4005A6842F480525A600023089303685A6951
:104BF40008929B690893089BC5E711F5803F16D07E
:104C040004293DD008293BD0122C39D0C36A022B89
:104C140030D00268136823F4806313600023059383
:104C240003685A6905929B690593059BABE7026883
:104C3400136823F48063136003685A6812F4006FE6
:104C44000CD01A6822F480621A600023039303686C
:104C54005A6903929B690393039B94E7002204928D
:104C64005A6904929A690492049A1A6842F4007286
:104C74001A6088E70268136843F480631360CDE721
:104C84000268136823F480631360002306930368A7
:104C94005A6906929A690692069A1A6842F4007250
:104CA4001A6070E7C36A022B1BD00268136823F4EE
:104CB400806313600268136843F40063136003683D
:104CC4005A6812F4006F03D05A6842F480525A6052
:104CD4000023079303685A6907929B690793079B0C
:104CE40051E70268136843F480631360E7E7438D78
:104CF4009BB24BB1436A5A1C426202681B7813612F
:104D0400438D013B9BB2438500207047438D9BB28A
:104D14004BB103681A69436A591C41621A70438D86
:104D2400013B9BB243850020704703685A6912F423
:104D3400806F0DD06FF480625A61042303640023F2
:104D44000363202280F83D2080F83C300120704726
:104D540000207047F8B506460C4617461D461EE06F
:104D64002DB101F01FF9069BC01AA84217D90023E0
:104D74003363202286F83D2086F83E3086F83C30A6
:104D840003201AE033685B6924EA03039BB2B3FA95
:104D940083F35B099F420FD1B5F1FF3FE0D1C4F328
:104DA4000743012BEED033689B6924EA03039BB2CB
:104DB400B3FA83F35B09EDE70020F8BDF8B50446C8
:104DC4000D4616461F4632E01A6842F400721A6015
:104DD40023686FF480625A610423236400232363ED
:104DE400202284F83D2084F83C3001202DE026B1B7
:104DF40001F0D8F8C01BB04219D900232363202244
:104E040084F83D2084F83C3003201EE023685B696D
:104E140025EA03039BB2003318BF0123A3B123681F
:104E24005A6912F4806FCFD1B6F1FF3FDFD1C5F3D9
:104E34000743012BEAD023689B6925EA03039BB24D
:104E4400003318BF0123E9E70020F8BDF0B583B0B3
:104E540004460D4616461F46C36A042B0DD0012B8B
:104E64000BD013F5803F08D0036B122B0AD10268D4
:104E7400136843F48073136004E02268136843F4F6
:104E8400807313600097334600224FF001112046CF
:104E9400FFF760FF58BB2369B3F5804F10D1236837
:104EA40005F0FE051D613B46324615492046FFF7D5
:104EB40085FF0346E0B1236C042B1ED1012317E0C8
:104EC400EB11226803F0060343F0F00313613B4641
:104ED40032460C492046FFF771FF20B1236C042BA6
:104EE40009D1012304E02368EDB21D61DBE703234C
:104EF400184603B0F0BD0323FAE70323F8E700BF25
:104F040002000100080001002DE9F04184B00446CC
:104F14000D4616461F46C26A01680B6843F4806357
:104F24000B60042A0DD0012A0BD012F5803F08D063
:104F3400036B112B0AD10268136843F48073136066
:104F440004E02268136843F48073136000973346C7
:104F540000224FF001112046FFF7FCFE002852D139
:104F64002369B3F5804F12D1236845F00105EDB2F2
:104F74001D613B4632462A492046FFF71FFF034680
:104F8400002841D0236C042B48D101233CE04FEA94
:104F9400E51808F00608236848F0F0021A613B4659
:104FA400324620492046FFF709FF20B1236C042B29
:104FB4002ED1012328E02368EDB21D613B46324621
:104FC40017492046FFF7FAFE20B1236C042B21D1A8
:104FD400012319E000220392236859690391996916
:104FE40003910399196841F480711960009733465D
:104FF4004FF001112046FFF7ADFE68B9226848F072
:10500400F1031361B5E70323184604B0BDE8F0814A
:105014000323F9E70323F7E70323F5E70323F3E780
:10502400020001000800010070B504460D46164652
:1050340023685B6913F0800F19D12046FFF775FED2
:10504400B8B9B5F1FF3FF3D025B100F0ABFF801B39
:10505400A842EDD9236C43F0200323640023236387
:10506400202284F83D2084F83C30032000E0002016
:1050740070BD0120FCE770B504460D461646236852
:105084005B6913F0040F19D12046FFF74EFEB8B93F
:10509400B5F1FF3FF3D025B100F084FF801BA84297
:1050A400EDD9236C43F020032364002323632022DF
:1050B40084F83D2084F83C30032000E0002070BDDB
:1050C4000120FCE770B505460C4616462B685A6964
:1050D40012F0400F22D15A6912F0100F11D124B1ED
:1050E40000F060FF801BA042F0D92B6C43F020033A
:1050F4002B64202385F83D30002385F83C300320C1
:1051040070BD6FF010025A6100232B642B632022C0
:1051140085F83D2085F83C300120F1E70020EFE7D9
:10512400002800F0828010B5044690F83D30002B32
:1051340041D0242384F83D302268136823F001030E
:105144001360FFF711F93A4BA3FB00239B0C226871
:1051540053606168374A914232D80133226813623E
:105164006368344A934235D85B00B0FBF3F0C0F374
:105174000B03032B00D804202368D861E369216A58
:1051840022680B4313602369E16822680B43936030
:105194006369A16922680B43D3602268136843F0F2
:1051A4000103136000202064202384F83D30206331
:1051B40084F83E0010BD80F83C30FEF7A5F9B8E74E
:1051C4004FF4967202FB03F31B4AA2FB03239B09D1
:1051D4000133C3E7A16889B903EB4302B0FBF2F2E0
:1051E400C2F30B02B2FA82F25209E2B991B903EBAB
:1051F4004303B0FBF3F040F40040BDE703EB83024C
:1052040002EB8202B0FBF2F2C2F30B02B2FA82F2B8
:105214005209EAE703EB830303EB8303B0FBF3F0E8
:1052240040F44040A8E70120A6E70120704700BFF2
:1052340083DE1B43A0860100D34D62102DE9F041AB
:1052440084B004460E4690461F4600F0ABFE94F828
:105254003D30DBB2202B04D00226304604B0BDE83A
:10526400F081054600901923012254492046FFF796
:1052740071FD002840F0998094F83C30012B00F037
:105284009680012384F83C3023681A6812F0010FD9
:1052940003D11A6842F001021A602268136823F4E9
:1052A40000631360212384F83D30102384F83E30DA
:1052B40000232364C4F824806785A3F58033E36264
:1052C400638D23852B460A9A31462046FFF7BEFD9F
:1052D400064660B1236C042B04D1002384F83C30CF
:1052E4000126BAE7002384F83C300326B5E70023FF
:1052F400039323685A6903929B690393039B10E009
:10530400236C042B55D12268136843F40073136093
:105314000126A2E72A460A992046FFF7ACFE002898
:105324002BD1238D002B32D02A460A992046FFF731
:105334007BFE0028E4D1636A5A1C626222681B78EF
:105344001361638D013B9BB26385238D013B9BB24B
:1053540023852268516911F0040FDBD0002BD9D0CA
:10536400636A591C61621B781361638D013B9BB2B4
:105374006385238D013B2385CCE7236C042B1AD151
:105384002268136843F400731360012665E72268FA
:10539400136843F400731360202384F83D30002322
:1053A40084F83E3084F83C3057E7022655E702265D
:1053B40053E7032651E703264FE700BF020010001E
:1053C4002DE9F04186B004460E4690461F4600F093
:1053D400E9FD94F83D30DBB2202B04D002263046A0
:1053E40006B0BDE8F08105460090192301228C49DE
:1053F4002046FFF7AFFC002840F04B8194F83C3086
:10540400012B00F04881012384F83C3023681A689A
:1054140012F0010F03D11A6842F001021A602268E7
:10542400136823F400631360222384F83D301023AF
:1054340084F83E3000232364C4F824806785A3F5F0
:105444008033E362638D23852B460C9A31462046D4
:10545400FFF75AFD064660B1236C042B04D10023E8
:1054640084F83C300126BAE7002384F83C30032654
:10547400B5E7238D5BB9029323685A6902929A694E
:105484000292029A1A6842F400721A607AE0012BBE
:105494000FD0022B1FD02268136843F4806313607B
:1054A4000023059323685A6905929B690593059B1C
:1054B40068E02268136823F4806313600023039375
:1054C40023685A6903929A690392039A1A6842F408
:1054D40000721A6056E02268136823F48063136034
:1054E4002268136843F40063136000230493236861
:1054F4005A6904929B690493049B43E02A460C99DD
:105504002046FFF7DFFD68B923681A69636A591CEE
:1055140061621A70238D013B2385638D013B9BB22D
:1055240063852FE0236C202B01D0012657E7032647
:1055340055E700950C9B00223A492046FFF70AFCE8
:10554400002840F0AA802268136843F400731360B3
:1055540023681A69636A591C61621A70238D013BBE
:105564002385638D013B9BB2638523681A69636A53
:10557400591C61621A70238D013B2385638D013BA5
:105584009BB26385238D002B7AD0032B4CD8012B3F
:10559400B4D0022BCDD000950C9B0022214920468B
:1055A400FFF7D8FB00287AD12268136823F48063BC
:1055B400136023681A69636A591C61621A70238D27
:1055C400013B2385638D013B9BB2638500950C9B56
:1055D400002214492046FFF7BDFB002861D1226850
:1055E400136843F40073136023681A69636A591CCF
:1055F40061621A70238D013B2385638D013B9BB24D
:10560400638523681A69636A591C61621A70238D61
:10561400013B2385638D013B9BB26385B2E700BFE9
:1056240002001000040001002A460C992046FFF7EE
:1056340049FDF0B923681A69636A591C61621A70DA
:10564400238D013B2385638D013B9BB263852368D6
:105654005A6912F0040F95D01A69636A591C616281
:105664001A70238D013B2385638D013B9BB26385B7
:1056740088E7236C202B01D00126B0E60326AEE692
:10568400202384F83D30002384F83E3084F83C30F5
:10569400A5E60226A3E60226A1E603269FE6032644
:1056A4009DE603269BE600BF70477047704708B528
:1056B40090F83D30DAB2438D9BB273B1436A591C02
:1056C400416201681B780B61438D013B9BB24385AA
:1056D400438D9BB20BB9292A01D0002008BD026872
:1056E400536823F48063536021230363282380F8E1
:1056F4003D30FFF7DBFFF0E7704790F83D30DAB25A
:10570400438D9BB2F3B110B503681969436A5C1CFD
:1057140044621970438D013B9BB24385438D9BB218
:105724000BB92A2A01D0002010BD0268536823F463
:105734008063536022230363282380F83D30FFF7FE
:10574400DBFFF0E700207047704708B503689A69EB
:1057540012F0040F09D000219B6913F0800F06D0CA
:10576400028BFFF7F1FF002008BD0121F4E78289D5
:10577400F7E77047704710B590F83D30DBB290F80A
:105784003E20D2B2C46A018D09B9212B05D0212B48
:105794003CD0402A38D0002010BD042C04D0082C62
:1057A40002D014F5803F19D10268536823F4E063F2
:1057B40053600268136843F40073136000230363A7
:1057C400202380F83D3090F83E30DBB2402B15D0DA
:1057D400002380F83E30FFF767FFDCE70268536878
:1057E40023F4E063536011230363002380F83E3005
:1057F400202380F83D30FFF757FFCCE7002380F8E3
:105804003E30FFF7B7FFC6E7222BC4D1438D9BB2CE
:105814007BB190F83E30DBB2402B10D0436A5A1C67
:10582400426202681B781361438D013B9BB243853E
:10583400B1E70268536823F480635360ABE7036DF8
:105844009BB9C36C012B08D0836CC3F30723026894
:105854001361036D013303659DE7836C0268DBB25A
:105864001361036D0233036595E7036D012B17D0B4
:10587400036D022B8FD190F83D30DBB2222B17D071
:1058840090F83D30DBB2212B85D1436A5A1C426229
:1058940002681B781361438D013B9BB243857AE711
:1058A400836C0268DBB21361036D0133036572E735
:1058B4000268136843F4807313606CE708B5C26A26
:1058C40090F83D30DBB2212B01D0002008BD438D80
:1058D4009BB203BB042A04D0082A02D012F5803FED
:1058E40024D10268536823F4E063536002681368A8
:1058F40043F40073136000230363202380F83D30D6
:1059040090F83E30DBB2402B20D0002380F83E30AC
:10591400FFF7CAFED9E7436A5A1C426202681B7841
:105924001361438D013B9BB24385CEE70268536804
:1059340023F4E063536011230363002380F83E30B3
:10594400202380F83D30FFF7AFFEBEE7002380F848
:105954003E30FFF70FFFB8E7704708B590F83D30C9
:10596400DBB2222B01D0002008BD438D9BB2032B58
:1059740013D903681A69436A591C41621A70438D2A
:10598400013B9BB24385438D9BB2032BEBD1026851
:10599400536823F480635360E5E7012BE3D802687E
:1059A400136823F4806313600268536823F4E0638C
:1059B400536003681A69436A591C41621A70438D23
:1059C400013B9BB24385202380F83D3000230363D1
:1059D40090F83E30DBB2402B05D0002380F83E30F7
:1059E400FFF763FEBFE7002380F83E30FFF7B4FF04
:1059F400B9E708B5C26A438D9BB2042B13D0438D1B
:105A04009BB2032B1FD0438D9BB2022B30D0036873
:105A14001A69436A591C41621A70438D013B9BB257
:105A24004385002008BD0268536823F480635360F3
:105A340003681A69436A591C41621A70438D013B19
:105A44009BB24385EDE70268536823F48063536097
:105A54000268136823F48063136003681A69436A55
:105A6400591C41621A70438D013B9BB24385D8E7B0
:105A7400013A012A2DD90268136843F400731360B4
:105A840003681A69436A591C41621A70438D013BC9
:105A94009BB2438503681A69436A591C41621A70B0
:105AA400438D013B9BB243850268536823F44073E2
:105AB4005360202380F83D300023036390F83E3088
:105AC400DBB2402B10D0002380F83E30FFF7EDFD11
