:020000040800F2
:100000000030002029850008C13D0008CF3D0008D0
:10001000D53D0008DB3D0008E13D00080000000080
:10002000000000000000000000000000E73D0008A4
:10003000F53D000800000000033E0008113E0008E6
:100040007985000879850008798500087985000898
:100050007985000879850008798500087985000888
:100060007985000879850008798500087985000878
:100070007985000879850008798500087985000868
:10008000213E0008798500087985000879850008F7
:100090007985000879850008798500087985000848
:1000A000C53E000879850008798500087985000833
:1000B000798500087985000800000000798500082E
:1000C0007985000800000000000000007985000824
:1000D0000000000079850008E13E000879850008ED
:1000E0007985000879850008000000000000000004
:1000F0000000000000000000000000000000000000
:1001000000000000000000000000000000000000EF
:1001100000000000000000007985000879850008D3
:1001200000000000000000000000000000000000CF
:1001300000000000000000000000000000000000BF
:1001400079850008798500080000000000000000A3
:10015000000000000000000000000000000000009F
:10016000000000000000000000000000000000008F
:10017000000000000000000000000000000000007F
:08018000000000007985000871
:1001880081F0004102E000BF83F0004330B54FEA40
:1001980041044FEA430594EA050F08BF90EA020FAD
:1001A8001FBF54EA000C55EA020C7FEA645C7FEA40
:1001B800655C00F0E2804FEA5454D4EB5555B8BF63
:1001C8006D420CDD2C4480EA020281EA030382EAD4
:1001D800000083EA010180EA020281EA0303362D66
:1001E80088BF30BD11F0004F4FEA01314FF4801C39
:1001F8004CEA113102D0404261EB410113F0004F4B
:100208004FEA03334CEA133302D0524263EB430301
:1002180094EA050F00F0A780A4F10104D5F1200E9F
:100228000DDB02FA0EFC22FA05F2801841F10001FA
:1002380003FA0EF2801843FA05F359410EE0A5F1CE
:1002480020050EF1200E012A03FA0EFC28BF4CF0FF
:10025800020C43FA05F3C01851EBE37101F00045B5
:1002680007D54FF0000EDCF1000C7EEB00006EEBC2
:100278000101B1F5801F1BD3B1F5001F0CD349084C
:100288005FEA30004FEA3C0C04F101044FEA4452A3
:1002980012F5800F80F09A80BCF1004F08BF5FEA2A
:1002A800500C50F1000041EB045141EA050130BD0A
:1002B8005FEA4C0C404141EB010111F4801FA4F1AD
:1002C8000104E9D191F0000F04BF01460020B1FA02
:1002D80081F308BF2033A3F10B03B3F120020CDA3A
:1002E8000C3208DD02F1140CC2F10C0201FA0CF018
:1002F80021FA02F10CE002F11402D8BFC2F1200C7D
:1003080001FA02F120FA0CFCDCBF41EA0C01904032
:10031800E41AA2BF01EB0451294330BD6FEA04047B
:100328001F3C1CDA0C340EDC04F11404C4F1200266
:1003380020FA04F001FA02F340EA030021FA04F378
:1003480045EA030130BDC4F10C04C4F1200220FACF
:1003580002F001FA04F340EA0300294630BD21FA0D
:1003680004F0294630BD94F0000F83F4801306BFD3
:1003780081F480110134013D4EE77FEA645C18BFC7
:100388007FEA655C29D094EA050F08BF90EA020F5E
:1003980005D054EA000C04BF1946104630BD91EA56
:1003A800030F1EBF0021002030BD5FEA545C05D159
:1003B8004000494128BF41F0004130BD14F5800498
:1003C8003CBF01F5801130BD01F0004545F0FE410C
:1003D80041F470014FF0000030BD7FEA645C1ABF41
:1003E800194610467FEA655C1CBF0B46024650EA78
:1003F800013406BF52EA033591EA030F41F40021A4
:1004080030BD00BF90F0000F04BF0021704730B529
:100418004FF4806404F132044FF000054FF00001FE
:1004280050E700BF90F0000F04BF0021704730B5BF
:100438004FF4806404F1320410F0004548BF404294
:100448004FF000013EE700BF42004FEAE2014FEAE9
:1004580031014FEA02701FBF12F07F4393F07F4FC4
:1004680081F06051704732F07F4208BF704793F0C7
:100478007F4F04BF41F40021704730B54FF46074DA
:1004880001F0004521F000411CE700BF50EA0102DD
:1004980008BF704730B54FF000050AE050EA010286
:1004A80008BF704730B511F0004502D5404261EBF6
:1004B80041014FF4806404F132045FEA915C3FF437
:1004C800D8AE4FF003025FEADC0C18BF03325FEAD4
:1004D800DC0C18BF033202EBDC02C2F1200300FA85
:1004E80003FC20FA02F001FA03FE40EA0E0021FAAA
:1004F80002F11444BDE600BF70B54FF0FF0C4CF498
:10050800E06C1CEA11541DBF1CEA135594EA0C0F49
:1005180095EA0C0F00F0DEF82C4481EA030621EA84
:100528004C5123EA4C5350EA013518BF52EA0335BF
:1005380041F4801143F4801338D0A0FB02CE4FF071
:100548000005E1FB02E506F00042E0FB03E54FF0A1
:100558000006E1FB03569CF0000F18BF4EF0010E99
:10056800A4F1FF04B6F5007F64F5407404D25FEA95
:100578004E0E6D4146EB060642EAC62141EA555148
:100588004FEAC52040EA5E504FEACE2EB4F1FD0C8A
:1005980088BFBCF5E06F1ED8BEF1004F08BF5FEA08
:1005A800500E50F1000041EB045170BD06F00046BA
:1005B80046EA010140EA020081EA0301B4EB5C0467
:1005C800C2BFD4EB0C0541EA045170BD41F480115F
:1005D8004FF0000E013C00F3AB8014F1360FDEBF84
:1005E800002001F0004170BDC4F10004203C35DA60
:1005F8000C341BDC04F11404C4F1200500FA05F3E3
:1006080020FA04F001FA05F240EA020001F0004283
:1006180021F0004110EBD37021FA04F642EB0601F9
:100628005EEA430E08BF20EAD37070BDC4F10C0423
:10063800C4F1200500FA04F320FA05F001FA04F2E7
:1006480040EA020001F0004110EBD37041F10001D3
:100658005EEA430E08BF20EAD37070BDC4F12005DE
:1006680000FA05F24EEA020E20FA04F301FA05F246
:1006780043EA020321FA04F001F0004121FA04F2EE
:1006880020EA020000EBD3705EEA430E08BF20EABE
:10069800D37070BD94F0000F0FD101F000464000F8
:1006A80041EB010111F4801F08BF013CF7D041EA7A
:1006B800060195F0000F18BF704703F0004652007E
:1006C80043EB030313F4801F08BF013DF7D043EA4F
:1006D8000603704794EA0C0F0CEA135518BF95EA05
:1006E8000C0F0CD050EA410618BF52EA4306D1D18C
:1006F80081EA030101F000414FF0000070BD50EAAB
:10070800410606BF1046194652EA430619D094EA34
:100718000C0F02D150EA013613D195EA0C0F05D11E
:1007280052EA03361CBF104619460AD181EA030172
:1007380001F0004141F0FE4141F470014FF000002A
:1007480070BD41F0FE4141F4780170BD70B54FF0C5
:10075800FF0C4CF4E06C1CEA11541DBF1CEA135545
:1007680094EA0C0F95EA0C0F00F0A7F8A4EB050427
:1007780081EA030E52EA03354FEA013100F088801E
:100788004FEA03334FF0805545EA131343EA1263E7
:100798004FEA022245EA111545EA10654FEA00269C
:1007A8000EF000419D4208BF964244F1FD0404F555
:1007B800407402D25B084FEA3202B61A65EB0305B1
:1007C8005B084FEA32024FF480104FF4002CB6EB6E
:1007D800020E75EB030E22BFB61A754640EA0C00EE
:1007E8005B084FEA3202B6EB020E75EB030E22BF2E
:1007F800B61A754640EA5C005B084FEA3202B6EB6F
:10080800020E75EB030E22BFB61A754640EA9C002D
:100818005B084FEA3202B6EB020E75EB030E22BFFD
:10082800B61A754640EADC0055EA060E18D04FEABB
:10083800051545EA16754FEA06164FEAC30343EA5B
:1008480052734FEAC2025FEA1C1CC0D111F4801F28
:100858000BD141EA00014FF000004FF0004CB6E721
:1008680011F4801F04BF01430020B4F1FD0C88BFC0
:10087800BCF5E06F3FF6AFAEB5EB030C04BFB6EBCB
:10088800020C5FEA500C50F1000041EB045170BDBE
:100898000EF0004E4EEA113114EB5C04C2BFD4EBEB
:1008A8000C0541EA045170BD41F480114FF0000E6F
:1008B800013C90E645EA060E8DE60CEA135594EAEB
:1008C8000C0F08BF95EA0C0F3FF43BAF94EA0C0FEE
:1008D8000AD150EA01347FF434AF95EA0C0F7FF463
:1008E80025AF104619462CE795EA0C0F06D152EAB7
:1008F80003353FF4FDAE1046194622E750EA41069B
:1009080018BF52EA43067FF4C5AE50EA41047FF4AB
:100918000DAF52EA43057FF4EBAE12E74FF0FF3C10
:1009280006E000BF4FF0010C02E000BF4FF0010CE1
:100938004DF804CD4FEA410C7FEA6C5C4FEA430C5A
:1009480018BF7FEA6C5C1BD001B050EA410C0CBFA9
:1009580052EA430C91EA030F02BF90EA020F00200B
:10096800704710F1000F91EA030F58BF994208BF72
:1009780090422CBFD8176FEAE37040F0010070472F
:100988004FEA410C7FEA6C5C02D150EA013C07D186
:100998004FEA430C7FEA6C5CD6D152EA033CD3D0D1
:1009A8005DF8040B704700BF8446104662468C46CB
:1009B8001946634600E000BF01B5FFF7B7FF0028FE
:1009C80048BF10F1000F01BD4DF808EDFFF7F4FF27
:1009D8000CBF012000205DF808FB00BF4DF808EDB2
:1009E800FFF7EAFF34BF012000205DF808FB00BFD5
:1009F8004DF808EDFFF7E0FF94BF012000205DF8F7
:100A080008FB00BF4DF808EDFFF7CEFF94BF0120AB
:100A180000205DF808FB00BF4DF808EDFFF7C4FFA4
:100A280034BF012000205DF808FB00BF4FEA410CED
:100A38007FEA6C5C02D150EA013C0AD14FEA430CD0
:100A48007FEA6C5C02D152EA033C02D14FF000000D
:100A580070474FF0010070474FEA410212F500124B
:100A680015D211D56FF47873B3EB625212D94FEAED
:100A7800C12343F0004343EA505311F0004F23FAD7
:100A880002F018BF404270474FF00000704750EA2C
:100A9800013005D111F0004008BF6FF000407047E9
:100AA8004FF00000704700BF4FEA4102B2F1E04347
:100AB80024BFB3F5001CDCF1FE5C0DD901F0004C3D
:100AC8004FEAC0024CEA5070B2F1004F40EB83008D
:100AD80008BF20F00100704711F0804F21D113F1B9
:100AE8003872BCBF01F00040704741F480114FEAF2
:100AF8005252C2F11802C2F1200C10FA0CF320FA7B
:100B080002F018BF40F001004FEAC1234FEAD32397
:100B180003FA0CFC40EA0C0023FA02F34FEA430301
:100B2800CCE77FEA625307D150EA01331EBF4FF08A
:100B3800FE4040F44000704701F0004040F0FE40A5
:100B480040F40000704700BF10B5054C227832B958
:100B5800044B13B10448AFF300800123237010BD88
:100B68007402002000000000A4B4000808B5034B7C
:100B78001BB103490348AFF3008008BD0000000023
:100B880078020020A4B4000880B483B000AF786075
:100B98007B684FF00002DA607B684FF000021A6150
:100BA80000BF0C37BD465DF8047B704780B485B044
:100BB80000AF786039607B6893ED047A7B68D3ED89
:100BC800056A3B6807EE903AF8EEE77A66EEA77A90
:100BD80077EE277A7B68C3ED047A3B6807EE903A94
:100BE800B8EEE77A7B68D3ED007A27EE277A7B6840
:100BF800D3ED016A7B68D3ED047A66EEA77A37EE07
:100C0800277A7B68D3ED026A3B6807EE903AB8EE24
:100C1800E76A7B68D3ED037A76EE677A26EEA76AF1
:100C28007B68D3ED056AC6EE267A77EE277AC7ED9C
:100C3800037A3B6807EE903AF8EEE77A7B68C3EDF3
:100C4800037AFB6807EE903AB0EE670A1437BD46A0
:100C58005DF8047B704780B483B000AF786039607A
:100C68003B6883EAE372A2EBE3727B689B699A4272
:100C780023DA3B6807EE903AB8EEE77A7B68D3ED63
:100C8800037A77EE677AFDEEE77A17EE903A002B53
:100C9800B8BF5B4207EE903AF8EEE76A7B68D3ED9F
:100CA800057A86EEA77A7B68D3ED077AB4EEE77A01
:100CB800F1EE10FA01D5012300E0002318460C37A5
:100CC800BD465DF8047B704780B483B000AF7860A0
:100CD8007B684FF00002DA607B684FF000021A610F
:100CE80000BF0C37BD465DF8047B704780B485B003
:100CF80000AF786087ED000A7B6893ED047A7B6823
:100D0800D3ED056AD7ED007A66EEA77A77EE277AF3
:100D18007B68C3ED047A7B6893ED007AD7ED007A9F
:100D280027EE277A7B68D3ED016A7B68D3ED047AD6
:100D380066EEA77A37EE277A7B68D3ED026A7B687E
:100D4800D3ED037A97ED006A76EE677A26EEA76A06
:100D58007B68D3ED056AC6EE267A77EE277AC7ED6B
:100D6800037A7B683A68DA60FB6807EE903AB0EE7F
:100D7800670A1437BD465DF8047B704780B483B0BA
:100D880000AF7860396000237A6853607A6813602E
:100D98007B683A689A6000BF0C37BD465DF8047BF3
:100DA800704780B485B000AF78607B689B681B682B
:100DB8005B6ABB607B681B68BA68D31AFB607B6898
:100DC800BA681A60FB68012B03DD4FF0FF33FB6044
:100DD80005E0FB68B3F1FF3F01DA0123FB607B68A4
:100DE8005A68FB681A447B685A60FB6818461437CF
:100DF800BD465DF8047B704780B582B000AF78606F
:100E08007B689B683C21184604F032FA00BF08371B
:100E1800BD4680BD2DE9B04384B000AF78607B68E3
:100E28001846FFF7BEFFF8607B680C331846FFF7DB
:100E3800B8FFB8607B689B691846FFF705FB044656
:100E48000D467B681B6A1846FFF7FEFA02460B46FA
:100E580043EC102B07F068FD59EC108B544B1B68C2
:100E68001846FFF7F1FA02460B4640464946FFF797
:100E780043FB02460B4690469946FA68BB68134402
:100E88001846FFF7CFFA02460B4640464946FFF799
:100E980033FB02460B4620462946FFF777F90346FF
:100EA8000C4618462146FFF7FFFD02467B689A610B
:100EB8007B68DB691846FFF7C7FA04460D467B686E
:100EC8001B6A1846FFF7C0FA02460B4643EC102B84
:100ED80007F096FD59EC108B354B1B681846FFF749
:100EE800B3FA02460B4640464946FFF705FB024661
:100EF8000B4690469946FA68BB6813441846FFF7B4
:100F080091FA02460B4640464946FFF7F5FA024673
:100F18000B4620462946FFF739F903460C46184682
:100F28002146FFF7C1FD02467B68DA617B6893EDD5
:100F3800087AFA68BB68D31A1E4A126802FB03F3E0
:100F480007EE903AF8EEE77A77EE277A7B68C3EDFA
:100F5800087A7B68D3ED087A9FED177AF4EEC77AA2
:100F6800F1EE10FA0ADD7B68D3ED087A9FED137A6B
:100F780077EEC77A7B68C3ED087A14E07B68D3ED17
:100F8800087A9FED0F7AF4EEC77AF1EE10FA00D9DD
:100F980009E07B68D3ED087A9FED087A77EE877AC7
:100FA8007B68C3ED087A00BF1037BD46BDE8B08343
:100FB8000400002090020020DB0F4940DB0FC940ED
:100FC800DB0F49C080B584B000AFF860B9607A60C3
:100FD8003B604FF00003FA68D361FA689361FB68DD
:100FE8004FF000021A62FB68B9681846FFF7C6FEA0
:100FF800FB680C3379681846FFF7C0FEFB68184693
:10100800FFF7FAFEFB680C331846FFF7F5FE386861
:1010180004F003F800BF1037BD4680BD80B582B02C
:1010280000AF7860054B1B681B791946786800F09B
:10103800ADFE00BF0837BD4680BD00BFD00200200E
:1010480080B582B000AF7860786800F09FFE03F04A
:10105800A0FC00BF0837BD4680BD000080B584B045
:1010680002AF7860084B0193084B0093084B094A7C
:101078000949786800F064FE786800F087FE00BFD0
:101088000837BD4680BD00BF380E0020340E002052
:10109800240E0020200E00201C0E002080B584B0F5
:1010A80002AF7860084B0193084B0093084B094A3C
:1010B8000949786800F044FE786800F067FE00BFD0
:1010C8000837BD4680BD00BF900E00208C0E002062
:1010D8007C0E0020780E0020740E002080B582B0AF
:1010E80000AF7860786800F051FE00BF0837BD4651
:1010F80080BD000080B584B000AF786007F10C02B5
:1011080007F10E031946786800F01AFEFB8907EE0E
:10111800903AF8EE677A094BC3ED007ABB8907EE7F
:10112800903AF8EE677A064BC3ED007A786800F0DB
:101138002DFE00BF1037BD4680BD00BF94020020C1
:1011480098020020F0B585B002AF7860114BD3ED5E
:10115800067AFCEEE77A17EE903A9BB21D460D4BE5
:10116800D3ED077AFCEEE77A17EE903A9BB21E466B
:10117800084B1B6A1846FFF767F903460C46CDE98A
:10118800003432462946786800F000FE00BF0C376C
:10119800BD46F0BD3C0E002080B582B000AF78603F
:1011A800084A0949786800F0CBFD084B084A1A60DC
:1011B800084B064A1A60786800F0E8FD00BF083757
:1011C800BD4680BDB4020020B8020020A402002061
:1011D80079260008D002002080B582B000AF786080
:1011E800084A0949786800F0ABFD084B084A1A60BC
:1011F800084B064A1A60786800F0C8FD00BF083737
:10120800BD4680BDB0020020BC020020A402002020
:1012180035280008D002002080B582B000AF786081
:101228000749786800F08CFD786800F0AFFD054B41
:101238000022C3F8002B00BF0837BD4680BD00BFA1
:1012480000060020D402002080B584B000AF78608A
:1012580007F10C0207F10E031946786800F070FDDB
:10126800FA89234BD3F8003B07EE902AF8EE677A09
:101278001F4A02339B0013440433C3ED007ABA8932
:101288001B4BD3F8003B07EE902AF8EE677A184A12
:1012980066339B0013440433C3ED007A786800F08A
:1012A80075FD134BD3F8003B0133114AC2F8003BDC
:1012B8000F4BD3F8002B0E4BD3F82C339A4212D194
:1012C8000C4801F061FC0C48FFF7FEFC0B48FFF7E7
:1012D800FBFC074B0A4A1A600A4B054A1A60094B7D
:1012E8001B6800221A7100BF1037BD4680BD00BFC1
:1012F800D4020020E0020020E80D0020000E0020AB
:101308007D2B0008D002002080B58CB006AF786035
:101318001B4B049307F10C03039307F1100302938B
:1013280007F114030193174B0093174B174A1849F9
:10133800786800F005FD786800F028FD7A69154B9B
:1013480003F614331A603A69124B03F618331A601D
:10135800FA68104B03F61C331A607A690D4B03F6D2
:101368002C331A603A690B4B03F533631A60FA6839
:10137800084B03F634331A6000BF1837BD4680BDEA
:10138800180E0020E40D0020E00D0020D80D0020EC
:10139800DC0D0020D402002080B582B000AF786058
:1013A800786800F0CDFC0F4B0F4A1A600F4B1B6892
:1013B80000221A710D4B0B4A1A600D4B5A680C4BE0
:1013C8001B6913440B4A1360094B1A69084B5B6885
:1013D800D31A094A1360786800F0D8FC00BF0837B0
:1013E800BD4680BDA40200209D270008D002002031
:1013F8003C0E00206C0E0020700E002080B586B0D8
:1014080002AF786007F10E0207F10C030093134650
:10141800104A1149786800F093FCFB8907EE903A6E
:10142800F8EE677A0D4BC3ED077ABB8907EE903A61
:10143800F8EE677A094BC3ED087A084B084A1A6038
:10144800084B064A1A60786800F0A0FC00BF103705
:10145800BD4680BDB8020020BC020020A4020020C6
:10146800B1290008D002002080B487B000AF7860AE
:1014780039600023FB6000237B6102E07B69013354
:101488007B617B69072B00F3A4807B693A681A4467
:101498007B6979680B4412781A701B78FB74FB7CA3
:1014A800002B00F096800123BB60FB7C423B332B72
:1014B80000F2888001A252F823F000BF9D150008B1
:1014C800CD150008CD150008CD150008BD1500087C
:1014D800CD150008CD150008CD150008CD1500085C
:1014E800CD150008CD150008CD150008CD1500084C
:1014F800CD150008CD150008CD150008CD1500083C
:10150800CD150008CD150008CD150008CD1500082B
:10151800CD150008CD150008CD150008CD1500081B
:10152800CD150008CD150008CD150008CD1500080B
:10153800CD150008CD150008CD1500089515000833
:10154800CD150008CD150008CD150008B515000803
:10155800CD150008CD150008AD150008CD150008FB
:10156800CD150008CD150008CD150008CD150008CB
:10157800CD150008CD150008CD150008CD150008BB
:10158800C5150008CD150008A5150008FB6801332E
:10159800FB6019E0FB680233FB6015E0FB6804336D
:1015A800FB6011E0FB680433FB600DE0FB6804336B
:1015B800FB6009E0FB680833FB6005E0FB6840332B
:1015C800FB6001E00023BB6000BFBB68002B7FF419
:1015D80055AFFB7C002B02D1FB68F92B05DD064BD0
:1015E80001221A604FF0FF3300E0002318461C3731
:1015F800BD465DF8047B70479C02002090B59DB005
:1016080000AFF860B9607A603B607B687B64012357
:10161800FB6651E197F84330622B28D13B681B6881
:10162800191D3A6811601B68DBB287F8273007F18B
:101638002703BB667B68013BBB62BB6ADB43DB0FEE
:10164800DBB2FB66FB6E002B00F036810AE0BA6E57
:10165800531CBB66BB68591CB96012781A707B684A
:10166800013B7B607A68BB6A9A42F0DC24E197F818
:101678004330422B27D13B681B68191D3A6811601B
:101688001B689BB2BB8407F124037B667B68023B23
:10169800FB62FB6ADB43DB0FDBB2FB66FB6E002BF6
:1016A80000F00A810AE07A6E531C7B66BB68591CFD
:1016B800B96012781A707B68013B7B607A68FB6AB4
:1016C8009A42F0DCF8E097F84330752B26D13B6856
:1016D8001B68191D3A6811601B683B6207F12003FB
:1016E8003B667B68043B3B633B6BDB43DB0FDBB256
:1016F800FB66FB6E002B00F0DF800AE03A6E531C9D
:101708003B66BB68591CB96012781A707B68013B4C
:101718007B607A683B6B9A42F0DCCDE097F8433007
:10172800692B26D13B681B68191D3A6811601B6834
:10173800FB6107F11C03FB657B68043B7B637B6BE8
:10174800DB43DB0FDBB2FB66FB6E002B00F0B480E3
:101758000AE0FA6D531CFB65BB68591CB960127826
:101768001A707B68013B7B607A687B6B9A42F0DC7D
:10177800A2E097F84330662B2FD13B681B680733EC
:1017880023F0070303F108013A681160D3E9003434
:1017980018462146FFF788F90346BB6107F118038D
:1017A800BB657B68043BBB63BB6BDB43DB0FDBB216
:1017B800FB66FB6E002B7FD00AE0BA6D531CBB653D
:1017C800BB68591CB96012781A707B68013B7B6052
:1017D8007A68BB6B9A42F0DC6EE097F84330462B90
:1017E8002BD13B681B68073323F0070303F108017B
:1017F8003A681160D3E90034C7E9043407F11003EB
:101808007B657B68083BFB63FB6BDB43DB0FDBB271
:10181800FB66FB6E002B4FD00AE07A6D531C7B658C
:10182800BB68591CB96012781A707B68013B7B60F1
:101838007A68FB6B9A42F0DC3EE097F84330732BF2
:1018480034D13B681B68191D3A6811601B683B65F9
:101858002A2387F84F304023BB6402E07B68013BB2
:101868007B607B68002B14D03A6D531C3B65BB68CA
:10187800591CB96012781A701B7887F84F3097F89E
:101888004F30002B05D0BB6C013BBB64BB6C002BFD
:10189800E4D197F84F30002B05D17B68013B7B6082
:1018A8000123FB6608E00023FB6605E0104B0122DC
:1018B8001A604FF0FF3316E0FB685A1CFA601B7879
:1018C80087F8433097F84330002B03D0FB6E002B8A
:1018D8007FF4A0AEFB6E002B03D07A6C7B68D31A22
:1018E80001E04FF0FF3318467437BD4690BD00BF86
:1018F8009C02002080B497B000AFF860B9607A60AD
:101908003B6001237B652CE197F82F30622B23D1B4
:101918003B681B68191D3A6811601B683B657B684A
:10192800013B7B617B69DB43DB0FDBB27B657B6D56
:10193800002B00F016810AE0BA68531CBB603B6DAF
:10194800591C396512781A707B68013B7B607A688C
:101958007B699A42F0DC04E197F82F30422B23D1BF
:101968003B681B68191D3A6811601B68FB647B683B
:10197800023BBB61BB69DB43DB0FDBB27B657B6D85
:10198800002B00F0EE800AE0BA68531CBB60FB6CC9
:10199800591CF96412781A707B68013B7B607A687D
:1019A800BB699A42F0DCDCE097F82F30752B23D125
:1019B8003B681B68191D3A6811601B68BB647B682B
:1019C800043BFB61FB69DB43DB0FDBB27B657B6DB3
:1019D800002B00F0C6800AE0BA68531CBB60BB6CE1
:1019E800591CB96412781A707B68013B7B607A686D
:1019F800FB699A42F0DCB4E097F82F30692B23D1C9
:101A08003B681B68191D3A6811601B687B647B681A
:101A1800043B3B623B6ADB43DB0FDBB27B657B6DE0
:101A2800002B00F09E800AE0BA68531CBB607B6CF8
:101A3800591C796412781A707B68013B7B607A685C
:101A48003B6A9A42F0DC8CE097F82F30662B22D163
:101A58003B681B68191D3A6811601B683B647B680A
:101A6800043B7B627B6ADB43DB0FDBB27B657B6D10
:101A7800002B76D00AE0BA68531CBB603B6C591C3B
:101A8800396412781A707B68013B7B607A687B6ADC
:101A98009A42F0DC65E097F82F30462B22D13B685C
:101AA8001B68191D3A6811601B68FB637B68083B5B
:101AB800BB62BB6ADB43DB0FDBB27B657B6D002B54
:101AC8004FD00AE0BA68531CBB60FB6B591CF96322
:101AD80012781A707B68013B7B607A68BB6A9A420D
:101AE800F0DC3EE097F82F30732B34D13B681B684D
:101AF800191D3A6811601B68BB632A2387F83730C1
:101B080040233B6302E07B68013B7B607B68002BE2
:101B180014D0BA68531CBB60BB6B591CB9631278EC
:101B28001A701B7887F8373097F83730002B05D0B4
:101B38003B6B013B3B633B6B002BE4D197F83730A1
:101B4800002B05D17B68013B7B6001237B6508E0A6
:101B580000237B6505E0124B01221A604FF0FF332A
:101B680017E0FB685A1CFA601B7887F82F3097F843
:101B78002F30002B03D07B6D002B7FF4C5AE7B6D1F
:101B8800002B04D07B68002B01D1002301E04FF02B
:101B9800FF3318465C37BD465DF8047B704700BFCD
:101BA8009C02002080B485B000AF786039607B6803
:101BB8003A681A600023FB600CE07968FA681346FB
:101BC8005B001344DB000B44043300221A60FB68FB
:101BD8000133FB60FB681F2BEFDD00BF1437BD46E8
:101BE8005DF8047B7047000080B586B000AFF860F0
:101BF800B9607A603B60BB68002B02DBBB681F2BB7
:101C080005DD1A4B00221A604FF0FF332AE0BA684C
:101C180013465B001344DB00FA68134404337B610A
:101C28007B69043339681846FFF71EFC0346B3F195
:101C3800FF3F02D14FF0FF3314E07B690C33396A60
:101C48001846FFF711FC0346B3F1FF3F02D14FF0EE
:101C5800FF3307E07B697A681A607B6997F824206C
:101C68001A75002318461837BD4680BD9C0200200F
:101C780080B588B000AF786039603B685B78002B2E
:101C880005D12E4B03221A604FF0FF3351E03B6819
:101C98001B78FB613B689B78BB613B685B78013BC9
:101CA8007B613B6803333B61BB69002B02DBBB698B
:101CB8001F2B05DD214B00221A604FF0FF3338E05F
:101CC800BA6913465B001344DB007A681344043393
:101CD800FB60FB681B68002B05D1184B02221A60B9
:101CE8004FF0FF3325E07B68FA69C3F804237B686B
:101CF800BA69C3F808237B683A69C3F80C237B6880
:101D08007A69C3F81023FB681B7D002B02D0012BD6
:101D180009D00DE07B68002283F81423FB681B6858
:101D28007868984704E07B68012283F8142300BF91
:101D3800002318462037BD4680BD00BF9C02002006
:101D48000FB480B584B000AF07F11C037B60BB699A
:101D5800D3F8082313465B001344DB00BA69134425
:101D68000433FB60FB68181DBB69D3F80C13BB690F
:101D7800D3F810233B1DFFF7BDFDB860BB681846BC
:101D88001037BD46BDE8804004B070470FB480B539
:101D980082B000AF07F114033B603B691B6803F591
:101DA80001737B603B69D3F80833DAB27B689A70B9
:101DB8003B69D3F80433DAB27B681A703B69D3F80D
:101DC800082313465B001344DB0008333A691344C5
:101DD80003F108007B68D91C3B46F922FFF70EFC8B
:101DE8000346DBB20133DAB27B685A707B685B78F2
:101DF800002B05D10A4B05221A604FF0FF3307E08C
:101E08003B691B6801227968184600F027F90346E8
:101E180018460837BD46BDE8804004B0704700BF8B
:101E28009C02002080B485B000AFF860B9607A6089
:101E38003B60FB68BA68C3F81824FB687A681A60C4
:101E4800FB683A685A60FB68002283F81224FB6832
:101E58000C4AC3F80024FB6803F10802FB68C3F8C6
:101E68000824FB6803F58572FB68C3F80C24FB683B
:101E78000022A3F8102400BF1437BD465DF8047B88
:101E8800704700BFFD20000880B483B000AF7860C1
:101E98000B467B8000BF0C37BD465DF8047B70475E
:101EA80080B489B000AF786039607B685B78002BBC
:101EB80009D07B685B780633B3F5807F03DC7B68E9
:101EC8005B78FA2B06D9634B4FF480721A804FF077
:101ED800FF33B8E03B68FB61FB695A1CFA61BB61E0
:101EE8000023FB827B681B78FB73FB8A1B021AB2F8
:101EF800FB8A1B0A9BB21946FB7B4B40DBB2564957
:101F080031F813301BB253401BB2FB82FB7B002B12
:101F18000AD1FA69BB69D31ADAB2BB691A70FB69CC
:101F28005A1CFA61BB6104E0FB695A1CFA61FA7B2E
:101F38001A707B685B780433BB73FB8A1B021AB286
:101F4800FB8A1B0A9BB21946BB7B4B40DBB242495A
:101F580031F813301BB253401BB2FB82FB695A1C89
:101F6800FA61BA7B1A7000233B612CE07A683B69FE
:101F7800134402331B78FB72FB8A1B021AB2FB8ADA
:101F88001B0A9BB21946FB7A4B40DBB2324931F847
:101F980013301BB253401BB2FB82FB7A002B0AD1D1
:101FA800FA69BB69D31ADAB2BB691A70FB695A1CA1
:101FB800FA61BB6104E0FB695A1CFA61FA7A1A708B
:101FC8003B6901333B617B685B781A463B69934206
:101FD800CCDBFB8A7B73FB8A1B0A9BB23B737B7B44
:101FE800002B0AD1FA69BB69D31ADAB2BB691A7035
:101FF800FB695A1CFA61BB6104E0FB695A1CFA616F
:102008007A7B1A703B7B002B0AD1FA69BB69D31A19
:10201800DAB2BB691A70FB695A1CFA61BB6104E049
:10202800FB695A1CFA613A7B1A70FA69BB69D31AC0
:10203800DAB2BB691A70FB695A1CFA6100221A707D
:10204800FA693B68D31A18462437BD465DF8047B05
:10205800704700BFA00200200800002090B587B09C
:1020680000AFF860B9607A60FB6803F54073194601
:10207800B868FFF715FF78617B69B3F1FF3F02D1BC
:102088004FF0FF3316E0FB681C68FB68D3F81804B0
:10209800FB6803F540717B699AB27B68A0470346E9
:1020A800002B06D0054B4FF400721A804FF0FF3317
:1020B80000E0002318461C37BD4690BDA002002052
:1020C80080B584B000AFF860B9601346FB80FB6848
:1020D800BA68C3F8082404E0FB68D3F80034F86849
:1020E8009847FB885A1EFA80002BF5D100BF10379D
:1020F800BD4680BD80B485B000AF78607B68D3F8FA
:102108000834591C7A68C2F808141B78FB73FB7BE7
:10211800002B0ED17B680D4AC3F800247B6800228F
:10212800A3F810247B6803F585727B68C3F80C2438
:1021380007E07B68FA7B83F804247B68044AC3F8C9
:1021480000241437BD465DF8047B7047FD20000865
:102158005D21000880B584B000AF78607B68D3F853
:102168000834591C7A68C2F808141B78FB73FB7B87
:10217800002B18D1284B40F201221A80264B1B88CD
:1021880019467868FFF780FE7B68244AC3F8002464
:102198007B680022A3F810247B6803F585727B68AE
:1021A800C3F80C2434E07B6893F80434013BDAB2BA
:1021B8007B6883F804247B6893F80434002B05D1EA
:1021C8007B68FA7B83F80424002300E0FB7BFB7325
:1021D8007B68FA7B83F808217B68B3F810341B020C
:1021E8001AB27B68B3F810341B0A9BB21946FB7B02
:1021F8004B40DBB20A4931F813301BB253401BB2D3
:102208009AB27B68A3F810247B68064AC3F80024B6
:102218001037BD4680BD00BFA0020020FD20000889
:10222800080000203122000880B584B000AF786033
:102238007B68D3F80834591C7A68C2F808141B78EC
:10224800FB73FB7B002B18D1374B40F201221A801D
:10225800354B1B8819467868FFF716FE7B68334AAA
:10226800C3F800247B680022A3F810247B6803F5D8
:1022780085727B68C3F80C2453E07B6893F80434B8
:10228800013BDAB27B6883F804247B68B3F8103426
:102298001B021AB27B68B3F810341B0A9BB21946AA
:1022A800FB7B4B40DBB2224931F813301BB2534061
:1022B8001BB29AB27B68A3F81024FB7B043BDAB20A
:1022C8007B6883F806247B6893F806247B6883F888
:1022D80005247B6893F805247B6883F809217B68CB
:1022E80093F80534FA2B18D90F4B40F202221A80C2
:1022F8000D4B1B8819467868FFF7C6FD7B680B4AAB
:10230800C3F800247B680022A3F810247B6803F537
:1023180085727B68C3F80C2403E07B68054AC3F820
:1023280000241037BD4680BDA0020020FD20000813
:10233800080000204123000880B584B000AF786011
:102348007B68D3F80834591C7A68C2F808141B78DB
:10235800FB73FB7B002B18D1314B40F201221A8012
:102368002F4B1B8819467868FFF78EFD7B682D4A2E
:10237800C3F800247B680022A3F810247B6803F5C7
:1023880085727B68C3F80C2446E07B6893F80434B4
:10239800013BDAB27B6883F804247B6893F8043441
:1023A800002B05D17B68FA7B83F80424002300E026
:1023B800FB7BFB737B68D3F80C34591C7A68C2F832
:1023C8000C14FA7B1A707B68B3F810341B021AB22B
:1023D8007B68B3F810341B0A9BB21946FB7B4B4051
:1023E800DBB2114931F813301BB253401BB29AB219
:1023F8007B68A3F810247B6893F80634013BDAB2B3
:102408007B6883F806247B6893F80634002B03D195
:102418007B68064AC3F800241037BD4680BD00BF5C
:10242800A0020020FD200008080000203924000830
:1024380080B584B000AF78607B68D3F80834591C45
:102448007A68C2F808141B78FB73FB7B002B18D141
:10245800294B40F201221A80274B1B8819467868BD
:10246800FFF712FD7B68254AC3F800247B68002229
:10247800A3F810247B6803F585727B68C3F80C24E5
:1024880036E07B68B3F81034DAB27B6893F804342A
:10249800013BD9B27B6883F804147B6893F8043451
:1024A800002B05D17B68F97B83F80414002300E036
:1024B800FB7B934218D0104B40F203221A800E4B3C
:1024C8001B8819467868FFF7DFFC7B680B4AC3F85E
:1024D80000247B680022A3F810247B6803F585722A
:1024E8007B68C3F80C2403E07B68054AC3F8002422
:1024F8001037BD4680BD00BFA0020020FD200008A7
:102508000D25000880B584B000AF78607B68D3F8EB
:102518000834591C7A68C2F808141B78FB73FB7BD3
:10252800002B18D12A4B40F201221A80284B1B8815
:1025380019467868FFF7A8FC7B68264AC3F8002488
:102548007B680022A3F810247B6803F585727B68FA
:10255800C3F80C2438E07B68B3F810341B0A9BB22C
:1025680019467B6893F80434013BDAB27B6883F838
:1025780004247B6893F80434002B05D17B68FA7B2C
:1025880083F80424002300E0FB7B8B4218D0104B17
:1025980040F203221A800E4B1B8819467868FFF711
:1025A80073FC7B680B4AC3F800247B680022A3F8FD
:1025B80010247B6803F585727B68C3F80C2403E05C
:1025C8007B68054AC3F800241037BD4680BD00BFAC
:1025D800A0020020FD200008E525000880B584B091
:1025E80000AF78607B68D3F80834591C7A68C2F861
:1025F80008141B78FB73FB7B002B19D17B68012225
:1026080083F812247B6803F584731946786805F00B
:1026180015FA7B68144AC3F800247B680022A3F8E3
:1026280010247B6803F585727B68C3F80C2418E0D6
:102638000E4B40F202221A800C4B1B881946786810
:10264800FFF722FC7B68084AC3F800247B68002255
:10265800A3F810247B6803F585727B68C3F80C2403
:1026680000BF1037BD4680BDFD200008A002002035
:1026780080B485B000AF78607B68FB607B6800221F
:102688001A71FB6800225A62064B1A68FB689A6244
:102698007B68054A1A6000BF1437BD465DF8047BA5
:1026A800704700BF6C0E0020B526000880B485B0C6
:1026B80000AF78607B68FB60FB68D3ED046AFB6859
:1026C800D3ED057A86EEA77AFB685B6A07EE903A47
:1026D800F8EEE76A2B4BD3ED057A66EEA77AB4EEEF
:1026E800E77AF1EE10FA2BDDFB689B6A07EE903A69
:1026F800B8EEE77AFB685B6A07EE903AF8EEE76AAD
:10270800FB68D3ED057A66EEA76A1E4BD3ED057A12
:1027180026EEA76A1C4B1B6807EE903AF8EEE76AAC
:10272800C6EE267A77EE277AFDEEE77A17EE902A3C
:10273800164B1A60FB685B6A5A1CFB685A621BE0FE
:10274800FB689B6A07EE903AB8EEE77AFB6893ED70
:10275800046A0D4B1B6807EE903AF8EEE76AC6EE7E
:10276800267A77EE277AFDEEE77A17EE902A074B5E
:102778001A607B68064A1A6000BF1437BD465DF8C8
:10278800047B70471C0E0020040000206C0E002003
:102798009D270008B0B582B000AF7860174B1B6862
:1027A8001846FDF73FFE04460D46154B5A68144B74
:1027B8001B6913441846FDF735FE4FF00002114B14
:1027C800FDF79AFE02460B4620462946FDF7DCFC3B
:1027D80003460C4618462146FEF73EF903461946BD
:1027E8000948FEF738FA0346002B02D07B68074AEF
:1027F8001A6000BF0837BD46B0BD00BF6C0E002090
:102808003C0E00200000E03F1C0E002019280008A4
:1028180080B483B000AF78607B6801221A7100BF72
:102828000C37BD465DF8047B7047000080B485B066
:1028380000AF78607B68FB607B6800221A71FB68D8
:1028480000225A62094B93ED087AFB68D3ED037AAC
:1028580077EE277AFB68C3ED037A7B68044A1A602F
:1028680000BF1437BD465DF8047B70473C0E00205E
:102878007D28000880B485B000AF78607B68FB6075
:10288800FB68D3ED036AFB68D3ED067A86EEA77A78
:10289800FB685B6A07EE903AF8EEE76A2B4BD3EDDC
:1028A800057A66EEA77AB4EEE77AF1EE10FA2BDD38
:1028B800FB685B6A07EE903AB8EEE77AFB68D3EDFF
:1028C800067A27EE277A214BD3ED057A27EE277A69
:1028D8001F4B1B6807EE903AF8EEE77A67EE276A17
:1028E8001C4B1B6807EE903AB8EEE77AC6EE877A7B
:1028F800FDEEE77A17EE902A174B1A60FB685B6AC1
:102908005A1CFB685A621BE0FB6893ED037A104B74
:102918001B6807EE903AF8EEE77A67EE276A0D4BE8
:102928001B6807EE903AB8EEE77AC6EE877AFDEEB6
:10293800E77A17EE902A084B1A607B68074A1A60F4
:1029480000BF1437BD465DF8047B7047740E002045
:102958000000002004000020700E002069290008F3
:1029680080B582B000AF78600A4B1A680A4B1969C3
:10297800094B5B68CB1AD31A19460848FEF76BF95E
:102988000346002B02D07B68054A1A6000BF08374F
:10299800BD4680BD700E00203C0E0020740E002045
:1029A80019280008000000002DE9B04F84B000AFDE
:1029B80078607B68FB606E4B93ED067AFB68D3ED1D
:1029C800077A27EE277A6A4BD3ED076AFB68D3EDBF
:1029D800087A66EEA77A77EE277A17EE900AFDF75F
:1029E80033FD04460D46624B9B691846FDF72CFDE6
:1029F80002460B469FED5C1B43EC102B06F0BCF81F
:102A080059EC108B5A4BDB691846FDF71DFD024641
:102A18000B469FED551B43EC102B06F0ADF853EC1D
:102A2800102B40464946FDF7B1FB02460B4643ECE6
:102A3800172BB0EE470AF0EE670A06F039FA59ECA0
:102A4800108BFB68DB691846FDF7FEFC02460B4657
:102A58009FED451B43EC102B06F08EF85BEC10AB9A
:102A6800FB681B6A1846FDF7EFFC02460B469FED14
:102A78003E1B43EC102B06F07FF853EC102B50460E
:102A88005946FDF783FB02460B4643EC172BB0EE85
:102A9800470AF0EE670A06F00BFA53EC102B404693
:102AA8004946FDF773FB02460B4620462946FDF7CB
:102AB8004DFE03460C4644EC173BB0EE470AF0EED9
:102AC800670A05F0FDFF54EC103B18462146FDF758
:102AD800EBFF0246FB68DA60254B93ED067AFB684C
:102AE800D3ED077A77EE677A17EE900AFDF7ACFC1C
:102AF80003460C469FED1C1B44EC103B06F03CF8CB
:102B080055EC104B1A4B93ED077AFB68D3ED087A16
:102B180077EE677A17EE900AFDF796FC02460B46A9
:102B28009FED111B43EC102B06F026F853EC102BED
:102B380020462946FDF72AFB03460C4644EC173B82
:102B4800B0EE470AF0EE670A06F0B2F954EC103B13
:102B580018462146FDF7A8FF0246FB681A6100BF28
:102B68001037BD46BDE8B08F0000000000000040EF
:102B78003C0E002080B483B000AF786000BF0C37F3
:102B8800BD465DF8047B7047B0B58AB000AF786089
:102B980000237B627B68D3F82033BB61BB69013BB0
:102BA8007B6100237B62ABE07B6A07EE903AB8EE6C
:102BB800E77ADFED626AC7EE267AC7ED047AB7EEE8
:102BC800007AD7ED047A37EE677AD7ED046AC6EE55
:102BD800877AC7ED037A7A687B6AC8339B00134407
:102BE80004334FF000021A607A687B6A03F5E173D8
:102BF8009B00134404334FF000021A60B7EE007ACA
:102C0800D7ED047A77EE677A17EE900AFDF71CFC89
:102C180004460D46BB69013B1846FDF703FC024616
:102C28000B4643EC112B45EC104B05F0A5FF54EC7B
:102C3800103B18462146FDF737FF0346FB6100238A
:102C48003B6256E07A687B6AC8339B0013440433BE
:102C580093ED007A7A683B6A9B001344D3ED006ACF
:102C6800D7ED077A66EEA77A77EE277A7A687B6AD5
:102C7800C8339B0013440433C3ED007A7A687B6A37
:102C880003F5E1739B001344043393ED007A7A68EB
:102C98003B6A64339B001344D3ED006AD7ED077A8F
:102CA80066EEA77A77EE277A7A687B6A03F5E1738E
:102CB8009B0013440433C3ED007A7A693B6AD31A44
:102CC80007EE903AB8EEE77AD7ED037A67EE276A0F
:102CD8003B6A013307EE903AB8EEE77AC6EE877A98
:102CE80097ED077A67EE277AC7ED077A3B6A0133D3
:102CF8003B623A6ABB699A42A4DB7B6A01337B6216
:102D08007B6AF82B7FF750AFBB69013B7A689B0061
:102D180013441A687B6803F5E1631A60BB69013BD9
:102D28007A6864339B0013441A687B6803F52F6341
:102D38001A6000BF2837BD46B0BD00BF0000794308
:102D480080B487B000AF87ED030AC7ED020A87EDAC
:102D5800011AC7ED001A97ED037AD7ED017A77EEDD
:102D6800677AC7ED057A97ED027AD7ED007A77EEA4
:102D7800677AC7ED047A97ED057AD7ED057A27EEDD
:102D8800277AD7ED046AD7ED047A66EEA77A77EE4C
:102D9800277AB0EE670A1C37BD465DF8047B70479A
:102DA8002DE9B04396B000AFF86087ED020AC7ED91
:102DB800010A3960984B9B69FB63974BDB69BB63DE
:102DC800954B1B6A7B65FB68D3EDC97AFB6803F2F8
:102DD8000C7393ED007AF0EE471AB0EE671AD7ED50
:102DE8000E0A97ED0F0AFFF7ABFF87ED140A97ED70
:102DF800017AD7ED017A67EE277AC7ED0D7AD7ED1C
:102E0800027A77EEA77A97ED017A67EE277AC7ED0F
:102E18000C7A00233B6401237B643CE0FA687B6CFA
:102E2800C8339B0013440433D3ED007A97ED0F7A2F
:102E380077EE677AC7ED0A7AFA687B6C03F5E17377
:102E48009B0013440433D3ED007A97ED0E7A77EEA6
:102E5800677AC7ED097A97ED0A7AD7ED0A7A27EEED
:102E6800277AD7ED096AD7ED097A66EEA77A77EE61
:102E7800277AC7ED057A97ED057AD7ED147AB4EE7F
:102E8800E77AF1EE10FA03D57B693B657B6C3B640E
:102E98007B6C01337B647B6CF92BBFDD3B6C07EEED
:102EA800903AB8EEE77ADFED5D6AC7EE267AC7EDAD
:102EB8000B7AF86AFDF7C8FA4FA3D3E90023FDF7A8
:102EC8008DFD0346002B23D0F86AFDF7BDFA4AA30F
:102ED800D3E90023FDF73AFC03460C461846214681
:102EE80047A3D3E90023FDF707FB03460C46184622
:102EF800214645A3D3E90023FDF748F903460C46CC
:102F080018462146FDF7D0FD02463B681A6027E0C7
:102F1800F86AFDF799FA3EA3D3E90023FDF75EFDB1
:102F28000346002B04D03B684FF07E521A6017E02E
:102F3800B7EE007AD7ED0B7A77EE677A17EE900A3C
:102F4800FDF782FA2CA3D3E90023FDF7FFFB034624
:102F58000C4618462146FDF7A7FD02463B681A6055
:102F68003B6C002B01D101233B643B6CF92B01D155
:102F7800F8233B643B6C0133FA68C8339B00134465
:102F8800043393ED007A3B6C013BFA68C8339B002D
:102F980013440433D3ED007A37EE677AF0EE006A13
:102FA800C7EE267AC7ED0A7A3B6C0133FA6803F557
:102FB800E1739B001344043393ED007A3B6C013BAF
:102FC800FA6803F5E1739B0013440433D3ED007AE8
:102FD80037EE677AF0EE006AC7EE267AC7ED097A0F
:102FE800D7ED0A7AF5EE407AF1EE10FA1AD10C4BC9
:102FF800FB642FE0AFF30080465D6BEF5355D53F80
:10300800666666666666EE3F9A9999999999A93FA8
:103018005D514A085655E53F3C0E002000007943B3
:10302800DB0FC93F97ED097AD7ED0A7AC7EE276A11
:1030380016EE900AFDF708FA03460C4644EC103BDE
:1030480005F0C6FA54EC103B18462146FDF72CFD56
:103058000346FB643B6C0133FA68C8339B00134496
:10306800043393ED007A3B6C013BFA68C8339B004C
:1030780013440433D3ED007A37EE277AFA683B6CB1
:10308800C8339B0013440433D3ED007A77EEA77A54
:1030980037EE677AF1EE006AC7EE267AC7ED087A4E
:1030A8003B6C0133FA6803F5E1739B001344043366
:1030B80093ED007A3B6C013BFA6803F5E1739B00E2
:1030C80013440433D3ED007A37EE277AFA683B6C61
:1030D80003F5E1739B0013440433D3ED007A77EED4
:1030E800A77A37EE677AF1EE006AC7EE267AC7ED5F
:1030F800077A97ED0A7AD7ED077A27EE277AD7ED80
:10310800096AD7ED087A66EEA77A77EE677A17EE3E
:10311800900AFDF799F904460D4697ED0A7AD7ED1E
:103128000A7A27EE277AD7ED096AD7ED097A66EE8B
:10313800A77A77EE277A17EE900AFDF785F9024607
:103148000B4643EC102B05F0B3FEB0EE407AF0EEE0
:10315800607A9FED531BB0EE470AF0EE670A05F060
:103168000BFD53EC102B20462946FDF7EFFA0346DA
:103178000C4618462146FDF797FC0346BB61D7ED80
:10318800157A9FED497AF4EEC77AF1EE10FA08DD68
:10319800D7ED157A9FED457A77EEC77AC7ED157AA0
:1031A80010E0D7ED157A9FED427AF4EEC77AF1EE8A
:1031B80010FA07D5D7ED157A9FED3C7A77EE877A26
:1031C800C7ED157A97ED157AD7ED137A77EE677A0A
:1031D800C7ED127AD7ED127A9FED347AF4EEC77AFA
:1031E800F1EE10FA08DDD7ED127A9FED327A77EE1C
:1031F800C77AC7ED127A10E0D7ED127A9FED2E7AD2
:10320800F4EEC77AF1EE10FA07D8D7ED127A9FEDEF
:10321800297A77EE877AC7ED127AB869FDF714F93B
:1032280004460D46786BFDF70FF980468946386DE0
:10323800FDF70AF902460B4643EC102B05F038FE61
:1032480053EC102B40464946FDF756F902460B460B
:1032580020462946FCF798FF03460C4625461C469F
:1032680097ED0C7AD7ED127A67EE277A17EE900A67
:10327800FDF7EAF802460B4620462946FCF784FF8C
:1032880003460C4618462146FDF70EFC034607EE9A
:10329800903AB0EE670A5837BD46BDE8B08300BF24
:1032A8000000000000000840DB0FC93FDB0F494069
:1032B800DB0FC9BFDB0FC940DB0F49C080B483B047
:1032C80000AF78607B681B6843F001027B681A6076
:1032D80000BF0C37BD465DF8047B704780B483B0EF
:1032E80000AF78607B681B6843F010027B681A6047
:1032F80000BF0C37BD465DF8047B704780B483B0CF
:1033080000AF78607B689B6843F040027B689A60F6
:1033180000BF0C37BD465DF8047B704780B483B0AE
:1033280000AF786039603B68013B0B4AD35C1A46B2
:103338007B6813441B683A68013A07498A5C11465E
:103348007A680A4443F00103136000BF0C37BD4696
:103358005DF8047B704700BF18B5000880B485B0DD
:1033680000AFF860B9607A60BB68013B0C4AD35C77
:103378001A46FB6813445B681B0C1B04BA68013AC5
:1033880007498A5C1146FA680A4411467A68134369
:103398004B6000BF1437BD465DF8047B704700BF23
:1033A80018B5000880B485B000AFF860B9607A60DD
:1033B800BB68013B064AD35C1A46FB6813441A46AD
:1033C8007B68D36000BF1437BD465DF8047B704747
:1033D80018B5000880B485B000AFF860B9607A60AD
:1033E800BB68013B064AD35C1A46FB6813441A467D
:1033F8007B68936000BF1437BD465DF8047B704757
:1034080018B5000880B483B000AF786039603B68B5
:10341800013B0B4AD35C1A467B6813441B683A6825
:10342800013A07498A5C11467A680A4443F0020364
:10343800136000BF0C37BD465DF8047B704700BFC2
:1034480018B5000880B483B000AF786039603B6875
:10345800013B0B4AD35C1A467B6813441B683A68E5
:10346800013A07498A5C11467A680A4443F0040322
:10347800136000BF0C37BD465DF8047B704700BF82
:1034880018B50008B0B598B002AF01F06BF800F0BD
:10349800AFFB04F03BF804F0BFFC03F0BFFF03F000
:1034A8008DFD03F0DFFD04F0E3FA03F029FE03F0DD
:1034B800A1FEA34BA34AA449A448FEF7B3FCA44B1E
:1034C8001A460621A348FFF76DFF4FF480720621C4
:1034D800A048FFF743FFA04A06219E48FFF77AFF5E
:1034E80006219C48FFF7AEFF06219A48FFF78AFF9E
:1034F80006219848FFF712FF9348FFF7FFFE92480E
:10350800FFF7ECFE9048FFF7D9FE90499348FEF785
:1035180049FB00230193924B0093914B914A01215F
:103528008E48FEF761FB002301938D4B00938E4B71
:103538008E4A02218948FEF757FB00230193884BE6
:103548000093894B8A4A03218448FEF74DFB0023E8
:103558000193834B0093874B874A04217F48FEF7EA
:1035680043FB002301937E4B0093844B844A05213F
:103578007A48FEF739FB00230193824B0093784B7E
:10358800814A06217548FEF72FFB00230193744BEF
:1035980000937E4B7E4A0A217048FEF725FB0023E4
:1035A80001936F4B0093794B7A4A0B216B48FEF7D6
:1035B8001BFB002301936A4B0093774B774A0D213D
:1035C8006648FEF711FB00230193654B0093744B8B
:1035D800744A08216148FEF707FB00230193604BFA
:1035E8000093664B704A09215C48FEF7FDFA0023F8
:1035F80001936E4B00935A4B6D4A00215748FEF7D2
:10360800F3FA00230193564B0093554B694A07215F
:103618005248FEF7E9FA00230193514B0093504BAF
:10362800654A0C214D48FEF7DFFA0A23FB630023A5
:103638007B6500233B654FF00003BB634FF000033D
:103648003B624FF000037B634FF000033B634FF096
:103658000003FB62594B184620231A46002104F048
:10366800ADFF564B564A1A60544B554A5A60534B55
:10367800544A9A60514B524A5A615048FDF784FAAD
:10368800514B184620231A46002104F097FF4E4B51
:103698004B4A1A604C4B4A4A5A604B4B494A9A600B
:1036A800494B474A5A614848FDF76EFA474B03F6BB
:1036B800143300221A605A609A60DA601A615A61FB
:1036C800424B03F614333E4A1A60404B03F6183354
:1036D8003B4A1A603D4B03F61C333A4A1A603B4B8F
:1036E80003F62833364A1A60384B03F62C33002287
:1036F8001A605A609A60DA601A615A61334B03F6AD
:103708002C332F4A1A60314B03F533632C4A1A6065
:103718002E4B03F634332B4A1A602C4B03F53463D3
:10372800274A1A602A4B2B4A2B492C48FDF74AFC9A
:1037380060237B600023FB6000237B6104214FE052
:10374800ED450008EF79000800440040E40F002030
:10375800EC0F002000000240244400400014002028
:10376800C0B4000849100008C4B400086510000877
:10377800A5100008CCB4000811130008D8B400083C
:10378800FD100008DCB400084D110008E0B4000882
:10379800A1110008E1110008E4B4000805140008AC
:1037A800ECB400082112000851120008F0B4000817
:1037B80025100008E5100008A11300081C0E0020C1
:1037C8000AD7233C17B7D138740E0020D402002042
:1037D800980E0020180F0020580F00203C0E0020E3
:1037E800BD4801F06BFC0021BB4801F067FC0122D9
:1037F8000121BA4800F09EFE00220821B74800F0D7
:1038080099FE0023A7F8463000220121B34800F0B2
:1038180091FEB7F846305B429BB2A7F84630B7F93D
:103828004630322B02DD3223A7F84630B7F946304E
:10383800BB603B1D00221946A74801F075F900211D
:10384800A54801F03BFC0023A7F8443001220821D9
:10385800A24800F06FFEB7F844305B429BB2A7F86D
:103868004430B7F94430322B02DD3223A7F8443014
:10387800B7F94430BB603B1D04221946964801F055
:1038880053F90421944801F019FC012280214FF0DA
:10389800904000F04FFE01221021904800F04AFEAF
:1038A8008F4B00221A608F4B00221A608E4B8F4A72
:1038B8001A608D4B1B688E4A1A608B4B1B681B68FD
:1038C800894A126810469847874B1B681B68894AC3
:1038D800934245D0824B1B681846FCF7A3FD04466B
:1038E8000D46854B5A68844B1B6913441846FCF7F0
:1038F80099FD4FF00002814BFCF7FEFD02460B4696
:1039080020462946FCF740FC03460C46184621464B
:10391800FDF7A2F8034619467948FDF747F987ED00
:103928000A0A704B1A68744B1969734B5B68CB1A97
:10393800D31A19467348FDF739F987ED090A97ED47
:103948000A7AD7ED097A77EE277AC7ED137A97EDD9
:103958000A7AD7ED097A77EE677AC7ED127A9CE092
:10396800694B03F60833D3ED007A674B03F604334B
:1039780093ED007A07F120031946F0EE470AB0EEFE
:10398800670A6248FFF70CFA87ED0E0A5E4B03F5EB
:103998003163D3ED007A97ED0E7A67EE277AC7ED9B
:1039A8000B7A594B03F60C3393ED007AD7ED087A6E
:1039B80027EE277A564B1B6807EE903AF8EEE76A2F
:1039C800D7ED0B7A66EEA76AB0EE006AC6EE867A85
:1039D80077EE277AC7ED0D7A4B4B03F60C3393ED50
:1039E800007AD7ED087A27EE277A494B1B6807EE4D
:1039F800903AF8EEE76AD7ED0B7A66EEA76AB0EE72
:103A0800006AC6EE867A77EE677AC7ED0C7A3A4B8B
:103A18001A693B6DD31A07EE903AF8EEE76A384B0D
:103A280093ED057AC6EE877A97ED0D7A77EE677A89
:103A3800B0EE670A3748FDF759F987ED130A2E4BA0
:103A48005A687B6DD31A07EE903AF8EEE76A2C4B6A
:103A580093ED057AC6EE877A97ED0C7A77EE677A5A
:103A6800B0EE670A2C48FDF741F987ED120A224BA0
:103A78005B687B65204B1B693B65234B03F644332E
:103A880093ED007AD7ED087AB4EEE77AF1EE10FA02
:103A980003DD154B1B6801221A71B86CFCF7D4FCC6
:103AA8004FF000021D4BFCF727FD03460C46184655
:103AB8002146FCF7D1FF0346A7F84230D7ED127A2A
:103AC800F5EEC07AF1EE10FA2ADD0022082103484B
:103AD80000F030FD2FE000BFD80E002000040048A1
:103AE8006C0E0020700E0020D0020020A4020020DE
:103AF800192800087D2B00083C0E00200000E03F3C
:103B08001C0E0020740E0020D4020020E0020020C9
:103B180000000020000E0020E80D00200040354085
:103B2800012208212F4800F005FDB7F842305B421A
:103B38009BB2A7F84230B7F94230322B02DD32236C
:103B4800A7F84230B7F94230BB603B1D0422194642
:103B5800254800F0E9FF0421234801F0AFFAF86C8A
:103B6800FCF772FC4FF00002204BFCF7C5FC034643
:103B78000C4618462146FCF76FFF0346A7F840306D
:103B8800D7ED137AF5EEC07AF1EE10FA05DD0122D1
:103B98000121144800F0CEFC0AE00022012111485E
:103BA80000F0C8FCB7F840305B429BB2A7F8403041
:103BB800B7F94030322B02DD3223A7F84030B7F98D
:103BC8004030BB603B1D00221946074800F0ACFF9F
:103BD8000021054801F072FAFB6B184600F00EFD53
:103BE8006BE600BF00040048D80E002000403540B6
:103BF80080B596B000AF02233B6301233B641023DA
:103C08007B640223FB6400233B654FF460137B65F0
:103C180007F13003184602F0D1F80346002B04D010
:103C28004FF4A171224800F047F80F23FB610223EB
:103C38003B6200237B624FF48063BB620023FB621C
:103C480007F11C030221184602F0A2FF0346002BCD
:103C580004D04FF4A871164800F02EF84FF48153A1
:103C68007B6000233B610023BB613B1D184600F0CD
:103C780083F90346002B04D04FF4AC710C4800F0D4
:103C88001BF803F08FF902460A4BA3FB02239B099A
:103C9800184600F084FE042000F08EFE0022002169
:103CA8004FF0FF3000F04BFE00BF5837BD4680BDD7
:103CB800F4B40008D34D621080B483B000AF7860CC
:103CC8003960FEE780B483B000AF78607B68DB6959
:103CD80003F01003102B0CBF01230023DBB218469E
:103CE8000C37BD465DF8047B704780B483B000AFE5
:103CF80078607B6810221A6200BF0C37BD465DF8F9
:103D0800047B704780B483B000AF786039603B684B
:103D1800013B064AD35C1A467B6813445B689BB236
:103D280018460C37BD465DF8047B704720B500087F
:103D380080B483B000AF78607B681B6803F400131D
:103D4800B3F5001F0CBF01230023DBB218460C3764
:103D5800BD465DF8047B704780B483B000AF7860DF
:103D68007B681B6803F48003B3F5800F0CBF012345
:103D78000023DBB218460C37BD465DF8047B70475C
:103D880080B483B000AF78607B684FF400125A604B
:103D980000BF0C37BD465DF8047B704780B483B024
:103DA80000AF78607B684FF480025A6000BF0C3720
:103DB800BD465DF8047B704780B400AF00BFBD46C8
:103DC8005DF8047B704780B400AFFEE780B400AFB5
:103DD800FEE780B400AFFEE780B400AFFEE780B432
:103DE80000AF00BFBD465DF8047B704780B400AFEC
:103DF80000BFBD465DF8047B704780B400AF00BFCC
:103E0800BD465DF8047B704780B500AF00F0DCFB71
:103E180000F0EEFD00BF80BD80B582B000AF244841
:103E2800FFF786FF0346002B17D02148FFF7A8FFAE
:103E3800204BB3F814341A461F4BD1181D4BB3F856
:103E48001434C3F580739BB21A461A48FEF738F942
:103E5800184B0022A3F8142425E01548FFF77CFF2F
:103E68000346002B1FD01248FFF798FF0621104881
:103E7800FFF748FF03469BB2C3F58073FB800D4BE9
:103E8800B3F814341A460C4BD1180A4BB3F814344F
:103E9800FA88D31A9BB21A460648FEF711F9054A62
:103EA800FB88A2F8143400BF0837BD4680BD00BFA8
:103EB80000000240E40F0020EC0F002080B500AFA6
:103EC800034801F00CFA034801F009FA00BF80BD6D
:103ED800180F0020980E002080B582B000AF174858
:103EE800FFF7F0FE0346002B23D01448FFF7FDFE32
:103EF80006211348FFF706FF03469BB2C3F58073FC
:103F0800FB80104BB3F81434FA88D31ABB80BB88F3
:103F1800002B0AD00B4BB3F814341A460A4B13443F
:103F2800BA8819460748FEF7CBF8064AFB88A2F874
:103F3800143400BF0837BD4680BD00BF00440040B0
:103F480000000240E40F0020EC0F002080B582B092
:103F580000AF78607B681A68054B1B689A4202D1EB
:103F68000448FCF757FF00BF0837BD4680BD00BFB7
:103F7800980E00203C0E002080B592B000AF78600B
:103F880000233B640023FB637B681B6803F48033D6
:103F9800002B00F0CF80002387F84730864BDB6981
:103FA80003F08053002B0ED1834BDB69824A43F028
:103FB8008053D361804BDB6903F08053BB60BB68DF
:103FC800012387F847307D4B1B6803F48073002B6F
:103FD80018D17A4B1B68794A43F48073136000F058
:103FE80001FB386408E000F0FDFA02463B6CD31A86
:103FF800642B01D90323DAE0704B1B6803F4807348
:10400800002BF0D06C4B1B6A03F44073FB63FB6B13
:10401800002B7CD07B685B6803F44073FA6B9A4290
:1040280075D0654B1B6A23F44073FB634FF48033F0
:104038003B633B6B93FAA3F3FB62FB6AB3FA83F32C
:104048001A465F4B13449B001A46012313604FF432
:104058008033BB63BB6B93FAA3F37B637B6BB3FACD
:1040680083F31A46564B13449B001A4600231360E9
:10407800514AFB6B1362FB6B03F00103002B46D024
:1040880000F0B0FA38640AE000F0ACFA02463B6C83
:10409800D31A41F28832934201D9032387E00223DD
:1040A800BB62BB6A93FAA3F37B6202233B623B6A5F
:1040B80093FAA3F3FB61FB69B3FA83F3DBB25B0901
:1040C800DBB243F00203DBB2022B02D13A4B1B6A8C
:1040D80007E00223BB61BB6993FAA3F37B61364B0C
:1040E8005B6A02223A613A6992FAA2F2FA60FA68C5
:1040F800B2FA82F252B242F0400252B2D2B202F0A6
:104108001F02012101FA02F21340002BBCD02A4BF6
:104118001B6A23F440727B685B68274913430B6270
:1041280097F84730012B05D1234BDB69224A23F04E
:104138008053D3617B681B6803F00103002B08D010
:104148001D4B1B6B23F003027B689B681A491343C2
:104158000B637B681B6803F02003002B08D0164B09
:104168001B6B23F010027B68DB68134913430B6356
:104178007B681B6803F08003002B08D00E4BDB6ABA
:1041880023F4F8727B681B690B491343CB627B6885
:104198001B6803F48053002B08D0074B1B6B23F4D8
:1041A80080727B685B69044913430B6300231846DC
:1041B8004837BD4680BD00BF001002400070004077
:1041C8000081901080B582B000AF1E4B9B691D4ADC
:1041D80043F0010393611B4B9B6903F001037B6070
:1041E8007B68032000F0A0FB002200216FF00B0089
:1041F80000F0A5FB002200216FF00A0000F09FFBF1
:10420800002200216FF0090000F099FB0022002134
:104218006FF0040000F093FB002200216FF0030010
:1042280000F08DFB002200216FF0010000F087FBF9
:10423800002200214FF0FF3000F081FB00BF08375B
:10424800BD4680BD0010024080B487B000AF7860E2
:10425800396000237B610023FB6000233B614EE152
:104268003B681A6801217B6901FA03F31340FB607C
:10427800FB68002B00F040813B685B68022B03D091
:104288003B685B68122B23D17B69DA087B680832AC
:1042980053F822303B617B6903F007039B000F2230
:1042A80002FA03F3DB433A6913403B613B681A693E
:1042B8007B6903F007039B0002FA03F33A6913438F
:1042C8003B617B69DA087B680832396943F8221058
:1042D8007B681B683B617B695B00032202FA03F37E
:1042E800DB433A6913403B613B685B6803F00302B8
:1042F8007B695B0002FA03F33A6913433B617B680D
:104308003A691A603B685B68012B0BD03B685B68B5
:10431800022B07D03B685B68112B03D03B685B68B6
:10432800122B30D17B689B683B617B695B00032261
:1043380002FA03F3DB433A6913403B613B68DA68EE
:104348007B695B0002FA03F33A6913433B617B68BC
:104358003A699A607B685B683B6101227B6902FA73
:1043680003F3DB433A6913403B613B685B681B0915
:1043780003F001027B6902FA03F33A6913433B61D4
:104388007B683A695A607B68DB683B617B695B00E4
:10439800032202FA03F3DB433A6913403B613B68AB
:1043A8009A687B695B0002FA03F33A6913433B613D
:1043B8007B683A69DA603B685B6803F08053002BDE
:1043C80000F09A80554B9B69544A43F0010393616E
:1043D800524B9B6903F00103BB60BB68504A7B6981
:1043E8009B08023352F823303B617B6903F00303D7
:1043F8009B000F2202FA03F3DB433A6913403B6147
:104408007B68B3F1904F13D07B68464A93420DD036
:104418007B68454A934207D07B68444A934201D15E
:10442800032306E0052304E0022302E0012300E061
:1044380000237A6902F00302920093403A69134319
:104448003B6137497B699B0802333A6941F823206D
:10445800374B1B683B61FB68DB433A6913403B61A0
:104468003B685B6803F48033002B03D03A69FB6830
:1044780013433B612E4A3B6913602D4B5B683B61DC
:10448800FB68DB433A6913403B613B685B6803F4B4
:104498000033002B03D03A69FB6813433B61244A7D
:1044A8003B695360224B9B683B61FB68DB433A697D
:1044B80013403B613B685B6803F48013002B03D017
:1044C8003A69FB6813433B61194A3B699360184B8F
:1044D800DB683B61FB68DB433A6913403B613B683F
:1044E8005B6803F40013002B03D03A69FB6813439D
:1044F8003B610F4A3B69D3607B6901337B613B6851
:104508001A687B6922FA03F3002B7FF4A9AE00BF77
:104518001C37BD465DF8047B704700BF00100240A1
:10452800000001400004004800080048000C004852
:104538000004014080B483B000AF78600B467B80F4
:1045480013467B707B78002B03D07A887B689A614E
:1045580002E07A887B689A6200BF0C37BD465DF836
:10456800047B704780B500AF084B1B68074A43F0CF
:1045780010031360032000F0D7F9002000F008F8BA
:10458800FFF720FE0023184680BD00BF0020024030
:1045980080B582B000AF7860094B1B68094AA2FB5E
:1045A80003239B09184600F0FAF9002279684FF0B6
:1045B800FF3000F0C4F9002318460837BD4680BD17
:1045C80008020020D34D621080B400AF044B1B6872
:1045D8000133034A136000BFBD465DF8047B704792
:1045E800940E002080B400AF034B1B681846BD46EC
:1045F8005DF8047B704700BF940E002080B584B03E
:1046080000AF7860FFF7EEFFB8607B68FB60FB687F
:10461800B3F1FF3F02D0FB680133FB6000BFFFF737
:10462800E1FF0246BB68D31AFA689A42F7D800BF7E
:104638001037BD4680BD80B483B000AF7860396064
:104648007B6893F84130DBB2202B38D17B6893F834
:104658004030012B01D1022332E07B68012283F82C
:1046680040207B68242283F841207B681B681A68F5
:104678007B681B6822F001021A607B681B681A6855
:104688007B681B6822F480521A607B681B68196873
:104698007B681B683A680A431A607B681B681A685B
:1046A8007B681B6842F001021A607B68202283F84D
:1046B80041207B68002283F84020002300E0022389
:1046C80018460C37BD465DF8047B704780B485B04A
:1046D80000AF786039600023FB607B6893F8413055
:1046E800DBB2202B39D17B6893F84030012B01D104
:1046F800022333E07B68012283F840207B68242270
:1047080083F841207B681B681A687B681B6822F065
:1047180001021A607B681B681B68FB60FB6823F456
:104728007063FB603B681B02FA681343FB607B689D
:104738001B68FA681A607B681B681A687B681B68C4
:1047480042F001021A607B68202283F841207B68CE
:10475800002283F84020002300E002231846143783
:10476800BD465DF8047B704780B485B000AF7860C3
:104778007B6803F00703FB600C4BDB68BB60BA681F
:104788004FF6FF031340BB60FB681A02BB68134374
:1047980043F0BF6343F40033BB60044ABB68D36093
:1047A80000BF1437BD465DF8047B704700ED00E09C
:1047B80080B400AF044BDB681B0A03F007031846FC
:1047C800BD465DF8047B704700ED00E080B483B01F
:1047D80000AF0346FB71FB7903F01F02074997F905
:1047E80007305B09012000FA02F241F8232000BFDC
:1047F8000C37BD465DF8047B704700BF00E100E060
:1048080080B483B000AF03463960FB7197F9073075
:10481800002B0BDA3B68DAB20C49FB7903F00F0383
:10482800043B1201D2B20B441A7609E03B68DAB2B3
:10483800074997F907301201D2B20B4483F80023D5
:1048480000BF0C37BD465DF8047B704700ED00E003
:1048580000E100E080B489B000AFF860B9607A6028
:10486800FB6803F00703FB61FB69C3F10703042B33
:1048780028BF0423BB61FB690433062B02D9FB69FB
:10488800033B00E000237B614FF0FF32BB6902FA73
:1048980003F3DA43BB681A407B699A404FF0FF3153
:1048A8007B6901FA03F3D9437B680B40134318462D
:1048B8002437BD465DF8047B7047000080B400AF24
:1048C800BFF34F8F054BDB6803F4E0620349044BE9
:1048D8001343CB60BFF34F8F00BFFDE700ED00E04F
:1048E8000400FA0580B582B000AF78607B68013BB0
:1048F800B3F1807F01D301230FE00A4A7B68013BB3
:1049080053600F214FF0FF30FFF77AFF054B00226D
:104918009A60044B07221A60002318460837BD46E0
:1049280080BD00BF10E000E080B582B000AF7860C5
:104938007868FFF719FF00BF0837BD4680BD80B50E
:1049480086B000AF0346B9607A60FB7300237B61D1
:10495800FFF72EFF78617A68B9687869FFF77AFF00
:10496800024697F90F3011461846FFF749FF00BF76
:104978001837BD4680BD80B582B000AF0346FB71D5
:1049880097F907301846FFF721FF00BF0837BD46E3
:1049980080BD80B500AFFFF791FF00BF80BD80B537
:1049A80082B000AF78607868FFF79CFF034618462E
:1049B8000837BD4680BD000080B483B000AF786082
:1049C8007B68042B06D1094B1B68084A43F0040393
:1049D800136005E0054B1B68044A23F004031360C9
:1049E80000BF0C37BD465DF8047B704710E000E05F
:1049F80080B500AF00F002F800BF80BD80B400AF02
:104A080000BFBD465DF8047B704780B582B000AF3B
:104A180078607B68002B01D1012381E07B6893F8E3
:104A28004130DBB2002B06D17B68002283F840209E
:104A3800786802F03BFD7B68242283F841207B687C
:104A48001B681A687B681B6822F001021A607B6881
:104A58005A687B681B6822F070621A617B681B6861
:104A68009A687B681B6822F400429A607B68DB685E
:104A7800012B07D17B689A687B681B6842F4004267
:104A88009A6006E07B689A687B681B6842F4044277
:104A98009A607B68DB68022B04D17B681B684FF443
:104AA80000625A607B681B685B687A68126843F02A
:104AB800007343F4004353607B681B68DA687B68C3
:104AC8001B6822F40042DA607B681A697B685B69BC
:104AD80042EA03017B689B691A027B681B680A43E8
:104AE800DA607B68D9697B681A6A7B681B680A4345
:104AF8001A607B681B681A687B681B6842F00102B1
:104B08001A607B6800225A647B68202283F841205F
:104B18007B6800221A637B68002283F84220002306
:104B280018460837BD4680BD80B584B000AFF86030
:104B3800B9607A60FB6893F83C30012B01D10223FD
:104B480005E1FB68012283F83C20FB68022283F818
:104B58003D207B68142B00F2F08001A252F823F06C
:104B6800BD4B0008434D0008434D0008434D000865
:104B7800FD4B0008434D0008434D0008434D000815
:104B88003F4C0008434D0008434D0008434D0008C2
:104B98007F4C0008434D0008434D0008434D000872
:104BA800C14C0008434D0008434D0008434D000820
:104BB800014D0008FB681B68B968184600F032FE12
:104BC800FB681B689A69FB681B6842F008029A61D7
:104BD800FB681B689A69FB681B6822F004029A61EB
:104BE800FB681B689969BB681A69FB681B680A43FC
:104BF8009A61A3E0FB681B68B968184600F09EFE3E
:104C0800FB681B689A69FB681B6842F400629A613A
:104C1800FB681B689A69FB681B6822F480629A61CA
:104C2800FB681B689969BB681B691A02FB681B68EB
:104C38000A439A6182E0FB681B68B968184600F06D
:104C480003FFFB681B68DA69FB681B6842F008020F
:104C5800DA61FB681B68DA69FB681B6822F00402EA
:104C6800DA61FB681B68D969BB681A69FB681B684D
:104C78000A43DA6162E0FB681B68B968184600F00D
:104C880067FFFB681B68DA69FB681B6842F400620F
:104C9800DA61FB681B68DA69FB681B6822F48062CA
:104CA800DA61FB681B68D969BB681B691A02FB6873
:104CB8001B680A43DA6141E0FB681B68B96818465B
:104CC80000F0B6F8FB681B685A6DFB681B6842F079
:104CD80008025A65FB681B685A6DFB681B6822F05E
:104CE80004025A65FB681B68596DBB681A69FB6842
:104CF8001B680A435A6521E0FB681B68B9681846B7
:104D080000F0FAF8FB681B685A6DFB681B6842F4F0
:104D180000625A65FB681B685A6DFB681B6822F4C1
:104D280080625A65FB681B68596DBB681B691A026B
:104D3800FB681B680A435A6500E000BFFB68012254
:104D480083F83D20FB68002283F83C2000231846A6
:104D58001037BD4680BD00BF80B485B000AF786015
:104D680039607B6893F83C30012B01D1022338E08D
:104D78007B68012283F83C207B681B685B68FB60CA
:104D88007B681B689B68BB607B681B68184A9342FA
:104D980008D1FB6823F47003FB603B685B68FA6822
:104DA8001343FB60FB6823F07003FB603B681B68E0
:104DB800FA681343FB60BB6823F08003BB603B6861
:104DC8009B68BA681343BB607B681B68FA685A60C3
:104DD8007B681B68BA689A607B68002283F83C206D
:104DE800002318461437BD465DF8047B704700BFA2
:104DF800002C014080B483B000AF786000BF0C374E
:104E0800BD465DF8047B704780B483B000AF78601E
:104E180000BF0C37BD465DF8047B704780B483B093
:104E280000AF786000BF0C37BD465DF8047B704763
:104E380080B487B000AF7860396000233B610023FD
:104E4800FB6000237B617B681B6A23F480327B68EC
:104E58001A627B681B6AFB607B685B687B617B68A6
:104E68005B6D3B613B6923F4803323F070033B6146
:104E78003B681B683A6913433B61FB6823F40033C2
:104E8800FB603B689B681B04FA681343FB607B6804
:104E9800154A93420BD07B68144A934207D07B682B
:104EA800134A934203D07B68124A934209D17B6923
:104EB80023F480337B613B685B691B027A69134387
:104EC8007B617B687A695A607B683A695A653B6896
:104ED8005A687B689A657B68FA681A6200BF1C3753
:104EE800BD465DF8047B7047002C0140004001403E
:104EF800004401400048014080B487B000AF7860AA
:104F0800396000233B610023FB6000237B617B68E1
:104F18001B6A23F480127B681A627B681B6AFB6039
:104F28007B685B687B617B685B6D3B613B6923F0F9
:104F3800807323F4E0433B613B681B681B023A69BA
:104F480013433B61FB6823F40013FB603B689B68D9
:104F58001B05FA681343FB607B68164A93420BD023
:104F68007B68154A934207D07B68144A934203D062
:104F78007B68134A934209D17B6923F480237B61C0
:104F88003B685B699B027A6913437B617B687A693A
:104F98005A607B683A695A653B685A687B68DA6583
:104FA8007B68FA681A6200BF1C37BD465DF8047B4F
:104FB800704700BF002C0140004001400044014000
:104FC8000048014080B582B000AF78607B68002B54
:104FD80001D101231DE07B6893F83D30DBB2002B43
:104FE80006D17B68002283F83C20786802F0AAF991
:104FF8007B68022283F83D207B681A687B6804334B
:105008001946104600F094FB7B68012283F83D2086
:10501800002318460837BD4680BD80B483B000AF72
:1050280078607B681B68DA687B681B6842F001025D
:10503800DA607B681B681A687B681B6842F00102AB
:105048001A60002318460C37BD465DF8047B70478C
:1050580080B582B000AF78607B68002B01D1012356
:105068001DE07B6893F83D30DBB2002B06D17B68EE
:10507800002283F83C20786800F015F87B6802224B
:1050880083F83D207B681A687B680433194610460C
:1050980000F04EFB7B68012283F83D200023184670
:1050A8000837BD4680BD80B483B000AF786000BFCC
:1050B8000C37BD465DF8047B7047000080B582B0B0
:1050C80000AF786039607B681B6801223968184630
:1050D80000F051FE7B681B68154A93420ED07B682E
:1050E8001B68144A934209D07B681B68124A934292
:1050F80004D07B681B68114A934201D1012300E068
:105108000023002B07D07B681B685A6C7B681B68E0
:1051180042F400425A647B681B681A687B681B6803
:1051280042F001021A60002318460837BD4680BDC8
:10513800002C01400040014000440140004801406B
:1051480080B586B000AF7860396000237B610023AA
:105158003B610023FB607B68002B01D1012383E0C6
:105168007B6893F83D30DBB2002B06D17B680022C8
:1051780083F83C20786802F08BF87B68022283F879
:105188003D207B681B689B687A68126823F480332B
:1051980023F0070393607B681A687B680433194619
:1051A800104600F0C5FA7B681B689B687B617B68CA
:1051B8001B689B693B617B681B681B6AFB603B68DB
:1051C8001B687A6913437B613B6923F4407323F0BE
:1051D80003033B613B689A683B689B691B02134366
:1051E8003A6913433B613B6923F4406323F00C03A2
:1051F8003B613B6923F4704323F0F0033B613B6858
:10520800DA683B68DB691B0213433A6913433B6165
:105218003B681B691A013B681B6A1B0313433A6905
:1052280013433B61FB6823F02203FB60FB6823F018
:105238008803FB603B685A683B685B691B01134342
:10524800FA681343FB607B681B687A699A607B681D
:105258001B683A699A617B681B68FA681A627B68FE
:10526800012283F83D20002318461837BD4680BD2B
:1052780080B582B000AF786039603B68002B02D0FF
:10528800042B08D00FE07B681B6801220021184618
:1052980000F071FD16E07B681B68012204211846A6
:1052A80000F069FD0EE07B681B68012200211846AA
:1052B80000F061FD7B681B6801220421184600F09C
:1052C8005AFD00BF7B681B681A687B681B6842F040
:1052D80001021A60002318460837BD4680BD80B514
:1052E80082B000AF78607B681B681B6903F002031B
:1052F800022B22D17B681B68DB6803F00203022BB8
:105308001BD17B681B686FF002021A617B6801225F
:105318001A777B681B689B6903F00303002B03D093
:10532800786800F0E7F905E0786800F0D9F978685E
:1053380000F0EAF97B6800221A777B681B681B6912
:1053480003F00403042B22D17B681B68DB6803F09D
:105358000403042B1BD17B681B686FF004021A61DD
:105368007B6802221A777B681B689B6903F4407389
:10537800002B03D0786800F0BDF905E0786800F0EC
:10538800AFF9786800F0C0F97B6800221A777B686B
:105398001B681B6903F00803082B22D17B681B6874
:1053A800DB6803F00803082B1BD17B681B686FF0D0
:1053B80008021A617B6804221A777B681B68DB691C
:1053C80003F00303002B03D0786800F093F905E09D
:1053D800786800F085F9786800F096F97B68002213
:1053E8001A777B681B681B6903F01003102B22D106
:1053F8007B681B68DB6803F01003102B1BD17B68EC
:105408001B686FF010021A617B6808221A777B68A4
:105418001B68DB6903F44073002B03D0786800F045
:1054280069F905E0786800F05BF9786800F06CF9D4
:105438007B6800221A777B681B681B6903F00103ED
:10544800012B0ED17B681B68DB6803F00103012B7D
:1054580007D17B681B686FF001021A617868FEF754
:1054680075FD7B681B681B6903F08003802B0ED1D8
:105478007B681B68DB6803F08003802B07D17B689F
:105488001B686FF080021A617868FFF7BDFC7B68C3
:105498001B681B6903F48073B3F5807F0ED17B68AA
:1054A8001B68DB6803F08003802B07D17B681B68CF
:1054B8006FF480721A617868FFF7B0FC7B681B682C
:1054C8001B6903F04003402B0ED17B681B68DB6827
:1054D80003F04003402B07D17B681B686FF0400244
:1054E8001A61786800F01AF97B681B681B6903F079
:1054F8002003202B0ED17B681B68DB6803F0200398
:10550800202B07D17B681B686FF020021A6178682E
:10551800FFF770FC00BF0837BD4680BD80B584B07A
:1055280000AF786039600023FB607B6893F83C30FB
:10553800012B01D10223CFE07B68012283F83C20B4
:105548007B68022283F83D207B681B689B68FB60B0
:10555800FB6823F4803323F07703FB60FB6823F4B4
:105568007F43FB607B681B68FA689A603B681B682E
:10557800402B7CD0402B0FD8102B00F08F80102BA5
:1055880003D8002B00F083809DE0202B00F08D8055
:10559800302B00F0918096E0702B18D0702B04D837
:1055A800502B44D0602B52D08DE0B3F5805F03D0F0
:1055B800B3F5005F28D086E07B681B689B687A6833
:1055C800126823F4803323F0070393607BE07B6841
:1055D80018683B6899683B685A683B68DB6800F064
:1055E800A8FB7B681B689B68FB60FB6823F480331F
:1055F80023F07703FB60FB6843F07703FB607B686D
:105608001B68FA689A605EE07B6818683B6899686E
:105618003B685A683B68DB6800F08BFB7B681B685B
:105628009A687B681B6842F480429A604BE07B680A
:1056380018683B6859683B68DB681A4600F0F2FA5C
:105648007B681B685021184600F053FB3BE07B68E1
:1056580018683B6859683B68DB681A4600F015FB18
:105668007B681B686021184600F043FB2BE07B68D1
:1056780018683B6859683B68DB681A4600F0D2FA3C
:105688007B681B684021184600F033FB1BE07B68F1
:105698001B680021184600F02CFB14E07B681B688F
:1056A8001021184600F025FB0DE07B681B682021BF
:1056B800184600F01EFB06E07B681B683021184680
:1056C80000F017FB00BF7B68012283F83D207B6850
:1056D800002283F83C20002318461037BD4680BDC1
:1056E80080B483B000AF786000BF0C37BD465DF86A
:1056F800047B704780B483B000AF786000BF0C377C
:10570800BD465DF8047B704780B483B000AF786015
:1057180000BF0C37BD465DF8047B704780B483B08A
:1057280000AF786000BF0C37BD465DF8047B70475A
:1057380080B485B000AF786039600023FB607B6877
:105748001B68FB607B68324A934207D07B68B3F1E1
:10575800804F03D07B682F4A934208D1FB6823F01F
:105768007003FB603B685B68FA681343FB607B6807
:10577800274A934213D07B68B3F1804F0FD07B68E0
:10578800244A93420BD07B68234A934207D07B6814
:10579800224A934203D07B68214A934208D1FB688E
:1057A80023F44073FB603B68DB68FA681343FB60D3
:1057B800FB6823F080023B685B691343FB607B68EE
:1057C800FA681A603B689A687B68DA623B681A680C
:1057D8007B689A627B680E4A93420BD07B680E4ABC
:1057E800934207D07B680D4A934203D07B680C4AEA
:1057F800934203D13B681A697B681A637B6801226C
:105808005A6100BF1437BD465DF8047B704700BF7E
:10581800002C0140000400400040014000440140C9
:105828000048014080B487B000AF78603960002339
:10583800FB6000237B6100233B617B681B6A23F0CC
:1058480001027B681A627B681B6A7B617B685B6804
:105858003B617B689B69FB60FB6823F4803323F022
:105868007003FB60FB6823F00303FB603B681B6865
:10587800FA681343FB607B6923F002037B613B6892
:105888009B687A6913437B617B68284A93420BD0F3
:105898007B68274A934207D07B68264A934203D005
:1058A8007B68254A93420CD17B6923F008037B610E
:1058B8003B68DB687A6913437B617B6923F00403E7
:1058C8007B617B68194A93420BD07B68184A9342E4
:1058D80007D07B68174A934203D07B68164A9342E5
:1058E80011D13B6923F480733B613B6923F4007356
:1058F8003B613B685B693A6913433B613B689B6961
:105908003A6913433B617B683A695A607B68FA6875
:105918009A613B685A687B685A637B687A691A623D
:1059280000BF1C37BD465DF8047B7047002C014062
:1059380000400140004401400048014080B487B065
:1059480000AF786039600023FB6000237B6100238F
:105958003B617B681B6A23F010027B681A627B68D4
:105968001B6A7B617B685B683B617B689B69FB604A
:10597800FB6823F0807323F4E043FB60FB6823F4A7
:105988004073FB603B681B681B02FA681343FB60AB
:105998007B6923F020037B613B689B681B017A6964
:1059A80013437B617B68244A93420DD17B6923F0C2
:1059B80080037B613B68DB681B017A6913437B6169
:1059C8007B6923F040037B617B681B4A93420BD0C1
:1059D8007B681A4A934207D07B68194A934203D0DE
:1059E8007B68184A934213D13B6923F480633B6177
:1059F8003B6923F400633B613B685B699B003A6940
:105A080013433B613B689B699B003A6913433B61C5
:105A18007B683A695A607B68FA689A613B685A6899
:105A28007B689A637B687A691A6200BF1C37BD4637
:105A38005DF8047B704700BF002C01400040014026
:105A4800004401400048014080B487B000AF78604E
:105A580039600023FB6000237B6100233B617B6886
:105A68001B6A23F480727B681A627B681B6A7B61FD
:105A78007B685B683B617B68DB69FB60FB6823F4E0
:105A8800803323F07003FB60FB6823F00303FB60A3
:105A98003B681B68FA681343FB607B6923F4007357
:105AA8007B613B689B681B027A6913437B617B6857
:105AB800234A93420DD17B6923F400637B613B68E1
:105AC800DB681B027A6913437B617B6923F480637B
