:020000040800F2
:10000000003000203D330008FB0B0008FD0B00080A
:10001000FF0B0008010C0008030C000800000000A2
:10002000000000000000000000000000050C0008B7
:10003000070C000800000000090C00080B0C000869
:100040008D3300088D3300088D3300088D33000890
:100050008D3300088D3300088D3300088D33000880
:100060008D3300088D3300088D3300088D33000870
:100070008D3300088D3300088D3300088D33000860
:100080008D3300088D3300088D3300088D33000850
:100090008D3300088D3300088D3300088D33000840
:1000A0008D3300088D3300088D330008190C0008CB
:1000B000290C00088D330008000000008D33000873
:1000C0008D33000800000000000000008D330008A0
:1000D000000000008D3300088D3300088D330008C8
:1000E0008D3300088D330008000000000000000080
:1000F0000000000000000000000000000000000000
:1001000000000000000000000000000000000000EF
:1001100000000000000000008D3300088D3300084F
:1001200000000000000000000000000000000000CF
:1001300000000000000000000000000000000000BF
:100140008D3300088D33000800000000000000001F
:10015000000000000000000000000000000000009F
:10016000000000000000000000000000000000008F
:10017000000000000000000000000000000000007F
:08018000000000008D330008AF
:1001880081F0004102E000BF83F0004330B54FEA40
:1001980041044FEA430594EA050F08BF90EA020FAD
:1001A8001FBF54EA000C55EA020C7FEA645C7FEA40
:1001B800655C00F0E2804FEA5454D4EB5555B8BF63
:1001C8006D420CDD2C4480EA020281EA030382EAD4
:1001D800000083EA010180EA020281EA0303362D66
:1001E80088BF30BD11F0004F4FEA01314FF4801C39
:1001F8004CEA113102D0404261EB410113F0004F4B
:100208004FEA03334CEA133302D0524263EB430301
:1002180094EA050F00F0A780A4F10104D5F1200E9F
:100228000DDB02FA0EFC22FA05F2801841F10001FA
:1002380003FA0EF2801843FA05F359410EE0A5F1CE
:1002480020050EF1200E012A03FA0EFC28BF4CF0FF
:10025800020C43FA05F3C01851EBE37101F00045B5
:1002680007D54FF0000EDCF1000C7EEB00006EEBC2
:100278000101B1F5801F1BD3B1F5001F0CD349084C
:100288005FEA30004FEA3C0C04F101044FEA4452A3
:1002980012F5800F80F09A80BCF1004F08BF5FEA2A
:1002A800500C50F1000041EB045141EA050130BD0A
:1002B8005FEA4C0C404141EB010111F4801FA4F1AD
:1002C8000104E9D191F0000F04BF01460020B1FA02
:1002D80081F308BF2033A3F10B03B3F120020CDA3A
:1002E8000C3208DD02F1140CC2F10C0201FA0CF018
:1002F80021FA02F10CE002F11402D8BFC2F1200C7D
:1003080001FA02F120FA0CFCDCBF41EA0C01904032
:10031800E41AA2BF01EB0451294330BD6FEA04047B
:100328001F3C1CDA0C340EDC04F11404C4F1200266
:1003380020FA04F001FA02F340EA030021FA04F378
:1003480045EA030130BDC4F10C04C4F1200220FACF
:1003580002F001FA04F340EA0300294630BD21FA0D
:1003680004F0294630BD94F0000F83F4801306BFD3
:1003780081F480110134013D4EE77FEA645C18BFC7
:100388007FEA655C29D094EA050F08BF90EA020F5E
:1003980005D054EA000C04BF1946104630BD91EA56
:1003A800030F1EBF0021002030BD5FEA545C05D159
:1003B8004000494128BF41F0004130BD14F5800498
:1003C8003CBF01F5801130BD01F0004545F0FE410C
:1003D80041F470014FF0000030BD7FEA645C1ABF41
:1003E800194610467FEA655C1CBF0B46024650EA78
:1003F800013406BF52EA033591EA030F41F40021A4
:1004080030BD00BF90F0000F04BF0021704730B529
:100418004FF4806404F132044FF000054FF00001FE
:1004280050E700BF90F0000F04BF0021704730B5BF
:100438004FF4806404F1320410F0004548BF404294
:100448004FF000013EE700BF42004FEAE2014FEAE9
:1004580031014FEA02701FBF12F07F4393F07F4FC4
:1004680081F06051704732F07F4208BF704793F0C7
:100478007F4F04BF41F40021704730B54FF46074DA
:1004880001F0004521F000411CE700BF50EA0102DD
:1004980008BF704730B54FF000050AE050EA010286
:1004A80008BF704730B511F0004502D5404261EBF6
:1004B80041014FF4806404F132045FEA915C3FF437
:1004C800D8AE4FF003025FEADC0C18BF03325FEAD4
:1004D800DC0C18BF033202EBDC02C2F1200300FA85
:1004E80003FC20FA02F001FA03FE40EA0E0021FAAA
:1004F80002F11444BDE600BF70B54FF0FF0C4CF498
:10050800E06C1CEA11541DBF1CEA135594EA0C0F49
:1005180095EA0C0F00F0DEF82C4481EA030621EA84
:100528004C5123EA4C5350EA013518BF52EA0335BF
:1005380041F4801143F4801338D0A0FB02CE4FF071
:100548000005E1FB02E506F00042E0FB03E54FF0A1
:100558000006E1FB03569CF0000F18BF4EF0010E99
:10056800A4F1FF04B6F5007F64F5407404D25FEA95
:100578004E0E6D4146EB060642EAC62141EA555148
:100588004FEAC52040EA5E504FEACE2EB4F1FD0C8A
:1005980088BFBCF5E06F1ED8BEF1004F08BF5FEA08
:1005A800500E50F1000041EB045170BD06F00046BA
:1005B80046EA010140EA020081EA0301B4EB5C0467
:1005C800C2BFD4EB0C0541EA045170BD41F480115F
:1005D8004FF0000E013C00F3AB8014F1360FDEBF84
:1005E800002001F0004170BDC4F10004203C35DA60
:1005F8000C341BDC04F11404C4F1200500FA05F3E3
:1006080020FA04F001FA05F240EA020001F0004283
:1006180021F0004110EBD37021FA04F642EB0601F9
:100628005EEA430E08BF20EAD37070BDC4F10C0423
:10063800C4F1200500FA04F320FA05F001FA04F2E7
:1006480040EA020001F0004110EBD37041F10001D3
:100658005EEA430E08BF20EAD37070BDC4F12005DE
:1006680000FA05F24EEA020E20FA04F301FA05F246
:1006780043EA020321FA04F001F0004121FA04F2EE
:1006880020EA020000EBD3705EEA430E08BF20EABE
:10069800D37070BD94F0000F0FD101F000464000F8
:1006A80041EB010111F4801F08BF013CF7D041EA7A
:1006B800060195F0000F18BF704703F0004652007E
:1006C80043EB030313F4801F08BF013DF7D043EA4F
:1006D8000603704794EA0C0F0CEA135518BF95EA05
:1006E8000C0F0CD050EA410618BF52EA4306D1D18C
:1006F80081EA030101F000414FF0000070BD50EAAB
:10070800410606BF1046194652EA430619D094EA34
:100718000C0F02D150EA013613D195EA0C0F05D11E
:1007280052EA03361CBF104619460AD181EA030172
:1007380001F0004141F0FE4141F470014FF000002A
:1007480070BD41F0FE4141F4780170BD70B54FF0C5
:10075800FF0C4CF4E06C1CEA11541DBF1CEA135545
:1007680094EA0C0F95EA0C0F00F0A7F8A4EB050427
:1007780081EA030E52EA03354FEA013100F088801E
:100788004FEA03334FF0805545EA131343EA1263E7
:100798004FEA022245EA111545EA10654FEA00269C
:1007A8000EF000419D4208BF964244F1FD0404F555
:1007B800407402D25B084FEA3202B61A65EB0305B1
:1007C8005B084FEA32024FF480104FF4002CB6EB6E
:1007D800020E75EB030E22BFB61A754640EA0C00EE
:1007E8005B084FEA3202B6EB020E75EB030E22BF2E
:1007F800B61A754640EA5C005B084FEA3202B6EB6F
:10080800020E75EB030E22BFB61A754640EA9C002D
:100818005B084FEA3202B6EB020E75EB030E22BFFD
:10082800B61A754640EADC0055EA060E18D04FEABB
:10083800051545EA16754FEA06164FEAC30343EA5B
:1008480052734FEAC2025FEA1C1CC0D111F4801F28
:100858000BD141EA00014FF000004FF0004CB6E721
:1008680011F4801F04BF01430020B4F1FD0C88BFC0
:10087800BCF5E06F3FF6AFAEB5EB030C04BFB6EBCB
:10088800020C5FEA500C50F1000041EB045170BDBE
:100898000EF0004E4EEA113114EB5C04C2BFD4EBEB
:1008A8000C0541EA045170BD41F480114FF0000E6F
:1008B800013C90E645EA060E8DE60CEA135594EAEB
:1008C8000C0F08BF95EA0C0F3FF43BAF94EA0C0FEE
:1008D8000AD150EA01347FF434AF95EA0C0F7FF463
:1008E80025AF104619462CE795EA0C0F06D152EAB7
:1008F80003353FF4FDAE1046194622E750EA41069B
:1009080018BF52EA43067FF4C5AE50EA41047FF4AB
:100918000DAF52EA43057FF4EBAE12E74FF0FF3C10
:1009280006E000BF4FF0010C02E000BF4FF0010CE1
:100938004DF804CD4FEA410C7FEA6C5C4FEA430C5A
:1009480018BF7FEA6C5C1BD001B050EA410C0CBFA9
:1009580052EA430C91EA030F02BF90EA020F00200B
:10096800704710F1000F91EA030F58BF994208BF72
:1009780090422CBFD8176FEAE37040F0010070472F
:100988004FEA410C7FEA6C5C02D150EA013C07D186
:100998004FEA430C7FEA6C5CD6D152EA033CD3D0D1
:1009A8005DF8040B704700BF8446104662468C46CB
:1009B8001946634600E000BF01B5FFF7B7FF0028FE
:1009C80048BF10F1000F01BD4DF808EDFFF7F4FF27
:1009D8000CBF012000205DF808FB00BF4DF808EDB2
:1009E800FFF7EAFF34BF012000205DF808FB00BFD5
:1009F8004DF808EDFFF7E0FF94BF012000205DF8F7
:100A080008FB00BF4DF808EDFFF7CEFF94BF0120AB
:100A180000205DF808FB00BF4DF808EDFFF7C4FFA4
:100A280034BF012000205DF808FB00BF4FEA4102F7
:100A380012F5001215D211D56FF47873B3EB625228
:100A480012D94FEAC12343F0004343EA505311F04F
:100A5800004F23FA02F018BF404270474FF00000E1
:100A6800704750EA013005D111F0004008BF6FF01F
:100A7800004070474FF00000704700BF4A0011D295
:100A880012F5001211D20DD56FF47873B3EB6252E0
:100A98000ED44FEAC12343F0004343EA505323FAEC
:100AA80002F070474FF00000704750EA013002D161
:100AB8004FF0FF3070474FF0000070474FEA410297
:100AC800B2F1E04324BFB3F5001CDCF1FE5C0DD9A4
:100AD80001F0004C4FEAC0024CEA5070B2F1004FEE
:100AE80040EB830008BF20F00100704711F0804FF1
:100AF80021D113F13872BCBF01F00040704741F4B6
:100B080080114FEA5252C2F11802C2F1200C10FAB9
:100B18000CF320FA02F018BF40F001004FEAC1239D
:100B28004FEAD32303FA0CFC40EA0C0023FA02F341
:100B38004FEA4303CCE77FEA625307D150EA013317
:100B48001EBF4FF0FE4040F44000704701F00040E7
:100B580040F0FE4040F40000704700BF10B5054C5F
:100B6800227832B9044B13B10448AFF30080012353
:100B7800237010BD04000020000000003848000861
:100B880008B5034B1BB103490348AFF3008008BD08
:100B98000000000008000020384800080023C36057
:100BA80003617047D0ED047AD0ED055A07EE101AAC
:100BB800B8EEC77A25EE870A77EE807AC0ED047A18
:100BC80090ED000A27EE000AD0ED016A67EEA67ADA
:100BD80070EE277AD0ED026A90ED036A37EE466A26
:100BE80066EE866A86EEA50A80ED037A37EE800AFD
:100BF80070477047FEE7FEE7FEE7FEE7704770477D
:100C0800704708B500F0EAFE01F00FF808BD0000D3
:100C180008B5024801F0C7F908BD00BFDC00002094
:100C280008B5024801F0BFF908BD00BF2001002047
:100C3800F0B583B00446036813F4803F44D05F4B9B
:100C4800DB6913F0805F6ED15C4BDA6942F0805249
:100C5800DA61DB6903F080530193019B0125584B4E
:100C68001B6813F4807F60D0544B1B6A13F44073E5
:100C780021D0626802F440729A421CD04F48016A3F
:100C880021F440764FF4803393FAA3F2B2FA82F259
:100C98004C4F3A4492004FF0010CC2F800C093FA4E
:100CA800A3F3B3FA83F33B449B0000221A60066265
:100CB80011F0010F4DD1414A136A23F44073616862
:100CC8000B431362002D6FD1236813F0010F06D078
:100CD8003A4A136B23F00303A1680B431363236899
:100CE80013F0200F06D0354A136B23F01003E16888
:100CF8000B431363236813F0800F06D02F4AD36A7F
:100D080023F4F87321690B43D362236813F4805FDB
:100D180051D02A4A136B23F4807361690B43136320
:100D2800002003B0F0BD002599E7254A136843F475
:100D38008073136000F05AFE0646214B1B6813F4BB
:100D4800807F91D100F052FE801B6428F5D90320E2
:100D5800E7E700F04BFE064614E0184B196A022339
:100D680093FAA3F3B3FA83F303F01F03012202FA01
:100D780003F30B429FD100F039FE801B41F2883308
:100D8800984216D8022393FAA3F293FAA3F3B3FA7C
:100D980083F35B0943F00203022BDED0022393FAAC
:100DA800A3F3064B596ADAE7D36923F08053D3617A
:100DB8008AE70320B5E70020B3E700BF0010024030
:100DC800007000400081901000B583B01C4B9A69F8
:100DD80042F001029A619B6903F001030193019BB0
:100DE800032000F0A9FE002211466FF00B0000F06E
:100DF800B5FE002211466FF00A0000F0AFFE002297
:100E080011466FF0090000F0A9FE002211466FF0AC
:100E1800040000F0A3FE002211466FF0030000F06A
:100E28009DFE002211466FF0010000F097FE00229F
:100E380011464FF0FF3000F091FE03B05DF804FB5F
:100E4800001002400268114B9A4200D0704700B56A
:100E580087B0C02301931223029301230393032332
:100E68000493042305930DEB0301094800F0C4FC27
:100E7800084BDA6942F40012DA61DB6903F4001303
:100E88000093009B07B05DF804FB00BF00540040CE
:100E9800000400480010024010B588B00368264AD4
:100EA800934204D0B3F1804F24D008B010BD234B37
:100EB8009A6942F400629A619B6903F400630193A2
:100EC800019B4FF44073039302230493012305937A
:100ED800002406940623079303A94FF0904000F0DE
:100EE8008BFC224621461B2000F038FE1B2000F018
:100EF80069FEDAE703F50433DA6942F00102DA61E0
:100F0800DB6903F001030293029B0323039302238B
:100F180004930123059300240694079303A94FF033
:100F2800904000F069FC224621461C2000F016FE85
:100F38001C2000F047FEB8E7002C014000100240DA
:100F48000268094B9A4200D0704782B003F5033318
:100F5800DA6942F00202DA61DB6903F00203019305
:100F6800019B02B0704700BF0004004002680F4BAD
:100F78009A4200D0704730B587B0402301930224CD
:100F88000294002503950495059401A94FF090401B
:100F980000F032FC202301930294039504950594F4
:100FA80001A9034800F028FC07B030BD0004004048
:100FB800000400480268114B9A4200D0704700B5FF
:100FC80087B003F5E633DA6942F40032DA61DB69A7
:100FD80003F400330093009B0C2301930223029334
:100FE80000230393032304930723059301A94FF0D8
:100FF800904000F001FC07B05DF804FB004400409D
:1010080070B588B0244B5A6942F400325A615A6963
:1010180002F400320192019A5A6942F480225A611C
:101028005B6903F480230293029B00224FF408615A
:101038004FF0904000F0A4FC184D002219212846DA
:1010480000F09EFC4FF408630393012604960024E5
:101058000594069403A94FF0904000F0CDFB1923A6
:10106800039304960594069403A9284600F0C4FB4C
:10107800022303930494059303A9284600F0BCFBBC
:101088004FF4144303930494059403A94FF090403C
:1010980000F0B2FB08B070BD001002400004004828
:1010A80030B52DED028B89B0B0EE408AB5EEC00A9E
:1010B800F1EE10FA2BDD01221146234800F060FC06
:1010C80018EE100AFFF7C0F91DA3D3E90023FFF7B4
:1010D80013FA00221D4BFFF739FBFFF7CFFC80B254
:1010E800322800D93220602301930290002403940F
:1010F8000594174D224601A9284600F05BFE2146BB
:10110800284601F083FA09B0BDEC028B30BD0022FD
:1011180001210D4800F034FCF1EE487A17EE900AF0
:10112800FFF792F906A3D3E90023FFF7E5F90022B8
:10113800064BFFF70BFBFFF7A1FC80B2D0E700BF1F
:101148000000000000E06F40000400480000284054
:10115800980000200000000010B52DED028B88B02B
:10116800B0EE408AB5EEC00AF1EE10FA2CDD00228E
:101178000821234800F004FC18EE100AFFF764F970
:101188001DA3D3E90023FFF7B7F900221D4BFFF792
:10119800DDFAFFF773FC80B2322800D932206023D1
:1011A80001930290002303930593174C04220DEB3F
:1011B8000201204600F0FEFD0421204601F026FA37
:1011C80008B0BDEC028B10BD012208210C4800F0CC
:1011D800D7FBF1EE487A17EE900AFFF735F906A328
:1011E800D3E90023FFF788F90022064BFFF7AEFA90
:1011F800FFF744FC80B2CFE70000000000E06F403A
:10120800000400480000284098000020000000006A
:1012180003685F4A1268934206D05E4A1268934296
:1012280000D070475C4B00E05C4B2DE9F0475A68F2
:101238001A600268526A5A605C681A68A41A012C1B
:1012480040F38C804FF0FF349C60DA682244DA6007
:10125800DFF850A1DAF80000FFF7F6F806460F4667
:10126800DAF80800FFF7F0F841EC100B02F0B0F8DC
:1012780043A3D3E9002351EC100BFFF73DF9804657
:1012880089462046FFF7CEF804460D4602460B462F
:1012980040464946FFF730F902460B463046394684
:1012A800FEF774FFFFF70AFCCAF80000DAF804003A
:1012B800FFF7CAF806460F46DAF80800FFF7C4F841
:1012C80041EC100B02F0E4F82DA3D3E9002351EC14
:1012D800100BFFF711F902460B4620462946FFF787
:1012E8000BF902460B4630463946FEF74FFFFFF72B
:1012F800E5FBCAF80400DAF80800FFF7A5F8064687
:101308000F4621A3D3E9002320462946FFF7F4F826
:1013180002460B4630463946FEF738FFFFF7CEFB4C
:10132800CAF808009AED027ADFED1D7AB4EEE77A82
:10133800F1EE10FA18DC1B4B93ED027ADFED1A7A06
:10134800B4EEE77AF1EE10FA16D8D3ED027A9FEDF3
:10135800177A77EE877AC3ED027A0DE0B4F1FF3F92
:10136800BFF672AF01246FE79AED027ADFED0F7ACC
:1013780077EEC77ACAED027ABDE8F087AFF300804E
:101388007B14AE47E17A843FFCA9F1D24D62403F1D
:10139800DC00002020010020300000202000002078
:1013A800DB0F494040000020DB0F49C0DB0FC9407C
:1013B800FEE7000008B51548154B0360154B436060
:1013C800002383600122C260036143618361C361BA
:1013D800036200F02EFC50B900210C4800F052FBCB
:1013E80050B90021094800F07BFB50B908BD40F214
:1013F80077110948FFF7DCFF4FF4BF710648FFF784
:10140800D7FF40F285110448FFF7D2FF4C000020B7
:10141800005400400E0900205048000800B58DB067
:101428001848194B036000234360836040F29F52C1
:10143800C260036143618361032203920222049222
:101448000122059206930793089309920A930B9336
:1014580003A900F0EFFE58B900230093019302930B
:101468006946084800F040FD38B90DB05DF804FB46
:1014780040F2A3110548FFF79BFF40F2AB11034868
:10148800FFF796FFDC000020002C014050480008C0
:1014980000B58DB017484FF08043036000234360C8
:1014A800836040F29F52C26003618361032203920A
:1014B80004930122059206930793089309920A93CD
:1014C8000B9303A900F0B6FE50B9002300930293D2
:1014D8006946084800F008FD38B90DB05DF804FB0E
:1014E8004FF4E4710448FFF763FF40F2CF1102485C
:1014F800FFF75EFF200100205048000808B50C489F
:101508000C4B03604FF4164343600023C360036130
:101518000C2242618361C3610362436201F07AFA7B
:1015280000B908BD40F21A210348FFF741FF00BF88
:1015380060010020004400405048000800B58FB00A
:101548002C482D4B036040F2E14343600023836045
:10155800FE22C2600361836100F03AFE58BB0EA907
:101568004FF4805341F8103D224800F0B3FF38BBD8
:10157800204800F046FE40BB00230793099307A9C3
:101588001C4800F0B1FC28BB6023009300220192A4
:10159800029204926946174800F00CFCF8B904223C
:1015A8006946144800F006FCF0B91248FFF7DEFC63
:1015B8000FB05DF804FB4FF4F2711048FFF7F8FE26
:1015C8004FF4F5710D48FFF7F3FE40F2EF110B48A9
:1015D800FFF7EEFE4FF4FB710848FFF7E9FE40F213
:1015E800FF110648FFF7E4FE4FF401710348FFF7C7
:1015F800DFFE00BF980000200004004050480008AB
:1016080000B597B002230C93012210921022119278
:101618001393002314934FF4601315930CA801F04F
:101628002DFA58BB0F230793022108910023099331
:101638004FF480620A920B9307A801F05FFD10BB7C
:101648004FF48153019300230493069301A8FFF7F5
:10165800EFFAE8B901F03CFE104BA3FB003080091B
:1016680000F0BCFA042000F0CFFA002211464FF037
:10167800FF3000F073FA17B05DF804FB40F2431135
:101688000748FFF795FE40F251110548FFF790FE15
:1016980040F259110248FFF78BFE00BFD34D62108C
:1016A80050480008F0B52DED028B8DB000F084F99C
:1016B800464B0B93059306939FED458A8DED078A5C
:1016C8008DED088A00938DED018A8DED028AFFF772
:1016D80097FFFFF795FCFFF76DFEFFF79FFEFFF7FB
:1016E800D7FEFFF70BFFFFF729FF3C21394800F031
:1016F800B1FF3C21384800F0ADFF384C04212046AA
:1017080000F084FF0021204600F080FF01228021A4
:101718004FF0904000F034F9314C0122102120465E
:1017280000F02EF901221146204600F029F9002286
:101738000821204600F024F9B0EE480AFFF7B0FC73
:10174800B0EE480AFFF708FD06A8FFF727FA684633
:10175800FFF724FA234B4FF47A721A60224B0022C7
:101768001A60224D6868224C63681844FEF75AFED6
:101778000022204BFEF7C0FE06460F46194B18689C
:10178800FEF750FE32463B46FEF7FEFCFFF74EF9E9
:10179800014606A8FFF706FAF0EE408A6B68616812
:1017A8005B1A114A1168C91A6846FFF7FBF9B0EECF
:1017B800408A38EE800AFFF773FC38EEC80AFFF754
:1017C800CBFC0A2000F018F9CBE700BF0AD7233C6E
:1017D80000000000DC00002020010020980000200C
:1017E80000040048D80000201C0100202000002030
:1017F800300000200000E03FF0B482B0002336E063
:10180800032400E00024B4403C430235584E46F817
:101818002540584C2568D44304EA05064F6817F458
:10182800803F01D042EA0506524D2E606D6804EAF9
:1018380005064F6817F4003F01D042EA05064D4DF2
:101848006E60AD6804EA05064F6817F4801F01D082
:1018580042EA0506474DAE60ED682C404E6816F426
:10186800001F01D042EA0504424AD46001330A68E5
:1018780032FA03F478D001249C402240F6D04D6817
:10188800022D01D0122D10D1DE08083650F826C0DE
:1018980003F00705AF000F25BD402CEA050C0D69C4
:1018A800BD4045EA0C0540F8265006685F00032550
:1018B800BD40ED4305EA060C4E6806F00306BE403F
:1018C80046EA0C0606604E6806F1FF3CBCF1010FC3
:1018D80003D9112E01D0122E10D1866805EA060C04
:1018E800CE68BE4046EA0C068660466826EA0404CE
:1018F8004E68C6F300169E4026434660C4682540DD
:101908008C68BC402C43C4604C6814F0805FADD038
:10191800194CA56945F00105A561A46904F0010405
:101928000194019C9D08AE1C114C54F8267003F0DC
:101938000304A6000F24B44027EA0407B0F1904F2F
:101948003FF460AF0D4CA0420AD004F58064A04279
:1019580008D004F58064A0423FF452AF052452E752
:10196800012450E702244EE702B0F0BC704700BFE4
:10197800000001400004014000100240000400483B
:101988000AB98162704781617047000010B504464A
:10199800074B1868074BA3FB0030800900F01EF9BD
:1019A800002221464FF0FF3000F0D8F8002010BD8B
:1019B80000000020D34D621008B5074A136843F0B1
:1019C80010031360032000F0B7F80020FFF7DEFFD4
:1019D800FFF7FAF9002008BD00200240024A136808
:1019E80001331360704700BFD0010020014B186815
:1019F800704700BFD001002030B583B00190FFF7D9
:101A0800F5FF0546019CB4F1FF3F00D00134FFF714
:101A1800EDFF401BA042FAD303B030BD1549D1F801
:101A2800883043F47003C1F88830134B1A6842F0C9
:101A380001021A605868114A02405A601A6822F076
:101A4800847222F480321A601A6822F480221A60A2
:101A58005A6822F4FE025A60DA6A22F00F02DA6249
:101A6800186B074A02401A6300229A604FF000631D
:101A78008B60704700ED00E0001002400CC07FF85A
:101A8800CCFC00FF90F84130DBB2202B24D190F839
:101A98004030012B22D0012380F84030242380F8E5
:101AA80041300268136823F0010313600268136869
:101AB80023F48053136002681368194311600268A5
:101AC800136843F001031360202380F8413000239A
:101AD80080F840301846704702207047022070474F
:101AE80090F84130DBB2202B22D190F84030012B06
:101AF80020D0012380F84030242380F84130026848
:101B0800136823F0010313600268136823F47063F9
:101B180043EA012111600268136843F0010313606E
:101B2800202380F84130002380F840301846704761
:101B38000220704702207047074AD36823F4E06305
:101B48001B041B0C000200F4E060184340F0BF6067
:101B580040F40030D060704700ED00E030B4174B1F
:101B6800DB68C3F30223C3F10704042C28BF042451
:101B78001D1D062D18D9033B4FF0FF3505FA04F457
:101B880021EA0401994005FA03F322EA0303194301
:101B980000280BDB0901C9B200F1604000F5614083
:101BA80080F8001330BC70470023E5E700F00F0011
:101BB8000901C9B2024B1954F4E700BF00ED00E077
:101BC80014ED00E000F01F02400901239340024A8F
:101BD80042F82030704700BF00E100E00138B0F162
:101BE800807F0AD2064B5860064AF02182F82310FB
:101BF8000020986007221A6070470120704700BFD4
:101C080010E000E000ED00E0042805D0054A136864
:101C180023F0040313607047024A136843F0040377
:101C28001360704710E000E0704708B5FFF7FCFF4D
:101C380008BD002859D010B5044690F84130002B53
:101C480043D0242384F841302268136823F0010329
:101C580013606368226823F07063136122689368D5
:101C680023F400439360E368012B33D0A368226810
:101C780043F404439360E368022B31D0226853682D
:101C880043F0007343F4004353602268D36823F49D
:101C98000043D360236962691343A169226843EA58
:101CA8000123D360E369216A22680B431360226829
:101CB800136843F00103136000206064202384F854
:101CC8004130206384F8420010BD80F84030FFF7AF
:101CD800B9F8B6E7A368226843F400439360CAE7FB
:101CE80023684FF400625A60C8E70120704700007B
:101CF80030B4036A23F480330362036A4468426D94
:101D080022F4803222F070020D682A4323F4003353
:101D18008D6843EA05430D4DA8420BD005F5A05543
:101D2800A84207D005F58065A84203D005F580656F
:101D3800A84204D124F480344D6944EA052444605F
:101D480042654A688265036230BC7047002C0140D6
:101D580030B4036A23F480130362026A4468436D53
:101D680023F0807323F4E0430D6843EA052322F44B
:101D780000128D6842EA05520D4DA8420BD005F5B8
:101D8800A055A84207D005F58065A84203D005F5FF
:101D98008065A84204D124F480244D6944EA85244E
:101DA800446043654B68C365026230BC704700BF3E
:101DB800002C014038B590F83C30012B00F092809F
:101DC8000D460446012380F83C30022380F83D305C
:101DD800142A1ED8DFE802F00B1D1D1D241D1D1D31
:101DE800381D1D1D4B1D1D1D5F1D1D1D720000682A
:101DF80000F06EFA2268936943F008039361226841
:101E0800936923F0040393612268936929690B435A
:101E18009361012384F83D30002084F83C0038BDEC
:101E2800006800F09BFA2268936943F400639361A9
:101E38002268936923F4806393612268936929690E
:101E480043EA01239361E4E7006800F0C7FA2268D7
:101E5800D36943F00803D3612268D36923F00403EC
:101E6800D3612268D36929690B43D361D1E700683C
:101E780000F0F2FA2268D36943F40063D361226860
:101E8800D36923F48063D3612268D369296943EA5B
:101E98000123D361BDE70068FFF72AFF2268536D6D
:101EA80043F0080353652268536D23F00403536518
:101EB8002268536D29690B435365AAE70068FFF749
:101EC80047FF2268536D43F4006353652268536DDE
:101ED80023F4806353652268536D296943EA01231B
:101EE800536596E702209AE790F83C30012B1FD003
:101EF80030B4012380F83C300268536895680D4C73
:101F0800A24210D023F070030C68234325F080040C
:101F180089682143536003689960002380F83C3046
:101F2800184630BC704723F470034C682343E9E734
:101F380002207047002C014070477047704710B46A
:101F4800036A046A24F001040462846924F0F0043A
:101F580044EA021223F00A030B43826103625DF82C
:101F6800044B704710B4036A23F0100303628469BA
:101F7800036A24F4704444EA023223F0A00343EADB
:101F88000113826103625DF8044B7047836823F094
:101F9800700341F00701194381607047704770472B
:101FA80070477047704710B5044603681A6912F005
:101FB800020F11D0DA6812F0020F0DD06FF0020292
:101FC8001A610123037703689B6913F0030F79D023
:101FD800FFF71EF90023237723681A6912F0040F0C
:101FE80012D0DA6812F0040F0ED06FF004021A61F2
:101FF8000223237723689B6913F4407F68D0204627
:10200800FFF706F90023237723681A6912F0080FEF
:1020180012D0DA6812F0080F0ED06FF008021A61B9
:10202800042323772368DB6913F0030F57D0204676
:10203800FFF7EEF80023237723681A6912F0100FD0
:1020480012D0DA6812F0100F0ED06FF010021A6179
:10205800082323772368DB6913F4407F46D02046A2
:10206800FFF7D6F80023237723681A6912F0010FC7
:1020780003D0DA6812F0010F3FD123681A6912F011
:10208800800F03D0DA6812F0800F3DD123681A69F7
:1020980012F4807F03D0DA6812F0800F3BD12368F6
:1020A8001A6912F0400F03D0DA6812F0400F39D1E4
:1020B80023681A6912F0200F03D0DA6812F0200F93
:1020C80037D110BDFFF76CFF2046FFF76AFF81E7A5
:1020D8002046FFF765FF2046FFF763FF92E720469B
:1020E800FFF75EFF2046FFF75CFFA3E72046FFF7F8
:1020F80057FF2046FFF755FFB4E76FF001021A615A
:102108002046FFF74CFFB8E76FF080021A612046BF
:10211800FFF713FFBAE76FF480721A612046FFF7E2
:102128000DFFBCE76FF040021A612046FFF73AFF47
:10213800BEE76FF020021A612046FFF7FDFEC0E7F8
:102148000368224A904206D0B0F1804F03D0A2F52E
:102158009432904203D123F070034A6813431B4A18
:10216800904212D0B0F1804F0FD0A2F59432904235
:102178000BD002F59E32904207D002F58062904261
:1021880003D002F58062904203D123F44073CA68F9
:10219800134323F080034A69134303608B68C362C7
:1021A8000B688362094B98420BD003F5A053984201
:1021B80007D003F58063984203D003F58063984203
:1021C80001D10B690363012343617047002C01406F
:1021D800A8B110B5044690F83D305BB1022384F8ED
:1021E8003D30211D2068FFF7ABFF012384F83D3007
:1021F800002010BD80F83C30FEF7A2FEEEE701207B
:102208007047A8B110B5044690F83D305BB1022381
:1022180084F83D30211D2068FFF792FF012384F8E0
:102228003D30002010BD80F83C30FFF7B7FEEEE7E8
:1022380001207047002849D0F8B505460C4690F8AB
:102248003D30002B3DD0022385F83D30294651F81A
:10225800042B936823F4803323F0070393602868E2
:10226800FFF76EFF29688A688E690F6A2068104335
:1022780026F4407626F00306A268A36942EA0323FF
:10228800334323F47C4323F0FC03E668E26946EA1F
:1022980002261E43226A1303226943EA02133343C8
:1022A80027F0AA076268646942EA04123A43886020
:1022B80029688B612B681A62012385F83D3000205C
:1022C800F8BD80F83C30FEF7E7FDBCE70120704719
:1022D80030B4036A23F001030362036A4468826925
:1022E80022F4803222F073020D682A4323F002039D
:1022F8008D682B43184DA8420BD005F5A055A84270
:1023080007D005F58065A84203D005F58065A84289
:1023180005D123F00803CD682B4323F004030E4DA9
:10232800A8420BD005F5A055A84207D005F5806551
:10233800A84203D005F58065A84205D124F440756C
:102348004C692C438D692C43446082614A6842631E
:10235800036230BC704700BF002C014030B4036AF0
:1023680023F010030362036A4468826922F08072D2
:1023780022F4E6420D6842EA052223F020038D6824
:1023880043EA0513144DA8421DD0134DA8420BD0A3
:1023980005F5A055A84207D005F58065A84203D0E9
:1023A80005F58065A84207D124F440644D6944EAE4
:1023B80085048D6944EA8504446082614A688263C1
:1023C800036230BC704723F08003CD6843EA0513ED
:1023D80023F04003D9E700BF002C014030B4036A62
:1023E80023F480730362036A4468C26922F480326A
:1023F80022F073020D682A4323F400738D6843EAC0
:102408000523144DA8421DD0124DA8420BD005F546
:10241800A055A84207D005F58065A84203D005F568
:102428008065A84207D124F440544D6944EA051454
:102438008D6944EA05144460C2614A68C263036254
:1024480030BC704723F40063CD6843EA052323F4C6
:102458008063D9E7002C014030B4036A23F4805329
:102468000362026A4468C36923F0807323F4E64375
:102478000D6843EA052322F400528D6842EA0532CA
:102488000D4DA8420BD005F5A055A84207D005F57B
:102498008065A84203D005F58065A84204D124F4DC
:1024A80080444D6944EA85144460C3614B68036401
:1024B800026230BC704700BF002C014010B4846831
:1024C80024F47F4442EA03230B43234383605DF8EB
:1024D800044B704790F83C30012B00F0828010B517
:1024E8000446012380F83C30022380F83D3002681E
:1024F80090683D4B034093600B68402B5DD010D92A
:10250800702B40D01FD8502B4DD0602B34D1CA68C7
:1025180049682068FFF726FD60212068FFF736FD2F
:102528002AE0102B53D008D9202B55D0302B23D19B
:1025380030212068FFF72AFD1EE0EBB90021206852
:10254800FFF724FD18E0B3F5805F0ED0B3F5005F08
:1025580012D1CB684A6889682068FFF7AFFF226804
:10256800936843F48043936006E02268936823F4F9
:10257800803323F007039360012384F83D30002063
:1025880084F83C0010BDCB684A6889682068FFF76A
:1025980095FF2268936823F4803323F0770343F090
:1025A80077039360E8E7CA6849682068FFF7C7FCC3
:1025B80050212068FFF7EAFCDEE7CA68496820680E
:1025C800FFF7BDFC40212068FFF7E0FCD4E71021AD
:1025D8002068FFF7DBFCCFE720212068FFF7D6FC57
:1025E800CAE70220704700BF8800FEFF10B401232D
:1025F80003FA01F4036A23EA04030362036A8A40C4
:10260800134303625DF8044B7047000010B504469D
:1026180001220068FFF7EAFF23680D4A93420BD0B6
:1026280002F5A052934207D002F58062934203D08C
:1026380002F58062934203D15A6C42F400425A6414
:102648002268136843F001031360002010BD00BF27
:10265800002C014010B50446B1B1042925D001224F
:1026680000210068FFF7C2FF012204212068FFF75C
:10267800BDFF2268D36843F00203D3602268D368A1
:1026880043F00403D36009E0012200210068FFF74A
:10269800ADFF2268D36843F00203D3602268136851
:1026A80043F001031360002010BD012204210068DB
:1026B800FFF79CFF2268D36843F00403D360EDE77B
:1026C80010B5044683680269134342691343C2691B
:1026D800134301680868654A024013430B60226887
:1026E800536823F44053E1680B435360A369226A9B
:1026F8001A4321688B6823F4306313438B60236883
:102708005B4A934215D05B4A934229D002F5806216
:10271800934221D01022E169B1F5004F22D0082A56
:1027280000F2A280DFE802F066727EA08AA0A0A074
:10273800960002F55842126B02F00302032A09D8E8
:10274800DFE802F00204060C0022E4E70422E2E7D4
:102758000822E0E71022DEE70022DCE70222DAE7BF
:102768000022D8E7082A42D8DFE802F005172241FC
:102778002D414141380000F0B1FD6268530803EB78
:102788004003B3FBF2F39BB2002023F00F02C3F324
:10279800420313432268D36010BD00F0B5FD6268A0
:1027A800530803EB4003B3FBF2F39BB20020ECE7C2
:1027B8006268530803F5740303F51053B3FBF2F38F
:1027C8009BB20020E1E700F061FC6268530803EB6C
:1027D8004003B3FBF2F39BB20020D6E762685308CC
:1027E80003F58033B3FBF2F39BB20020CDE7012061
:1027F8000023CAE700F072FD636800EB5300B0FBEA
:10280800F3F0236880B2D8600020C5E700F07CFDB3
:10281800636800EB5300B0FBF3F0236880B2D86024
:102828000020B9E761684A0802F5F40202F59052FF
:10283800B2FBF1F292B2DA600020ADE700F026FCBC
:10284800636800EB5300B0FBF3F0236880B2D860F4
:102858000020A1E761684A0802F50042B2FBF1F2E4
:1028680092B2DA60002097E7012095E7F369FFEF5D
:102878000038014000440040436A13F0010F06D0BD
:102888000268536823F40033816A0B435360436A38
:1028980013F0020F06D00268536823F48033C16A2C
:1028A8000B435360436A13F0040F06D00268536861
:1028B80023F48023016B0B435360436A13F0080F22
:1028C80006D00268536823F40043416B0B435360FE
:1028D800436A13F0100F06D00268936823F48053FC
:1028E800816B0B439360436A13F0200F06D0026894
:1028F800936823F40053C16B0B439360436A13F04E
:10290800400F0AD00268536823F48013016C0B430C
:102918005360036CB3F5801F0BD0436A13F0800F2C
:1029280006D00268536823F40023816C0B4353607C
:1029380070470268536823F4C003416C0B4353602B
:10294800EBE72DE9F04105460F4616469846069CEA
:102958002B68DB6937EA03030CBF01230023B3426A
:102968001DD1B4F1FF3FF3D02CB1FFF73FF8A0EB36
:102978000800A042ECD92A68136823F4D0731360C6
:102988002A68936823F001039360202385F869304F
:1029980085F86A30002385F86830032000E00020BD
:1029A800BDE8F08130B583B004460023C366FFF765
:1029B8001DF8054623681B6813F0080F0ED123681D
:1029C8001B6813F0040F17D1202384F8693084F8AA
:1029D8006A30002084F8680003B030BD6FF07E4391
:1029E8000093034600224FF400112046FFF7A9FF89
:1029F8000028E4D00320EFE76FF07E4300932B46D6
:102A080000224FF480012046FFF79BFF0028DBD00F
:102A18000320E1E778B310B5044690F869300BB3AA
:102A2800242384F869302268136823F001031360B3
:102A38002046FFF745FE012813D0636ABBB9226818
:102A4800536823F4904353602268936823F02A0361
:102A580093602268136843F0010313602046FFF770
:102A6800A1FF10BD80F86830FEF7A4FAD8E7204629
:102A7800FFF702FFE3E701207047000070B582B05E
:102A88000446036813F0010F3BD0B64B5B6803F0B4
:102A98000C03042B1ED0B34B5B6803F00C03082B0C
:102AA80013D06368B3F5803F68D0002B40F0928064
:102AB80003F1804303F504331A6822F480321A6064
:102AC8001A6822F480221A605DE0A64B5B6813F452
:102AD800803FE6D04FF4003393FAA3F3A14B196873
:102AE8004FF4003393FAA3F3B3FA83F303F01F030D
:102AF800012202FA03F30B4203D06368002B00F0B3
:102B0800B382236813F0020F00F0C680954B5B6810
:102B180013F00C0F00F09C80924B5B6803F00C03E1
:102B2800082B00F08F802369002B00F0F38001222E
:102B380092FAA2F3B3FA83F303F1845303F58413EF
:102B48009B001A60FEF752FF0546022393FAA3F38F
:102B5800844B1968022393FAA3F3B3FA83F303F0BF
:102B68001F03012202FA03F30B4240F0C480FEF770
:102B78003DFF401B0228E8D903207CE2794A13680C
:102B880043F480331360774AD36A23F00F03A168B4
:102B98000B43D3626368002B36D0FEF727FF054648
:102BA8004FF4003393FAA3F36E4B19684FF40033D4
:102BB80093FAA3F3B3FA83F303F01F03012202FA93
:102BC80003F30B429DD1FEF711FF401B6428E7D9A0
:102BD800032050E2B3F5A02F09D0624B1A6822F403
:102BE80080321A601A6822F480221A60CBE703F157
:102BF8008043A3F53C331A6842F480221A601A68AD
:102C080042F480321A60BEE7FEF7F0FE05464FF444
:102C1800003393FAA3F3534B19684FF4003393FA34
:102C2800A3F3B3FA83F303F01F03012202FA03F3B9
:102C38000B423FF466AFFEF7D9FE401B6428E6D985
:102C4800032018E2474B5B6813F4803F7FF46BAFB7
:102C5800022393FAA3F3434B1968022393FAA3F3CD
:102C6800B3FA83F303F01F03012202FA03F30B42C2
:102C780004D02369934201D00120FCE1394803685C
:102C880023F0F8036169F82292FAA2F2B2FA82F20A
:102C980001FA02F213430360236813F0080F00F0EF
:102CA8008D80A369002B61D0012191FAA1F2B2FABB
:102CB80082F22D4B13449B001960FEF797FE0546E0
:102CC800022393FAA3F293FAA3F293FAA3F2254A02
:102CD800516A93FAA3F3B3FA83F303F01F030122B3
:102CE80002FA03F30B4269D1FEF780FE401B02286B
:102CF800E6D90320BFE11B48036823F0F8036169A4
:102D0800F82292FAA2F2B2FA82F201FA02F213431C
:102D18000360C1E7012393FAA3F3B3FA83F303F142
:102D2800845303F584139B0000221A60FEF75EFEAD
:102D38000546022393FAA3F30A4B1968022393FA70
:102D4800A3F3B3FA83F303F01F03012202FA03F398
:102D58000B42A1D0FEF74AFE401B0228E9D9032006
:102D680089E100BF0010024020819010012292FAF0
:102D7800A2F2B2FA82F2C14B13449B0000221A60FD
:102D8800FEF734FE0546022393FAA3F293FAA3F260
:102D980093FAA3F2BA4A516A93FAA3F3B3FA83F304
:102DA80003F01F03012202FA03F30B4206D0FEF7D9
:102DB8001DFE401B0228E6D903205CE1236813F0BE
:102DC800040F00F0B380AE4BDB6913F0805F20D1B5
:102DD800AB4BDA6942F08052DA61DB6903F0805369
:102DE8000193019B0125A74B1B6813F4807F12D028
:102DF800E368012B23D073BB03F1804303F504334D
:102E08001A6A22F001021A621A6A22F004021A628D
:102E18001AE00025E7E79B4A136843F480731360C0
:102E2800FEF7E4FD0646974B1B6813F4807FDFD15D
:102E3800FEF7DCFD801B6428F5D903201BE1904ACE
:102E4800136A43F001031362E368002B41D0FEF7D5
:102E5800CDFD06462BE0052B09D0894B1A6A22F0D6
:102E680001021A621A6A22F004021A62ECE7844B21
:102E78001A6A42F004021A621A6A42F001021A62DD
:102E8800E2E77F4B196A022393FAA3F3B3FA83F3B9
:102E980003F01F03012202FA03F3194245D1FEF79A
:102EA800A5FD801B41F28833984200F2DF8002239F
:102EB80093FAA3F293FAA3F3B3FA83F35B0943F00B
:102EC8000203022BDDD0022393FAA3F36C4B596A59
:102ED800D9E7FEF78BFD064615E0694B196A022310
:102EE80093FAA3F3B3FA83F303F01F03012202FA60
:102EF80003F3194219D0FEF779FD801B41F288339C
:102F0800984200F2B580022393FAA3F293FAA3F34E
:102F1800B3FA83F35B0943F00203022BDDD00223EB
:102F280093FAA3F3564B596AD9E7B5BBE369002B6B
:102F380000F0A080524A526802F00C02082A00F001
:102F4800A380022B2FD04FF0807393FAA3F3B3FA28
:102F580083F303F1845303F584139B0000221A6062
:102F6800FEF744FD04464FF0007393FAA3F3444B75
:102F780019684FF0007393FAA3F3B3FA83F303F0DD
:102F88001F03012202FA03F319426BD0FEF72EFD4C
:102F9800001B0228E7D903206DE0394AD36923F0E2
:102FA8008053D361C2E74FF0807393FAA3F3B3FA67
:102FB80083F303F1845303F584139B0000221A6002
:102FC800FEF714FD05464FF0007393FAA3F32C4B5C
:102FD80019684FF0007393FAA3F3B3FA83F303F07D
:102FE8001F03012202FA03F3194206D0FEF7FEFC82
:102FF800401B0228E7D903203DE021494B6823F410
:103008007413626A206A024313434B604FF0807363
:1030180093FAA3F3B3FA83F303F1845303F5841308
:103028009B0001221A60FEF7E1FC04464FF0007392
:1030380093FAA3F3124B19684FF0007393FAA3F3B2
:10304800B3FA83F303F01F03012202FA03F31942D0
:1030580006D1FEF7CBFC001B0228E7D903200AE0C3
:10306800002008E0002006E0012004E0032002E040
:10307800032000E0002002B070BD00BF2081901046
:1030880000100240007000400120F4E7164B596818
:1030980001F00C03082B24D101F470124FF47013C3
:1030A80093FAA3F3B3FA83F322FA03F30F4AD05C3B
:1030B8000D4BDB6A03F00F030F2292FAA2F2B2FA69
:1030C80082F2D3400A4AD25C11F4803F03D1094B03
:1030D80003FB00F07047084BB3FBF2F300FB03F06F
:1030E80070470548704700BF001002407448000848
:1030F8008448000800093D0000127A00704B1B68E4
:1031080003F007038B420CD26D4A136823F00703C0
:103118000B431360136803F007038B4201D00120AF
:10312800704770B5036813F0020F06D0654A5368FC
:1031380023F0F0038468234353600C460546036874
:1031480013F0010F7AD04368012B2FD0022B42D005
:10315800022292FAA2F25B4A1068022292FAA2F2C2
:10316800B2FA82F202F01F02012101FA02F21042C1
:1031780000F0A48053494A6822F0030213434B60CD
:10318800FEF734FC06466B68012B39D0022B46D07B
:103198004C4B5B6813F00C0F50D0FEF727FC801BDC
:1031A80041F288339842F3D9032086E04FF4003285
:1031B80092FAA2F2434A10684FF4003292FAA2F24D
:1031C800B2FA82F202F01F02012101FA02F202426F
:1031D800D0D1012071E04FF0007292FAA2F2394A80
:1031E80010684FF0007292FAA2F2B2FA82F202F07C
:1031F8001F02012101FA02F21042BBD101205CE05A
:10320800304B5B6803F00C03042B17D0FEF7EEFB82
:10321800801B41F288339842F2D903204DE0294BB4
:103228005B6803F00C03082B08D0FEF7DFFB801B5C
:1032380041F288339842F2D903203EE0204B1B68C4
:1032480003F00703A3420CD91D4A136823F00703B0
:1032580023431360136803F00703A34201D001203E
:103268002BE02B6813F0040F06D0164A536823F49A
:10327800E063E9680B4353602B6813F0080F07D02D
:10328800104A536823F46053296943EAC103536021
:10329800FFF7FCFE0B4B5B6803F0F003F02292FA99
:1032A800A2F2B2FA82F2D340074AD35CD840074B65
:1032B80018600020FEF76AFB002070BD0120FCE7C3
:1032C80000200240001002405C4800080000002076
:1032D800014B1868704700BF0000002008B5FFF7D1
:1032E800F7FF074B5B6803F4E0634FF4E06292FA80
:1032F800A2F2B2FA82F2D340024AD35CD84008BDA7
:10330800001002406C48000808B5FFF7E1FF074BC2
:103318005B6803F460534FF4605292FAA2F2B2FA77
:1033280082F2D340024AD35CD84008BD0010024064
:103338006C480008DFF834D0002103E00C4B5B58E0
:10334800435004310B480C4B42189A42F6D30B4AAF
:1033580002E0002342F8043B094B9A42F9D3FEF7F6
:103368005DFB00F011F8FEF79DF9FEE70030002044
:10337800784A000800000020040000200400002013
:10338800D4010020FEE7000070B50D4E0D4CA41BC3
:10339800A4100025A54209D10B4E0C4C01F048FAA7
:1033A800A41BA4100025A54205D170BD56F82530F0
:1033B80098470135EEE756F8253098470135F2E78A
:1033C800704A0008704A0008704A0008744A0008E9
:1033D80000B551EC100B2C4A21F00043934285B004
:1033E80020DD2A4A934209DD10EE102A0B46FCF72D
:1033F800CBFE41EC100B05B05DF804FB684600F00D
:10340800A7F800F00300012817D002282FD028B30E
:1034180001209DED021B9DED000B01F015F851EC0C
:10342800100BE6E79FED161B00F0BEFA51EC100BEF
:1034380041EC100B05B05DF804FB9DED021B9DED02
:10344800000B01F001F853EC102B10EE100A03F1F9
:10345800004141EC100B05B05DF804FB9DED021B2B
:103468009DED000B00F0A0FA51EC100BC1E79DEDAB
:10347800021B9DED000B00F097FAE4E7AFF3008024
:103488000000000000000000FB21E93FFFFFEF7F84
:1034980000B551EC100B2C4A21F00043934285B043
:1034A80027DD2A4A934209DD10EE102A0B46FCF765
:1034B8006BFE41EC100B05B05DF804FB684600F0AC
:1034C80047F800F0030001281FD0022830D028B3A5
:1034D8009DED021B9DED000B00F066FA53EC102BDE
:1034E80010EE100A03F1004141EC100B05B05DF835
:1034F80004FB00209FED121B00F0A6FF51EC100BFF
:1035080041EC100B05B05DF804FB9DED021B9DED31
:10351800000B00F049FA51EC100BCAE701209DEDB1
:10352800021B9DED000B00F08FFF51EC100BC0E764
:1035380001209DED021B9DED000B00F085FFCDE7FE
:103548000000000000000000FB21E93FFFFFEF7FC3
:103558002DE9F04753EC102BBF4923F000478F4269
:1035680090B040F39380BD498F421C46824629DCC7
:10357800002C194610EE100AADA3D3E9002340F33E
:103588009080FCF701FEB64B9F4204460D4600F0C2
:103598007381A9A3D3E90023FCF7F6FD02460B4685
:1035A800CAE9002320462946FCF7EEFDA2A3D3E989
:1035B8000023FCF7E9FD0125CAE90201284610B0FD
:1035C800BDE8F087A7498F4240F38A80A6498F4219
:1035D80000F320813D15A5F2164510EE100AA7EB61
:1035E800055116460F46FDF721FAFCF71BFF8046EA
:1035F800894642464B4630463946CDE90A89FCF7AA
:10360800C3FD0022994BFCF777FF89468046FDF7FA
:103618000DFAFCF707FF06460F4632463B46404682
:103628004946CDE90C67FCF7AFFD00228F4BFCF74C
:1036380063FF00220023CDE90E01FDF7C5F900283C
:1036480000F065810023304639460022FDF7BCF9B9
:10365800002814BF01230223854A019202212A4629
:1036680000910AA8514600F0E3FA002C054614DA46
:10367800DAF80420DAF80C3002F1004203F10043D2
:103688004542CAF80420CAF80C3006E080ED000B69
:1036980000250024C0E902450025284610B0BDE8F1
:1036A800F087FCF773FD6E4B9F4204460D4600F011
:1036B800108161A3D3E90023FCF768FD02460B469D
:1036C800CAE9002329462046FCF75EFD5AA3D3E940
:1036D8000023FCF75BFD4FF0FF35CAE90201DCE788
:1036E80000F07CFF59EC108B10EE100A54A3D3E9BC
:1036F80000234946FCF700FF00225E4BFCF746FD1D
:10370800FDF794F90546FCF78DFE49A3D3E900239C
:10371800CDE90601FCF7F0FE02460B464046494655
:10372800FCF732FD44A3D3E9002380468946DDE94E
:103738000601CDE90289FCF7DFFE1F2D02460B4684
:10374800CDE9042340F3B580DDE90423DDE9020176
:10375800FCF71AFD804689463F15C9F30A53FB1A40
:10376800102B40F3B38038A3D3E90023DDE9060129
:10377800FCF7C2FE8046894602460B46DDE9020197
:10378800FCF702FD02460B46DDE90201CDE90823FC
:10379800FCF7FAFC42464B46FCF7F6FC2CA3D3E9AF
:1037A800002380468946DDE90601FCF7A5FE42466E
:1037B8004B46FCF7E9FC0B46CDE904010246DDE97E
:1037C8000801FCF7E1FCC1F30A53FF1A312F8046C8
:1037D800894600F39E809DED087BCAE900898DED3E
:1037E800027B42464B46DDE90201FCF7CDFCDDE9F0
:1037F8000423FCF7C9FC002CCAE90201BFF64DAF4F
:1038080009F1004401F100436D42CAE90084CAE9A4
:10381800020342E710EE100A1946FCF7B5FC002532
:10382800CAE90201CAE9000137E700BFAFF3008027
:1038380000004054FB21F93F3163621A61B4D03D66
:1038480083C8C96D305FE43F0000601A61B4D03DA1
:103858007370032E8A19A33BFB21E93F7BD90240F1
:10386800FB21F93FFB213941FFFFEF7F0000704149
:10387800144900080000E03F41A3D3E90023FCF706
:1038880083FC41A3D3E900230D460446FCF77CFCE6
:1038980002460B46CAE9002329462046FCF774FC79
:1038A80039A3D3E90023FCF76FFC0125CAE902011B
:1038B800F3E640464946FCF767FC394B6A1E8046EA
:1038C80053F82230BB4289463FF446AFCAE9008923
:1038D80087E72BA3D3E90023FCF758FC2AA3D3E9F5
:1038E80000230D460446FCF751FC02460B46CAE984
:1038F800002329462046FCF747FC23A3D3E90023ED
:10390800FCF744FC4FF0FF35CAE90201C5E6032382
:10391800A2E61FA3D3E90023DDE90601FCF7ECFDCD
:1039280006460F4602460B46DDE90801FCF72CFC6B
:103938008046894602460B46DDE90801CDE9028941
:10394800FCF722FC32463B46FCF71EFC12A3D3E9E7
:10395800002306460F46DDE90601FCF7CDFD324699
:103968003B46FCF711FC02460B4640464946CDE96A
:103978000423FCF709FC80468946A7E7AFF30080DB
:103988000000601A61B4D03D7370032E8A19A33BFE
:103998000000002E8A19A33BC14920259A837B3950
:1039A80094480008000000002DE9F04F57EC106B18
:1039B8002DED028BB0EE418AF0EE618A27F00049C6
:1039C800B9F1795F83B072DA10EE100A3946FDF763
:1039D8002DF8002800F0ED8032463B463046394647
:1039E800FCF78AFD7CA3D3E9002304460D46FCF7C7
:1039F80083FD7BA3D3E90023FCF7C8FB22462B46B3
:103A0800FCF77AFD78A3D3E90023FCF7BDFB224637
:103A18002B46FCF771FD76A3D3E90023FCF7B6FB30
:103A280022462B46FCF768FD73A3D3E90023FCF775
:103A3800ABFB22462B46FCF75FFD71A3D3E90023BD
:103A4800FCF7A4FB22462B46FCF756FD82468B4624
:103A58000022714B20462946FCF74EFD524680460F
:103A680089465B4620462946FCF746FD53EC182B51
:103A780004460D4630463946FCF73EFD02460B46E5
:103A880020462946FCF780FB02460B46404649463D
:103A9800FCF77AFB02460B4600206049FCF774FBF2
:103AA80041EC100B03B0BDEC028BBDE8F08F10EEBB
:103AB800102A10EE100A3B463946FCF71DFD46A3B6
:103AC800D3E9002304460D46FCF716FD44A3D3E9C9
:103AD8000023FCF75BFB22462B46FCF70DFD42A3B7
:103AE800D3E90023FCF750FB22462B46FCF704FDE4
:103AF8003FA3D3E90023FCF749FB22462B46FCF7FA
:103B0800FBFC3DA3D3E90023FCF73EFB22462B46F2
:103B1800FCF7F2FC3AA3D3E90023FCF737FB2B466A
:103B28002246FCF7E9FC3E4B994582468B468FDDE1
:103B38003C4B994544DC0022A9F500130020374985
:103B480090469946FCF720FBCDE900010022324B54
:103B580020462946FCF7D0FC42464B46FCF714FBAE
:103B68005246804689465B4620462946FCF7C4FCF7
:103B780053EC182B04460D4630463946FCF7BCFC7E
:103B880002460B4620462946FCF7FEFA02460B463B
:103B980040464946FCF7F8FA02460B46DDE90001C3
:103BA800FCF7F2FA41EC100B03B0BDEC028BBDE858
:103BB800F08F9FED150B03B0BDEC028BBDE8F08FC5
:103BC8009FED137B4FF000088DED007BDFF85890D8
:103BD800BCE700BFAFF30080D43888BEE9FAA8BDBF
:103BE800C4B1B4BD9EEE213EAD529C804F7E923E44
:103BF8009015CB19A001FA3E7751C1166CC1563FFA
:103C08004C5555555555A53F000000000000F03FA4
:103C1800000000000000E73F0000E03F0000F03F28
:103C28003233D33F0000E93F0000D23F00000000DC
:103C38002DE9F04FADF5197DC14CA29EC14D54F848
:103C480026600793D41E85FB0475E417C4EBA5040E
:103C580024EAE4741D46631CA3EB8303013D02EBD5
:103C6800C3030593731904960994019503900B9166
:103C7800A4EB05071AD43B44002400255E1C0DF173
:103C88008008DDF88C9208E059F82700FCF7CAFB99
:103C98000137B742E8E8020108D0002FF4DA01370B
:103CA80020462946B742E8E80201F6D1049B002BDA
:103CB800079B4FEAC30302932ADB039A20A902EB6E
:103CC800030801EB0309049B72AA02EBC30B0DF571
:103CD800E07A019B002B4FF000064FF0000711DB44
:103CE800039C4D4675E90223F4E80201FCF704FC45
:103CF80002460B4630463946FCF748FA4445064624
:103D08000F46EFD1EAE80267DA4509F10809E0D180
:103D1800DDE90204049920448B0082460BA8A3F134
:103D28000802C31808930CAB13440A938B4698AB4C
:103D380003EBCB03BBF1000F53E9284529DD70AB3A
:103D480003EBCB080DF1300900227F4B20462946B2
:103D5800FCF7D2FBFCF76AFEFCF764FB00227B4B06
:103D680006460F46FCF7C8FB02460B462046294686
:103D7800FCF70AFAFCF75AFE78E9022349F8040B23
:103D880039463046FCF702FA70AB984504460D46B2
:103D9800DAD1DDF8149045EC104B484600F0B0FC41
:103DA80055EC104B00224FF07F5310EE100A2946B5
:103DB800FCF7A2FB41EC100B00F01AFC002251ECBE
:103DC800100B634BFCF798FB02460B46204629462E
:103DD800FCF7DAF90D460446FCF728FE8046FCF7A6
:103DE80021FB0B46024629462046FCF7CDF94B46F7
:103DF800002B06460F4640F3E0800BF1FF320CA97A
:103E0800C9F1180351F8225045FA03F101FA03F3F6
:103E18000CA8EB1A40F82230C9F11705884443FA78
:103E280005F5002D2CDDBBF1000F08F1010840F36A
:103E380086820C9C002C40F0A680BBF1010F0AD0B2
:103E48000CA9012251F8044F531C002C40F09D800E
:103E58009B451A46F6D1059B002B0EDD012B00F081
:103E6800D880022B09D10BF1FF320CAB0CA953F807
:103E78002230C3F3150341F82230022D00F0AE8042
:103E88000022002330463946FCF79EFD002800F04A
:103E98005882049B0BF1FF394B4510DC0BF1804332
:103EA8000CAA013B089802EB8303002253F804197B
:103EB800834242EA0102F9D1002A40F0B580049B0E
:103EC8000CAA013B52F82330002B40F0A0800A9A3C
:103ED800012352F8041901330029FAD05B440BF18D
:103EE8000109994506934BDC099A079909EB0208E1
:103EF80001EB0B0508F1804802EB030BA39B08F1CB
:103F0800FF3803EB880870AB03EBC909A39B20A912
:103F180003EB8B0301EBC505029358F8040FFCF77C
:103F280081FA0B4601990246002905F1080BC5E9FB
:103F380000234FF000064FF000071BDB039C0BE04B
:103F4800604A0008ABAAAA2A0000703E000070412F
:103F58000000204075E90223F4E80201FCF7CCFADE
:103F680002460B4630463946FCF710F954450646DA
:103F78000F46EFD1029B9845E9E802675D46CCD130
:103F8800DDF818B0D3E6012300220CA9C4F180742F
:103F98009B4541F822400EDD51F8232001EB8B00B0
:103FA80001EB83036FF07F4100E01A688A1A43F837
:103FB800042B8342F9D101244DE706D10BF1FF33DD
:103FC8000CAA52F82350ED152BE700227E4BFCF784
:103FD80019FD002840F0A981054651E732463B46C5
:103FE80000207A49FCF7D0F806460F46002C3FF42B
:103FF80047AF05989FED700B00F082FB30463946BD
:1040080053EC102BFCF7C0F806460F4638E701239F
:1040180064E70BF1FF320CAB0CA953F82230C3F361
:10402800160341F8223028E70CAB059A53F82930DB
:10403800183ACDE9068505926BB909F18043013B31
:104048000CA901EB830353F8041909F1FF39183A55
:104058000029F8D0059205989FED570B00F050FB0A
:10406800B9F1000F55EC104BC0F2C9814FEAC903F2
:1040780070AA02EB030808930CAB03EB8906DFF880
:1040880050B14FF0000A08F10807043656F8040D3D
:10409800FCF7C8F922462B46FCF72EFA5B4667E97F
:1040A8000201524620462946FCF726FA0CAB9E42EE
:1040B80004460D46EAD148AB03930193CDF814901A
:1040C80009F10103DDF810900293C3464FF0000A8E
:1040D800B9F1000FC0F23081DFF8F8805D4638A3EF
:1040E800D3E9002300260027002403E0544510DC10
:1040F800F8E80223F5E80201FCF7FEF902460B4650
:1041080030463946FCF742F80134A14506460F46C9
:10411800ECDA019BE3E802670193029B0AF1010ACA
:104128009A45ABF1080BD3D1A29BDDF81490032B71
:1041380039D8DFE813F0DF0006000600530048AB6B
:104148000393B9F1000F4FF000004FF0000109DBB5
:10415800039D05EBC904083474E90223FCF716F83B
:10416800A542F9D1079B002B40F027810B9BC3E99F
:1041780000010B4603990246D1E90001FCF704F857
:10418800B9F1000F0CDD4AAD01240134F5E8022332
:10419800FBF7FCFFA145F8DA079B002B40F01D81D7
:1041A8000B9BC3E90201069B03F007000DF5197D7F
:1041B800BDE8F08FAFF30080000000000000F03F82
:1041C80000000040FB21F93F0000E03F0000F03F05
:1041D8000000703E284A000848AB0393B9F1000F6D
:1041E80040F32981039ACDF810904FEAC90301934F
:1041F800D318D3E900AB09F10053013B02EBC9081E
:104208000293914678E9026752465B463046394642
:10421800FBF7BCFF04460D4602460B4630463946BE
:10422800FBF7B2FF52465B46FBF7B0FFC145A2461B
:10423800AB46C8E90201C8E90045E3D1DDF81090B2
:10424800B9F1010F40F3F780019B039A02991344D7
:10425800C900D3E9006701F1080A019192440DF5FC
:10426800947B7AE9028932463B4640464946FBF749
:104278008DFF04460D4602460B4640464946FBF76D
:1042880083FF32463B46FBF781FFD34526462F4640
:10429800CAE90201CAE90045E3D1019C039B103435
:1042A800002000211C4403F1100574E90223FBF7E8
:1042B8006DFFA542F9D1039C079ED4E90023D4E9F8
:1042C8000245002E00F08D8003F1004701F1004304
:1042D8000B99C1E90403069B2646944605F1004460
:1042E80003F00700C1E900C7C1E902640DF5197DB3
:1042F800BDE8F08F089C039D0834002000212C4461
:1043080074E90223FBF742FFA542F9D1079B13B1D9
:1043180001F1004319460B9BC3E90001069B03F01A
:1043280007000DF5197DBDE8F08FBBF1000F08F10E
:10433800010876DD02257CE500260027E9E6002451
:1043480089E5CDE90685059D47EC106B684200F0CC
:10435800D7F957EC106B0022384B10EE100A39468B
:10436800FCF750FB00B30022354B30463946FCF7CA
:10437800C3F8FCF75BFB0446FCF754F800222F4B0C
:10438800FCF7BAF80B46024639463046FBF7FCFE06
:10439800FCF74CFB0BF101090CAB183543F82B006B
:1043A800059543F8294056E630463946FCF73EFB6A
:1043B8000CABD94643F82B004DE60B9C01F10043AA
:1043C800C4E900030B4603990246D1E90001FBF753
:1043D800DBFEB9F1000F3FF7D6AE01F100431946F5
:1043E800DEE60B9EC6E90023069BC6E9040103F03E
:1043F8000700C6E902450DF5197DBDE8F08FA29BBF
:10440800032B3FF6D0AE01A252F823F02544000852
:104418004741000847410008E14100080020002109
:1044280074E732463B4600200649FBF7ADFE0225FD
:1044380006460F4624E5002000213CE700007041B5
:104448000000703E0000F03F2DE9F04F55EC104B96
:104458002DED028BB0EE418AF0EE618A25F0004323
:10446800B3F1795F83B0824607DA10EE100A294665
:10447800FCF7DCFA002800F08E8022462B46204606
:104488002946FCF739F806460F4602460B462046F1
:104498002946FCF731F847A3D3E90023804689462B
:1044A80030463946FCF728F844A3D3E90023FBF744
:1044B8006BFE32463B46FCF71FF842A3D3E90023C4
:1044C800FBF764FE32463B46FCF716F83FA3D3E9F8
:1044D8000023FBF759FE32463B46FCF70DF83DA397
:1044E800D3E90023FBF752FECDE90001BAF1000F32
:1044F80037D000222E4B51EC180BFBF7FDFFDDE9FE
:10450800002382468B4640464946FBF7F5FF0246A4
:104518000B4650465946FBF737FE32463B46FBF7FB
:10452800EBFF53EC182BFBF72FFE1FA3D3E9002357
:1045380006460F4640464946FBF7DEFF02460B4655
:1045480030463946FBF722FE02460B4620462946EE
:10455800FBF71AFE41EC100B03B0BDEC028BBDE873
:10456800F08F02460B4630463946FBF7C5FF0EA3CF
:10457800D3E90023FBF708FE42464B46FBF7BCFF96
:1045880022462B46FBF702FE41EC100B03B0BDECB4
:10459800028BBDE8F08F45EC104B03B0BDEC028BED
:1045A800BDE8F08FAFF30080495555555555C53FC7
:1045B8000000E03F7CD5CF5A3AD9E53DEB9C2B8AE9
:1045C800E6E55A3E7DFEB157E31DC73ED561C119E8
:1045D800A0012A3FA6F810111111813F51EC100BD0
:1045E80010EE102A21F0004343EC102B704700BF57
:1045F80051EC100BC1F30A532DE9F041A3F2FF353A
:10460800132D0C460F4610EE106A1DDC002D3DDB05
:10461800394B43FA05F801EA0803034319D034A3D8
:10462800D3E90023FBF7B2FD00220023FCF7F4F9DD
:10463800D0B3002C04DA4FF4801343FA05F52F4465
:1046480027EA080400262FE0332D06DDB5F5806F34
:1046580030D041EC100BBDE8F081A3F213434FF0CA
:10466800FF3828FA03F818EA000FF2D020A3D3E99C
:104678000023FBF78BFD00220023FCF7CDF998B14E
:10468800002C28DB26EA08063C460DE018A3D3E9EF
:104698000023FBF77BFD00220023FCF7BDF918B1CE
:1046A800002C0FDB002634462346324643EC102B01
:1046B800BDE8F08110EE102A0B46FBF767FD41ECD0
:1046C800100BC8E724F000430C4A1E43002E18BF05
:1046D80014460026E8E7142D08D00123C5F1340557
:1046E80003FA05F5AE1928BFFF18CBE70137C9E76C
:1046F8009C7500883CE4377EFFFF0F000000F0BF88
:1047080038B553EC102BC3F30A511C46054629BB98
:1047180010EE101A23F0004421431ED0194600223F
:10472800394B3A4C10EE100AFBF7E6FEA54202465A
:104738000B4636DB0C46C1F30A513639294440F2A0
:10474800FE70814235DC002914DD24F0FF4424F496
:10475800E00444EA015343EC102B38BD40F2FF70EB
:104768008142EBD110EE100A1946FBF70FFD41EC20
:10477800100B38BD11F1350F1EDA4CF250318D4255
:1047880043EC112B28DD9FED1C0B00F043F81AA316
:10479800D3E9002351EC100BFBF7AEFE41EC100BF4
:1047A80038BD17A3D3E90023FBF7A6FE41EC100B95
:1047B80038BD43EC112BE6E724F0FF4424F4E00471
:1047C800363144EA0153104619460022104BFBF7D4
:1047D80093FE41EC100B38BD9FED090B00F01AF861
:1047E80007A3D3E9002351EC100BFBF785FE41EC3E
:1047F800100B38BDAFF300809C7500883CE4377E11
:1048080059F3F8C21F6EA50100005043B03CFFFFEA
:104818000000903C53EC102B11EE900A23F000415D
:1048280000F0004041EA000343EC102B704700BF42
:10483800F8B500BFF8BC08BC9E467047F8B500BF85
:08484800F8BC08BC9E46704755
:104850005372632F6D61696E2E63000000000000CB
:104860000000000001020304060708090000000020
:104870000102030402030405060708090A0B0C0DD4
:104880000E0F10100102030405060708090A0B0C9D
:104890000D0E0F10FB21F93FFB2109407CD912407E
:1048A000FB2119407A6A1F407CD92240BBFD25407C
:1048B000FB2129403A462C407A6A2F405C47314020
:1048C0007CD932409C6B3440BBFD3540DB8F374098
:1048D000FB2139401BB43A403A463C405AD83D404F
:1048E0007A6A3F404C7E40405C4741406C104240F9
:1048F0007CD942408CA243409C6B4440AC34454040
:10490000BBFD4540CBC64640DB8F4740EB58484097
:10491000FB21494083F9A200444E6E00FC2915009A
:10492000D1572700DD34F50062DBC0003C999500CB
:10493000419043006351FE00BBDEAB00B761C50090
:104940003A6E2400D24D42004906E00009EA2E00EA
:104950001C92D100EB1DFE0029B11C00E83EA7000F
:10496000F535820044BB2E009CE98400B42670001B
:10497000417E5F00D6913900538339009CF43900A1
:104980008B5F840028F9BD00F81F3B00DEFF970015
:104990000F980500112FEF000A5A8B006D1F6D0054
:1049A000CF7E360009CB2700464FB7009E663F00FA
:1049B0002DEA5F00BA277500E5EBC7003D7BF100EB
:1049C000F739070092528A00FB6BEA001FB15F00C3
:1049D000085D8D00300356007BFC4600F0AB6B0099
:1049E00020BCCF0036F49A00E3A91D005E6191005F
:1049F000081BE60085996500A0145F008D406800E3
:104A000080D8FF0027734D0006063100CA561500F6
:104A1000C9A873007BE260006B8CC000000000003E
:104A200000000040FB21F93F000000002D44743ECF
:104A3000000000809846F83C0000006051CC783BB4
:104A400000000080831BF0390000004020257A38E8
:104A5000000000802282E336000000001DF369356B
:104A60000200000003000000040000000600000037
:044A7000890B0008A6
:044A7400650B0008C6
:044A780000127A00AE
:040000050800333D7F
:00000001FF
