:020000040800F2
:1000000000800120251F0008751F0008751F0008CB
:10001000751F0008751F0008751F0008000000000C
:10002000000000000000000000000000751F000834
:10003000751F000800000000751F00081903000864
:10004000751F0008751F0008751F0008751F000840
:10005000751F0008751F0008751F0008751F000830
:10006000751F0008751F0008751F0008751F000820
:10007000751F0008751F0008751F0008751F000810
:10008000751F0008751F0008751F0008000000009C
:10009000000000000000000000000000751F0008C4
:1000A000751F0008751F0008751F0008751F0008E0
:1000B000751F0008751F0008751F0008751F0008D0
:1000C000751F0008751F0008751F0008751F0008C0
:1000D000751F000825030008751F000800000000B8
:1000E000751F0008751F0008751F0008000000003C
:1000F000000000000000000000000000751F000864
:1001000000000000751F0008751F0008751F00081B
:1001100000000000000000000000000000000000DF
:10012000751F0008751F0008751F0008751F00085F
:10013000751F000800000000000000000000000023
:10014000000000000000000000000000751F000813
:10015000751F0008751F0008751F0008751F00082F
:10016000751F0008751F0008000000000000000057
:10017000000000000000000000000000000000007F
:1001800000000000751F00080000000000000000D3
:04019000751F0008CF
:1001940053B94AB9002908BF00281CBF4FF0FF31EA
:1001A4004FF0FF3000F00CB8ADF1080C6DE904CE4F
:1001B40001F00FFFDDF804E0DDE9022304B070472D
:1001C400704700BF10B5054C227832B9044B13B107
:1001D4000448AFF300800123237010BD0400002005
:1001E400000000008C22000808B5034B1BB1034932
:1001F4000348AFF3008008BD0000000008000020A1
:100204008C22000808B5072000F09EFE002211464B
:100214006FF00B0000F0AAFE002211466FF00A00F6
:1002240000F0A4FE002211466FF0090000F09EFECB
:10023400002211466FF0040000F098FE00221146DF
:100244006FF0030000F092FE002211466FF00100EF
:1002540000F08CFE002211464FF0FF3000F086FEC5
:1002640008BD00000268164B9A4200D0704710B5D2
:1002740086B00024009403F594335A6C42F01002C3
:100284005A645B6C03F010030093009B4FF4C0634B
:10029400019302230293012303930323049307236B
:1002A400059301A9074800F077FD22462146252041
:1002B40000F05CFE252000F08DFE06B010BD00BFEE
:1002C40000100140000002400F49D1F8883043F487
:1002D4007003C1F888300D4B1A6842F001021A60AD
:1002E400002098601A6822F0847222F480321A6026
:1002F400074A5A601A6822F480221A60D8604FF0C4
:1003040000638B60704700BF00ED00E000380240DE
:100314001030002408B501F0D5FA00F08EFE08BDB7
:1003240008B5024801F006FA08BD00BF9800002095
:1003340008B513460A460146034801F0BFF80030E9
:1003440018BF012008BD00BF9800002008B5B0FA0E
:1003540080F252094FF40071014800F0EFFD08BD2E
:100364000008024008B513460A460146034801F056
:1003740015F9003018BF012008BD00BF9800002007
:1003840008B501F0ADFA08BD2DE9F0418AB00024AA
:100394000094494B1A6B42F004021A631A6B02F080
:1003A40004020092009A01941A6B42F080021A63CC
:1003B4001A6B02F080020192019A02941A6B42F0C5
:1003C40001021A631A6B02F001020292029A039468
:1003D4001A6B42F002021A631A6B02F002020392D1
:1003E400039A04941A6B42F008021A631B6B03F01D
:1003F40008030493049B314F22462021384600F021
:100404009DFD2F4E22464FF40071304600F096FDBC
:100414004FF4005305932B4B0693079405A93046DC
:1004240000F0BAFC41F6FF530593032506950794A3
:1004340005A9304600F0B0FC49F6D31305930695A0
:10044400079405A9384600F0A7FC0C230593022362
:100454000693079408940723099305A9384600F0E6
:100464009BFC202305934FF00108CDF818800794D6
:10047400089405A9384600F08FFC4FF2F7730593F2
:100484000695079405A9104800F086FC4FF4007304
:100494000593CDF818800794089405A9304600F018
:1004A4007BFC042305930695079405A9074800F0EF
:1004B40073FC0AB0BDE8F08100380240000002403D
:1004C400000802400000211000040240000C024019
:1004D400FEE7000008B50A480A4B03600A4B436074
:1004E40000238360C36003610C2242618361C361A2
:1004F40000F0B5FF00B908BDEC210448FFF7E8FFA0
:10050400980000200010014040420F00BC24000865
:1005140000B595B0002201922A4B196C41F080512C
:1005240019641B6C03F080530193019B02922649CA
:100534000B6823F4404343F400430B600B6803F45B
:1005440040430293029B0221089101230B93102341
:100554000C930E910F9210934FF4A87311930423EC
:1005640012930723139308A801F0CCF908BB0F23B7
:10057400039302210491002305934FF480520692C1
:10058400079303A801F0E6FBB8B901F08FFC0F4B09
:10059400A3FB0030800900F029FD042000F03CFD9D
:1005A400002211464FF0FF3000F0E0FC15B05DF87A
:1005B40004FBC1210648FFF78BFFCF210448FFF756
:1005C40087FF00BF0038024000700040D34D621026
:1005D400BC24000800B585B001F05AF9FFF798FF74
:1005E400FFF7D2FEFFF776FF1A4C1B4B23601B4B21
:1005F400A3601B4B63601B4BE3604FF47A7001F004
:100604006FF9002504AB23F80A5D022202A92046F3
:1006140000F03AFA02A800F075FB012102A800F0EC
:1006240050FB294602A800F015FB294602A800F059
:1006340027FB012102A800F0A3FA012102A800F07F
:1006440035FB01232A4640F2FF3102A800F084FB67
:10065400FEE700BF30000020350300085103000806
:100664006903000885030008C3681A78FF2A00D0CC
:1006740070470133C360014B0360F9E78506000846
:10068400C3681A78FF2A04D0044B03608368C360EC
:1006940070470133C360024B036070476D06000866
:1006A400A9060008C3681A78FD2A04D0044B036025
:1006B4008368C36070470133C360024B03607047B3
:1006C4006D060008CD060008C3681A78FD2A04D018
:1006D4000133C360034B03607047034B03608368BB
:1006E400C3607047F10600086D060008C3681A78F5
:1006F400FF2A06D0FD2A04D00133C360034B0360F4
:100704007047034B03608368C36070471907000890
:100714006D060008C36813F8012B8280C360014B87
:10072400036070472D070008C2681178838843EA84
:1007340001238380032B02D90733202B04DD054BCF
:1007440003608368C36070470132C260024B036078
:10075400704700BF6D06000861070008C3681A7877
:10076400552A04D0064B03608368C36070478288AF
:10077400013A82800133C360024B0360704700BFBB
:100784006D0600088D070008C3680133C3608388C1
:10079400013B9BB283800BB90123037470470000B3
:1007A40070B5ADF5007D04460E4615464FF4007253
:1007B4000A49684601F002FC002309E0F25C82EA7F
:1007C40014223DF9122082EA0424A4B201339BB21C
:1007D400AB42F3D320460DF5007D70BDA422000882
:1007E400F8B505460C468B1813F8013C023A8E18EE
:1007F4008F5C47EA032792B20020FFF7D1FF8742BC
:1008040005D01A4B4FF480721A800120F8BD237969
:100814002B70237A6B70E01D04F109020023AB7086
:1008240007E0124B4FF480721A800120EEE701308A
:100834000A46964218D0511CAB785C1CAC701478F4
:100844002B44DC700B1A032BF2D10378FF2BEED16F
:100854004378FF2BEBD18378FD2BE8D15378FD2B24
:10086400DFD1901C0146E3E70020CFE72000002001
:10087400F8B520292ED817460D4604468368012072
:100884009847204B23610023A38204F12406A66128
:10089400E66184F8203063683A4629463046984732
:1008A400E0B9204650F8103F9847E369A2699342A3
:1008B40003D094F820100129F3D194F8201099B1B1
:1008C4009B1A9BB29D4215D00F4B4FF480721A8035
:1008D400012008E001200C4B188004E00A4B40F290
:1008E40001121A800120F8BD074B4FF480721A8060
:1008F4000120F8E72A46314604F14400FFF770FF6F
:10090400F1E700BF6D0600082000002028B302466E
:100914004368FBB109B31378FD2B22D0FF2B20D001
:1009240070B5937803F10A00294CA4FB034300EB50
:100934005303202B19DCFF230B704B70FD238B70AA
:100944000023CB7010780871CD1D01F10804507894
:10095400C87112E08378002BDCD000201D4B188076
:10096400704700201B4B188070471A4B01221A80D5
:1009740000202CE00135013304469078984214DDC0
:100984005668601CF65C2670461B032EF3D12E7845
:10099400FF2EEFD16E78FF2EECD1AE78FD2EE9D18B
:1009A400A01CFD2565700546E5E70D46621A92B266
:1009B400531F9BB24B711B0A8B710020FFF7F0FE93
:1009C400234603F8020B000A6070581BC0B270BDC6
:1009D400ABAAAAAA20000020F8B504460846174688
:1009E40004F124052946FFF791FF88B10646A36860
:1009F4000020984723683A46B1B228469847012810
:100A040001D00020F8BD034B40F201121A80F9E72F
:100A14000120F7E720000020436893F8453013F0E5
:100A24003F0305D043F40073024A1380012070474A
:100A34000020704720000020F0B110B582B00446B9
:100A440003788DF8003001228DF8012000238DF801
:100A54000230019369464068FFF7BEFF012809D0C0
:100A640001220E216068FFF703FF012802D020460F
:100A7400FFF7D2FF02B010BD024B00221A80012002
:100A8400704700BF2000002070B582B00E461546A6
:100A94001C460190002323808DF8003004E09DF86B
:100AA400003001338DF800309DF80030FC2B13D852
:100AB4002288ABB29A420FD26846FFF7BDFF0028E6
:100AC400EDD123885A1C228006EBC30302AA12E943
:100AD400030083E80300E2E72088B0FA80F04009CD
:100AE40002B070BD1E2904D9224B00221A800120B5
:100AF400704770B584B01546044603788DF8083005
:100B040002238DF8093004238DF80A301A4B5B5CFC
:100B14008DF8043000238DF80530184A565C8DF8A2
:100B240006608DF8073001AB0393012202A94068E7
:100B3400FFF752FF012813D0012206F10B01606870
:100B4400FFF796FE01280BD02046FFF765FF01282A
:100B540006D0636893F847302B80022E02D0002021
:100B640004B070BD626892F8482043EA02232B80E7
:100B74000020F5E720000020C8240008E82400082D
:100B8400024B00221A800120704700BF2000002081
:100B940008B50A461E21FFF7A5FF08BD436893F870
:100BA4004530DB0901D10020704700B583B00DF159
:100BB4000601FFF7EDFF012805D0BDF8063043F428
:100BC4008063034A1380012003B05DF804FB00BF77
:100BD4002000002038B59DF8105088B304461E2923
:100BE40030D81948405C19490870002048708A7050
:100BF400120ACA702178164A1170FDB103221449F1
:100C04004A7002338B70114B4B6001226068FFF70E
:100C1400E3FE012817D001220B216068FFF728FEAC
:100C2400012810D02046FFF7B9FF01280BD0204639
:100C3400FFF7F2FE012806D0002004E00422DEE7DC
:100C4400012000E0012038BDC82400082C00002049
:100C540024000020B1F5806F04D3084B00221A80D1
:100C64000120704700B583B00A4601230093022394
:100C74000321FFF7AFFF03B05DF804FB2000002061
:100C8400B1F5806F04D3084B00221A80012070470D
:100C940000B583B00A460123009302230421FFF721
:100CA40099FF03B05DF804FB2000002000B583B079
:100CB400009101231A460E21FFF78CFF03B05DF863
:100CC40004FB00B583B00091012300220E21FFF73D
:100CD40081FF03B05DF804FB072904D9084B002207
:100CE4001A800120704700B583B013460A4600936A
:100CF40001230F21FFF76EFF03B05DF804FB00BF73
:100D04002000002070B50446FFF796FE012822D08B
:100D1400636893F8453013B90226002517E00126CD
:100D2400FBE7012231462046FFF7D6FF6368DB6804
:100D34004FF4FA709847012200212046FFF7CCFFB8
:100D44006368DB684FF4FA7098470135EDB2237895
:100D5400AB42E6D8002070BDB1F5806F07D25AB11E
:100D6400012A0CD00B4B00221A8001207047094B3A
:100D740000221A800120704701F5806189B200B514
:100D840083B0009302230A461421FFF723FF03B024
:100D94005DF804FB2000002000230F2B00F2C58027
:100DA400F0B482B039E0042200E00022B2403A43B9
:100DB40002345E4E46F824205D4A1468EA4302EA8F
:100DC40004064F6817F4803F01D045EA0406584CE6
:100DD4002660646802EA04064F6817F4003F01D0F5
:100DE40045EA0406524C6660A46802EA04064F68A9
:100DF40017F4801F01D045EA04064D4CA660E46850
:100E040022404E6816F4001F01D045EA0402484C03
:100E1400E26001330F2B00F2858001229A400C68B6
:100E240004EA0205AA42F4D14C68022C01D0122C27
:100E340010D1DE08083650F826C003F00704A700D6
:100E44000F24BC402CEA040C0C69BC4044EA0C049A
:100E540040F8264004685F000326BE40F64306EAD5
:100E6400040C4C6804F00304BC4044EA0C04046021
:100E74004C6804F1FF3CBCF1010F03D9112C01D0E3
:100E8400122C10D1846806EA040CCC68BC4044EAF5
:100E94000C048460446824EA02024C68C4F300141D
:100EA4009C4014434460C26816408A68BA40324386
:100EB400C2604A6812F0805FABD0002201921D4AE2
:100EC400546C44F480445464526C02F480420192A1
:100ED400019A9C08A61C154A52F8267003F00302D6
:100EE40096000F22B24027EA0207134A90423FF4C9
:100EF4005CAF02F5806290420ED002F580629042AF
:100F04000CD002F5806290420AD002F580629042D1
:100F14003FF449AF072249E7012247E7022245E7A8
:100F2400032243E702B0F0BC704770470038014029
:100F3400003C0140003802400000024012B909049C
:100F44008161704781617047074AD36823F4E06385
:100F54001B041B0C000200F4E060184340F0BF6067
:100F640040F40030D060704700ED00E030B4174B1F
:100F7400DB68C3F30223C3F10704042C28BF042451
:100F84001D1D062D18D9033B4FF0FF3505FA04F457
:100F940021EA0401994005FA03F322EA0303194301
:100FA40000280BDB0901C9B200F1604000F5614083
:100FB40080F8001330BC70470023E5E700F00F0011
:100FC4000901C9B2024B1954F4E700BF00ED00E077
:100FD40014ED00E000F01F02400901239340024A8F
:100FE40042F82030704700BF00E100E00138B0F162
:100FF400807F0AD2064B5860064AF02182F82310FB
:101004000020986007221A6070470120704700BFD3
:1010140010E000E000ED00E0042805D0054A136864
:1010240023F0040313607047024A136843F0040377
:101034001360704710E000E0704708B5FFF7FCFF4D
:1010440008BD0268D36823F49073D36002685369BF
:1010540023F001035361202380F83A30704790F85D
:101064003930DBB2212B2AD18368B3F5805F16D0E7
:10107400036A5A1C02621A7803685A60C38C013BE3
:101084009BB2C384EBB90268D36823F08003D360B6
:101094000268D36843F04003D36000207047036ABA
:1010A4001B880268C3F30803536003691BB9036A0E
:1010B40002330362E2E7036A01330362DEE70220DC
:1010C40070470020704700002DE9F843044601688A
:1010D4000A6922F44052C36813430B610168CA6869
:1010E40022F4164222F00C0283680069034360690B
:1010F4000343E06903431343CB6021684A6922F444
:101104004072A36913434B61E369B3F5004F60D0A8
:101114002368B84A934200F0148102F58062934236
:1011240000F00F8100F0C8FE00EB800000EB8000AF
:101134006568AD00B0FBF5F5AF4FA7FB05356D094C
:101144002E0100F0B9FE00EB800000EB8000656822
:10115400AD00B0FBF5F900F0AFFE00EB800000EB52
:1011640080006568AD00B0FBF5F5A7FB05356D099A
:101174004FF0640808FB15952D013235A7FB0535A2
:101184006D0905F0F005354400F096FE00EB800093
:1011940000EB80006668B600B0FBF6F600F08CFE4B
:1011A40000EB800000EB800063689B00B0FBF3F071
:1011B400A7FB0030400908FB10684FEA081808F143
:1011C4003208A7FB0837C7F3431723682F449F60EF
:1011D4000DE12368874A93425BD002F58062934213
:1011E40057D000F069FE00EB800000EB80006568DA
:1011F4006D00B0FBF5F5804FA7FB05356D092E0199
:1012040000F05AFE00EB800000EB800065686D0082
:10121400B0FBF5F900F050FE00EB800000EB80001D
:1012240065686D00B0FBF5F5A7FB05356D094FF05A
:10123400640808FB1595ED003235A7FB05356D09EB
:101244006D0005F4F875354400F036FE00EB8000BF
:1012540000EB800066687600B0FBF6F600F02CFE2A
:1012640000EB800000EB800063685B00B0FBF3F3ED
:10127400A7FB03235B0908FB13684FEAC80808F1BE
:101284003208A7FB0837C7F3421723682F449F602F
:10129400ADE000F021FE00EB800000EB800065680B
:1012A4006D00B0FBF5F5544FA7FB05356D092E0114
:1012B40000F012FE00EB800000EB800065686D001A
:1012C400B0FBF5F900F008FE00EB800000EB8000B5
:1012D40065686D00B0FBF5F5A7FB05356D094FF0AA
:1012E400640808FB1595ED003235A7FB05356D093B
:1012F4006D0005F4F875354400F0EEFD00EB800058
:1013040000EB800066687600B0FBF6F600F0E4FDC2
:1013140000EB800000EB800063685B00B0FBF3F33C
:10132400A7FB03235B0908FB13684FEAC80808F10D
:101334003208A7FB0837C7F3421723682F449F607E
:1013440055E000F0C9FD00EB800000EB800065680B
:10135400AD00B0FBF5F5284FA7FB05356D092E014F
:1013640000F0BAFD00EB800000EB80006568AD0082
:10137400B0FBF5F900F0B0FD00EB800000EB80005D
:101384006568AD00B0FBF5F5A7FB05356D094FF0B9
:10139400640808FB15952D013235A7FB05356D0949
:1013A40005F0F005354400F097FD00EB800000EBFC
:1013B40080006668B600B0FBF6F600F08DFD00EB29
:1013C400800000EB800063689B00B0FBF3F0A7FB98
:1013D4000030400908FB10684FEA081808F1320889
:1013E400A7FB0837C7F3431723682F449F60BDE862
:1013F400F88300BF001001401F85EB512DE9F04137
:1014040005460F4616469846069C2B681B6837EA25
:1014140003030CBF01230023B3421DD1B4F1FF3FEA
:10142400F3D02CB100F056FAA0EB0800A042ECD99E
:101434002A68D36823F4D073D3602A68536923F0ED
:1014440001035361202385F8393085F83A300023AD
:1014540085F83830032000E00020BDE8F08158B35F
:1014640010B5044690F839300BB3242384F839308E
:101474002268D36823F40053D3602046FFF724FE88
:101484002268136923F4904313612268536923F09B
:101494002A0353612268D36843F40053D3600020C5
:1014A400E063202384F8393084F83A3010BD80F8A2
:1014B4003830FEF7D7FED8E7012070472DE9F04118
:1014C40082B01E4690F83930DBB2202B55D1044649
:1014D4000D469046002955D0002A55D090F8383052
:1014E400012B53D0012380F838300023C363212318
:1014F40080F8393000F0EEF90746A4F82480A4F807
:10150400268010E000963B46002280212046FFF70B
:1015140075FF00283CD12B882268C3F3080353606D
:101524002369C3B90235E38C9BB2B3B1E38C013BAD
:101534009BB2E384A368B3F5805FE3D000963B4697
:10154400002280212046FFF759FF18BB2A78236820
:101554005A600135E7E70135E5E700963B4600228E
:1015640040212046FFF74AFF0346A8B9202284F809
:101574003920002284F8382000E00223184602B003
:10158400BDE8F0810123F9E70123F7E70223F5E73A
:101594000323F3E70323F1E70323EFE72DE9F04106
:1015A40082B01E4690F83A30DBB2202B5AD1044662
:1015B4000D469046002959D0002A59D090F8383069
:1015C400012B57D0012380F838300023C363222332
:1015D40080F83A3000F07EF90746A4F82C80A4F88D
:1015E4002E801DE000963B46002220212046FFF776
:1015F40005FF002840D1236933B923685B68C3F32E
:10160400080325F8023B0BE023685B68DBB225F88E
:10161400013B05E023685B6803F07F032B70013511
:10162400E38D9BB2BBB1E38D013B9BB2E385A36821
:10163400B3F5805FD6D000963B4600222021204699
:10164400FFF7DCFED0B92369002BE3D123685B6884
:101654002B700135E4E7202384F83A30002084F825
:10166400380000E0022002B0BDE8F0810120FAE772
:101674000120F8E70220F6E70320F4E70320F2E76D
:10168400704708B50168CB6823F04003CB60202382
:1016940080F83930FFF7F4FF002008BD704708B523
:1016A40090F83A30DBB2222B40D18368B3F5805FE7
:1016B4000ED0036903BB03685A68836A591C8162AC
:1016C4001A70C38D013B9BB2C385F3B100202EE099
:1016D400826A036943B903685B68C3F30803138030
:1016E400836A02338362ECE703685B68DBB21380CE
:1016F400836A01338362E4E703685B68826A511C8E
:10170400816203F07F031370DBE70268D36823F47C
:101714009073D3600268536923F00103536120235B
:1017240080F83A30FFF7BAFF002000E0022008BD3D
:101734007047000010B5044602681368D168526906
:1017440013F00F0005D113F0200F02D011F0200F79
:1017540053D1002867D012F0010202D111F4907F16
:1017640061D013F0010F06D011F4807F03D0E06B39
:1017740040F00100E06313F0040F04D01AB1E06BF1
:1017840040F00200E06313F0020F04D01AB1E06BE2
:1017940040F00400E06313F0080F04D01AB1E26BC8
:1017A40042F00802E263E26B002A48D013F0200FF3
:1017B40002D011F0200F24D123685B6903F04003A9
:1017C400E26B12F0080F00D13BB32046FFF739FC5F
:1017D40023685A6912F0400F1BD05A6922F0400264
:1017E4005A61636B8BB11A4A1A65606B00F084FB13
:1017F40028B3606B036D984721E02046FFF74FFF45
:101804001DE02046FFF74BFFD6E72046FFF790FF89
:1018140015E02046FFF78CFF11E02046FFF788FF14
:101824000023E3630BE013F0800F02D011F0800F6C
:1018340006D113F0400F02D011F0400F04D110BDB7
:101844002046FFF70CFCFAE72046FFF71AFFF6E7FD
:101854005918000808B5806B0023C385C384FFF7BB
:1018640067FF08BD10B50446074B1868074BA3FB78
:1018740000308009FFF7BAFB002221464FF0FF3009
:10188400FFF774FB002010BD00000020D34D621050
:1018940008B50B4B1A6842F400721A601A6842F4D5
:1018A40080621A601A6842F480721A600320FFF79B
:1018B4004BFB0020FFF7D6FFFEF7A4FC002008BD79
:1018C400003C0240024A136801331360704700BFB2
:1018D400D8000020014B1868704700BFD8000020D2
:1018E40030B583B00190FFF7F5FF0546019CB4F1D4
:1018F400FF3F00D00134FFF7EDFF401BA042FAD3B5
:1019040003B030BD002800F0AB8130B583B004468D
:10191400036813F0010F3BD0A74B9B6803F00C0343
:10192400042B2CD0A44B9B6803F00C03082B21D070
:101934006368B3F5803F4FD0B3F5A02F52D09E4BD0
:101944001A6822F480321A601A6822F480221A601B
:101954006368002B50D0FFF7BDFF0546964B1B680C
:1019640013F4003F14D1FFF7B5FF401B6428F5D9E9
:1019740003207AE1904B5B6813F4800FD8D08E4B30
:101984001B6813F4003F03D06368002B00F06A81E6
:10199400236813F0020F55D0874B9B6813F00C0F8C
:1019A4003ED0854B9B6803F00C03082B33D0E368CF
:1019B400002B68D0814B01221A60FFF78BFF05468C
:1019C4007D4B1B6813F0020F54D1FFF783FF401BBC
:1019D4000228F5D9032048E1774A136843F4803399
:1019E4001360B5E7744B1A6842F480221A601A68CF
:1019F40042F480321A60ABE7FFF76CFF05466E4B8A
:101A04001B6813F4003FC3D0FFF764FF401B642836
:101A1400F5D9032029E1684B5B6813F4800FC6D124
:101A2400654B1B6813F0020F04D0E368012B01D04F
:101A340001201AE1604A136823F0F803216943EA9C
:101A4400C1031360236813F0080F40D0636963B3C4
:101A54005B4B01221A60FFF73DFF0546564B5B6F57
:101A640013F0020F33D1FFF735FF401B0228F5D9DD
:101A74000320FAE0504A136823F0F803216943EA8B
:101A8400C1031360DEE74D4B00221A60FFF722FF0B
:101A94000546494B1B6813F0020FD3D0FFF71AFF1A
:101AA400401B0228F5D90320DFE0454B00221A60D1
:101AB400FFF710FF0546404B5B6F13F0020F06D093
:101AC400FFF708FF401B0228F5D90320CDE0236867
:101AD40013F0040F1FD1A369002B00F0C580364A10
:101AE400926802F00C02082A00F0C180022B7FD019
:101AF400344B00221A60FFF7EDFE04462E4B1B68A0
:101B040013F0007F00F0AA80FFF7E4FE001B022818
:101B1400F4D90320A9E000230193274B1A6C42F067
:101B240080521A641B6C03F080530193019B264A74
:101B3400136843F480731360FFF7CCFE0546224B11
:101B44001B6813F4807F06D1FFF7C4FE401B0228F4
:101B5400F5D9032089E0A368012B1DD0052B21D0E2
:101B6400154B1A6F22F001021A671A6F22F0040251
:101B74001A67A36853B3FFF7ADFE05460E4B1B6F00
:101B840013F0020FA7D1FFF7A5FE401B41F28833E3
:101B94009842F3D9032068E0074A136F43F0010326
:101BA4001367E6E7044B1A6F42F004021A671A6FD0
:101BB40042F001021A67DCE70038024000004742A5
:101BC400800E47426000474200700040FFF782FEEB
:101BD4000546284B1B6F13F0020F3FF47CAFFFF751
:101BE40079FE401B41F288339842F2D903203CE04D
:101BF400214B00221A60FFF76DFE05461D4B1B6842
:101C040013F0007F06D0FFF765FE401B0228F5D9CC
:101C140003202AE0E369226A1343626A43EA8213D7
:101C2400A26A5208013A43EA0243E26A43EA0263BF
:101C3400104A5360104B01221A60FFF74BFE044612
:101C44000C4B1B6813F0007F06D1FFF743FE001B0B
:101C54000228F5D9032008E0002006E0002004E073
:101C640001207047012000E0002003B030BD0120B6
:101C7400FBE700BF0038024060004742324B9B68DC
:101C840003F00C03042B5CD0082B01D02F487047C1
:101C94002DE9F04B2C4B5A6802F03F025B6813F4B9
:101CA400800F2BD0284B5B68C3F388131E46002794
:101CB4005C010025E41A65EB0705A90141EA94617A
:101CC400A001001B61EB0501CB0043EA5073C40083
:101CD400A01943EB07014B0243EAD05344022046C8
:101CE40019460023FEF754FA174B5B68C3F301430C
:101CF40001335B00B0FBF3F0BDE8F08B124B5B6883
:101D0400C3F388131E4600275C010025E41A65EB23
:101D14000705A90141EA9461A001001B61EB0501DB
:101D2400CB0043EA5073C400A01943EB07018B02B4
:101D340043EA90538402204619460023FEF728FA0A
:101D4400D2E70348704700BF003802400024F40083
:101D540000127A00002800F09D8070B504464F4BB5
:101D64001B6803F00F038B4209D2CBB24B4A1370AA
:101D7400136803F00F038B4201D0012070BD236868
:101D840013F0020F17D013F0040F04D0444A9368E1
:101D940043F4E0539360236813F0080F04D0404ADF
:101DA400936843F4604393603D4A936823F0F003DF
:101DB400A068034393600D46236813F0010F32D0EB
:101DC4006368012B21D09A1E012A25D9344A12684E
:101DD40012F0020F60D032498A6822F003021343E2
:101DE4008B60FFF777FD06462D4B9B6803F00C03D1
:101DF4006268B3EB820F16D0FFF76CFD801B41F2D3
:101E040088339842F0D90320B8E7254A126812F4BF
:101E1400003FE0D10120B1E7214A126812F0007FAF
:101E2400D9D10120AAE71D4B1B6803F00F03AB4275
:101E340009D9EAB2194B1A701B6803F00F03AB42BD
:101E440001D001209AE7236813F0040F06D0144A46
:101E5400936823F4E053E1680B439360236813F021
:101E6400080F07D00E4A936823F46043216943EABC
:101E7400C1039360FFF702FF094B9B68C3F303138D
:101E8400084AD35CD840084B18600020FFF7EAFCEE
:101E9400002073E70120704701206FE7003C0240F7
:101EA40000380240A424000800000020014B1868F8
:101EB400704700BF0000002008B5FFF7F7FF044B90
:101EC4009B68C3F38223034AD35CD84008BD00BF98
:101ED40000380240B424000808B5FFF7E7FF044BBC
:101EE4009B68C3F34233034AD35CD84008BD00BFA8
:101EF40000380240B424000890F83530DBB2022BDD
:101F040003D08023436501207047052380F83530D2
:101F14000268136823F00103136000207047000077
:101F2400DFF834D0002103E00C4B5B5843500431FC
:101F34000B480C4B42189A42F6D30B4A02E000239A
:101F440042F8043B094B9A42F9D3FEF7BDF900F07D
:101F540011F8FEF73FFB70470080012018250008A8
:101F6400000000200400002004000020DC00002009
:101F7400FEE7000070B50D4E0D4CA41BA410002507
:101F8400A54209D10B4E0C4C00F07EF9A41BA41001
:101F94000025A54205D170BD56F825309847013576
:101FA400EEE756F8253098470135F2E7102500088A
:101FB40010250008102500081425000810B5431E3C
:101FC4000A44914200D110BD11F8014B03F8014FAE
:101FD400F7E72DE9F04F099F154604468E461E4645
:101FE400002B40F0CD808A42B2FA82FC4CD9BCF17D
:101FF400000F0BD0CCF1200801FA0CFE20FA08F8EF
:1020040002FA0CF548EA0E0E00FA0CF44FEA1549F0
:102014001FFA85F8BEFBF9FA210C09FB1AE30AFB47
:1020240008FB41EA03439B452AD9EB180AF1FF3028
:1020340004D29B4502D9AAF102002B44A3EB0B0363
:10204400A4B2B3FBF9F209FB123302FB08F844EA29
:102054000344A04516D92C1902F1FF3303D2A0453D
:1020640001D9931E2C44A4EB080443EA004027B191
:1020740024FA0CF400233C607B603146BDE8F08F09
:102084005046DBE71346EEE702B9FFDEBCF1000F72
:102094002ED18B1A01264FEA154EAAB2B3FBFEF8D5
:1020A400210C0EFB183308FB02F941EA034399455E
:1020B40062D9EB1808F1FF3004D2994502D9A8F18E
:1020C40002002B44A3EB0903A4B2B3FBFEF10EFB05
:1020D40011334A4344EA0344A2424FD92C1901F173
:1020E400FF3303D2A24201D98B1E2C44A41ABCE7AD
:1020F400CCF1200E02FA0CF521FA0EF901FA0CF3D8
:1021040020FA0EFE4EEA03024FEA154E00FA0CF4D2
:10211400B9FBFEF8ABB20EFB1890160C08FB03FAE1
:1021240046EA0040824523D9281808F1FF3104D239
:10213400824502D9A8F102012844A0EB0A0092B218
:10214400B0FBFEF80EFB180008FB03F942EA00435B
:1021540099450FD9EB1808F1FF3604D2994502D9F5
:10216400A8F102062B44A3EB090346EA014692E7D1
:102174004146E2E74646F6E74046A3E70B46B5E7A5
:102184008B4205D90FB1C7E900010026304674E738
:10219400B3FA83FCBCF1000F0FD18B4201D382420E
:1021A40009D8841A61EB030E0120002F6AD0C7E915
:1021B400004E002661E76046F7E7CCF1200E03FAF3
:1021C4000CF322FA0EF521FA0EF41D4301FA0CF376
:1021D40020FA0EF10B434FEA154A00FA0CF6B4FB51
:1021E400FAF91FFA85F80AFB19401C0C09FB08F1DF
:1021F40044EA0044A14202FA0CF23FD92C1909F135
:10220400FF3004D2A14202D9A9F102002C44641A7D
:102214009BB2B4FBFAF90AFB194409FB08F843EA38
:10222400044188452CD9691809F1FF3304D2884543
:1022340002D9A9F10203294443EA0040A1EB0801B1
:10224400A0FB02894945C2464C4602D306D1464505
:1022540004D2B8EB020A69EB0504013897B1B6EB76
:102264000A0361EB040606FA0EFE23FA0CF34EEAA7
:10227400030326FA0CF6C7E900369AE74846C6E790
:102284004B46D9E73E46F8E6F8B500BFF8BC08BCB3
:102294009E467047F8B500BFF8BC08BC9E46704720
:1022A400000005800F800A001B801E0014001180AE
:1022B400338036003C00398028002D80278022009E
:1022C400638066006C00698078007D80778072008E
:1022D400500055805F805A004B804E00440041807E
:1022E400C380C600CC00C980D800DD80D780D2006E
:1022F400F000F580FF80FA00EB80EE00E400E1805E
:10230400A000A580AF80AA00BB80BE00B400B1804D
:10231400938096009C00998088008D80878082003D
:10232400838186018C01898198019D819781920125
:10233400B001B581BF81BA01AB81AE01A401A18115
:10234400E001E581EF81EA01FB81FE01F401F18105
:10235400D381D601DC01D981C801CD81C781C201F5
:10236400400145814F814A015B815E0154015181E5
:10237400738176017C01798168016D8167816201D5
:10238400238126012C01298138013D8137813201C5
:10239400100115811F811A010B810E0104010181B5
:1023A400038306030C03098318031D831783120395
:1023B400300335833F833A032B832E032403218385
:1023C400600365836F836A037B837E037403718375
:1023D400538356035C03598348034D834783420365
:1023E400C003C583CF83CA03DB83DE03D403D18355
:1023F400F383F603FC03F983E803ED83E783E20345
:10240400A383A603AC03A983B803BD83B783B20334
:10241400900395839F839A038B838E038403818324
:10242400800285828F828A029B829E02940291821C
:10243400B382B602BC02B982A802AD82A782A2020C
:10244400E382E602EC02E982F802FD82F782F202FC
:10245400D002D582DF82DA02CB82CE02C402C182EC
:10246400438246024C02498258025D8257825202DC
:10247400700275827F827A026B826E0264026182CC
:10248400200225822F822A023B823E0234023182BC
:10249400138216021C02198208020D8207820202AC
:1024A4000000000000000000010203040607080900
:1024B40000000000010203045372632F6D61696E12
:1024C4002E63000003040506080B0C0D0E0F1112F9
:1024D400000218191B1C1D1E2023332527292D2E0D
:1024E4002F31320001010102020101010102010147
:1024F40002010101010101020202020202020101C0
:0425040001010100D0
:08250800CEFAFF7F0100000084
:04251000ED010008D1
:04251400C9010008F1
:042518000024F400A7
:0400000508001F25AB
:00000001FF
