:020000040800F2
:10000000003000209D3400082D0200083102000855
:1000100035020008390200083D0200080000000017
:100020000000000000000000000000004102000885
:100030004502000800000000490200084D020008C7
:10004000ED340008ED340008ED340008ED3400080C
:10005000ED340008ED340008ED340008ED340008FC
:10006000ED340008ED340008ED340008ED340008EC
:10007000ED340008ED340008ED340008ED340008DC
:100080005D020008ED340008ED340008ED3400088E
:10009000ED340008ED340008ED340008ED340008BC
:1000A00061020008ED340008ED340008ED3400086A
:1000B000ED340008ED34000800000000ED340008C5
:1000C000ED3400080000000000000000ED340008DE
:1000D00000000000ED340008ED340008ED340008A5
:1000E000ED340008ED3400080000000000000000BE
:1000F0000000000000000000000000000000000000
:1001000000000000000000000000000000000000EF
:100110000000000000000000ED340008ED3400088D
:1001200000000000000000000000000000000000CF
:1001300000000000000000000000000000000000BF
:10014000ED340008ED34000800000000000000005D
:10015000000000000000000000000000000000009F
:10016000000000000000000000000000000000008F
:10017000000000000000000000000000000000007F
:0801800000000000ED3400084E
:10018800044B05481B1A062B02D9044B03B1184728
:10019800704700BF07000020040000200000000096
:1001A80005490648091A891001EBD171491002D096
:1001B800034B03B1184770470400002004000020D7
:1001C8000000000010B5064C237843B9FFF7D8FFAC
:1001D800044B13B10448AFF300800123237010BD12
:1001E80004000020000000003C35000808B5084B5A
:1001F8001BB108480849AFF300800848036813B9E1
:10020800BDE80840CCE7064B002BF9D09847F7E744
:10021800000000003C350008080000200400002011
:1002280000000000704700BFFEE700BFFEE700BF08
:10023800FEE700BFFEE700BF704700BF704700BF82
:10024800704700BF08B502F027F8BDE8084000F085
:10025800A5BF00BF704700BF014802F063B900BFE7
:10026800EC000020044B02681B689A4200D07047DB
:10027800024802F013BF00BFEC0000202C01002050
:10028800026A22F48032F0B48F680D680262036A51
:100298004468426D124E22F4803223F4003322F077
:1002A8007002B04243EA074342EA050211D00D4DFD
:1002B800A8420ED005F58065A8420AD005F58065EC
:1002C800A84206D0496844604265F0BC8165036273
:1002D80070474D6924F4803444EA0524F2E700BFEE
:1002E800002C014000400140F0B5046AD1F808E054
:1002F8000F68154E24F480140462046A4568426D40
:1003080022F0807323F4E04324F40012B04242EA5E
:100318000E5243EA072310D00C4CA0420DD004F52E
:100328008064A04209D004F58064A04205D04968E1
:1003380045604365C1650262F0BD4C6925F48025BE
:1003480045EA8425F3E700BF002C01400040014046
:1003580038B590F83C30012B2FD00D4602230121EF
:10036800044680F83C1080F83D30142A1ED8DFE897
:1003780002F0391D1D1D4B1D1D1D5E1D1D1D0B1D74
:100388001D1D701D1D1D26000068294602F03EFB3C
:1003980023682869D96941F40061D961D96921F4D0
:1003A8008061D961DA6942EA0022DA61012300201A
:1003B80084F83D3084F83C0038BD022038BD006820
:1003C8002946FFF791FF23682869596D41F40061B8
:1003D8005965596D21F4806159655A6D42EA0022C8
:1003E8005A65E3E72946006802F058FA23682A6943
:1003F800996941F008019961996921F004019961AD
:1004080099690A439A61D1E70068294602F082FA9D
:1004180023682869996941F400619961996921F40F
:10042800806199619A6942EA00229A61BEE7294689
:10043800006802F0ADFA23682A69D96941F0080119
:10044800D961D96921F00401D961D9690A43DA610E
:10045800ACE729460068FFF713FF23682A69596D3E
:1004680041F008015965596D21F004015965596D2C
:100478000A435A659AE700BF90F83C30012B0246C0
:1004880016D0036870B40E4C58689E68A34211D009
:100498000D688C6820F0700026F080012843214305
:1004A800002458602046996082F83C4070BC704730
:1004B800022070474C6820F470002043E8E700BF32
:1004C800002C0140704700BF704700BF704700BF55
:1004D8002DE9F04304460068C50383B037D5584B6F
:1004E800DA69D1005DD5574D2B68DA054FF0000663
:1004F80066D5534D2B6A13F440731ED0616801F41E
:1005080040729A421AD0286A4FF4803320F4407718
:1005180093FAA3F14C4AB1FA81F10A4492000121FD
:10052800116093FAA3F3484AB3FA83F31A4492008A
:100538000023C00713602F6258D46168404A136AC9
:1005480023F440730B431362002E4AD12068C1077D
:1005580006D53B49A3680A6B22F0030213430B63D9
:10056800820606D53649E3680A6B22F01002134367
:100578000B6303060DD410F4805007D0304962692C
:100588000B6B23F4807313430B63002003B0BDE8A7
:10059800F0832B492369CA6A22F4F8721343CB62A9
:1005A800E9E7DA69274D42F08052DA61DB6903F046
:1005B80080530193019B2B68DA054FF0010698D40C
:1005C8002B6843F480732B6001F06EFE07462B689E
:1005D800DB058ED401F068FEC01B6428F7D9032020
:1005E800D4E7D36923F08053D361AFE70F4601F016
:1005F8005BFE4FF00209804614E099FAA9F36A6A93
:1006080099FAA9F3B3FA83F303F01F0307FA03F384
:10061800134292D101F048FE41F28833C8EB000042
:100628009842DCD899FAA9F399FAA9F3B3FA83F3B3
:1006380043F040035B09022BDFD12A6AE0E700BFE1
:100648000010024000700040008190101D4B00B562
:100658009A6942F001029A619B6983B003F0010331
:1006680001930320019B00F01DFD00210A466FF055
:100678000B0000F029FD00210A466FF00A0000F087
:1006880023FD00210A466FF0090000F01DFD00213E
:100698000A466FF0040000F017FD00210A466FF0CB
:1006A800030000F011FD00210A466FF0010000F080
:1006B8000BFD00210A464FF0FF3000F005FD03B0A6
:1006C8005DF804FB0010024002680E4B9A4200D00D
:1006D80070470D4B30B55A6942F080525A615B69D8
:1006E80087B003F0805300930322002340244FF087
:1006F800904001A9009D01940292039302F0BAF977
:1007080007B030BD00010050001002400268104BD5
:100718009A4200D0704730B587B00423C021032225
:10072800019112250DEB030101240A480492059357
:100738000295039402F09EF9074BDA6942F400121D
:10074800DA61DB6903F400130093009B07B030BD46
:100758000054004000040048001002400368B3F150
:10076800804F00D0704703F5043370B5DA6942F062
:100778000102DA61DB6986B003F00103009301220C
:100788000023032502244FF0904001A9009E019503
:10079800029403930493059202F06CF906B070BDBD
:1007A80000B50368144A934283B005D0134A9342B4
:1007B8000FD003B05DF804FB114BDA6942F0020276
:1007C800DA61DB6903F002030093009B03B05DF874
:1007D80004FB0B4B9A6942F480329A619B690021B1
:1007E80003F4803301930A461820019B00F06CFC47
:1007F800182000F09FFCDCE70004004000400140A6
:100808000010024002680A4B9A4200D0704700B5B7
:1008180087B0022300220748019301A90293059398
:100828000392049202F026F907B05DF804FB00BFBA
:1008380000040040000400480268114B9A4200D0AE
:10084800704703F55843F0B59A6942F480429A61BB
:100858009B6987B003F480430093032207234FF476
:10086800C066022500244FF0904001A9009F019620
:10087800029503940492059302F0FCF807B0F0BDCA
:10088800003801402DE9F0430368D90783B00446D6
:1008980044D5C2494A6802F00C02042A00F0888153
:1008A8004A6802F00C02082A00F07E816368B3F5FA
:1008B800803F00F01682002B00F0A581B3F5A02F31
:1008C80000F0A982B54B1A6822F480321A601A68BF
:1008D80022F480221A60B14EA368F26A22F00F0255
:1008E8001343F36201F0E0FC4FF400358046012722
:1008F80006E001F0D9FCC8EB0000642800F2BD81D5
:1009080095FAA5F3326895FAA5F3B3FA83F303F0E1
:100918001F0307FA03F31342EBD023689F0743D55D
:100928009E4A516811F00C0F00F0F980516801F0EF
:100938000C01082900F0EF802269002A00F0AB8141
:10094800012292FAA2F3B3FA83F303F1845303F575
:1009580084139B0017461A6001F0A6FC0225804606
:100968008E4E06E001F0A0FCC8EB0000022800F261
:10097800848195FAA5F38949326895FAA5F3B3FA03
:1009880083F303F01F0307FA03F31342EAD00A685C
:10099800F82090FAA0F06369B0FA80F022F0F8022B
:1009A800834013430B6023681D0750D458077CD538
:1009B8007A4BDA69D10000F11281DA6942F080528B
:1009C800DA61DB6903F080530193019B4FF0010862
:1009D800734D2B68DA0540F14081E368012B00F084
:1009E800BB81002B40F083816C4D2B6A23F00103FF
:1009F8002B622B6A23F004032B6201F055FC4FF0A5
:100A080002090746012615E099FAA9F36A6A99FAD4
:100A1800A9F3B3FA83F303F01F0306FA03F31342AF
:100A280000F02F8101F040FC41F28833C01B98424E
:100A380000F2238199FAA9F399FAA9F3B3FA83F397
:100A480043F040035B09022BDED12A6ADFE7A26983
:100A5800002A7BD0012292FAA2F1524BB1FA81F11D
:100A68000B449B0017461A6001F01EFC02258046C5
:100A78004A4E06E001F018FCC8EB0000022800F21C
:100A8800FC8095FAA5F395FAA5F395FAA5F3726A91
:100A980095FAA5F3B3FA83F303F01F0307FA03F3F8
:100AA8001342E7D02368580782D4E3697BB33B4DF0
:100AB8006A6802F00C02082A44D0022B4FF08073B7
:100AC80000F0508193FAA3F3B3FA83F303F184534C
:100AD80003F584139B0000221A6001F0E5FB4FF038
:100AE80000740746012605E001F0DEFBC01B022862
:100AF80000F2C38094FAA4F32A6894FAA4F3B3FA30
:100B080083F303F01F0306FA03F31342ECD100202A
:100B180003B0BDE8F0835268D6033FF50DAF02225B
:100B280092FAA2F11D49086892FAA2F20121B2FADA
:100B380082F202F01F0201FA02F2024252D0226946
:100B48008A424FD0012003B0BDE8F083012696FA0F
:100B5800A6F1144BB1FA81F10B449B0002251A60EF
:100B680001F0A2FB0D4F804606E001F09DFBC8EBAB
:100B78000000022800F2818095FAA5F395FAA5F302
:100B880095FAA5F37A6A95FAA5F3B3FA83F303F015
:100B98001F0306FA03F31342E7D183E7001002406C
:100BA80000700040208190104A68D2037FF57EAE25
:100BB8004FF4003292FAA2F1A149086892FAA2F21F
:100BC8000121B2FA82F202F01F0201FA02F2024295
:100BD8003FF4A4AE6268002A7FF4A0AEB2E74FF0FB
:100BE8000008F5E6964DF820296890FAA0F06269A9
:100BF800B0FA80F021F0F80182400A432A601D070C
:100C08007FF5D4AE23E78E4E336823F48033336008
:100C1800336823F480233360F26AA36822F00F025A
:100C28001343F36201F040FB4FF40035804601277F
:100C380005E001F039FBC8EB000064281DD895FADF
:100C4800A5F3326895FAA5F3B3FA83F303F01F030B
:100C580007FA03F31342ECD15FE62B6843F4807381
:100C68002B6001F021FB06462B68DB053FF5B5AE8E
:100C780001F01AFB801B6428F6D9032003B0BDE8F5
:100C8800F083B8F1000F3FF410AF6D4AD36923F039
:100C98008053D36109E7012696FAA6F3B3FA83F3E2
:100CA80003F1845303F584139B0002251A6001F0B5
:100CB800FBFA634F804605E001F0F6FAC8EB000046
:100CC8000228DAD895FAA5F33A6895FAA5F3B3FAA3
:100CD80083F303F01F0306FA03F31342ECD12368EE
:100CE80062E6574A136843F480331360F3E5052B33
:100CF800534B1A6A00F09C8022F001021A621A6AA9
:100D080022F004021A6201F0CFFA4FF002090746F6
:100D18004B4E012513E099FAA9F3726A99FAA9F3DF
:100D2800B3FA83F303F01F0305FA03F31342A8D1C0
:100D380001F0BAFA41F28833C01B98429DD899FA5B
:100D4800A9F399FAA9F3B3FA83F343F040035B09D3
:100D5800022BE0D1326AE1E7394A136A43F0010312
:100D68001362D0E793FAA3F3B3FA83F303F184533E
:100D780003F584139B0000221A6001F095FA4FF0E6
:100D880000768046012706E001F08EFAC8EB0000E5
:100D980002283FF672AF96FAA6F329492A6896FA0E
:100DA800A6F3B3FA83F303F01F0307FA03F313421E
:100DB8004FF00100E8D14B68256A626A23F4741386
:100DC8002A4313434B604FF0807393FAA3F3B3FAAB
:100DD80083F303F1845303F584139B000C461860D6
:100DE800054601F061FA4FF00076074605E001F08C
:100DF8005BFAC01B02283FF640AF96FAA6F32268BA
:100E080096FAA6F3B3FA83F303F01F0305FA03F384
:100E18001342ECD07BE603F18043A3F53C331A6818
:100E280042F480221A601A6842F480321A6052E54D
:100E380042F004021A621A6A42F001021A6262E778
:100E480000100240144B5A6802F00C01082921D105
:100E580030B44FF4701090FAA0F002F47014B0FAA5
:100E680080F00E4DD96A24FA00F30F20EB5C90FA5B
:100E7800A0F001F00F01B0FA80F0094CC140D20394
:100E8800605C52BF0748084AB2FBF0F030BC00FB78
:100E980003F0704704487047001002407C35000892
:100EA8006C35000800093D0000127A005E4A13689C
:100EB80003F007038B422DE9F0410CD2136823F0AD
:100EC80007030B431360136803F007038B4202D038
:100ED8000120BDE8F08103689C0706D5534D826860
:100EE8006C6824F0F00422436A600C46D907064671
:100EF80031D54368012B00F08480022B0CBF4FF0E2
:100F08000072022292FAA2F14849086892FAA2F203
:100F18000121B2FA82F202F01F0201FA02F2024241
:100F2800D6D0424D6A6822F0030213436B6001F089
:100F3800BBF97368012B074641F288384DD0022B64
:100F480005D155E001F0B0F9C01B404556D86B6893
:100F580013F00C0FF6D1344A136803F007039C42D0
:100F680009D2136823F0070323431360136803F0BF
:100F78000703A342ACD133685A0706D52B48F26859
:100F8800416821F4E0610A4342601B0707D5274AFC
:100F98003169536823F4605343EAC1035360FFF790
:100FA80051FF224B0146F0225B6892FAA2F203F04D
:100FB800F003B2FA82F21E4D1E4CD3400020EB5CC7
:100FC80021FA03F3236001F03FF90020BDE8F08126
:100FD80001F06AF9C01B404510D86B6803F00C0398
:100FE800042BF5D1B7E701F05FF9C01B404505D8E0
:100FF8006B6803F00C03082BF5D1ACE70320BDE8C0
:10100800F0814FF4003292FAA2F10849096892FA85
:10101800A2F2B2FA82F202F01F0203FA02F20A42C4
:101028007FF47FAF54E700BF002002400010024069
:10103800B035000800000020014B1868704700BF59
:1010480000000020084B4FF4E0625B6892FAA2F2BD
:1010580003F4E063B2FA82F204490548D340006819
:10106800CB5CD840704700BF00100240C035000874
:1010780000000020084B4FF460525B6892FAA2F21D
:1010880003F46053B2FA82F204490548D340006879
:10109800CB5CD840704700BF00100240C035000844
:1010A80000000020074AD1684FF6FF030B4043F0C9
:1010B800BF6300F0070043F4003343EA0023D36022
:1010C800704700BF00ED00E0184BDB68C3F3022354
:1010D80030B4C3F10705042D03F1040428BF042527
:1010E800062C17D9033B01249C40013C22400124D3
:1010F800AC40013C21409940002842EA01020CDB47
:1011080000F1604000F561401201D2B280F800237E
:1011180030BC704700221346E9E7054B00F00F008A
:1011280012010344D2B21A7630BC704700ED00E0D9
:10113800FCEC00E000F01F0101234009024A8B404B
:1011480042F82030704700BF00E100E00138B0F1FC
:10115800807F0ED2084B10B4084C5860F02084F8F9
:1011680023000022072110469A6019605DF8044B9D
:1011780070470120704700BF10E000E000ED00E07C
:10118800044A136804280CBF43F0040323F0040343
:101198001360704710E000E0704700BF08B5FFF724
:1011A800FBFF08BD10B50C4613460146224603480E
:1011B80000F086FC003018BF012010BDFC0500209F
:1011C80010B50C46134601462246034800F01CFCA5
:1011D800003018BF012010BDFC050020B0FA80F2D5
:1011E8004FF4807152094FF0904001F031BD00BFBB
:1011F80001F060B830B597B04FF4601302241021A5
:10120800002201250CA815930C94139410951191A4
:101218001492FFF737FB034600B1FEE74FF48062F4
:1012280021460F2501A80393059302940195049282
:10123800FFF73CFE034600B1FEE7A1214FF48072A0
:1012480006A80893099306910A92FFF741F9044604
:1012580000B1FEE7FFF7F0FE084BA3FB0030800962
:10126800FFF774FF0420FFF78BFF4FF0FF30214694
:101278002246FFF729FF17B030BD00BFD34D6210DB
:101288002DE9F04FDFF86C828E4D97B000F0F2FF39
:10129800FFF7B0FFD8F8143043F40033C8F814301F
:1012A800D8F8143003F400330193019BD8F81430B4
:1012B80043F48023C8F81430D8F8143003F480239A
:1012C80002934FF0904049F6301100220DAE029B78
:1012D80001F0BEFC00227C480121002401F0B8FC8A
:1012E800012749F6301331464FF090400D930E9781
:1012F8000F94109401F0BEFB802331464FF09040CC
:101308000D930E940F9401F0B5FB31466E480D977E
:101318000E970F94109401F0ADFB0822022331467A
:1013280069480D920F930E9401F0A4FBD8F814307D
:101338006C603B43C8F81430D8F81430634ADFF8BF
:10134800B8E1AC603B4000934FF48030009B6049AB
:10135800DEF80C3082F810430423106028466B61D5
:101368002C61EF616C622C63EF62EC602F626C633E
:10137800AC61AC63296000F0CBFC034600B1FEE72A
:1013880028463146032510930F93119312930E9715
:101398000D9500F0C7FD034600B1FEE74D4C4E49E0
:1013A8004E4AA060204684E80600E7602361636136
:1013B800A361E361236200F08FFF014600B1FEE7FD
:1013C800204601F04BFC014600B1FEE7204601F043
:1013D8006FFC034600B1FEE7414C0D954FF4B46233
:1013E8004FF08045204631460E9310931193129387
:1013F800149315936360A3602361A3610F971397F8
:101408002560E26001F0F0F9034600B1FEE707AF9E
:101418002046394607930993FFF72EF8034600B193
:10142800FEE7304C304DA06040F25D11FE222046B0
:101438002361A36125606160E26001F09DF900B15C
:10144800FEE74FF4805320463946079300F09CFF8F
:1014580000B1FEE7204601F0ABF900B1FEE70DF15F
:101468001008002341461F4804930693FFF704F829
:10147800034600B1FEE760241A480D9431460C2259
:101488000E930F931193FEF763FF044600B1FEE736
:101498001448DFF86890FFF7B5F9144B144A9C60BC
:1014A80018464FF00C0BDC601C619C61DC611C620F
:1014B8005C6283E80402C3F814B000F0B9FB044688
:1014C800F0B1FEE74C0000200004004800E100E015
:1014D80000010050A0000020005400400E09002028
:1014E800880600205405002000040040FC05002068
:1014F800003801400010024000ED00E040420F00BB
:10150800794B7A4DDA69DFF804A242F40032DA61E5
:10151800DB69CDF81CB003F4003303934FF0020EDF
:101528000322072339464FF09040DDF80CC0CDF870
:1015380020E009920C930A940B9401F0F7FE6C4B8F
:101548001A6822F4804222F010021A601A6822F403
:1015580040521A601A6842F020021A601A6822F093
:1015680040021A601A6842F080021A601A6822F46F
:1015780040721A601A6822F440621A60314628469E
:10158800CDF834900E940F941094CDF844B0129482
:10159800139401F061FEAB68CAF8084023F4806335
:1015A800AB60AB68CAF8104043F48053AB606B681B
:1015B800CAF8144023F490436B60AB68CAF818402B
:1015C80023F02A03AB602B684A4A43F001032B60DF
:1015D8001821F9235046CAF80020CAF80410CAF89E
:1015E8000C3001F0C9F800B1FEE74FF480535046C3
:1015F80031460D9300F0C8FE034600B1FEE75046A1
:10160800394607930993FEF737FF044600B1FEE712
:10161800394B3A4A3A48DFF8F8C0DFF8F8E0186082
:1016280000211846DFF8F0A0DFF8F090354DC2F839
:1016380000C0C2F808E059609960C3F814A0C2F865
:101648000490D56001F05CFB2F4B93E8030003F195
:10165800080288E8030092E80300103387E80300D3
:1016680093E803004FF4E17286E803002146404600
:1016780001F0CAFC40F29B1140F2FF12384601F01B
:10168800C3FC304640F2FF1140F2632201F0BCFC7B
:1016980040460021012201F0E5FC384640F29B114A
:1016A800012201F0DFFC40F263210122304601F003
:1016B800D9FC4FF4FA6000F0FDFD40464FF4C871C4
:1016C800012201F0CFFC384640F2FF11012201F05F
:1016D800C9FC304640F2FF11012201F0C3FC4FF46F
:1016E800FA6000F0E7FDD3E7001002400044004034
:1016F8006C00024000400140700600209405002064
:101708006F12833AF911000854350008EC000020E4
:10171800C9110008E51100080AD7233CAD110008DB
:101728002DE9F041054682B069698068019129690F
:101738002C68EE69D4F80080694AEB68D5F820C0B7
:10174800D5F818E0674F084301990143314308EA87
:1017580002020A432260626822F440521343636023
:10176800A3684CEA0E0223F430631343BC42A3601F
:1017780023D05D4B9C4210D003F580639C420CD073
:10178800B6F5004F03D0012002B0BDE8F081002378
:101798000120E36002B0BDE8F081B6F5004F71D0DA
:1017A800FFF750FC6B6800EB5300B0FBF3F080B21E
:1017B800E060002002B0BDE8F0814C4B4C4A1B6B46
:1017C80003F00303B6F5004FD35C44D0082BDAD8F6
:1017D80001A252F823F000BFA91700085918000801
:1017E8003B1800088F1700081F1800088F170008FB
:1017F8008F1700088F170008051800086A6839490C
:101808005308002003F50043B3FBF2F39BB2CB600F
:1018180002B0BDE8F081FFF715FB6B68314A00EBB9
:101828005300B0FBF3F080B2D060002002B0BDE8F6
:10183800F08169682B484A0802F5F40303F59053D0
:10184800B3FBF1F39BB2C360002002B0BDE8F081A6
:10185800FFF710FCE1E7082B99D801A252F823F012
:101868008D180008E3180008C31800089717000827
:10187800BD18000897170008971700089717000861
:10188800AF180008FFF7DEFB6A682C68530803EB03
:101898004000B0FBF2F292B2C2F3420322F00F0210
:1018A8001343002075E76A68530803F58033B3FBD8
:1018B800F2F2F0E7FFF7C6FAE6E76A68510801F5C1
:1018C800740303F51053B3FBF2F39AB2C2F3420365
:1018D80022F00F02134300205BE7FFF7CBFBD3E7AF
:1018E800F369FFEF00380140004400400010024057
:1018F8008C350008436ADA0710B406D50468826A92
:10190800616821F400310A4362609C0706D50468C7
:10191800C26A616821F480310A436260590706D5BA
:101928000468026B616821F480210A4362601A0727
:1019380006D50468426B616821F400410A4362607D
:10194800DC0606D50468826BA16821F480510A433D
:10195800A260990606D50468C26BA16821F40051FB
:101968000A43A2605A0609D50168046C4A6822F441
:1019780080122243B4F5801F4A600BD01B0606D59F
:101988000168826C4B6823F4002313434B605DF8B5
:10199800044B70474C68426C24F4C00422434A60EC
:1019A800ECE700BF2DE9F041069D07460C461646B8
:1019B8009846396801E06B1C0AD1C8692040001BB1
:1019C800B0FA80F040098642F5D00020BDE8F081E9
:1019D80035B100F069FCC8EB00008542E9D23968EE
:1019E8000B6823F4D0730B608B68202223F001036B
:1019F80000248B60032087F8692087F8684087F8FF
:101A08006A20BDE8F08100BF2DE9F0410D4690F84D
:101A18006910202984B0044603D0022004B0BDE830
:101A2800F0818DB382B31F4690F86830012BF4D053
:101A3800002001212123E06684F8681084F86930C9
:101A4800039200F031FC039AA4F850208046A4F8D1
:101A58005220B4F85260B6B2204680210022434694
:101A680006B3B4F852600097013EB6B2A4F85260CB
:101A7800FFF798FFA0B9A368B3F5805F06D0236885
:101A88002A781A850135E4E70120C7E72369002B86
:101A9800F5D135F8023B2268C3F308031385D8E76C
:101AA8000320BBE7009732464021FFF77BFF002861
:101AB800F6D1202384F8680084F86930AEE700BFC7
:101AC8002DE9F0430E4690F86A10202985B00446A7
:101AD80003D0022005B0BDE8F083002E41D0002AD3
:101AE8003FD01F4690F86830012BF2D02223002007
:101AF8000121E06684F8681084F86A30039200F0E7
:101B0800D3FBA368039AA4F85820B3F5805F8146F5
:101B1800A4F85A2044D0002B37D12369002B3AD09F
:101B28004FF07F08A4F85C80B4F85A50ADB2204654
:101B3800202100224B4605B3B4F85A500097013DC6
:101B4800ADB2A4F85A50FFF72DFFE0B9A368B3F57A
:101B5800805F08D023689B8C08EA03033370013642
:101B6800E2E70120B6E72369002BF3D123689B8CB9
:101B780008EA030326F8023BD6E784F868502846AB
:101B880084F86A10A6E70320A4E7B3F1805F0FD0BA
:101B9800B4F85C80C8E74FF0FF08A4F85C80C3E79E
:101BA8002369002BF7D140F2FF18A4F85C80BBE74B
:101BB8002369002BB4D04FF03F08A4F85C80B3E74A
:101BC80070B50446002582B0C56600F06DFB236839
:101BD8001A68120706460CD41B685B0717D4202323
:101BE800002084F8693084F8680084F86A3002B00C
:101BF80070BD6FF07E4300932A4620464FF40011D3
:101C08003346FFF7CFFE80B1032002B070BD6FF0FE
:101C18007E420092334620464FF480010022FFF7AF
:101C2800C1FE0028DBD00320EFE72368D4E700BF1C
:101C380090B390F8693010B503F0FF02044603B37F
:101C48002268242384F86930136823F001031360A1
:101C58002046FFF765FD01281CD0636AB3B92368E5
:101C68005A6822F490425A609A6822F02A029A60CE
:101C78001A6842F0010220461A60BDE81040FFF7DA
:101C88009FBF80F86820FEF7D7FDD9E72046FFF709
:101C980031FEE4E7012010BD01207047026838B525
:101CA800936803F00303012B02D00023184638BDC4
:101CB8001168C907F9D5916801F00D01012909D00A
:101CC800426C42F010024264826C42F0010282646B
:101CD800184638BD9368032143F0020393601160EE
:101CE800044600F0E1FA054623689B68DB07DCD56B
:101CF80000F0DAFA401B0228F6D9636C43F01003AF
:101D08006364A36C43F00103A3640123CEE700BF1F
:101D180070B596B000230093002800F09C80436CB7
:101D280013F01003044617D1456C002D00F086808F
:101D380022689168C80075D59168890072D4616C71
:101D4800CE0600D463B1636C23F0120343F0100392
:101D58000120636416B070BD436CDB06F3D40268DF
:101D680093685D07EFD4636C23F4817343F0020337
:101D7800B2F1A04F63640CBF654B4FF0A0430193D1
:101D8800936803F00303012B00F0A180019B99687D
:101D980001F00301012900F0B5805E48636881689D
:101DA80021F440310B438360A568A66BE368E169C1
:101DB800606A012E43EA050343EA41330CBF00255C
:101DC8004FF48055012843EA050378D0E06A0128DA
:101DD80002D0216B01430B43916811F00C0F0BD11A
:101DE800D068A169656B20F48040890320F0020067
:101DF80041EA4501D0600B43D5684749206929402D
:101E08000B43D3600128136B6AD023F00F031363CD
:101E18000020A064636C23F0030343F001036364B0
:101E280016B070BD636C23F0120343F010036364B3
:101E3800A36C43F00103A364636C84E785640565C0
:101E4800C56480F84050FEF73FFC22689368DE00C6
:101E580004D52B466DE7012016B070BD2046FFF76C
:101E68001DFF626CD50603463FF562AF00287FF47C
:101E78005FAF606C22682949294D096820F48850B1
:101E880020F0020040F002006064906820F04050AA
:101E98009060A5FB0101890C906801EB8101490064
:101EA80040F0805090600091009900293FF441AFC4
:101EB80000990139009100990029F9D139E7B1B9A0
:101EC800A16A013943EA414343F480337EE713684A
:101ED800D8073FF569AF019B002B7FF458AF5CE74B
:101EE800206A23F00F01431E0B43136390E7616CD4
:101EF80021F0220141F020016164A16C41F001014F
:101F0800A16463E71B68D9073FF54EAF45E700BFFB
:101F1800000100500003005007C0F0FF000000203F
:101F280083DE1B43F0B4024696B092F8403000209E
:101F3800012B009045D0106884680123640782F85B
:101F480040300AD5516C41F02001516400211846F7
:101F580082F8401016B0F0BC70474B68042B34D997
:101F6800092B6ED803EB43035B001E3B466B0C68E2
:101F78001F259D4026EA050504FA03F32B43436316
:101F8800836813F00C0F31D1092C4ED904EB4405AA
:101F98001E3D87698B680726AE4027EA0606AB40D8
:101FA80033438361C3680D694E69C3F3C1035B00A2
:101FB800013D9E40032D00F2CD80DFE805F07E74E0
:101FC8006A60022016B0F0BC704703EB4303066B4F
:101FD8000C685B001F259D4026EA050504FA03F3FB
:101FE8002B430363836813F00C0FCDD0836803F091
:101FF8000303012B15D0CB68012B00F09180D0F89A
:10200800B0100123A34021EA0303C0F8B030102C1C
:1020180000F08180112C00F09880122C57D00023FA
:1020280094E70368DB07E6D5F9E704EB440746695C
:102038008B680725BD4026EA0505BB402B43436155
:10204800B0E70E2B03EB43034FEA43030BD83C3BAB
:10205800866B0C681F259D4026EA050504FA03F3E4
:102068002B4383638CE75A3BC66B0C681F259D4046
:1020780026EA050504FA03F32B43C36380E7C56E1C
:102088006C4B2B4043EA846343F000431E43C6660F
:10209800ACE7856E674B2B4043EA846343F000430B
:1020A8001E438666A2E7456E624B2B4043EA846373
:1020B80043F000431E43466698E7056E5D4B2B4090
:1020C80043EA846343F000431E4306668EE75A4B97
:1020D8009B685D02A3D4B0F1A04F0CBF574B4FF0E3
:1020E800A0430193836803F00303012B5AD0019B9B
:1020F800996801F00301012970D0102C72D0112CBD
:1021080000F08D80122C8AD14B498B6843F48003F0
:102118008B6000231AE7484B9B681F02DBD57EE7DC
:10212800D0F8B050A3402B43092CC0F8B0302CD9BC
:1021380004EB44031B3B8968856907269E40994048
:1021480025EA06030B43836161E73B4B9B68DE018D
:10215800C1D564E7056EA30605F0F8459D4233D066
:10216800456E05F0F845AB4229D0856E05F0F84577
:10217800AB422ED0C56E05F0F845AB427FF436AFC2
:10218800C36E23F00043C36630E7631C03EB4303CD
:102198008968456907269E40994025EA06030B434E
:1021A800436137E70368D90705D5536C43F020032B
:1021B80053640123CAE6019B002B99D19DE7456E24
:1021C80025F000454566D0E7056E25F00045056613
:1021D800C6E7856E25F000458566CBE71B68DB07FB
:1021E800E3D48AE7B0F1A04F7FF419AF124C144939
:1021F800A068144D40F40000A0600A230968B1FBF0
:10220800F5F103FB01F30093009B002B3FF407AFAC
:10221800009B013B0093009B002BF9D1FFE6B0F136
:10222800A04F7FF4FCAE04498B6843F080738B6049
:10223800F5E600BF00F0FF830003005000010050E6
:102248000000002040420F00084B094A1B6810B5E7
:10225800A2FB032304469809FEF778FF21464FF0B6
:10226800FF300022FEF730FF002010BD00000020E4
:10227800D34D6210074A08B5136843F01003136082
:102288000320FEF70FFF0020FFF7DEFFFEF7DEF961
:10229800002008BD00200240024A13680133136081
:1022A800704700BFC8060020014B1868704700BF80
:1022B800C806002030B583B00190FFF7F5FF019CF8
:1022C800631C054618BF0134FFF7EEFF401BA04210
:1022D800FAD303B030BD00BF002850D0F8B590F84D
:1022E8004130044603F0FF02002B3FD02368E0682A
:1022F800242284F841201968626821F0010122F043
:10230800706219601A619A68012822F400429A6082
:10231800A26830D042F4044202289A6004BF4FF405
:1023280000625A605868E569266A04F1100186C996
:1023380040F0007040F400405860D8680A4342EA10
:10234800072246EA050120F40040D860DA601960E7
:102358001968002241F001012025196010466264C5
:1023680084F84150226384F84220F8BD80F8402068
:10237800FEF7CCF9BAE742F400429A60D2E70120AE
:10238800704700BF704700BF90F83C30012B3FD02A
:1023980002220368F0B480F83D209D680C685C4A0E
:1023A800402C02EA05024FF0010580F83C509A6083
:1023B80077D017D9702C61D02CD9B4F5805F56D05E
:1023C800B4F5005F1BD10A1D64CA9C682A4324F433
:1023D8007F410A4342EA06229A609A6842F48042A0
:1023E8009A600CE0102C32D038D9202C71D0302CC7
:1023F80005D19A6822F0700242F037029A600023F1
:10240800012280F83D2080F83C30F0BC1846704727
:1024180002207047502C63D0602CF0D11C6A4D68A4
:10242800CE6824F010041C6299691A6A21F470417C
:1024380022F0A00242EA051241EA063199611A62C5
:102448009A6822F0700242F067029A60D7E79A68A9
:1024580022F0700242F017029A60D0E7002CCED129
:102468009A6822F0700242F007029A60C7E79A68F9
:1024780022F4803222F007029A60C0E70A1D64CA7B
:102488009C682A4324F47F410A4342EA06229A6060
:102498009A6822F4803222F0770242F077029A603A
:1024A800ADE71D6A1E6A4C68CF6826F00101196203
:1024B8009A6925F00A0122F0F00242EA0712214344
:1024C8009A6119629A6822F0700242F047029A6093
:1024D80095E79A6822F0700242F027029A608EE728
:1024E8001D6A1E6A4C68CF6826F0010119629A6954
:1024F80025F00A0122F0F00242EA071221439A610C
:1025080019629A6822F0700242F057029A6076E7E0
:102518008800FEFF704700BF704700BF704700BFCC
:10252800704700BF03681A69910710B5044602D5C1
:10253800DA68920765D41A69520702D5DA68500733
:102548004CD41A69110702D5DA68120734D41A690B
:10255800D00602D5DA68D1061ED41A69D20702D588
:10256800DA68D0076BD41A69110602D5DA68120640
:102578006DD41A69D00502D5DA6811066FD41A69C4
:10258800520602D5DA68500651D41A69910602D566
:10259800DA68920643D410BD6FF010021A61DB6945
:1025A800082213F4407F227720466CD0FFF7B4FF4F
:1025B800002223682277D0E76FF008021A61DB69EE
:1025C80004229B07227720465AD1FFF7A3FF204613
:1025D800FFF7A4FF002223682277B8E76FF0040210
:1025E8001A619B69022213F4407F2277204644D166
:1025F800FFF790FF2046FFF791FF0022236822771C
:102608009FE76FF002021A619B690122990702771E
:102618002DD0FFF781FF0022236822778BE76FF028
:10262800200220461A61BDE81040FDF74BBF6FF04D
:1026380040021A612046FFF773FF2368A5E76FF091
:1026480001021A612046FDF70DFE23688BE76FF043
:1026580080021A612046FDF737FF236889E76FF487
:1026680080721A612046FDF731FF236887E7FFF77C
:1026780051FF2046FFF752FFCDE7FFF74DFFBCE7BC
:10268800FFF74AFFA6E7FFF745FF2046FFF746FF9B
:102698008EE700BF354A03689042F0B440D0B0F1ED
:1026A800804F51D0A2F59432904218D002F59E3254
:1026B800904218D002F58062904214D002F58062F0
:1026C800904210D04A698C68096823F0800313434C
:1026D8000360C462816201234361F0BC70474A68A9
:1026E80023F070031343CA684C69214D8F680E6844
:1026F80023F440731A4322F080022243A842026066
:10270800C762866206D01B4B984203D003F58063EC
:102718009842E0D10B69036301234361F0BC704721
:102728004C68CA684D6923F070031C4324F4407454
:10273800224322F080022A4302608B68C3620B683E
:1027480083620B690363E7E74D68CA684C698F6861
:102758000E6823F070032B4323F440731A4322F0CE
:10276800800222430260C7628662CCE7002C0140E7
:102778000040014000440140C0B190F83D3010B520
:1027880003F0FF02044663B12146022351F8040B0B
:1027980084F83D30FFF77EFF012384F83D300020A8
:1027A80010BD80F83C20FDF7FBFFEDE701207047E6
:1027B800C0B190F83D3010B503F0FF02044663B194
:1027C8002146022351F8040B84F83D30FFF762FFDD
:1027D800012384F83D30002010BD80F83C20FFF72D
:1027E800D1FDEDE701207047002854D02DE9F84FBE
:1027F80090F83D3005460C4603F0FF02002B45D00B
:102808002946022351F8040B85F83D30836823F4E8
:10281800803323F007038360FFF73CFF2968D4F86F
:1028280018B0D1F808C08A692769A368D4F81CA031
:10283800E668086AD4F82090D4F81480D4F800E048
:10284800646822F4407222F0030242EA0B223F013C
:10285800134347EA0A2A4AEA060620F0AA0023F4A4
:102868007C4346EA093940EA081823F0FC034CEA9D
:102878000E0249EA030348EA040401268A6000209C
:102888008B610C6285F83D60BDE8F88F80F83C20CC
:10289800FDF764FFB4E70120704700BFF0B5046A94
:1028A8008F680E68194D24F001040462026AD0F89A
:1028B80004E0836923F4803322F0020223F07303D7
:1028C800A84242EA070243EA060311D0104CA0428C
:1028D8000ED004F58064A0420AD004F58064A042BA
:1028E80006D04968C0F804E0836141630262F0BD24
:1028F800CC688D6922F0080222434C692EF4407E90
:102908002C4322F0040244EA0E0EEAE7002C0140B0
:1029180000400140F0B5046AD1F808E00F68194E8C
:1029280024F010040462046A4568826922F0807306
:1029380023F4E64324F02002B04242EA0E1243EAAE
:1029480007230FD0104CA04213D0104CA04210D037
:1029580004F58064A0420CD04968456083618163B6
:102968000262F0BDCC6822F0800242EA041222F032
:1029780040024E698C6925F4406545EA860545EABA
:102988008405E9E7002C0140004001400044014073
:10299800F0B4046A8F680E68194D24F480740462D8
:1029A800036A4468C26922F4803223F4007322F077
:1029B8007302A84243EA072342EA060210D0114DE7
:1029C800A84214D0104DA84211D005F58065A84240
:1029D8000DD049684460C261F0BCC16303627047AE
:1029E800CD6823F4006343EA052323F480634E692A
:1029F8008D6924F4405444EA061444EA0514E8E7CF
:102A0800002C01400040014000440140F0B5046A38
:102A1800D1F808E00F68154E24F480540462046A63
:102A28004568C26922F0807323F4E64324F4005217
:102A3800B04242EA0E3243EA072310D00C4CA042BF
:102A48000DD004F58064A04209D004F58064A0424A
:102A580005D049684560C36101640262F0BD4C69F4
:102A680025F4804545EA8415F3E700BF002C0140B2
:102A7800004001402DE9F04F0F6883B08C46002FCD
:102A880000F0CD804FF00009DFF8C0814C467BE0B4
:102A98004FEA440E0323D0F800B003FA0EF3DB43E9
:102AA80001F0030503EA0B0B05FA0EF50AF1FF3AEC
:102AB8004BEA0505BAF1010F056040F29A80C56836
:102AC800DCF808202B4002FA0EF21A43CB00C26051
:102AD80055D55A4B594A9B6943F001039361926952
:102AE80024F0030303F1804302F0010203F580336D
:102AF800019204F00302019D9D6892004FF00F0EB1
:102B08000EFA02FEB0F1904F25EA0E0900F08A8015
:102B18004B4DA84200F088804A4DA84200F08880BA
:102B2800494DA8420BBF4FF0030E05250EFA02F2DD
:102B380005FA02F242EA09029A60D8F80030F24334
:102B4800CD034CBF33431340C8F80030D8F80430E5
:102B58008D034CBF33431340C8F80430D8F808300D
:102B6800CD024CBF33431340C8F80830D8F80C30B6
:102B7800890254BF02EA03061E43C8F80C600134F8
:102B880037FA04F3A1464AD0012303FA09F212EAFC
:102B98000706F4D0DCF8041021F0100ABAF1020F8D
:102BA8007FF476AF4FEAD40E00EB8E0E04F00705E3
:102BB800DEF82030AD004FF00F0A0AFA05FB23EAD1
:102BC8000B0ADCF81030AB404AEA0303CEF8203099
:102BD8004FEA440E0323D0F800A003FA0EF3DB43B8
:102BE80001F0030503EA0A0A05FA0EF54AEA0505A3
:102BF8000560856803EA050ADCF80C5005FA0EF54D
:102C08004AEA05058560D0F804A0C1F300152AEA50
:102C1800020A05FA09F54AEA050242604FE703B0DD
:102C2800BDE8F08F002285E7012505FA02F281E769
:102C38004FF0020E0EFA02F27CE700BF00100240CD
:102C48000004004800080048000C00480004014047
:102C58000AB9816270478161704700BF90F84130BE
:102C6800DBB2202B024601D00220704790F84000CA
:102C78000128F9D010B41068242482F8414004686F
:102C880024F001040460046824F480540460046897
:102C9800214301600168002441F0010101602046E0
:102CA80082F8404082F841305DF8044B704700BF1D
:102CB80090F84130DBB2202B024601D00220704749
:102CC80090F840000128F9D010B41068242482F844
:102CD8004140046824F001040460046824F470642A
:102CE80044EA012101600168002441F0010101600A
:102CF800204682F8404082F841305DF8044B704726
:102D08000023C36003617047C3681A78FF2A03D1A0
:102D18000133024AC3600260704700BF292D0008D2
:102D2800C3681A78FF2A04D0044A83680260C36023
:102D380070470133024AC36002607047112D0008D2
:102D48004D2D0008C3681A78FF2A04D00133044ABD
:102D5800C36002607047034A83680260C3607047BB
:102D6800712D0008112D0008C26813780371023B09
:102D78001A2B04D9044A83680260C3607047013281
:102D8800024BC26003607047112D0008992D00089E
:102D98000379C268013B0132DBB2C26003710BB92F
:102DA80001230374704700BF032A70B42FD0161F85
:102DB800B6B202360E444C1C002314F8015F2B44B3
:102DC800B442DBB2F9D1DB43DBB2013A8D188A5C3D
:102DD8009A4206D00F4B4FF4807201201A8070BCC3
:102DE80070478B7803700B794370053100238D424F
:102DF800837009D05A1CD2B2827011F8014B034477
:102E0800A942DC701346F5D1002070BC7047FF233F
:102E1800DBE700BF20000020F8B504460120A368C6
:102E28000E46174698471D4B236104F124050023DD
:102E3800237584F820303A46A561E5612846636821
:102E480031469847B0B904F1100703E094F8201010
:102E5800012915D0236938469847E369A269934246
:102E6800F4D194F82030BBB90D4B4FF480721A801E
:102E78000120F8BD0A4B40F201121A800120F8BD6A
:102E88009B1A9BB29E42EFD104F144002946324678
:102E9800BDE8F840FFF788BF0023F3E7112D0008CD
:102EA80020000020002841D04368002B3BD0002997
:102EB8003CD00378FF2B39D083781A2B2EDC30B422
:102EC800FF230B704B7003788B7083780233CB70C1
:102ED80043780B7183784A1D43B100234468E45C4E
:102EE80002F8014B84780133A342F7DB531A9BB2F3
:102EF800022B1FD0DC1EA4B202340C44481C002351
:102F080010F8015F2B44A042DBB2F9D1DB43DBB2FE
:102F180002F8013B521AD0B230BC7047064B01226E
:102F28001A80002070478378002BC0D0024B002005
:102F380018807047FF23EBE720000020F8B500F168
:102F480024060446084631461746FFF7ABFF0546F8
:102F580008B90120F8BDA3680020984723683046C7
:102F6800A9B23A469847012801D00020F8BD024B83
:102F780040F201121A80F8BD20000020F8B59DF833
:102F88001870002836D01F2934D8192B32DC1A4C77
:102F98001A4E615C31704BB15D1E15443146013AE1
:102FA80012F8014F01F8014FAA42F9D1144D0278E5
:102FB8002A70012F0CBF0327042701330446294632
:102FC8004068AB7001226E606F70FFF7B7FF012891
:102FD80010D0606806210122FFF71EFF012809D0E2
:102FE800636893F8450010F03F0004D0054B40F4A7
:102FF800007018800120F8BD9035000824000020DA
:103008004400002020000020F0B5B1F5806F85B0A5
:103018000C4603D2B2F5806F154605D3104B00223B
:1030280001201A8005B0F0BD01234FEA112E064693
:10303800170A0093032103AA04238DF80C408DF886
:103048000DE08DF80E508DF80F70FFF797FF73683D
:103058000446DB680A209847204605B0F0BD00BF4B
:103068002000002030B5B1F5806F85B00C4605D33F
:10307800094B002201201A8005B030BD00920D0ACC
:1030880003AA142102238DF80C408DF80D50FFF788
:1030980075FF05B030BD00BF2000002083681B68A5
:1030A8005B6A026803609B1A012B07DC9A1C426862
:1030B800D8BF01231A4442601846704742684FF04F
:1030C800FF331A4442601846704700BF1749184B2F
:1030D800184A194810B4D1F8884044F47004C1F86B
:1030E80088401C6844F001041C605C6822405A60F7
:1030F8001A6822F0847222F480321A601A6822F464
:1031080080221A605A6822F4FE025A60DA6A22F0B3
:103118000F02DA621A6B002410404FF00062186345
:103128009C608A605DF8044B704700BF00ED00E0CA
:10313800001002400CC07FF8CCFC00FF0F4B104978
:10314800104A10B45C68D86A5B6814F4803F08BF02
:103158000A464FF4701191FAA1F103F47013B1FA11
:1031680081F1CB40023300F00F0001305DF8044BD1
:10317800B2FBF0F000FB03F0704700BF0010024004
:1031880000093D0000127A00044B5B6803F00C0351
:10319800082B01D1FFF7D2BF014870470010024049
:1031A80000127A0038B50446FFF7EEFF0B4B20609B
:1031B8005A680B4D0B49C2F30312AA5CD0406060F9
:1031C8005A68C2F302228A5C20FA02F2A2605B68A3
:1031D800C3F3C223CB5CD840E06038BD0010024086
:1031E800B0350008C0350008C8B910B5164C236BB7
:1031F80003F00303022B14D0032B1ED0012B18D08D
:10320800FFF7C2FF62686368104C1149C2F30312EA
:10321800C3F30223A25CCB5CD040D84010BD002091
:103228007047236A13F0020F0CBF00204FF40040D0
:1032380010BDBDE81040FFF7A7BF2368054813F08D
:10324800020F08BF002010BD00100240B035000872
:10325800C035000800127A00036813F0010231D16A
:103268002DE9F0430D4687B004464E680869896920
:103278000191E968D4F80090284BD5F80880D5F872
:1032880014E0274F0E4301993043014309EA030331
:103298000B432360636823F4405343EA08036360E5
:1032A800A36823F4407343EA0E03BC42A36030D002
:1032B8001C4B9C4208D01C4B9C4205D0002007B0F8
:1032C800BDE8F0830020704702A8FFF76BFF049861
:1032D8000028F3D02B68002BF0D0AA69B2F5004F74
:1032E80009D000EB5300B0FBF3F080B2E06001209E
:1032F80007B0BDE8F0835A084FF6F07102EB4000C2
:10330800B0FBF3F00140C0F342000843E060012045
:10331800D5E71046FFF768FFDAE700BFF369FFEF6C
:103328000038014000440040004800402DE9F04FBB
:103338000C6894FAA4F3B3FA83F334FA03F500F0B3
:10334800A4804F681A464FF0010E07F1FF3C032690
:103358004FF00F0804E0013234FA02F5134658D052
:103368000EFA03F32340F6D0D0F8009093FAA3FAAC
:10337800BAFA8AFA93FAA3F54FEA4A0A06FA0AFA57
:10338800B5FA85F56D0029EA0A0907FA05F549EA4B
:103398000505BCF1010F056049D9C56893FAA3FA80
:1033A800BAFA8AFA93FAA3F94FEA4A0A06FA0AFA23
:1033B80025EA0A0B0D69B9FA89F94FEA490905FAAC
:1033C80009F54BEA0505022FC560C4D193FAA3F9A4
:1033D800B9FA89F9B9F1070F4FEA13253FDC056AF5
:1033E80093FAA3FABAFA8AFA93FAA3F34FEA8A0A83
:1033F80008FA0AFA25EA0A094D69B3FA83F39B0029
:103408009D4049EA05050132056234FA02F5134682
:10341800A6D1BCF1010F07D8CB68426803FB04F3BF
:1034280022EA04041C4344600120BDE8F08F85684B
:1034380093FAA3FABAFA8AFA93FAA3F94FEA4A0A6C
:1034480006FA0AFA25EA0A0B8D68B9FA89F94FEAE9
:10345800490905FA09F54BEA050585609DE7436AC0
:1034680095FAA5FABAFA8AFA95FAA5F54FEA8A0AF8
:1034780008FA0AFA23EA0A094B69B5FA85F5AD0094
:10348800AB4049EA0303436265E74B6803F1FF3C3D
:10349800BFE700BFDFF834D0002103E00C4B5B58D6
:1034A800435004310B480C4B42189A42F6D30B4A4E
:1034B80002E0002342F8043B094B9A42F9D3FFF794
:1034C80005FE00F011F8FDF7DBFEFEE700300020F6
:1034D800D03500080000002004000020040000206F
:1034E800CC060020FEE7000070B50E4B0E4CE41A27
:1034F800A41000251E46A54204D056F8253098474A
:103508000135F8E700F016F8084C094BE41AA41046
:1035180000251E46A54204D056F8253098470135A7
:10352800F8E770BDC8350008C8350008CC35000874
:10353800C8350008F8B500BFF8BC08BC9E467047FF
:0C354800F8B500BFF8BC08BC9E467047F8
:1035540001000000940500200200000094050020F2
:103564000300000094050020010203040506070877
:10357400090A0B0C0D0E0F100203040506070809B7
:103584000A0B0C0D0E0F10100004080203040506AC
:10359400080B0C0D0E101112000218191A1B1C1D19
:1035A4001E20222F302426282A2B2C2E0000000037
:1035B40000000000010203040607080900000000DF
:0435C40001020304F9
:0435C800F501000801
:0435CC00CD01000825
:0435D00000127A006B
:040000050800349D1E
:00000001FF
