:020000040800F2
:1000000000300020418900083932000847320008DA
:100010004D32000853320008593200080000000039
:100020000000000000000000000000005F32000837
:100030006D320008000000007B32000889320008A1
:100040009189000891890008918900089189000828
:100050009189000891890008918900089189000818
:100060009189000891890008918900089189000808
:1000700091890008918900089189000891890008F8
:100080009932000891890008918900089189000837
:1000900091890008918900089189000891890008D8
:1000A0003D33000891890008918900089189000872
:1000B00091890008918900080000000091890008DA
:1000C00091890008000000000000000091890008EC
:1000D0000000000091890008513300089189000850
:1000E00091890008918900080000000000000000CC
:1000F0000000000000000000000000000000000000
:1001000000000000000000000000000000000000EF
:10011000000000000000000091890008918900089B
:1001200000000000000000000000000000000000CF
:1001300000000000000000000000000000000000BF
:10014000918900089189000800000000000000006B
:10015000000000000000000000000000000000009F
:10016000000000000000000000000000000000008F
:10017000000000000000000000000000000000007F
:08018000000000009189000855
:1001880081F0004102E000BF83F0004330B54FEA40
:1001980041044FEA430594EA050F08BF90EA020FAD
:1001A8001FBF54EA000C55EA020C7FEA645C7FEA40
:1001B800655C00F0E2804FEA5454D4EB5555B8BF63
:1001C8006D420CDD2C4480EA020281EA030382EAD4
:1001D800000083EA010180EA020281EA0303362D66
:1001E80088BF30BD11F0004F4FEA01314FF4801C39
:1001F8004CEA113102D0404261EB410113F0004F4B
:100208004FEA03334CEA133302D0524263EB430301
:1002180094EA050F00F0A780A4F10104D5F1200E9F
:100228000DDB02FA0EFC22FA05F2801841F10001FA
:1002380003FA0EF2801843FA05F359410EE0A5F1CE
:1002480020050EF1200E012A03FA0EFC28BF4CF0FF
:10025800020C43FA05F3C01851EBE37101F00045B5
:1002680007D54FF0000EDCF1000C7EEB00006EEBC2
:100278000101B1F5801F1BD3B1F5001F0CD349084C
:100288005FEA30004FEA3C0C04F101044FEA4452A3
:1002980012F5800F80F09A80BCF1004F08BF5FEA2A
:1002A800500C50F1000041EB045141EA050130BD0A
:1002B8005FEA4C0C404141EB010111F4801FA4F1AD
:1002C8000104E9D191F0000F04BF01460020B1FA02
:1002D80081F308BF2033A3F10B03B3F120020CDA3A
:1002E8000C3208DD02F1140CC2F10C0201FA0CF018
:1002F80021FA02F10CE002F11402D8BFC2F1200C7D
:1003080001FA02F120FA0CFCDCBF41EA0C01904032
:10031800E41AA2BF01EB0451294330BD6FEA04047B
:100328001F3C1CDA0C340EDC04F11404C4F1200266
:1003380020FA04F001FA02F340EA030021FA04F378
:1003480045EA030130BDC4F10C04C4F1200220FACF
:1003580002F001FA04F340EA0300294630BD21FA0D
:1003680004F0294630BD94F0000F83F4801306BFD3
:1003780081F480110134013D4EE77FEA645C18BFC7
:100388007FEA655C29D094EA050F08BF90EA020F5E
:1003980005D054EA000C04BF1946104630BD91EA56
:1003A800030F1EBF0021002030BD5FEA545C05D159
:1003B8004000494128BF41F0004130BD14F5800498
:1003C8003CBF01F5801130BD01F0004545F0FE410C
:1003D80041F470014FF0000030BD7FEA645C1ABF41
:1003E800194610467FEA655C1CBF0B46024650EA78
:1003F800013406BF52EA033591EA030F41F40021A4
:1004080030BD00BF90F0000F04BF0021704730B529
:100418004FF4806404F132044FF000054FF00001FE
:1004280050E700BF90F0000F04BF0021704730B5BF
:100438004FF4806404F1320410F0004548BF404294
:100448004FF000013EE700BF42004FEAE2014FEAE9
:1004580031014FEA02701FBF12F07F4393F07F4FC4
:1004680081F06051704732F07F4208BF704793F0C7
:100478007F4F04BF41F40021704730B54FF46074DA
:1004880001F0004521F000411CE700BF50EA0102DD
:1004980008BF704730B54FF000050AE050EA010286
:1004A80008BF704730B511F0004502D5404261EBF6
:1004B80041014FF4806404F132045FEA915C3FF437
:1004C800D8AE4FF003025FEADC0C18BF03325FEAD4
:1004D800DC0C18BF033202EBDC02C2F1200300FA85
:1004E80003FC20FA02F001FA03FE40EA0E0021FAAA
:1004F80002F11444BDE600BF70B54FF0FF0C4CF498
:10050800E06C1CEA11541DBF1CEA135594EA0C0F49
:1005180095EA0C0F00F0DEF82C4481EA030621EA84
:100528004C5123EA4C5350EA013518BF52EA0335BF
:1005380041F4801143F4801338D0A0FB02CE4FF071
:100548000005E1FB02E506F00042E0FB03E54FF0A1
:100558000006E1FB03569CF0000F18BF4EF0010E99
:10056800A4F1FF04B6F5007F64F5407404D25FEA95
:100578004E0E6D4146EB060642EAC62141EA555148
:100588004FEAC52040EA5E504FEACE2EB4F1FD0C8A
:1005980088BFBCF5E06F1ED8BEF1004F08BF5FEA08
:1005A800500E50F1000041EB045170BD06F00046BA
:1005B80046EA010140EA020081EA0301B4EB5C0467
:1005C800C2BFD4EB0C0541EA045170BD41F480115F
:1005D8004FF0000E013C00F3AB8014F1360FDEBF84
:1005E800002001F0004170BDC4F10004203C35DA60
:1005F8000C341BDC04F11404C4F1200500FA05F3E3
:1006080020FA04F001FA05F240EA020001F0004283
:1006180021F0004110EBD37021FA04F642EB0601F9
:100628005EEA430E08BF20EAD37070BDC4F10C0423
:10063800C4F1200500FA04F320FA05F001FA04F2E7
:1006480040EA020001F0004110EBD37041F10001D3
:100658005EEA430E08BF20EAD37070BDC4F12005DE
:1006680000FA05F24EEA020E20FA04F301FA05F246
:1006780043EA020321FA04F001F0004121FA04F2EE
:1006880020EA020000EBD3705EEA430E08BF20EABE
:10069800D37070BD94F0000F0FD101F000464000F8
:1006A80041EB010111F4801F08BF013CF7D041EA7A
:1006B800060195F0000F18BF704703F0004652007E
:1006C80043EB030313F4801F08BF013DF7D043EA4F
:1006D8000603704794EA0C0F0CEA135518BF95EA05
:1006E8000C0F0CD050EA410618BF52EA4306D1D18C
:1006F80081EA030101F000414FF0000070BD50EAAB
:10070800410606BF1046194652EA430619D094EA34
:100718000C0F02D150EA013613D195EA0C0F05D11E
:1007280052EA03361CBF104619460AD181EA030172
:1007380001F0004141F0FE4141F470014FF000002A
:1007480070BD41F0FE4141F4780170BD70B54FF0C5
:10075800FF0C4CF4E06C1CEA11541DBF1CEA135545
:1007680094EA0C0F95EA0C0F00F0A7F8A4EB050427
:1007780081EA030E52EA03354FEA013100F088801E
:100788004FEA03334FF0805545EA131343EA1263E7
:100798004FEA022245EA111545EA10654FEA00269C
:1007A8000EF000419D4208BF964244F1FD0404F555
:1007B800407402D25B084FEA3202B61A65EB0305B1
:1007C8005B084FEA32024FF480104FF4002CB6EB6E
:1007D800020E75EB030E22BFB61A754640EA0C00EE
:1007E8005B084FEA3202B6EB020E75EB030E22BF2E
:1007F800B61A754640EA5C005B084FEA3202B6EB6F
:10080800020E75EB030E22BFB61A754640EA9C002D
:100818005B084FEA3202B6EB020E75EB030E22BFFD
:10082800B61A754640EADC0055EA060E18D04FEABB
:10083800051545EA16754FEA06164FEAC30343EA5B
:1008480052734FEAC2025FEA1C1CC0D111F4801F28
:100858000BD141EA00014FF000004FF0004CB6E721
:1008680011F4801F04BF01430020B4F1FD0C88BFC0
:10087800BCF5E06F3FF6AFAEB5EB030C04BFB6EBCB
:10088800020C5FEA500C50F1000041EB045170BDBE
:100898000EF0004E4EEA113114EB5C04C2BFD4EBEB
:1008A8000C0541EA045170BD41F480114FF0000E6F
:1008B800013C90E645EA060E8DE60CEA135594EAEB
:1008C8000C0F08BF95EA0C0F3FF43BAF94EA0C0FEE
:1008D8000AD150EA01347FF434AF95EA0C0F7FF463
:1008E80025AF104619462CE795EA0C0F06D152EAB7
:1008F80003353FF4FDAE1046194622E750EA41069B
:1009080018BF52EA43067FF4C5AE50EA41047FF4AB
:100918000DAF52EA43057FF4EBAE12E74A0011D25D
:1009280012F5001211D20DD56FF47873B3EB625241
:100938000ED44FEAC12343F0004343EA505323FA4D
:1009480002F070474FF00000704750EA013002D1C2
:100958004FF0FF3070474FF0000070474FEA4102F8
:10096800B2F1E04324BFB3F5001CDCF1FE5C0DD905
:1009780001F0004C4FEAC0024CEA5070B2F1004F4F
:1009880040EB830008BF20F00100704711F0804F52
:1009980021D113F13872BCBF01F00040704741F417
:1009A80080114FEA5252C2F11802C2F1200C10FA1B
:1009B8000CF320FA02F018BF40F001004FEAC123FF
:1009C8004FEAD32303FA0CFC40EA0C0023FA02F3A3
:1009D8004FEA4303CCE77FEA625307D150EA013379
:1009E8001EBF4FF0FE4040F44000704701F0004049
:1009F80040F0FE4040F40000704700BF10B5054CC1
:100A0800227832B9044B13B10448AFF300800123B4
:100A1800237010BD0402002000000000DC890008DB
:100A280008B5034B1BB103490348AFF3008008BD69
:100A38000000000008020020DC89000880B483B0B0
:100A480000AF78607B68DB681B78FF22934207D190
:100A58007B68DB685A1C7B68DA607B68034A1A602B
:100A680000BF0C37BD465DF8047B7047790A000863
:100A780080B483B000AF78607B68DB681B78FF22A6
:100A8800934208D17B68DB685A1C7B68DA607B6814
:100A9800074A1A6006E07B68064A1A607B689A680B
:100AA8007B68DA6000BF0C37BD465DF8047B704791
:100AB800C10A0008450A000880B483B000AF786016
:100AC8007B68DB681B78FF2B08D07B68DB685A1CC7
:100AD8007B68DA607B68084A1A6006E07B68074A28
:100AE8001A607B689A687B68DA6000BF0C37BD467D
:100AF8005DF8047B704700BF090B0008450A000831
:100B080080B485B000AF78607B68DB681A787B6852
:100B18001A717B681B79FB73FB7B012B0CD9FB7B60
:100B28000433202B08DC7B68DB685A1C7B68DA609E
:100B38007B68084A1A6006E07B68074A1A607B6887
:100B48009A687B68DA6000BF1437BD465DF8047B9D
:100B5800704700BF650B0008450A000880B483B0E1
:100B680000AF78607B68DB685A1C7B68DA607B685A
:100B78001B79013BDAB27B681A717B681B79002B01
:100B880002D17B6801221A7400BF0C37BD465DF89C
:100B9800047B704780B586B000AFF860B960134633
:100BA800FB80BB689A1CFB88033B9BB21946104626
:100BB80000F05EF903461946FB88013BBA68134406
:100BC8001B78994205D0184B4FF480721A80012384
:100BD80026E0BB689A78FB681A70BB681A79FB68CC
:100BE8005A70FB6800229A70BB6805337B61FB88EA
:100BF800013BBA6813443B610DE07B695A1C7A617A
:100C0800FA689278511CC8B2F968887011461A7847
:100C1800FB680B44DA707A693B699A42EDD100238C
:100C280018461837BD4680BD2002002080B586B022
:100C380000AFF8600B467A607B817B89202B04D952
:100C4800334B01221A8001235EE0FB689B68012078
:100C58009847FB682F4A1A61FB6800221A75FB68DF
:100C680003F12402FB689A61FB6803F12402FB6824
:100C7800DA61FB68002283F82020FB685B68FA6869
:100C8800D06979897A6898470346002B05D0204BAC
:100C980040F201121A80012336E0FB681B69FA68EA
:100CA800103210469847FB68DA69FB689B699A42DC
:100CB80004D0FB6893F82030012BEED1FB6893F841
:100CC8002030002B05D1124B4FF480721A8001237B
:100CD8001AE0FB68DB691A46FB689B69D31AFB823A
:100CE800FA8A7B899A4205D0094B4FF480721A80A0
:100CF800012309E0FB6803F14400FB6824337A8987
:100D08001946FFF747FF034618461837BD4680BD0A
:100D180020020020450A000880B586B000AF786040
:100D280039607B68002B0AD07B685B68002B03D195
:100D38007B689B78002B02D13B68002B04D1334B96
:100D480000221A8000235DE07B681B78FF2B04D10A
:100D58002E4B00221A80002354E07B689B780633D0
:100D6800202B04DD294B01221A8000234AE03B682E
:100D78007B617B695A1C7A61FF221A707B695A1C55
:100D88007A61FF221A707B695A1C7A617A68127834
:100D98001A707B689A787B69591C79610232D2B2E1
:100DA8001A707B695A1C7A617A6852781A70002323
:100DB8003B610BE07B685A683B691A447B69591CA4
:100DC800796112781A703B6901333B617B689B78C3
:100DD8001A463B699342EDDB3B68981C7A693B688D
:100DE800D31A9BB2023B9BB2194600F041F8034666
:100DF800FB737B695A1C7A61FA7B1A707A693B68C3
:100E0800D31ADBB218461837BD4680BD2002002031
:100E180080B586B000AFF860B9607A60FB682433AB
:100E28001946B868FFF778FF0346FB75FB7D002B72
:100E380001D1012316E0FB689B6800209847FB68F6
:100E48001B68FA6802F12400FA7D91B27A68984723
:100E58000346012B05D1054B40F201121A800123EC
:100E680000E0002318461837BD4680BD2002002048
:100E780080B485B000AF78600B467B800023FB739D
:100E88000023BB8109E0BB897A6813441A78FB7B8D
:100E98001344FB73BB890133BB81BA897B889A42AF
:100EA800F1D3FB7BDB43DBB218461437BD465DF854
:100EB800047B704780B483B000AF78607B685B6860
:100EC80093F8453003F03F03002B0FD07B685B6835
:100ED80093F845301BB203F03F031BB243F4007391
:100EE8001BB29AB2054B1A80012300E00023184672
:100EF8000C37BD465DF8047B704700BF2002002018
:100F080080B588B000AFF8600B467A60FB72FB7A58
:100F18001F2B04D92D4B00221A80012352E0FB68B5
:100F28001B783B7602237B760223BB76FB7A284A22
:100F3800D35C3B75FB7A274AD35C7B7507F11403B6
:100F4800FB61FB685B6807F1180101221846FFF78F
:100F58005FFF0346012B01D1012333E0FB6858688A
:100F6800FB7A1C4AD35C9BB206339BB2012219461A
:100F7800FFF75CFE0346012B01D1012322E0F8684C
:100F8800FFF798FF0346012B01D101231AE0FB6804
:100F98005B6893F847309AB27B681A80FB7A0D4AEF
:100FA800D35C022B0DD17B681B881AB2FB685B6887
:100FB80093F848301B021BB213431BB29AB27B68EA
:100FC8001A80002318462037BD4680BD2002002025
:100FD800348A0008548A000880B586B000AFF860EB
:100FE8007A601A460B46FB721346BB72FB68002BED
:100FF80006D0FB7A1F2B03D8BB7A0733202B01DDE1
:1010080001234CE0FB7A284AD25C284B1A70002353
:101018007B610AE07B697A681A447B69013311783D
:10102800224AD1547B6901337B61BB7A7A699A423F
:10103800F0DBFB681A781E4B1A7097F82030012BEA
:1010480001D1032200E00422194B5A70BB7A013304
:10105800DAB2174B9A70164B144A5A60FB685B68F1
:10106800012213491846FFF7D3FE0346012B01D18D
:10107800012314E0FB685B68012206211846FFF78C
:10108800D5FD0346012B01D1012308E0F868FFF7DD
:1010980011FF0346012B01D1012300E0002318466C
:1010A8001837BD4680BD00BF348A000824020020DE
:1010B8004402002080B586B002AF78600B467B8082
:1010C80013467B707B88B3F5806F04D30D4B0022E9
:1010D8001A80012311E07B88DBB23B737B881B0AF3
:1010E8009BB2DBB27B7307F10C027B78009302237F
:1010F80014217868FFF770FF034618461037BD467D
:1011080080BD00BF2002002080B582B000AF7860AB
:1011180039603A6819217868FFF7F2FE03461846E5
:101128000837BD4680BD80B584B000AFF860B960AF
:101138007A607A681B21F868FFF7E2FE0346012B04
:1011480001D1012313E07B681B8840F2FF329342F0
:1011580094BF01230023DBB21A46BB681A707B6870
:101168001B88C3F309039AB27B681A8000231846C8
:101178001037BD4680BD000080B586B000AFF8606E
:101188000B467A607B817A897B68F968074805F0A5
:1011980095F80346FB75FB7D002B14BF0123002344
:1011A800DBB218461837BD4680BD00BF7C0700205B
:1011B80080B586B000AFF8600B467A607B817A898B
:1011C8007B68F968074804F0ECFF0346FB75FB7D74
:1011D800002B14BF01230023DBB218461837BD4685
:1011E80080BD00BF7C07002080B582B000AF0346F9
:1011F800FB71FB79002B0CBF01230023DBB21A46DD
:101208004FF480714FF0904007F0E4FA00BF0837C0
:10121800BD4680BD80B485B000AFF860B9607A6023
:101228000023FA685360FA681360FB68BA689A602A
:10123800FB687A68DA6000BF1437BD465DF8047B46
:10124800704780B485B000AF78607B689B681B6886
:101258005B6ABB607B681B68BA68D31AFB607B68F3
:10126800BA681A60FB68B3F5E15F04DDFB68A3F5B3
:101278006153FB6007E0FB6813F5E15F03DAFB6885
:1012880003F56153FB607B685A68FB681A447B6806
:101298005A60FB6818461437BD465DF8047B7047F2
:1012A80080B582B000AF78607B689B683C211846A7
:1012B80006F0E6F97B68DB68184606F0B6F800BF6A
:1012C8000837BD4680BD000080B582B000AF7860A9
:1012D800054B1B681B791946786800F07BFD00BF39
:1012E8000837BD4680BD00BFBC02002080B582B073
:1012F80000AF7860786800F06DFD04F074FA00BF04
:101308000837BD4680BD000080B584B002AF786064
:10131800084B0193084B0093084B094A0949786820
:1013280000F032FD786800F055FD00BF0837BD4673
:1013380080BD00BF1403002010030020000300201C
:10134800FC020020F802002080B582B000AF78606F
:10135800786800F03FFD00BF0837BD4680BD00003B
:1013680080B582B000AF7860064B074A1A60074B19
:10137800044A1A60786800F02DFD00BF0837BD46A2
:1013880080BD00BF38030020AD2E0008BC0200203D
:1013980080B582B000AF786072B6786800F01AFD48
:1013A80001224FF487710448FFF784FE62B600BF3C
:1013B8000837BD4680BD00BFC802002080B582B096
:1013C80000AF786072B6786800F004FD012240F240
:1013D8000D210448FFF76EFE62B600BF0837BD4610
:1013E80080BD00BFC802002080B582B000AF786021
:1013F800074B084A1A60064B00229A61064B044ABA
:101408001A60786800F0E6FC00BF0837BD4680BD6A
:101418001C030020E1290008BC02002080B582B02E
:1014280000AF7860074B084A1A60064B01229A61A0
:10143800064B044A1A60786800F0CCFC00BF0837F5
:10144800BD4680BD1C030020E1290008BC02002025
:1014580080B582B000AF7860064B074A1A60074B28
:10146800044A1A60786800F0B5FC00BF0837BD462A
:1014780080BD00BFE40200201D2F0008BC02002030
:1014880080B582B000AF7860064B074A1A60074BF8
:10149800044A1A60786800F09DFC00BF0837BD4612
:1014A80080BD00BF4C030020B5300008BC020020FE
:1014B80080B487B000AF786039600023FB600023F8
:1014C8007B6102E07B6901337B617B69072B00F359
:1014D800A4807B693A681A447B6979680B4412785E
:1014E8001A701B78FB74FB7C002B00F0968001239C
:1014F800BB60FB7C423B332B00F2888001A252F890
:1015080023F000BFE5150008151600081516000899
:101518001516000805160008151600081516000807
:1015280015160008151600081516000815160008E7
:1015380015160008151600081516000815160008D7
:1015480015160008151600081516000815160008C7
:1015580015160008151600081516000815160008B7
:1015680015160008151600081516000815160008A7
:101578001516000815160008151600081516000897
:1015880015160008DD1500081516000815160008C0
:1015980015160008FD150008151600081516000890
:1015A800F515000815160008151600081516000888
:1015B8001516000815160008151600081516000857
:1015C80015160008151600080D160008151600084F
:1015D800ED150008FB680133FB6019E0FB68023376
:1015E800FB6015E0FB680433FB6011E0FB68043323
:1015F800FB600DE0FB680433FB6009E0FB6808331F
:10160800FB6005E0FB684033FB6001E00023BB6042
:1016180000BFBB68002B7FF455AFFB7C002B02D1C9
:10162800FB68F92B05DD064B01221A604FF0FF33EA
:1016380000E0002318461C37BD465DF8047B704760
:101648004C02002090B59DB000AFF860B9607A6098
:101658003B607B687B640123FB6651E197F843306C
:10166800622B28D13B681B68191D3A6811601B68FA
:10167800DBB287F8273007F12703BB667B68013B9D
:10168800BB62BB6ADB43DB0FDBB2FB66FB6E002B86
:1016980000F036810AE0BA6E531CBB66BB68591C61
:1016A800B96012781A707B68013B7B607A68BB6A04
:1016B8009A42F0DC24E197F84330422B27D13B686B
:1016C8001B68191D3A6811601B689BB2BB8407F13F
:1016D80024037B667B68023BFB62FB6ADB43DB0F10
:1016E800DBB2FB66FB6E002B00F00A810AE07A6E23
:1016F800531C7B66BB68591CB96012781A707B68EA
:10170800013B7B607A68FB6A9A42F0DCF8E097F864
:101718004330752B26D13B681B68191D3A68116048
:101728001B683B6207F120033B667B68043B3B6315
:101738003B6BDB43DB0FDBB2FB66FB6E002B00F081
:10174800DF800AE03A6E531C3B66BB68591CB960DF
:1017580012781A707B68013B7B607A683B6B9A420F
:10176800F0DCCDE097F84330692B26D13B681B6845
:10177800191D3A6811601B68FB6107F11C03FB65C2
:101788007B68043B7B637B6BDB43DB0FDBB2FB6675
:10179800FB6E002B00F0B4800AE0FA6D531CFB6569
:1017A800BB68591CB96012781A707B68013B7B6072
:1017B8007A687B6B9A42F0DCA2E097F84330662B9C
:1017C8002FD13B681B68073323F0070303F1080197
:1017D8003A681160D3E9003418462146FFF7BEF88D
:1017E8000346BB6107F11803BB657B68043BBB6319
:1017F800BB6BDB43DB0FDBB2FB66FB6E002B7FD0E2
:101808000AE0BA6D531CBB65BB68591CB9601278F5
:101818001A707B68013B7B607A68BB6B9A42F0DC8C
:101828006EE097F84330462B2BD13B681B68073393
:1018380023F0070303F108013A681160D3E9003483
:10184800C7E9043407F110037B657B68083BFB6339
:10185800FB6BDB43DB0FDBB2FB66FB6E002B4FD071
:101868000AE07A6D531C7B65BB68591CB960127815
:101878001A707B68013B7B607A68FB6B9A42F0DCEC
:101888003EE097F84330732B34D13B681B68191D31
:101898003A6811601B683B652A2387F84F3040235C
:1018A800BB6402E07B68013B7B607B68002B14D043
:1018B8003A6D531C3B65BB68591CB96012781A70A5
:1018C8001B7887F84F3097F84F30002B05D0BB6C4A
:1018D800013BBB64BB6C002BE4D197F84F30002B65
:1018E80005D17B68013B7B600123FB6608E0002390
:1018F800FB6605E0104B01221A604FF0FF3316E03B
:10190800FB685A1CFA601B7887F8433097F8433015
:10191800002B03D0FB6E002B7FF4A0AEFB6E002BD8
:1019280003D07A6C7B68D31A01E04FF0FF33184676
:101938007437BD4690BD00BF4C02002080B497B0FC
:1019480000AFF860B9607A603B6001237B652CE1E9
:1019580097F82F30622B23D13B681B68191D3A6812
:1019680011601B683B657B68013B7B617B69DB43DE
:10197800DB0FDBB27B657B6D002B00F016810AE084
:10198800BA68531CBB603B6D591C396512781A70D4
:101998007B68013B7B607A687B699A42F0DC04E1F2
:1019A80097F82F30422B23D13B681B68191D3A68E2
:1019B80011601B68FB647B68023BBB61BB69DB434E
:1019C800DB0FDBB27B657B6D002B00F0EE800AE05D
:1019D800BA68531CBB60FB6C591CF96412781A7006
:1019E8007B68013B7B607A68BB699A42F0DCDCE08B
:1019F80097F82F30752B23D13B681B68191D3A685F
:101A080011601B68BB647B68043BFB61FB69DB43BB
:101A1800DB0FDBB27B657B6D002B00F0C6800AE034
:101A2800BA68531CBB60BB6C591CB96412781A7035
:101A38007B68013B7B607A68FB699A42F0DCB4E022
:101A480097F82F30692B23D13B681B68191D3A681A
:101A580011601B687B647B68043B3B623B6ADB4329
:101A6800DB0FDBB27B657B6D002B00F09E800AE00C
:101A7800BA68531CBB607B6C591C796412781A7065
:101A88007B68013B7B607A683B6A9A42F0DC8CE0B9
:101A980097F82F30662B22D13B681B68191D3A68CE
:101AA80011601B683B647B68043B7B627B6ADB4399
:101AB800DB0FDBB27B657B6D002B76D00AE0BA6862
:101AC800531CBB603B6C591C396412781A707B68D4
:101AD800013B7B607A687B6A9A42F0DC65E097F8A4
:101AE8002F30462B22D13B681B68191D3A681160BC
:101AF8001B68FB637B68083BBB62BB6ADB43DB0F8D
:101B0800DBB27B657B6D002B4FD00AE0BA68531CB3
:101B1800BB60FB6B591CF96312781A707B68013B38
:101B28007B607A68BB6A9A42F0DC3EE097F82F3017
:101B3800732B34D13B681B68191D3A6811601B6808
:101B4800BB632A2387F8373040233B6302E07B6876
:101B5800013B7B607B68002B14D0BA68531CBB60C8
:101B6800BB6B591CB96312781A701B7887F8373029
:101B780097F83730002B05D03B6B013B3B633B6B41
:101B8800002BE4D197F83730002B05D17B68013B57
:101B98007B6001237B6508E000237B6505E0124B31
:101BA80001221A604FF0FF3317E0FB685A1CFA60F5
:101BB8001B7887F82F3097F82F30002B03D07B6DD8
:101BC800002B7FF4C5AE7B6D002B04D07B68002B07
:101BD80001D1002301E04FF0FF3318465C37BD46C2
:101BE8005DF8047B704700BF4C02002080B485B0CC
:101BF80000AF786039607B683A681A600023FB6040
:101C08000CE07968FA6813465B001344DB000B4468
:101C1800043300221A60FB680133FB60FB681F2B4A
:101C2800EFDD00BF1437BD465DF8047B7047000048
:101C380080B586B000AFF860B9607A603B60BB6879
:101C4800002B02DBBB681F2B05DD1A4B00221A6034
:101C58004FF0FF332AE0BA6813465B001344DB00F9
:101C6800FA68134404337B617B6904333968184686
:101C7800FFF71EFC0346B3F1FF3F02D14FF0FF33DD
:101C880014E07B690C33396A1846FFF711FC0346E8
:101C9800B3F1FF3F02D14FF0FF3307E07B697A6869
:101CA8001A607B6997F824201A750023184618379C
:101CB800BD4680BD4C02002080B588B000AF78607A
:101CC80039603B685B78002B05D12E4B03221A60E4
:101CD8004FF0FF3351E03B681B78FB613B689B7812
:101CE800BB613B685B78013B7B613B6803333B61CD
:101CF800BB69002B02DBBB691F2B05DD214B0022D2
:101D08001A604FF0FF3338E0BA6913465B0013449A
:101D1800DB007A6813440433FB60FB681B68002B04
:101D280005D1184B02221A604FF0FF3325E07B687B
:101D3800FA69C3F804237B68BA69C3F808237B6887
:101D48003A69C3F80C237B687A69C3F81023FB68E7
:101D58001B7D002B02D0012B09D00DE07B680022EF
:101D680083F81423FB681B687868984704E07B684D
:101D7800012283F8142300BF002318462037BD46EC
:101D880080BD00BF4C0200200FB480B584B000AF06
:101D980007F11C037B60BB69D3F8082313465B007B
:101DA8001344DB00BA6913440433FB60FB68181D55
:101DB800BB69D3F80C13BB69D3F810233B1DFFF79D
:101DC800BDFDB860BB6818461037BD46BDE8804009
:101DD80004B070470FB480B582B000AF07F11403A8
:101DE8003B603B691B6803F501737B603B69D3F873
:101DF8000833DAB27B689A703B69D3F80433DAB2F5
:101E08007B681A703B69D3F8082313465B001344B8
:101E1800DB0008333A69134403F108007B68D91CD6
:101E28003B46F922FFF70EFC0346DBB20133DAB278
:101E38007B685A707B685B78002B05D10A4B0522BA
:101E48001A604FF0FF3307E03B691B68012279688D
:101E5800184600F0A5F9034618460837BD46BDE800
:101E6800804004B0704700BF4C02002080B483B0AB
:101E780000AF78607B684FF00002DA607B684FF053
:101E880000021A6100BF0C37BD465DF8047B70473D
:101E980080B485B000AF786039607B6893ED047AD0
:101EA8007B68D3ED056A3B6807EE903AF8EEE77A6F
:101EB80066EEA77A77EE277A7B68C3ED047A3B68EB
:101EC80007EE903AB8EEE77A7B68D3ED007A27EE12
:101ED800277A7B68D3ED016A7B68D3ED047A66EED6
:101EE800A77A37EE277A7B68D3ED026A3B6807EE5C
:101EF800903AB8EEE76A7B68D3ED037A76EE677AB4
:101F080026EEA76A7B68D3ED056AC6EE267A77EED9
:101F1800277AC7ED037A3B6807EE903AF8EEE77A3E
:101F28007B68C3ED037AFB6807EE903AB0EE670A68
:101F38001437BD465DF8047B704780B483B000AFAA
:101F4800786039603B6883EAE372A2EBE3727B68EE
:101F58009B699A4201DA012300E0002318460C37F6
:101F6800BD465DF8047B704780B485B000AFF8606B
:101F7800B9607A603B60FB68BA68C3F81824FB68EC
:101F88007A681A60FB683A685A60FB68002283F82E
:101F98001224FB680C4AC3F80024FB6803F108020A
:101FA800FB68C3F80824FB6803F58572FB68C3F86F
:101FB8000C24FB680022A3F8102400BF1437BD4688
:101FC8005DF8047B704700BF4122000880B483B0ED
:101FD80000AF78600B467B8000BF0C37BD465DF8CC
:101FE800047B704780B489B000AF786039607B6843
:101FF8005B78002B09D07B685B780633B3F5807F6C
:1020080003DC7B685B78FA2B06D9634B4FF480724C
:102018001A804FF0FF33B8E03B68FB61FB695A1C3C
:10202800FA61BB610023FB827B681B78FB73FB8A28
:102038001B021AB2FB8A1B0A9BB21946FB7B4B4058
:10204800DBB2564931F813301BB253401BB2FB8246
:10205800FB7B002B0AD1FA69BB69D31ADAB2BB69D8
:102068001A70FB695A1CFA61BB6104E0FB695A1CCF
:10207800FA61FA7B1A707B685B780433BB73FB8A5E
:102088001B021AB2FB8A1B0A9BB21946BB7B4B4048
:10209800DBB2424931F813301BB253401BB2FB820A
:1020A800FB695A1CFA61BA7B1A7000233B612CE069
:1020B8007A683B69134402331B78FB72FB8A1B0264
:1020C8001AB2FB8A1B0A9BB21946FB7A4B40DBB259
:1020D800324931F813301BB253401BB2FB82FB7AF2
:1020E800002B0AD1FA69BB69D31ADAB2BB691A7034
:1020F800FB695A1CFA61BB6104E0FB695A1CFA616E
:10210800FA7A1A703B6901333B617B685B781A463F
:102118003B699342CCDBFB8A7B73FB8A1B0A9BB22D
:102128003B737B7B002B0AD1FA69BB69D31ADAB2FD
:10213800BB691A70FB695A1CFA61BB6104E0FB6950
:102148005A1CFA617A7B1A703B7B002B0AD1FA6918
:10215800BB69D31ADAB2BB691A70FB695A1CFA61F7
:10216800BB6104E0FB695A1CFA613A7B1A70FA6990
:10217800BB69D31ADAB2BB691A70FB695A1CFA61D7
:1021880000221A70FA693B68D31A18462437BD46EC
:102198005DF8047B704700BF50020020000000205B
:1021A80090B587B000AFF860B9607A60FB6803F556
:1021B80040731946B868FFF715FF78617B69B3F17A
:1021C800FF3F02D14FF0FF3316E0FB681C68FB6845
:1021D800D3F81804FB6803F540717B699AB27B68F1
:1021E800A0470346002B06D0054B4FF400721A8017
:1021F8004FF0FF3300E0002318461C37BD4690BD62
:102208005002002080B584B000AFF860B960134672
:10221800FB80FB68BA68C3F8082404E0FB68D3F8BD
:102228000034F8689847FB885A1EFA80002BF5D1CD
:1022380000BF1037BD4680BD80B485B000AF786060
:102248007B68D3F80834591C7A68C2F808141B78DC
:10225800FB73FB7B002B0ED17B680D4AC3F800246F
:102268007B680022A3F810247B6803F585727B68DD
:10227800C3F80C2407E07B68FA7B83F804247B68A6
:10228800044AC3F800241437BD465DF8047B704740
:1022980041220008A122000880B584B000AF786010
:1022A8007B68D3F80834591C7A68C2F808141B787C
:1022B800FB73FB7B002B18D1284B40F201221A80BC
:1022C800264B1B8819467868FFF780FE7B68244AEE
:1022D800C3F800247B680022A3F810247B6803F568
:1022E80085727B68C3F80C2434E07B6893F8043467
:1022F800013BDAB27B6883F804247B6893F80434E2
:10230800002B05D17B68FA7B83F80424002300E0C6
:10231800FB7BFB737B68FA7B83F808217B68B3F847
:1023280010341B021AB27B68B3F810341B0A9BB234
:102338001946FB7B4B40DBB20A4931F813301BB21C
:1023480053401BB29AB27B68A3F810247B68064AF4
:10235800C3F800241037BD4680BD00BF50020020DE
:1023680041220008000000207523000880B584B0D1
:1023780000AF78607B68D3F80834591C7A68C2F8D3
:1023880008141B78FB73FB7B002B18D1374B40F2EA
:1023980001221A80354B1B8819467868FFF716FE0C
:1023A8007B68334AC3F800247B680022A3F8102412
:1023B8007B6803F585727B68C3F80C2453E07B685F
:1023C80093F80434013BDAB27B6883F804247B6811
:1023D800B3F810341B021AB27B68B3F810341B0A26
:1023E8009BB21946FB7B4B40DBB2224931F81330D4
:1023F8001BB253401BB29AB27B68A3F81024FB7B34
:10240800043BDAB27B6883F806247B6893F80624D9
:102418007B6883F805247B6893F805247B6883F838
:1024280009217B6893F80534FA2B18D90F4B40F231
:1024380002221A800D4B1B8819467868FFF7C6FDE3
:102448007B680B4AC3F800247B680022A3F8102499
:102458007B6803F585727B68C3F80C2403E07B680E
:10246800054AC3F800241037BD4680BD500200203D
:1024780041220008000000208524000880B584B0AF
:1024880000AF78607B68D3F80834591C7A68C2F8C2
:1024980008141B78FB73FB7B002B18D1314B40F2DF
:1024A80001221A802F4B1B8819467868FFF78EFD8A
:1024B8007B682D4AC3F800247B680022A3F8102407
:1024C8007B6803F585727B68C3F80C2446E07B685B
:1024D80093F80434013BDAB27B6883F804247B6800
:1024E80093F80434002B05D17B68FA7B83F8042425
:1024F800002300E0FB7BFB737B68D3F80C34591C8A
:102508007A68C2F80C14FA7B1A707B68B3F8103436
:102518001B021AB27B68B3F810341B0A9BB2194627
:10252800FB7B4B40DBB2114931F813301BB25340EF
:102538001BB29AB27B68A3F810247B6893F8063420
:10254800013BDAB27B6883F806247B6893F806348B
:10255800002B03D17B68064AC3F800241037BD4618
:1025680080BD00BF5002002041220008000000206A
:102578007D25000880B584B000AF78607B68D3F80B
:102588000834591C7A68C2F808141B78FB73FB7B63
:10259800002B18D1294B40F201221A80274B1B88A7
:1025A80019467868FFF712FD7B68254AC3F80024AE
:1025B8007B680022A3F810247B6803F585727B688A
:1025C800C3F80C2436E07B68B3F81034DAB27B68C1
:1025D80093F80434013BD9B27B6883F804147B6810
:1025E80093F80434002B05D17B68F97B83F8041435
:1025F800002300E0FB7B934218D0104B40F20322EB
:102608001A800E4B1B8819467868FFF7DFFC7B6839
:102618000B4AC3F800247B680022A3F810247B68C7
:1026280003F585727B68C3F80C2403E07B68054AD0
:10263800C3F800241037BD4680BD00BF50020020FB
:10264800412200085126000880B584B000AF7860A8
:102658007B68D3F80834591C7A68C2F808141B78C8
:10266800FB73FB7B002B18D12A4B40F201221A8006
:10267800284B1B8819467868FFF7A8FC7B68264A10
:10268800C3F800247B680022A3F810247B6803F5B4
:1026980085727B68C3F80C2438E07B68B3F8103483
:1026A8001B0A9BB219467B6893F80434013BDAB2E3
:1026B8007B6883F804247B6893F80434002B05D1E5
:1026C8007B68FA7B83F80424002300E0FB7B8B42C1
:1026D80018D0104B40F203221A800E4B1B88194663
:1026E8007868FFF773FC7B680B4AC3F800247B68A3
:1026F8000022A3F810247B6803F585727B68C3F871
:102708000C2403E07B68054AC3F800241037BD4653
:1027180080BD00BF50020020412200082927000880
:1027280080B584B000AF78607B68D3F80834591C52
:102738007A68C2F808141B78FB73FB7B002B19D14D
:102748007B68012283F812247B6803F58473194699
:10275800786804F053FC7B68144AC3F800247B684B
:102768000022A3F810247B6803F585727B68C3F800
:102778000C2418E00E4B40F202221A800C4B1B88E6
:1027880019467868FFF722FC7B68084AC3F80024DA
:102798007B680022A3F810247B6803F585727B68A8
:1027A800C3F80C2400BF1037BD4680BD4122000885
:1027B8005002002080B400AF114B124A5A60104BEF
:1027C800114A1A600E4B114A9A600D4B104ADA6092
:1027D800104B01221A700F4B094A5A600E4B022205
:1027E8001A700D4B064A5A600C4B03221A700B4B99
:1027F800034A5A6000BFBD465DF8047B704700BFBE
:102808005402002081110008B9110008F1110008D4
:1028180085720008C8020020C0020020440300207E
:1028280080B500AF01224FF4D7710548FEF742FC8E
:10283800012240F24E210348FEF73CFC00BF80BD58
:10284800C00200204403002080B500AF01224FF4ED
:10285800FA710548FEF72EFC01224FF40271034875
:10286800FEF728FC00BF80BDC00200204403002002
:1028780080B500AF01224FF407710548FEF71AFC36
:1028880001224FF4F0710348FEF714FC00BF80BD2D
:10289800C00200204403002080B584B000AF034686
:1028A8000A46FB801346BB8007F10E0319461B48F6
:1028B800FEF72AFC0346002B02D04FF0FF3328E036
:1028C80007F10C0319461648FEF71EFC0346002BB9
:1028D80002D04FF0FF331CE0FB891A46FB88D31A5D
:1028E80013F1090F14DBFB891A46FB88D31A092B4D
:1028F8000EDCBB891A46BB88D31A13F1090F07DB14
:10290800BB891A46BB88D31A092B01DC012300E0D6
:10291800002318461037BD4680BD00BFC002002006
:102928004403002080B500AF40F24E214FF4D77029
:10293800FFF7B2FF0346184680BD80B500AF4FF4DD
:1029480002714FF4FA70FFF7A7FF0346184680BDDF
:1029580080B500AF4FF4FA714FF40270FFF79CFF97
:102968000346184680BD80B485B000AFF860B960F2
:102978007A603B607B681B683A689A4204DD7B6832
:102988001B685A1C7B681A60BB6807EE903AB8EE61
:10299800E77A7B681B6807EE903AB8EEE76A3B680F
:1029A80007EE903AF8EEE77AC6EE276AFA68BB684F
:1029B800D31A07EE903AF8EEE77A66EEA77A77EE42
:1029C800277AFDEEE77A17EE903A18461437BD4697
:1029D8005DF8047B7047000080B485B000AF786074
:1029E8007B6800221A717B68FB60FB6800225A61D1
:1029F8007B6800221A710A4B4FF000021A617B684B
:102A0800084A1A60FB6800221A61074B5A68FB687B
:102A1800DA6000BF1437BD465DF8047B704700BF1D
:102A2800F8020020512A0008D002002080B483B0A8
:102A380000AF78607B6802221A7100BF0C37BD4670
:102A48005DF8047B7047000080B584B000AF786003
:102A58007B68FB60FB68D968FB6803F110021423EC
:102A68004FF4E160FFF77FFF02460C4B1A600C4BF6
:102A78005B68C3F5E16319460A48FFF75EFA034647
:102A8800002B06D0074B4FF000021A617B68064AFC
:102A98001A6000BF1037BD4680BD00BFE0020020AD
:102AA800D0020020F8020020B52A000880B485B0C2
:102AB80000AF78607B68FB60164B40F698021A609E
:102AC800FB685B695A1CFB685A61FB685B69192BD8
:102AD8001ADDFB6800221A610F4B5A68FB68DA603E
:102AE8000E4B4FF000021A610B4B5B6840F6330245
:102AF800934203DC7B680A4A1A6002E07B68094A51
:102B08001A60FB6800225A6100BF1437BD465DF8A1
:102B1800047B7047E0020020D0020020F802002069
:102B2800CD2D0008312B000880B584B000AF786047
:102B38007B68FB60FB68D968FB6803F110020A2315
:102B48004FF4FA60FFF70FFF02460C4B1A600C4B6C
:102B58005B68C3F5FA6319460A48FFF7EEF90346BE
:102B6800002B06D0074B4FF000021A617B68064A1B
:102B78001A6000BF1037BD4680BD00BFE0020020CC
:102B8800D0020020F8020020952B000880B584B000
:102B980000AF7860FFF758FEFFF7CFFE0346002B23
:102BA80016D07B68FB60FB6800221A610A4B5A68E2
:102BB800FB68DA60094B4FF000021A617B68084A2B
:102BC8001A6004F04FFB034603F57A727B689A603B
:102BD80000BF1037BD4680BDD0020020F80200209B
:102BE800ED2B000880B584B000AF78607B68FB608F
:102BF80004F038FB02467B689B689A4209D97B68D7
:102C0800194A1A60FB6800221A61184B5A68FB6857
:102C1800DA60FB68D968FB6803F1100214234FF4EB
:102C2800FA40FFF7A0FE0246114B1A600F4B5B6893
:102C3800C3F5FA4319460F48FFF77FF90346002BFF
:102C48000DD00C4B4FF000021A617B680A4A1A60DB
:102C580004F008FB034603F5FA727B689A6000BF2C
:102C68001037BD4680BD00BFCD2D0008D002002022
:102C7800E0020020F8020020852C000880B586B00C
:102C880000AF78607B687B6104F0ECFA02467B68F1
:102C98009B689A420DD97B681D4A1A601D4B4FF0FC
:102CA80000021A617B6900221A611B4B5A687B6912
:102CB800DA60FFF7DDFD07F1100207F10F0319468F
:102CC8001648FEF730FA07F1120207F10F0319460A
:102CD8001348FEF728FA7B8A642B15D93B8A642BA4
:102CE80012D9FFF735FE0346002B0DD0094B4FF0E4
:102CF80000021A617B6900221A61074B5A687B69D6
:102D0800DA607B68074A1A6000BF1837BD4680BD85
:102D1800312E0008F8020020D0020020C002002056
:102D280044030020312D000880B584B000AF7860DE
:102D38007B68FB60FB689B69002B1CD0FB68D9682B
:102D4800FB6803F110020A2346F66050FFF70BFEFA
:102D58000246184B1A60184B5B68C3F5DA436033B8
:102D680019461648FFF7E9F80346002B1ED07B6882
:102D7800134A1A601AE0FB68D968FB6803F110026D
:102D880014234FF4E160FFF7EEFD0246094B1A6089
:102D9800094B5B68C3F5E16319460848FFF7CDF8AE
:102DA8000346002B02D07B68054A1A6000BF103723
:102DB800BD4680BDE0020020D0020020F8020020BD
:102DC800912E000880B584B000AF78607B68FB6006
:102DD800FB68D968FB6803F1100214234FF4E16023
:102DE800FFF7C1FD02460C4B1A600C4B5B68C3F53C
:102DF800E16319460A48FFF7A0F80346002B06D0FE
:102E0800074B4FF000021A617B68064A1A6000BF40
:102E18001037BD4680BD00BFE0020020D002002070
:102E2800F8020020312E000880B584B000AF786029
:102E3800FFF71EFD07F10C0207F10B0319460E48B8
:102E4800FEF771F907F10E0207F10B0319460B485B
:102E5800FEF769F9FB89642B09D9BB89642B06D96C
:102E6800074B4FF000021A617B68064A1A6000BFE0
:102E78001037BD4680BD00BFC002002044030020BB
:102E8800F8020020352A000880B483B000AF7860CB
:102E98007B6801221A7100BF0C37BD465DF8047BC0
:102EA8007047000080B584B000AF78607B6800226E
:102EB8001A71012240F20D210D48FEF7FBF807F1C7
:102EC8000E0319460A48FEF71FF9FB89A3F20D23E2
:102ED80013F1090F07DBFB89A3F20D23092B02DC91
:102EE8007B68044A1A6000BF1037BD4680BD00BF2A
:102EF800C8020020012F000880B483B000AF7860BA
:102F08007B6801221A7100BF0C37BD465DF8047B4F
:102F18007047000080B485B000AF78607B68FB60C4
:102F2800FB6800221A61084B5A68FB68DA607B6804
:102F380000221A717B68054A1A6000BF1437BD4623
:102F48005DF8047B704700BFD0020020592F0008AD
:102F580080B584B000AF78607B68FB60FB68D96897
:102F6800FB6803F1100214234FF4FA40FFF7FBFC4F
:102F780002460A4B1A600A4B5B68C3F5FA431946C6
:102F88000848FEF7DAFF0346002B02D07B68064AA2
:102F98001A6000BF1037BD4680BD00BFE0020020A8
:102FA800D0020020F8020020B52F000880B584B0B8
:102FB80000AF78607B68FB60FFF746FCFFF7BDFC5D
:102FC8000346002B09D07B68064A1A60FB6800227A
:102FD8001A61054B5A68FB68DA6000BF1037BD46B6
:102FE80080BD00BFF52F0008D002002080B584B056
:102FF80000AF78607B68FB60FB68D968FB6803F109
:10300800100214234FF4E160FFF7ADFC084B5B6836
:10301800C3F5E16319460748FEF78FFF0346002B07
:1030280002D07B68044A1A6000BF1037BD4680BDD5
:10303800D0020020F80200204530000880B584B096
:1030480000AF7860FFF714FC07F10C0207F10B03DF
:1030580019460C48FEF767F807F10E0207F10B0353
:1030680019460948FEF75FF8FB89642B05D9BB8927
:10307800642B02D97B68054A1A6000BF1037BD4629
:1030880080BD00BFC0020020440300209930000822
:1030980080B483B000AF78607B6801221A7100BFEA
:1030A8000C37BD465DF8047B7047000080B582B0E0
:1030B80000AF78607B6800221A710B4B4FF4FA421C
:1030C8001A60094B1A68094B5B68D31A19460848F5
:1030D800FEF733FF0346002B02D07B68054A1A60CF
:1030E80000BF0837BD4680BDE0020020D0020020A6
:1030F800F80200200131000880B582B000AF786086
:10310800FFF78EFBFFF70EFC0346002B02D07B680F
:10311800024A1A6000BF0837BD4680BD2931000841
:1031280080B483B000AF78607B6801221A7100BF59
:103138000C37BD465DF8047B704780B483B000AFA0
:1031480078607B68DB6903F01003102B0CBF012348
:103158000023DBB218460C37BD465DF8047B704788
:1031680080B483B000AF78607B6810221A6200BF19
:103178000C37BD465DF8047B7047000080B483B00F
:1031880000AF786039603B68013B064AD35C1A4659
:103198007B6813445B689BB218460C37BD465DF8E4
:1031A800047B7047748A000880B483B000AF7860ED
:1031B8007B681B6803F40013B3F5001F0CBF0123E1
:1031C8000023DBB218460C37BD465DF8047B704718
:1031D80080B483B000AF78607B681B6803F4800319
:1031E800B3F5800F0CBF01230023DBB218460C3760
:1031F800BD465DF8047B704780B483B000AF78604B
:103208007B684FF400125A6000BF0C37BD465DF86A
:10321800047B704780B483B000AF78607B684FF45C
:1032280080025A6000BF0C37BD465DF8047B7047CA
:1032380080B400AF00BFBD465DF8047B704780B422
:1032480000AFFEE780B400AFFEE780B400AFFEE752
:1032580080B400AFFEE780B400AF00BFBD465DF8A4
:10326800047B704780B400AF00BFBD465DF8047BA7
:10327800704780B400AF00BFBD465DF8047B70475F
:1032880080B500AF03F0E0FF02F0DCFA00BF80BDBC
:1032980080B582B000AF2448FFF786FF0346002BB5
:1032A80017D02148FFF7A8FF204BB3F814341A466B
:1032B8001F4BD1181D4BB3F81434C3F580739BB260
:1032C8001A461A48FEF79EFF184B0022A3F814244A
:1032D80025E01548FFF77CFF0346002B1FD0124856
:1032E800FFF798FF06211048FFF748FF03469BB2F7
:1032F800C3F58073FB800D4BB3F814341A460C4B9E
:10330800D1180A4BB3F81434FA88D31A9BB21A4668
:103318000648FEF777FF054AFB88A2F8143400BF79
:103328000837BD4680BD00BF00000240EC07002002
:10333800F407002080B500AF024804F0D8F900BFB8
:1033480080BD00BF5803002080B582B000AF174889
:10335800FFF7F3FE0346002B23D01448FFF700FFC6
:1033680006211348FFF70AFF03469BB2C3F5807393
:10337800FB80104BB3F81434FA88D31ABB80BB888F
:10338800002B0AD00B4BB3F814341A460A4B1344DB
:10339800BA8819460748FEF735FF064AFB88A2F89F
:1033A800143400BF0837BD4680BD00BF004400404C
:1033B80000000240EC070020F407002080B582B02E
:1033C80000AF78607B681A68054B1B689A4202D187
:1033D8000448FDF736FF00BF0837BD4680BD00BF73
:1033E80058030020D002002080B400AF1F4BD3F850
:1033F80088301E4A43F47003C2F888301C4B1B689F
:103408001B4A43F001031360194B5A681849194BBA
:1034180013404B60164B1B68154A23F0847323F442
:1034280080331360124B1B68114A23F48023136006
:103438000F4B5B680E4A23F4FE0353600C4BDB6AA8
:103448000B4A23F00F03D362094B1A6B08490A4B46
:1034580013400B63064B00229A60044B4FF0006246
:103468009A6000BFBD465DF8047B704700ED00E040
:10347800001002400CC07FF8CCFC00FF80B584B07F
:1034880000AFF860B9607A60FB6893F83C30012BB4
:1034980001D1022305E1FB68012283F83C20FB6887
:1034A800022283F83D207B68142B00F2F08001A2F1
:1034B80052F823F0113500089736000897360008AF
:1034C80097360008513500089736000897360008E7
:1034D8009736000893350008973600089736000895
:1034E80097360008D3350008973600089736000845
:1034F80097360008153600089736000897360008F2
:103508009736000855360008FB681B68B9681846E6
:1035180004F090FBFB681B689A69FB681B6842F023
:1035280008029A61FB681B689A69FB681B6822F0AD
:1035380004029A61FB681B689969BB681A69FB6891
:103548001B680A439A61A3E0FB681B68B9681846C0
:1035580004F0FCFBFB681B689A69FB681B6842F473
:1035680000629A61FB681B689A69FB681B6822F411
:1035780080629A61FB681B689969BB681B691A02BB
:10358800FB681B680A439A6182E0FB681B68B9689C
:10359800184604F061FCFB681B68DA69FB681B6865
:1035A80042F00802DA61FB681B68DA69FB681B688D
:1035B80022F00402DA61FB681B68D969BB681A69E2
:1035C800FB681B680A43DA6162E0FB681B68B9683C
:1035D800184604F0C5FCFB681B68DA69FB681B68C1
:1035E80042F40062DA61FB681B68DA69FB681B68F1
:1035F80022F48062DA61FB681B68D969BB681B69C1
:103608001A02FB681B680A43DA6141E0FB681B6821
:10361800B968184600F0B6F8FB681B685A6DFB6875
:103628001B6842F008025A65FB681B685A6DFB6804
:103638001B6822F004025A65FB681B68596DBB6859
:103648001A69FB681B680A435A6521E0FB681B6816
:10365800B968184600F0FAF8FB681B685A6DFB68F1
:103668001B6842F400625A65FB681B685A6DFB6868
:103678001B6822F480625A65FB681B68596DBB6839
:103688001B691A02FB681B680A435A6500E000BF01
:10369800FB68012283F83D20FB68002283F83C2068
:1036A800002318461037BD4680BD00BF80B485B0E2
:1036B80000AF786039607B6893F83C30012B01D10A
:1036C800022338E07B68012283F83C207B681B6872
:1036D8005B68FB607B681B689B68BB607B681B68DA
:1036E800184A934208D1FB6823F47003FB603B68D7
:1036F8005B68FA681343FB60FB6823F07003FB60A8
:103708003B681B68FA681343FB60BB6823F08003BF
:10371800BB603B689B68BA681343BB607B681B68E7
:10372800FA685A607B681B68BA689A607B680022EE
:1037380083F83C20002318461437BD465DF8047B07
:10374800704700BF002C014080B483B000AF7860A0
:1037580000BF0C37BD465DF8047B704780B483B06A
:1037680000AF786000BF0C37BD465DF8047B70473A
:1037780080B483B000AF786000BF0C37BD465DF8F9
:10378800047B704780B487B000AF7860396000234D
:103798003B610023FB6000237B617B681B6A23F489
:1037A80080327B681A627B681B6AFB607B685B6897
:1037B8007B617B685B6D3B613B6923F4803323F05D
:1037C80070033B613B681B683A6913433B61FB68C4
:1037D80023F40033FB603B689B681B04FA681343BF
:1037E800FB607B68154A93420BD07B68144A93426E
:1037F80007D07B68134A934203D07B68124A9342EE
:1038080009D17B6923F480337B613B685B691B02C8
:103818007A6913437B617B687A695A607B683A6985
:103828005A653B685A687B689A657B68FA681A62C9
:1038380000BF1C37BD465DF8047B7047002C014073
:1038480000400140004401400048014080B487B076
:1038580000AF7860396000233B610023FB600023E0
:103868007B617B681B6A23F480127B681A627B6821
:103878001B6AFB607B685B687B617B685B6D3B6197
:103888003B6923F0807323F4E0433B613B681B688A
:103898001B023A6913433B61FB6823F40013FB6086
:1038A8003B689B681B05FA681343FB607B68164AF4
:1038B80093420BD07B68154A934207D07B68144A21
:1038C800934203D07B68134A934209D17B6923F45E
:1038D80080237B613B685B699B027A6913437B6148
:1038E8007B687A695A607B683A695A653B685A68A6
:1038F8007B68DA657B68FA681A6200BF1C37BD46C8
:103908005DF8047B704700BF002C01400040014077
:10391800004401400048014080B58CB000AF234B03
:103928004FF080421A60214B00225A601F4B002240
:103938009A601E4B43F63F02DA601C4B00221A6164
:103948001A4B00229A610323FB6000233B61012389
:103958007B610023BB610023FB6100233B620123E1
:103968007B620023BB620023FB6207F10C0319464C
:103978000E4803F0EDFD0346002B03D04C210C4804
:1039880002F0B8FB00233B600023BB603B461946AE
:103998000648FFF78BFE0346002B03D0532104484B
:1039A80002F0A8FB00BF3037BD4680BDD803002019
:1039B800F489000880B58EB000AF324B324A1A60E5
:1039C800304B40F25D125A602E4B00229A602D4B0C
:1039D800FE22DA602B4B00221A612A4B00229A61E0
:1039E800284803F0F7FC0346002B03D0662127483C
:1039F80002F080FB4FF48053BB6207F1280319469D
:103A0800204803F093FF0346002B03D06C211F4886
:103A180002F070FB1B4803F023FD0346002B03D084
:103A280071211A4802F066FB0023FB6100237B62C8
:103A380007F11C0319461348FFF738FE0346002B0D
:103A480003D07821114802F055FB60233B60002326
:103A58007B600023BB6000233B613B460C22194678
:103A68000848FFF70BFD0346002B03D081210748C8
:103A780002F040FB034800F0BDF800BF3837BD46F0
:103A880080BD00BF9803002000040040F4890008AE
:103A980080B588B000AF214B214A1A601F4BF9222C
:103AA8005A601E4B00229A601C4BF922DA601B4BAD
:103AB80000221A61194B00225A61184B00229A61A0
:103AC800164803F087FC0346002B03D096211548BF
:103AD80002F010FB4FF480533B6107F110031946C5
:103AE8000E4803F023FF0346002B03D09C210D480A
:103AF80002F000FB00237B600023FB603B1D19469E
:103B08000648FFF7D3FD0346002B03D0A321054841
:103B180002F0F0FA00BF2037BD4680BD58030020F0
:103B280000400140F489000880B588B000AF786093
:103B38007B681B68B3F1804F1CD1104BDB690F4ABF
:103B480043F00103D3610D4BDB6903F00103BB6054
:103B5800BB680323FB6002233B6100237B610023D6
:103B6800BB610123FB6107F10C0319464FF090403C
:103B780004F0A2FC00BF2037BD4680BD0010024003
:103B880080B584B000AF78607B681B68164A9342A2
:103B98000CD1164BDB69154A43F00203D361134B72
:103BA800DB6903F00203FB60FB6818E07B681B68B5
:103BB8000F4A934213D10D4B9B690C4A43F480334F
:103BC80093610A4B9B6903F48033BB60BB68002296
:103BD8000021182001F0DDFD182001F0F6FD00BFDE
:103BE8001037BD4680BD00BF0004004000100240F1
:103BF8000040014080B588B000AF78607B681B68E2
:103C08000B4A93420FD10223FB6002233B6100233E
:103C18007B610023BB610223FB6107F10C0319469A
:103C2800044804F049FC00BF2037BD4680BD00BFF2
:103C3800000400400004004880B592B000AF7860EE
:103C480000233B640023FB637B681B6803F4803319
:103C5800002B00F0CF80002387F84730864BDB69C4
:103C680003F08053002B0ED1834BDB69824A43F06B
:103C78008053D361804BDB6903F08053BB60BB6822
:103C8800012387F847307D4B1B6803F48073002BB2
:103C980018D17A4B1B68794A43F48073136003F098
:103CA800E1FA386408E003F0DDFA02463B6CD31A07
:103CB800642B01D90323DAE0704B1B6803F480738B
:103CC800002BF0D06C4B1B6A03F44073FB63FB6B57
:103CD800002B7CD07B685B6803F44073FA6B9A42D4
:103CE80075D0654B1B6A23F44073FB634FF4803334
:103CF8003B633B6B93FAA3F3FB62FB6AB3FA83F370
:103D08001A465F4B13449B001A46012313604FF475
:103D18008033BB63BB6B93FAA3F37B637B6BB3FA10
:103D280083F31A46564B13449B001A46002313602C
:103D3800514AFB6B1362FB6B03F00103002B46D067
:103D480003F090FA38640AE003F08CFA02463B6C00
:103D5800D31A41F28832934201D9032387E0022320
:103D6800BB62BB6A93FAA3F37B6202233B623B6AA2
:103D780093FAA3F3FB61FB69B3FA83F3DBB25B0944
:103D8800DBB243F00203DBB2022B02D13A4B1B6ACF
:103D980007E00223BB61BB6993FAA3F37B61364B4F
:103DA8005B6A02223A613A6992FAA2F2FA60FA6808
:103DB800B2FA82F252B242F0400252B2D2B202F0E9
:103DC8001F02012101FA02F21340002BBCD02A4B3A
:103DD8001B6A23F440727B685B68274913430B62B4
:103DE80097F84730012B05D1234BDB69224A23F092
:103DF8008053D3617B681B6803F00103002B08D054
:103E08001D4B1B6B23F003027B689B681A49134305
:103E18000B637B681B6803F02003002B08D0164B4C
:103E28001B6B23F010027B68DB68134913430B6399
:103E38007B681B6803F08003002B08D00E4BDB6AFD
:103E480023F4F8727B681B690B491343CB627B68C8
:103E58001B6803F48053002B08D0074B1B6B23F41B
:103E680080727B685B69044913430B63002318461F
:103E78004837BD4680BD00BF0010024000700040BA
:103E88000081901080B500AF1E4B1F4A1A601D4B71
:103E98001E4A5A601B4B00229A601A4B0122DA60B4
:103EA800184B00221A61174B00225A61154B002249
:103EB8009A61144B0022DA61124B00221A621148EF
:103EC80003F0F9F90346002B03D04221104802F011
:103ED80011F900210B4804F095FC0346002B03D090
:103EE80049210B4802F006F90021064804F0D5FCE8
:103EF8000346002B03D05021054802F0FBF800BF11
:103F080080BD00BF18040020005400400E090020A6
:103F1800008A000880B588B000AF78607B681B68AD
:103F2800114A93421BD1C023FB6012233B6101233A
:103F38007B610323BB610423FB6107F10C03194672
:103F48000A4804F0B9FA0A4BDB69094A43F400133A
:103F5800D361074BDB6903F40013BB60BB6800BF88
:103F68002037BD4680BD00BF005400400004004813
:103F78000010024080B582B000AF1E4B9B691D4AFD
:103F880043F0010393611B4B9B6903F001037B60C2
:103F98007B68032001F0F2FB002200216FF00B0088
:103FA80001F0F7FB002200216FF00A0001F0F1FB9D
:103FB800002200216FF0090001F0EBFB0022002134
:103FC8006FF0040001F0E5FB002200216FF0030010
:103FD80001F0DFFB002200216FF0010001F0D9FBA6
:103FE800002200214FF0FF3001F0D3FB00BF08375B
:103FF800BD4680BD0010024080B5ADF5007D00AF24
:104008003B1D18600023C7F8F8313B1D1B681B686F
:1040180003F00103002B00F06E81B54B5B6803F0E1
:104028000C03042B0CD0B24B5B6803F00C03082B79
:104038005AD1AF4B5B6803F48033B3F5803F53D15B
:104048004FF40033C7F8F431D7F8F43193FAA3F3F7
:10405800C7F8F031D7F8F031B3FA83F3DBB25B0974
:10406800DBB243F00103DBB2012B02D1A04B1B688A
:1040780015E04FF40033C7F8EC31D7F8EC3193FA78
:10408800A3F3C7F8E8314FF40033C7F8E431D7F8A1
:10409800E43193FAA3F3C7F8E031954B5B6A4FF428
:1040A8000032C7F8DC21D7F8DC2192FAA2F2C7F86F
:1040B800D821D7F8D821B2FA82F252B242F02002BF
:1040C80052B2D2B202F01F02012101FA02F21340E9
:1040D800002B00F00F813B1D1B685B68002B40F034
:1040E8000981012300F06BBE3B1D1B685B68B3F5BB
:1040F800803F06D17E4B1B687D4A43F480331360B2
:1041080030E03B1D1B685B68002B0CD1784B1B68AB
:10411800774A23F480331360754B1B68744A23F481
:10412800802313601EE03B1D1B685B68B3F5A02F5E
:104138000CD16F4B1B686E4A43F4802313606C4BA1
:104148001B686B4A43F4803313600BE0684B1B68B1
:10415800674A23F480331360654B1B68644A23F471
:1041680080231360624BDB6A23F00F023B1D1B6840
:104178009B685F491343CB623B1D1B685B68002B40
:104188005AD003F06FF8C7F8F8010AE003F06AF8AC
:104198000246D7F8F831D31A642B02D9032300F06A
:1041A8000EBE4FF40033C7F8D431D7F8D43193FAA0
:1041B800A3F3C7F8D031D7F8D031B3FA83F3DBB221
:1041C8005B09DBB243F00103DBB2012B02D1484BA0
:1041D8001B6815E04FF40033C7F8CC31D7F8CC3161
:1041E80093FAA3F3C7F8C8314FF40033C7F8C431C2
:1041F800D7F8C43193FAA3F3C7F8C0313C4B5B6AD4
:104208004FF40032C7F8BC21D7F8BC2192FAA2F2C9
:10421800C7F8B821D7F8B821B2FA82F252B242F000
:10422800200252B2D2B202F01F02012101FA02F2B8
:104238001340002BAAD05EE003F014F8C7F8F80189
:104248000AE003F00FF80246D7F8F831D31A642BC6
:1042580002D9032300F0B3BD4FF40033C7F8B431DB
:10426800D7F8B43193FAA3F3C7F8B031D7F8B0311F
:10427800B3FA83F3DBB25B09DBB243F00103DBB2D1
:10428800012B02D11A4B1B6815E04FF40033C7F815
:10429800AC31D7F8AC3193FAA3F3C7F8A8314FF48F
:1042A8000033C7F8A431D7F8A43193FAA3F3C7F8B9
:1042B800A0310F4B5B6A4FF40032C7F89C21D7F846
:1042C8009C2192FAA2F2C7F89821D7F89821B2FA5D
:1042D80082F252B242F0200252B2D2B202F01F026F
:1042E800012101FA02F21340002BAAD103E000BF1A
:1042F8000010024000BF3B1D1B681B6803F002034F
:10430800002B00F07081D04B5B6803F00C03002B8E
:104318000BD0CD4B5B6803F00C03082B6DD1CA4B57
:104328005B6803F48033002B67D10223C7F894310C
:10433800D7F8943193FAA3F3C7F89031D7F89031AE
:10434800B3FA83F3DBB25B09DBB243F00103DBB200
:10435800012B02D1BC4B1B6813E00223C7F88C3138
:10436800D7F88C3193FAA3F3C7F888310223C7F83A
:104378008431D7F8843193FAA3F3C7F88031B24B6C
:104388005B6A0222C7F87C21D7F87C2192FAA2F254
:10439800C7F87821D7F87821B2FA82F252B242F0FF
:1043A800200252B2D2B202F01F02012101FA02F237
:1043B8001340002B07D03B1D1B681B69012B02D043
:1043C800012300F0FCBCA04B1B6823F0F8023B1D46
:1043D8001B685969F823C7F87431D7F8743193FA10
:1043E800A3F3C7F87031D7F87031B3FA83F301FA41
:1043F80003F3954913430B60F5E03B1D1B681B69EC
:10440800002B00F085800123C7F86C31D7F86C3198
:1044180093FAA3F3C7F86831D7F86831B3FA83F38E
:1044280003F1845303F584139B001A460123136098
:1044380002F018FFC7F8F8010AE002F013FF02467D
:10444800D7F8F831D31A022B02D9032300F0B7BCEE
:104458000223C7F86431D7F8643193FAA3F3C7F895
:104468006031D7F86031B3FA83F3DBB25B09DBB2B2
:1044780043F00103DBB2012B02D1734B1B6813E03D
:104488000223C7F85C31D7F85C3193FAA3F3C7F875
:1044980058310223C7F85431D7F8543193FAA3F3AB
:1044A800C7F85031684B5B6A0222C7F84C21D7F82D
:1044B8004C2192FAA2F2C7F84821D7F84821B2FA5B
:1044C80082F252B242F0200252B2D2B202F01F027D
:1044D800012101FA02F21340002BAED05A4B1B689F
:1044E80023F0F8023B1D1B685969F823C7F84431CB
:1044F800D7F8443193FAA3F3C7F84031D7F84031DD
:10450800B3FA83F301FA03F34F4913430B606AE0EC
:104518000123C7F83C31D7F83C3193FAA3F3C7F825
:104528003831D7F83831B3FA83F303F1845303F5FC
:1045380084139B001A460023136002F093FEC7F809
:10454800F8010AE002F08EFE0246D7F8F831D31AD5
:10455800022B02D9032300F032BC0223C7F83431FE
:10456800D7F8343193FAA3F3C7F83031D7F830319C
:10457800B3FA83F3DBB25B09DBB243F00103DBB2CE
:10458800012B02D1304B1B6813E00223C7F82C31F2
:10459800D7F82C3193FAA3F3C7F828310223C7F8C8
:1045A8002431D7F8243193FAA3F3C7F82031264BE6
:1045B8005B6A0222C7F81C21D7F81C2192FAA2F2E2
:1045C800C7F81821D7F81821B2FA82F252B242F08D
:1045D800200252B2D2B202F01F02012101FA02F205
:1045E8001340002BAED13B1D1B681B6803F008036A
:1045F800002B00F0D8803B1D1B689B69002B67D0FF
:104608000123C7F81431D7F8143193FAA3F3C7F884
:104618001031D7F81031B3FA83F31A460B4B134411
:104628009B001A460123136002F01CFEC7F8F8012C
:104638000EE002F017FE0246D7F8F831D31A022B23
:1046480006D90323BBE300BF00100240208190106D
:104658000223C7F80C31D7F80C3193FAA3F3C7F843
:1046680008310223C7F80431D7F8043193FAA3F2CA
:1046780007F580731A6007F1FC0302221A6007F13C
:10468800FC031B6893FAA3F207F1F8031A60A54B21
:104698005A6A07F1F4030221196007F1F4031B6851
:1046A80093FAA3F107F1F003196007F1F0031B680F
:1046B800B3FA83F35BB243F060035BB2DBB203F09F
:1046C8001F03012101FA03F31340002BB1D06AE064
:1046D80007F1EC0301221A6007F1EC031B6893FA57
:1046E800A3F207F1E8031A6007F1E8031B68B3FABD
:1046F80083F31A468C4B13449B001A46002313601D
:1047080002F0B0FDC7F8F80109E002F0ABFD02467F
:10471800D7F8F831D31A022B01D903234FE307F155
:10472800E40302221A6007F1E4031B6893FAA3F278
:1047380007F1E0031A6007F1DC0302221A6007F1AF
:10474800DC031B6893FAA3F207F1D8031A6007F198
:10475800D40302221A6007F1D4031B6893FAA3F268
:1047680007F1D0031A606F4B5A6A07F1CC03022194
:10477800196007F1CC031B6893FAA3F107F1C8038A
:10478800196007F1C8031B68B3FA83F35BB243F0FF
:1047980060035BB2DBB203F01F03012101FA03F3EC
:1047A8001340002BB1D13B1D1B681B6803F00403A9
:1047B800002B00F05981002387F8FF31594BDB6942
:1047C80003F08053002B12D1564BDB69554A43F056
:1047D8008053D361534BDB6903F0805207F10C031C
:1047E8001A6007F10C031B68012387F8FF314F4B50
:1047F8001B6803F48073002B1AD14C4B1B684B4A7F
:1048080043F48073136002F02DFDC7F8F80109E046
:1048180002F028FD0246D7F8F831D31A642B01D9E3
:104828000323CCE2414B1B6803F48073002BEFD0C9
:104838003B1D1B68DB68012B06D13A4B1B6A394AC2
:1048480043F0010313622FE03B1D1B68DB68002B5C
:104858000CD1344B1B6A334A23F001031362314BEA
:104868001B6A304A23F0040313621DE03B1D1B68DA
:10487800DB68052B0CD12B4B1B6A2A4A43F0040337
:104888001362284B1B6A274A43F0010313620BE0AB
:10489800244B1B6A234A23F001031362214B1B6A32
:1048A800204A23F0040313623B1D1B68DB68002BBE
:1048B8006BD002F0D7FCC7F8F8010BE002F0D2FC8D
:1048C8000246D7F8F831D31A41F28832934201D917
:1048D800032374E207F1C40302221A6007F1C40338
:1048E8001B6893FAA3F207F1C0031A6007F1BC032F
:1048F80002221A6007F1BC031B6893FAA3F207F1BE
:10490800B8031A6007F1B8031B68B3FA83F3DBB284
:104918005B09DBB243F00203DBB2022B08D1014B87
:104928001B6A13E0001002402081901000700040C4
:1049380007F1B40302221A6007F1B4031B6893FA63
:10494800A3F207F1B0031A60BB4B5B6A07F1AC0234
:104958000221116007F1AC02126892FAA2F107F184
:10496800A802116007F1A8021268B2FA82F252B2E4
:1049780042F0400252B2D2B202F01F02012101FA03
:1049880002F21340002B99D064E002F06BFCC7F8E8
:10499800F8010BE002F066FC0246D7F8F831D31AAA
:1049A80041F28832934201D9032308E207F1A403B4
:1049B80002221A6007F1A4031B6893FAA3F207F115
:1049C800A0031A6007F19C0302221A6007F19C03F6
:1049D8001B6893FAA3F207F198031A6007F198038A
:1049E8001B68B3FA83F3DBB25B09DBB243F0020363
:1049F800DBB2022B02D1904B1B6A0DE007F1940346
:104A080002221A6007F194031B6893FAA3F207F1D4
:104A180090031A60884B5B6A07F18C0202211160CF
:104A280007F18C02126892FAA2F107F1880211606C
:104A380007F188021268B2FA82F252B242F04002DA
:104A480052B2D2B202F01F02012101FA02F213405F
:104A5800002B9FD197F8FF31012B05D1764BDB69ED
:104A6800754A23F08053D3613B1D1B68DB69002B1B
:104A780000F0A481704B5B6803F00C03082B00F076
:104A88009B813B1D1B68DB69022B40F0138107F1FA
:104A980084034FF080721A6007F184031B6893FA4D
:104AA800A3F207F180031A6007F180031B68B3FAC9
:104AB80083F303F1845303F584139B001A46002300
:104AC800136002F0CFFBC7F8F80109E002F0CAFB57
:104AD8000246D7F8F831D31A022B01D903236EE125
:104AE80007F17C034FF000721A6007F17C031B6822
:104AF80093FAA3F207F178031A6007F178031B68A9
:104B0800B3FA83F3DBB25B09DBB243F00103DBB238
:104B1800012B02D1484B1B681BE007F174034FF0CF
:104B280000721A6007F174031B6893FAA3F207F185
:104B380070031A6007F16C034FF000721A6007F1F6
:104B48006C031B6893FAA3F207F168031A603A4BE7
:104B58005B6A07F164024FF00071116007F16402AB
:104B6800126892FAA2F107F16002116007F160027F
:104B78001268B2FA82F252B242F0200252B2D2B2B3
:104B880002F01F02012101FA02F21340002B9DD10D
:104B9800294B5B6823F474123B1D1B68596A3B1D43
:104BA8001B681B6A0B43244913434B6007F15C03E2
:104BB8004FF080721A6007F15C031B6893FAA3F246
:104BC80007F158031A6007F158031B68B3FA83F317
:104BD80003F1845303F584139B001A4601231360E1
:104BE80002F040FBC7F8F80109E002F03BFB02467F
:104BF800D7F8F831D31A022B01D90323DFE007F1E4
:104C080054034FF000721A6007F154031B6893FABB
:104C1800A3F207F150031A6007F150031B68B3FAB7
:104C280083F3DBB25B09DBB243F00103DBB2012B98
:104C380004D1014B1B681DE00010024007F14C0332
:104C48004FF000721A6007F14C031B6893FAA3F245
:104C580007F148031A6007F144034FF000721A6025
:104C680007F144031B6893FAA3F207F140031A60A3
:104C7800554B5B6A07F13C024FF00071116007F178
:104C88003C02126892FAA2F107F13802116007F1AA
:104C980038021268B2FA82F252B242F0200252B2DC
:104CA800D2B202F01F02012101FA02F21340002BD6
:104CB8009BD083E007F134034FF080721A6007F14C
:104CC80034031B6893FAA3F207F130031A6007F163
:104CD80030031B68B3FA83F303F1845303F5841399
:104CE8009B001A460023136002F0BCFAC7F8F801CB
:104CF80009E002F0B7FA0246D7F8F831D31A022BC6
:104D080001D903235BE007F12C034FF000721A600E
:104D180007F12C031B6893FAA3F207F128031A6022
:104D280007F128031B68B3FA83F3DBB25B09DBB234
:104D380043F00103DBB2012B02D1234B1B681BE0BC
:104D480007F124034FF000721A6007F124031B686F
:104D580093FAA3F207F120031A6007F11C034FF03E
:104D680000721A6007F11C031B6893FAA3F207F19B
:104D780018031A60144B5B6A07F114024FF00071B4
:104D8800116007F11402126892FAA2F107F11002F9
:104D9800116007F110021268B2FA82F252B242F0C0
:104DA800200252B2D2B202F01F02012101FA02F22D
:104DB8001340002B9DD101E0012300E00023184699
:104DC80007F50077BD4680BD0010024080B59EB053
:104DD80000AF7860396000237B67A74B1B6803F03E
:104DE80007033A689A4210D9A34B1B6823F00702BD
:104DF800A1493B6813430B609F4B1B6803F00703F3
:104E08003A689A4201D0012375E17B681B6803F078
:104E18000203002B08D0994B5B6823F0F0027B68F3
:104E28009B68964913434B607B681B6803F001033A
:104E3800002B00F009817B685B68012B3DD14FF4A2
:104E480000333B673B6F93FAA3F3FB66FB6EB3FA41
:104E580083F3DBB25B09DBB243F00103DBB2012B66
:104E680002D1864B1B680FE04FF40033BB66BB6E64
:104E780093FAA3F37B664FF400333B663B6E93FAD9
:104E8800A3F3FB657D4B5B6A4FF40032BA65BA6DDC
:104E980092FAA2F27A657A6DB2FA82F252B242F0CE
:104EA800200252B2D2B202F01F02012101FA02F22C
:104EB8001340002B7DD101231DE17B685B68022B29
:104EC8003DD14FF000733B653B6D93FAA3F3FB6450
:104ED800FB6CB3FA83F3DBB25B09DBB243F001038B
:104EE800DBB2012B02D1654B1B680FE04FF000735A
:104EF800BB64BB6C93FAA3F37B644FF000733B6411
:104F08003B6C93FAA3F3FB635C4B5B6A4FF0007254
:104F1800BA63BA6B92FAA2F27A637A6BB2FA82F245
:104F280052B242F0200252B2D2B202F01F02012164
:104F380001FA02F21340002B3BD10123DBE00223EC
:104F48003B633B6B93FAA3F3FB62FB6AB3FA83F30D
:104F5800DBB25B09DBB243F00103DBB2012B02D108
:104F6800464B1B680DE00223BB62BB6A93FAA3F3AE
:104F78007B6202233B623B6A93FAA3F3FB613F4BDC
:104F88005B6A0222BA61BA6992FAA2F27A617A6914
:104F9800B2FA82F252B242F0200252B2D2B202F017
:104FA8001F02012101FA02F21340002B01D1012353
:104FB800A1E0324B5B6823F003027B685B682F49F2
:104FC80013434B6002F04EF978677B685B68012BEE
:104FD80012D10AE002F046F902467B6FD31A41F279
:104FE8008832934201D9032385E0244B5B6803F0A0
:104FF8000C03042BEED127E07B685B68022B1DD1E4
:105008000AE002F02FF902467B6FD31A41F2883288
:10501800934201D903236EE0184B5B6803F00C033D
:10502800082BEED110E002F01DF902467B6FD31A6F
:1050380041F28832934201D903235CE00F4B5B684D
:1050480003F00C03002BEED10B4B1B6803F0070396
:105058003A689A4214D2084B1B6823F007020649A3
:105068003B6813430B60044B1B6803F007033A6863
:105078009A4205D001233EE0002002400010024081
:105088007B681B6803F00403002B08D01C4B5B688B
:1050980023F4E0627B68DB68194913434B607B6843
:1050A8001B6803F00803002B09D0154B5B6823F439
:1050B80060527B681B69DB00114913434B6000F0A9
:1050C80025F801460E4B5B6803F0F002F0233B61C4
:1050D8003B6993FAA3F3FB60FB68B3FA83F322FA04
:1050E80003F3084AD35C21FA03F3074A136000204C
:1050F80002F08EF8002318467837BD4680BD00BF01
:10510800001002407C8A00080002002080B48BB0A6
:1051180000AF0023FB610023BB6100237B620023F7
:105128007B6100233B62294B5B68FB61FB6903F0F1
:105138000C03042B02D0082B03D03CE0244B3B6229
:105148003CE0FB6903F470124FF47013BB60BB685A
:1051580093FAA3F37B607B68B3FA83F322FA03F331
:105168001C4AD35C7B61194BDB6A03F00F020F23E7
:105178003B613B6993FAA3F3FB60FB68B3FA83F3E3
:1051880022FA03F3144AD35CBB61FB6903F480334E
:10519800002B08D00E4ABB69B2FBF3F27B6902FB15
:1051A80003F37B6204E07B690C4A02FB03F37B6236
:1051B8007B6A3B6202E0064B3B6200BF3B6A1846D3
:1051C8002C37BD465DF8047B704700BF00100240D5
:1051D80000127A00948A0008A48A000800093D0099
:1051E80080B400AF034B1B681846BD465DF8047BCE
:1051F800704700BF0002002080B582B000AFFFF703
:10520800EFFF01460B4B5B6803F4E0624FF4E06389
:105218007B607B6893FAA3F33B603B68B3FA83F344
:1052280022FA03F3044AD35C21FA03F31846083739
:10523800BD4680BD001002408C8A000880B582B04F
:1052480000AFFFF7CDFF01460B4B5B6803F46052DC
:105258004FF460537B607B6893FAA3F33B603B6831
:10526800B3FA83F322FA03F3044AD35C21FA03F373
:1052780018460837BD4680BD001002408C8A0008D9
:1052880080B400AF064B1B6803F00203022B0CBF6F
:1052980001230023DBB21846BD465DF8047B704746
:1052A8000010024080B400AF064B1B6A03F00203F3
:1052B800022B0CBF01230023DBB21846BD465DF864
:1052C800047B70470010024080B400AF044B5B6859
:1052D80003F00C031846BD465DF8047B704700BF19
:1052E8000010024080B400AF044B5B6803F0F00389
:1052F8001846BD465DF8047B704700BF00100240A9
:1053080080B400AF044B5B6803F4E0631846BD4605
:105318005DF8047B704700BF0010024080B400AF06
:10532800044B5B6803F460531846BD465DF8047B84
:10533800704700BF0010024080B483B000AF7860AF
:10534800074B1A6B03217B6801FA03F31A407B6849
:105358001B06134318460C37BD465DF8047B70479F
:105368000010024080B400AF044B5B6803F4803344
:105378001846BD465DF8047B704700BF0010024028
:1053880080B400AF044B5B6803F470131846BD4645
:105398005DF8047B704700BF0010024080B400AF86
:1053A800044BDB6A03F00F031846BD465DF8047B27
:1053B800704700BF0010024080B582B000AF78602F
:1053C80000F060F802467B681A607B681B68184624
:1053D80000F07AF802467B685A607B685B6818467A
:1053E80000F088F802467B689A607B685B6818461C
:1053F80000F094F802467B68DA6000BF0837BD46C3
:1054080080BD000080B584B000AF78600023FB60E9
:105418007B68002B2AD17868FFF78EFF0346022BA2
:105428000FD0032B05D0012B14D100F02BF8F86016
:1054380021E0FFF725FF0346002B19D0104BFB6036
:1054480016E0FFF72FFF0346002B13D04FF400435D
:10545800FB600FE000F016F80346184600F034F839
:105468000346184600F046F8F86004E000BF02E082
:1054780000BF00E000BFFB6818461037BD4680BD7E
:1054880000127A0080B582B000AF00237B60FFF77E
:105498001BFF0346042B06D0082B07D0002B09D18D
:1054A800084B7B6009E0074B7B6006E000F04AF898
:1054B800786002E0034B7B6000BF7B6818460837C2
:1054C800BD4680BD00127A0080B582B000AF78601A
:1054D800FFF708FF03461B0903F00F03044AD35CD8
:1054E8001A467B68D34018460837BD4680BD00BFC2
:1054F8007C8A000880B582B000AF7860FFF700FFB3
:1055080003461B0A044AD35C1A467B68D3401846F4
:105518000837BD4680BD00BF8C8A000880B582B0C0
:1055280000AF7860FFF7FAFE0346DB0A044AD35C53
:105538001A467B68D34018460837BD4680BD00BF71
:105548008C8A000890B585B000AF0023FB6000236B
:10555800BB60FFF707FFB860BB68002B03D0B3F54B
:10556800803F03D005E0134BFB6005E0124BFB6066
:1055780002E0104BFB6000BFFFF710FF034601334A
:10558800FA68B2FBF3F4FFF7FBFE034603F470136B
:105598004FF470127A607A6892FAA2F23A603A6826
:1055A800B2FA82F2D340023303FB04F318461437ED
:1055B800BD4690BD00093D0000127A0080B485B058
:1055C80000AF78607B6803F00703FB600C4BDB6877
:1055D800BB60BA684FF6FF031340BB60FB681A0252
:1055E800BB68134343F0BF6343F40033BB60044A12
:1055F800BB68D36000BF1437BD465DF8047B7047B5
:1056080000ED00E080B400AF044BDB681B0A03F038
:1056180007031846BD465DF8047B704700ED00E0BF
:1056280080B483B000AF0346FB71FB7903F01F021F
:10563800074997F907305B09012000FA02F241F89F
:10564800232000BF0C37BD465DF8047B704700BFC0
:1056580000E100E080B483B000AF03463960FB711D
:1056680097F90730002B0BDA3B68DAB20C49FB7963
:1056780003F00F03043B1201D2B20B441A7609E07F
:105688003B68DAB2074997F907301201D2B20B44E6
:1056980083F8002300BF0C37BD465DF8047B7047D4
:1056A80000ED00E000E100E080B489B000AFF860F0
:1056B800B9607A60FB6803F00703FB61FB69C3F11B
:1056C8000703042B28BF0423BB61FB690433062BA3
:1056D80002D9FB69033B00E000237B614FF0FF32F6
:1056E800BB6902FA03F3DA43BB681A407B699A4044
:1056F8004FF0FF317B6901FA03F3D9437B680B4014
:10570800134318462437BD465DF8047B70470000F4
:1057180080B400AFBFF34F8F054BDB6803F4E06242
:105728000349044B1343CB60BFF34F8F00BFFDE722
:1057380000ED00E00400FA0580B582B000AF7860A3
:105748007B68013BB3F1807F01D301230FE00A4A54
:105758007B68013B53600F214FF0FF30FFF77AFF62
:10576800054B00229A60044B07221A600023184652
:105778000837BD4680BD00BF10E000E080B582B0AC
:1057880000AF78607868FFF719FF00BF0837BD469B
:1057980080BD80B586B000AF0346B9607A60FB7300
:1057A80000237B61FFF72EFF78617A68B968786912
:1057B800FFF77AFF024697F90F3011461846FFF7B0
:1057C80049FF00BF1837BD4680BD80B582B000AF25
:1057D8000346FB7197F907301846FFF721FF00BF12
:1057E8000837BD4680BD80B500AFFFF791FF00BF09
:1057F80080BD80B582B000AF78607868FFF79CFF05
:10580800034618460837BD4680BD000080B483B003
:1058180000AF78607B68042B06D1094B1B68084AE7
:1058280043F00403136005E0054B1B68044A23F0AA
:105838000403136000BF0C37BD465DF8047B704756
:1058480010E000E080B500AF00F002F800BF80BDB6
:1058580080B400AF00BFBD465DF8047B704780B4DC
:1058680083B000AF78607B681B6803F00103012BED
:105878000CBF01230023DBB218460C37BD465DF888
:10588800047B704780B483B000AF786039607B6870
:105898005B6823F440523B681A437B685A6000BF38
:1058A8000C37BD465DF8047B704780B483B000AF09
:1058B800786039607B689B6823F440723B681A43C0
:1058C8007B689A6000BF0C37BD465DF8047B704763
:1058D800B0B485B000AFF860B9607A603B6000256D
:1058E80000247B68B3F5004F14D1BB685A003B68AD
:1058F8005B081A443B68B2FBF3F39BB21D464FF6B4
:10590800F0742C406B089BB203F007031C43FB6840
:10591800DC600AE03B685A08BB681A443B68B2FB83
:10592800F3F39BB21A46FB68DA6000BF1437BD4632
:10593800B0BC704780B588B000AF7860396000238C
:10594800FB770023BB617868FFF789FF0346002BCC
:105958004ED17B681A68294B13403A6851683A68F7
:10596800D26811433A68126911433A6892690A4346
:105978001A437B681A603B689B6819467868FFF78A
:1059880081FF3B685B6919467868FFF78EFF7B6883
:105998001B4A934204D10020FFF734FDB86116E09A
:1059A8007B68184A934207D107F108031846FFF7A6
:1059B80003FD3B69BB610AE07B68134A934206D149
:1059C80007F108031846FFF7F7FC3B69BB61BB69A1
:1059D800002B0DD03B681B68002B09D00123FB77F7
:1059E8003B689A693B681B68B9697868FFF770FF7C
:1059F800FB7F18462037BD4680BD00BFF369FFEF27
:105A080000380140004400400048004080B483B0A2
:105A180000AF78607B681B6843F001027B681A60FE
:105A280000BF0C37BD465DF8047B704780B483B077
:105A380000AF78607B681B6843F010027B681A60CF
:105A480000BF0C37BD465DF8047B704780B483B057
:105A580000AF78607B689B6843F040027B689A607F
:105A680000BF0C37BD465DF8047B704780B483B037
:105A780000AF786039603B68013B0B4AD35C1A463B
:105A88007B6813441B683A68013A07498A5C1146E7
:105A98007A680A4443F00103136000BF0C37BD461F
:105AA8005DF8047B704700BFB48A000880B485B0F5
:105AB80000AFF860B9607A60BB68013B0C4AD35C00
:105AC8001A46FB6813445B681B0C1B04BA68013A4E
