:020000040800F2
:1000000000300020ED2600082F0F0008310F0008F7
:10001000330F0008350F0008370F000800000000FC
:10002000000000000000000000000000390F000880
:100030003B0F0008000000003D0F00083F0F0008C4
:100040003D2700083D2700083D2700083D27000800
:100050003D2700083D2700083D2700083D270008F0
:100060003D2700083D2700083D2700083D270008E0
:100070003D2700083D2700083D2700084D0F0008D8
:100080003D2700083D2700083D2700083D270008C0
:100090003D2700083D2700083D2700083D270008B0
:1000A0003D2700083D2700083D2700083D270008A0
:1000B000C50F00083D270008000000003D2700088C
:1000C0003D27000800000000000000003D27000858
:1000D00000000000D50F00083D2700083D2700085C
:1000E0003D2700083D270008000000000000000038
:1000F0000000000000000000000000000000000000
:1001000000000000000000000000000000000000EF
:1001100000000000000000003D2700083D27000807
:1001200000000000000000000000000000000000CF
:1001300000000000000000000000000000000000BF
:100140003D2700083D2700080000000000000000D7
:10015000000000000000000000000000000000009F
:10016000000000000000000000000000000000008F
:10017000000000000000000000000000000000007F
:08018000000000003D2700080B
:1001880010B5054C227832B9044B13B10448AFF3CB
:1001980000800123237010BDC40A00200000000065
:1001A8008827000808B5034B1BB103490348AFF380
:1001B800008008BD00000000C80A00208827000849
:1001C800034B1B68002BFBD0014B00221A607047C1
:1001D800E40A002038B5002531E000224FF4006120
:1001E8004FF0904000F09AFE00224FF480714FF0DB
:1001F800904000F093FE01224FF400614FF09040D0
:1002080000F08CFE013C002CE7DC01224FF4805109
:100218004FF0904000F082FE002210214FF09040F5
:1002280000F07CFE002202214FF0904000F076FEA4
:10023800002201214FF0904000F070FE01351F2D83
:100248003CDC012210214FF0904000F067FE0122B3
:1002580002214FF0904000F061FE012211464FF05C
:10026800904000F05BFE164C05F00102022120468A
:1002780000F054FEC5F340020121204600F04EFE76
:10028800C5F3800280214FF0904000F047FEC5F38F
:10029800C00240214FF0904000F040FEC5F300122C
:1002A80020214FF0904000F039FE00224FF4805199
:1002B8004FF0904000F032FE2024A4E738BD00BF84
:1002C800000400482DE9F04F85B072B6654AA2FBDC
:1002D8000013DB0803EB83046100411A89B2C1EB08
:1002E800C1014C0160490C4401949BB2A2FB035428
:1002F800E40804EB840465005B1B9BB2C3EBC303F7
:100308005C010C440294594BA3FB00035B09A2FB5C
:100318000302D20802EB820250001B1A9BB2C3EB05
:10032800C3035A010A44039262B64FF0000A8CE0F4
:1003380000224FF400614FF0904000F0EFFDE20F13
:100348004FF480714FF0904000F0E8FD01224FF427
:1003580000614FF0904000F0E1FD6400013D002D88
:10036800E6DC01224FF480514FF0904000F0D6FDBA
:10037800002210214FF0904000F0D0FD0022022111
:100388004FF0904000F0CAFD002201214FF090404C
:1003980000F0C4FD01360F2E55DC3B787C7844EA2A
:1003A800032398F8002098F8014044EA0224A402A4
:1003B80044EA435499F8002099F8013043EA0223AB
:1003C8001C43FFF7FDFE012210214FF0904000F082
:1003D800A5FD012202214FF0904000F09FFD01226F
:1003E80011464FF0904000F099FDDFF884B006F018
:1003F80001020221584600F091FD06F10805C5F3F7
:1004080040020121584600F089FDC5F38002802191
:100418004FF0904000F082FDC5F3C00240214FF03C
:10042800904000F07BFDC5F3001220214FF0904072
:1004380000F074FD00224FF480514FF0904000F01E
:100448006DFD20258BE70AF1010ABAF1060F06DCDB
:10045800DDF80490DDF80880039F00269BE705B0CF
:10046800BDE8F08FCDCCCCCC000000201F85EB512F
:1004780000040048D0F808345A1CC0F808241B7837
:100488002BB180F80434074BC0F800347047064B92
:10049800C0F800340023A0F8103400F20913C0F8A3
:1004A8000C347047E50400087D04000801604260D0
:1004B800002380F81234074AC0F8002400F108022B
:1004C800C0F8082400F20912C0F80C24A0F810346F
:1004D800704700BF7D0400087047000010B504464F
:1004E800D0F808345A1CC0F808241B78EBB190F8EF
:1004F8000424013A80F80424B0F8101483EA112087
:100508001B4A32F9102082EA0122A4F81024033B86
:10051800DBB284F8063484F8053484F80831FB2B00
:1005280014D8144BC4F8003410BD40F20121124B0A
:100538001980FFF7D1FF114BC4F800340023A4F849
:10054800103404F20913C4F80C34EDE740F2022128
:10055800094B19802046FFF7BFFF084BC4F8003449
:100568000023A4F8103404F20913C4F80C34DBE7B0
:10057800C008002089050008E00A00207D04000862
:10058800D0F808345A1CC0F808241B782BB390F80C
:100598000424013AD2B280F8042412B980F8043451
:1005A8001346D0F80C24511CC0F80C141370B0F882
:1005B800102483EA1223134931F9133083EA022302
:1005C800A0F8103490F80634013BDBB280F806340A
:1005D800B3B90D4BC0F80034704710B5044640F26B
:1005E80001210A4B1980FFF777FF094BC4F8003443
:1005F8000023A4F8103404F20913C4F80C3410BD15
:10060800704700BFC00800201D060008E00A00204F
:100618007D04000810B50446D0F808345A1CC0F808
:1006280008241A788AB190F8101490F80434013B21
:10063800DBB280F8043413B980F804240022914214
:1006480014D1134BC4F8003410BD40F20121114BF2
:100658001980FFF741FF104BC4F800340023A4F8B9
:10066800103404F20913C4F80C34EDE740F2032106
:10067800084B19802046FFF72FFF074BC4F80034BA
:100688000023A4F8103404F20913C4F80C34DBE78F
:10069800A5060008E00A00207D04000810B50446FD
:1006A800D0F808345A1CC0F808241A7892B1B0F867
:1006B8001014090A90F80434013BDBB280F80434C2
:1006C80013B980F804240022914214D1134BC4F8C2
:1006D800003410BD40F20121114B1980FFF7FCFED8
:1006E800104BC4F800340023A4F8103404F20913A2
:1006F800C4F80C34EDE740F20321094B1980204679
:10070800FFF7EAFE074BC4F800340023A4F81034BE
:1007180004F20913C4F80C34DBE700BF3107000802
:10072800E00A00207D04000810B50446D0F808341B
:100738005A1CC0F808241B7883B140F20221104BE0
:100748001980FFF7C9FE0F4BC4F800340023A4F842
:10075800103404F20913C4F80C3410BD012380F8D6
:10076800123400F5847101F07DFC064BC4F80034A6
:100778000023A4F8103404F20913C4F80C34ECE78D
:10078800E00A00207D04000838B50546C0F80814C2
:1007980004E0D5F80034284698472246531E9CB2F8
:1007A800002AF6D138BD00001549D1F8883043F445
:1007B8007003C1F88830134B1A6842F001021A60BE
:1007C8005868114A02405A601A6822F0847222F46A
:1007D80080321A601A6822F480221A605A6822F459
:1007E800FE025A60DA6A22F00F02DA62186B074AD0
:1007F80002401A6300229A604FF000638B607047D2
:1008080000ED00E0001002400CC07FF8CCFC00FFB7
:1008180000B583B01C4B9A6942F001029A619B694A
:1008280003F001030193019B032000F035FA002235
:1008380011466FF00B0000F041FA002211466FF0EC
:100848000A0000F03BFA002211466FF0090000F0A0
:1008580035FA002211466FF0040000F02FFA00224A
:1008680011466FF0030000F029FA002211466FF0DC
:10087800010000F023FA002211464FF0FF3000F08B
:100888001DFA03B05DF804FB0010024010B4036ABF
:10089800046A24F001040462846924F0F00444EA40
:1008A800021223F00A030B43826103625DF8044BD2
:1008B800704710B4036A23F0100303628469036A63
:1008C80024F4704444EA023223F0A00343EA0113FB
:1008D800826103625DF8044B7047836823F07003FC
:1008E80041F007011943816070470268D36843F0FB
:1008F8000103D3600268136843F00103136000200A
:100908007047704770477047704710B504460368D2
:100918001A6912F0020F11D0DA6812F0020F0DD026
:100928006FF002021A610123037703689B6913F0D1
:10093800030F79D0FFF7E6FF0023237723681A69AE
:1009480012F0040F12D0DA6812F0040F0ED06FF014
:1009580004021A610223237723689B6913F4407FFA
:1009680068D02046FFF7CEFF0023237723681A6953
:1009780012F0080F12D0DA6812F0080F0ED06FF0DC
:1009880008021A61042323772368DB6913F0030F35
:1009980057D02046FFF7B6FF0023237723681A694C
:1009A80012F0100F12D0DA6812F0100F0ED06FF09C
:1009B80010021A61082323772368DB6913F4407F48
:1009C80046D02046FFF79EFF0023237723681A6945
:1009D80012F0010F03D0DA6812F0010F3FD123683B
:1009E8001A6912F0800F03D0DA6812F0800F3DD137
:1009F80023681A6912F4807F03D0DA6812F0800F36
:100A08003BD123681A6912F0400F03D0DA6812F05C
:100A1800400F39D123681A6912F0200F03D0DA6821
:100A280012F0200F37D110BDFFF76BFF2046FFF7FC
:100A38006AFF81E72046FFF764FF2046FFF763FF60
:100A480092E72046FFF75DFF2046FFF75CFFA3E72C
:100A58002046FFF756FF2046FFF755FFB4E76FF033
:100A680001021A61204601F0C5FCB8E76FF0800268
:100A78001A61204600F031FBBAE76FF480721A6100
:100A8800204600F02BFBBCE76FF040021A612046BD
:100A9800FFF73AFFBEE76FF020021A61204600F028
:100AA8001BFBC0E70368224A904206D0B0F1804F92
:100AB80003D0A2F59432904203D123F070034A6820
:100AC80013431B4A904212D0B0F1804F0FD0A2F5C9
:100AD800943290420BD002F59E32904207D002F534
:100AE8008062904203D002F58062904203D123F4E1
:100AF8004073CA68134323F080034A6913430360B1
:100B08008B68C3620B688362094B98420BD003F56C
:100B1800A053984207D003F58063984203D003F5A9
:100B28008063984201D10B690363012343617047D5
:100B3800002C0140A8B110B5044690F83D305BB1D7
:100B4800022384F83D30211D2068FFF7ABFF012305
:100B580084F83D30002010BD80F83C3001F08EFC58
:100B6800EEE70120704710B4846824F47F4442EA19
:100B780003230B43234383605DF8044B7047000055
:100B880090F83C30012B00F0828010B50446012318
:100B980080F83C30022380F83D30026890683D4B75
:100BA800034093600B68402B5DD010D9702B40D068
:100BB8001FD8502B4DD0602B34D1CA6849682068A3
:100BC800FFF777FE60212068FFF787FE2AE0102BE9
:100BD80053D008D9202B55D0302B23D13021206871
:100BE800FFF77BFE1EE0EBB900212068FFF775FEDA
:100BF80018E0B3F5805F0ED0B3F5005F12D1CB6873
:100C08004A6889682068FFF7AEFF2268936843F452
:100C18008043936006E02268936823F4803323F0CE
:100C280007039360012384F83D30002084F83C00DA
:100C380010BDCB684A6889682068FFF794FF22686E
:100C4800936823F4803323F0770343F077039360AA
:100C5800E8E7CA6849682068FFF718FE502120684D
:100C6800FFF73BFEDEE7CA6849682068FFF70EFE1B
:100C780040212068FFF731FED4E710212068FFF7F4
:100C88002CFECFE720212068FFF727FECAE70220C5
:100C9800704700BF8800FEFF074AD36823F4E0636B
:100CA8001B041B0C000200F4E060184340F0BF6016
:100CB80040F40030D060704700ED00E030B4174BCE
:100CC800DB68C3F30223C3F10704042C28BF042400
:100CD8001D1D062D18D9033B4FF0FF3505FA04F406
:100CE80021EA0401994005FA03F322EA03031943B0
:100CF80000280BDB0901C9B200F1604000F5614032
:100D080080F8001330BC70470023E5E700F00F00BF
:100D18000901C9B2024B1954F4E700BF00ED00E025
:100D280014ED00E000F01F02400901239340024A3D
:100D380042F82030704700BF00E100E00138B0F110
:100D4800807F0AD2064B5860064AF02182F82310A9
:100D58000020986007221A6070470120704700BF82
:100D680010E000E000ED00E0042805D0054A136813
:100D780023F0040313607047024A136843F0040326
:100D88001360704710E000E0704708B5FFF7FCFFFC
:100D980008BD0000F0B482B0002336E0032400E070
:100DA8000024B4403C430235584E46F82540584C80
:100DB8002568D44304EA05064F6817F4803F01D03C
:100DC80042EA0506524D2E606D6804EA05064F6832
:100DD80017F4003F01D042EA05064D4D6E60AD683C
:100DE80004EA05064F6817F4801F01D042EA050699
:100DF800474DAE60ED682C404E6816F4001F01D0D8
:100E080042EA0504424AD46001330A6832FA03F41C
:100E180078D001249C402240F6D04D68022D01D0A4
:100E2800122D10D1DE08083650F826C003F0070549
:100E3800AF000F25BD402CEA050C0D69BD4045EA01
:100E48000C0540F8265006685F000325BD40ED43B9
:100E580005EA060C4E6806F00306BE4046EA0C0694
:100E680006604E6806F1FF3CBCF1010F03D9112E54
:100E780001D0122E10D1866805EA060CCE68BE4055
:100E880046EA0C068660466826EA04044E68C6F3FD
:100E980000169E4026434660C46825408C68BC40C6
:100EA8002C43C4604C6814F0805FADD0194CA56920
:100EB80045F00105A561A46904F001040194019CB1
:100EC8009D08AE1C114C54F8267003F00304A600CC
:100ED8000F24B44027EA0407B0F1904F3FF460AF05
:100EE8000D4CA0420AD004F58064A04208D004F555
:100EF8008064A0423FF452AF052452E7012450E732
:100F080002244EE702B0F0BC704700BF0000014069
:100F18000004014000100240000400480AB9816240
:100F28007047816170477047FEE7FEE7FEE7FEE71E
:100F380070477047704708B500F098F8FFF725FF2D
:100F480008BD000038B51B4B1B6813F4003F05D1E2
:100F5800184B1B6813F4802F14D138BD154B4FF470
:100F680000325A60144CB4F81434C3F5807204F19A
:100F7800080192B219442046FFF706FC0023A4F8A2
:100F88001434EAE70B4B4FF480225A6058335C68FC
:100F9800A4B2C4F58074A4B2074DB5F81434E21AAB
:100FA80005F1080192B219442846FFF7EDFBA5F8B0
:100FB8001444D2E700000240F00A002008B50248B5
:100FC800FFF7A3FC08BD00BF780F0020114BDB69B9
:100FD80013F0100F1CD010B50E4B10221A6203F537
:100FE800484358335C68A4B2C4F58074A4B20A4B71
:100FF800B3F81414621A92B21AB9074BA3F814443E
:1010080010BD03F1080001440838FFF7BDFBF4E701
:10101800704700BF00380140F00A002010B50446B0
:10102800074B1868074BA3FB00308009FFF786FEC3
:10103800002221464FF0FF30FFF740FE002010BD90
:10104800C00A0020D34D621008B5074A136843F060
:10105800100313600320FFF71FFE0020FFF7DEFFD9
:10106800FFF7D6FB002008BD00200240024A1368A3
:1010780001331360704700BFEC0A0020014B186869
:10108800704700BFEC0A002090F83C30012B1FD0BD
:1010980030B4012380F83C300268536895680D4CE1
:1010A800A24210D023F070030C68234325F080047B
:1010B80089682143536003689960002380F83C30B5
:1010C800184630BC704723F470034C682343E9E7A3
:1010D80002207047002C0140704770477047FEE7B8
:1010E80000B597B002230C9301221092102211929E
:1010F8001393002314934FF4601315930CA800F076
:101108006DFA48BB0F230793022108910023099326
:101118004FF480620A920B9307A800F09FFDF8B97C
:10112800012301930023039301A800F0B3FED8B96B
:1011380000F07EFE0E4BA3FB00308009FFF7FEFD9A
:101148000420FFF711FE002211464FF0FF30FFF791
:10115800B5FD17B05DF804FBAA210648FFF7BFFFED
:10116800B8210448FFF7BBFFBF210248FFF7B7FFCC
:10117800D34D6210B827000808B5FFF765FFFFF7E1
:10118800AFFF01F03BF801F097F900F07DFF01F0A7
:101198003DF900F0EDFF1A4C1A4A1B492046FFF7AB
:1011A80085F90834194BDC605A68120C120442F4B1
:1011B80080725A60164A9A601A6842F004021A60ED
:1011C8001A6842F002021A601A6842F001021A60B4
:1011D800104B9A6842F040029A601A6842F0100276
:1011E8001A601A6842F001021A600B48FFF77DFB8B
:1011F800FEF7F0FF094B1888FFF764F8FAE700BF1D
:10120800F00A002065200008352000085800024038
:101218002438014000380140780F0020E80A0020F7
:1012280010B5044683680269134342691343C269CF
:10123800134301680868654A024013430B6022683B
:10124800536823F44053E1680B435360A369226A4F
:101258001A4321688B6823F4306313438B60236837
:101268005B4A934215D05B4A934229D002F58062CB
:10127800934221D01022E169B1F5004F22D0082A0B
:1012880000F2A280DFE802F066727EA08AA0A0A029
:10129800960002F55842126B02F00302032A09D89D
:1012A800DFE802F00204060C0022E4E70422E2E789
:1012B8000822E0E71022DEE70022DCE70222DAE774
:1012C8000022D8E7082A42D8DFE802F005172241B1
:1012D8002D414141380000F0B1FD6268530803EB2D
:1012E8004003B3FBF2F39BB2002023F00F02C3F3D9
:1012F800420313432268D36010BD00F0B5FD626855
:10130800530803EB4003B3FBF2F39BB20020ECE776
:101318006268530803F5740303F51053B3FBF2F343
:101328009BB20020E1E700F061FC6268530803EB20
:101338004003B3FBF2F39BB20020D6E76268530880
:1013480003F58033B3FBF2F39BB20020CDE7012015
:101358000023CAE700F072FD636800EB5300B0FB9E
:10136800F3F0236880B2D8600020C5E700F07CFD68
:10137800636800EB5300B0FBF3F0236880B2D860D9
:101388000020B9E761684A0802F5F40202F59052B4
:10139800B2FBF1F292B2DA600020ADE700F026FC71
:1013A800636800EB5300B0FBF3F0236880B2D860A9
:1013B8000020A1E761684A0802F50042B2FBF1F299
:1013C80092B2DA60002097E7012095E7F369FFEF12
:1013D8000038014000440040436A13F0010F06D072
:1013E8000268536823F40033816A0B435360436AED
:1013F80013F0020F06D00268536823F48033C16AE1
:101408000B435360436A13F0040F06D00268536815
:1014180023F48023016B0B435360436A13F0080FD6
:1014280006D00268536823F40043416B0B435360B2
:10143800436A13F0100F06D00268936823F48053B0
:10144800816B0B439360436A13F0200F06D0026848
:10145800936823F40053C16B0B439360436A13F002
:10146800400F0AD00268536823F48013016C0B43C1
:101478005360036CB3F5801F0BD0436A13F0800FE1
:1014880006D00268536823F40023816C0B43536031
:1014980070470268536823F4C003416C0B435360E0
:1014A800EBE72DE9F04105460F4616469846069C9F
:1014B8002B68DB6937EA03030CBF01230023B3421F
:1014C8001DD1B4F1FF3FF3D02CB1FFF7D7FDA0EB4E
:1014D8000800A042ECD92A68136823F4D07313607B
:1014E8002A68936823F001039360202385F8693004
:1014F80085F86A30002385F86830032000E0002072
:10150800BDE8F08130B583B004460023C366FFF719
:10151800B5FD054623681B6813F0080F0ED1236834
:101528001B6813F0040F17D1202384F8693084F85E
:101538006A30002084F8680003B030BD6FF07E4345
:101548000093034600224FF400112046FFF7A9FF3D
:101558000028E4D00320EFE76FF07E4300932B468A
:1015680000224FF480012046FFF79BFF0028DBD0C4
:101578000320E1E778B310B5044690F869300BB35F
:10158800242384F869302268136823F00103136068
:101598002046FFF745FE012813D0636ABBB92268CD
:1015A800536823F4904353602268936823F02A0316
:1015B80093602268136843F0010313602046FFF725
:1015C800A1FF10BD80F8683000F0F2FDD8E7204692
:1015D800FFF702FFE3E701207047000070B582B013
:1015E8000446036813F0010F3BD0B64B5B6803F069
:1015F8000C03042B1ED0B34B5B6803F00C03082BC1
:1016080013D06368B3F5803F68D0002B40F0928018
:1016180003F1804303F504331A6822F480321A6018
:101628001A6822F480221A605DE0A64B5B6813F406
:10163800803FE6D04FF4003393FAA3F3A14B196827
:101648004FF4003393FAA3F3B3FA83F303F01F03C1
:10165800012202FA03F30B4203D06368002B00F067
:10166800B382236813F0020F00F0C680954B5B68C5
:1016780013F00C0F00F09C80924B5B6803F00C0396
:10168800082B00F08F802369002B00F0F3800122E3
:1016980092FAA2F3B3FA83F303F1845303F58413A4
:1016A8009B001A60FFF7EAFC0546022393FAA3F3AE
:1016B800844B1968022393FAA3F3B3FA83F303F074
:1016C8001F03012202FA03F30B4240F0C480FFF724
:1016D800D5FC401B0228E8D903207CE2794A13682C
:1016E80043F480331360774AD36A23F00F03A16869
:1016F8000B43D3626368002B36D0FFF7BFFC054667
:101708004FF4003393FAA3F36E4B19684FF4003388
:1017180093FAA3F3B3FA83F303F01F03012202FA47
:1017280003F30B429DD1FFF7A9FC401B6428E7D9BE
:10173800032050E2B3F5A02F09D0624B1A6822F4B7
:1017480080321A601A6822F480221A60CBE703F10B
:101758008043A3F53C331A6842F480221A601A6861
:1017680042F480321A60BEE7FFF788FC05464FF462
:10177800003393FAA3F3534B19684FF4003393FAE9
:10178800A3F3B3FA83F303F01F03012202FA03F36E
:101798000B423FF466AFFFF771FC401B6428E6D9A3
:1017A800032018E2474B5B6813F4803F7FF46BAF6C
:1017B800022393FAA3F3434B1968022393FAA3F382
:1017C800B3FA83F303F01F03012202FA03F30B4277
:1017D80004D02369934201D00120FCE13948036811
:1017E80023F0F8036169F82292FAA2F2B2FA82F2BF
:1017F80001FA02F213430360236813F0080F00F0A4
:101808008D80A369002B61D0012191FAA1F2B2FA6F
:1018180082F22D4B13449B001960FFF72FFC0546FD
:10182800022393FAA3F293FAA3F293FAA3F2254AB6
:10183800516A93FAA3F3B3FA83F303F01F03012267
:1018480002FA03F30B4269D1FFF718FC401B022888
:10185800E6D90320BFE11B48036823F0F803616958
:10186800F82292FAA2F2B2FA82F201FA02F21343D1
:101878000360C1E7012393FAA3F3B3FA83F303F1F7
:10188800845303F584139B0000221A60FFF7F6FBCC
:101898000546022393FAA3F30A4B1968022393FA25
:1018A800A3F3B3FA83F303F01F03012202FA03F34D
:1018B8000B42A1D0FFF7E2FB401B0228E9D9032025
:1018C80089E100BF0010024020819010012292FAA5
:1018D800A2F2B2FA82F2C14B13449B0000221A60B2
:1018E800FFF7CCFB0546022393FAA3F293FAA3F27F
:1018F80093FAA3F2BA4A516A93FAA3F3B3FA83F3B9
:1019080003F01F03012202FA03F30B4206D0FFF78C
:10191800B5FB401B0228E6D903205CE1236813F0DD
:10192800040F00F0B380AE4BDB6913F0805F20D169
:10193800AB4BDA6942F08052DA61DB6903F080531D
:101948000193019B0125A74B1B6813F4807F12D0DC
:10195800E368012B23D073BB03F1804303F5043301
:101968001A6A22F001021A621A6A22F004021A6242
:101978001AE00025E7E79B4A136843F48073136075
:10198800FFF77CFB0646974B1B6813F4807FDFD17B
:10199800FFF774FB801B6428F5D903201BE1904AEC
:1019A800136A43F001031362E368002B41D0FFF789
:1019B80065FB06462BE0052B09D0894B1A6A22F0F5
:1019C80001021A621A6A22F004021A62ECE7844BD6
:1019D8001A6A42F004021A621A6A42F001021A6292
:1019E800E2E77F4B196A022393FAA3F3B3FA83F36E
:1019F80003F01F03012202FA03F3194245D1FFF74E
:101A08003DFB801B41F28833984200F2DF800223BD
:101A180093FAA3F293FAA3F3B3FA83F35B0943F0BF
:101A28000203022BDDD0022393FAA3F36C4B596A0D
:101A3800D9E7FFF723FB064615E0694B196A02232D
:101A480093FAA3F3B3FA83F303F01F03012202FA14
:101A580003F3194219D0FFF711FB801B41F28833B9
:101A6800984200F2B580022393FAA3F293FAA3F303
:101A7800B3FA83F35B0943F00203022BDDD00223A0
:101A880093FAA3F3564B596AD9E7B5BBE369002B20
:101A980000F0A080524A526802F00C02082A00F0B6
:101AA800A380022B2FD04FF0807393FAA3F3B3FADD
:101AB80083F303F1845303F584139B0000221A6017
:101AC800FFF7DCFA04464FF0007393FAA3F3444B94
:101AD80019684FF0007393FAA3F3B3FA83F303F092
:101AE8001F03012202FA03F319426BD0FFF7C6FA6B
:101AF800001B0228E7D903206DE0394AD36923F097
:101B08008053D361C2E74FF0807393FAA3F3B3FA1B
:101B180083F303F1845303F584139B0000221A60B6
:101B2800FFF7ACFA05464FF0007393FAA3F32C4B7A
:101B380019684FF0007393FAA3F3B3FA83F303F031
:101B48001F03012202FA03F3194206D0FFF796FA9F
:101B5800401B0228E7D903203DE021494B6823F4C4
:101B68007413626A206A024313434B604FF0807318
:101B780093FAA3F3B3FA83F303F1845303F58413BD
:101B88009B0001221A60FFF779FA04464FF00073B0
:101B980093FAA3F3124B19684FF0007393FAA3F367
:101BA800B3FA83F303F01F03012202FA03F3194285
:101BB80006D1FFF763FA001B0228E7D903200AE0E1
:101BC800002008E0002006E0012004E0032002E0F5
:101BD800032000E0002002B070BD00BF20819010FB
:101BE80000100240007000400120F4E7164B5968CD
:101BF80001F00C03082B24D101F470124FF4701378
:101C080093FAA3F3B3FA83F322FA03F30F4AD05CEF
:101C18000D4BDB6A03F00F030F2292FAA2F2B2FA1D
:101C280082F2D3400A4AD25C11F4803F03D1094BB7
:101C380003FB00F07047084BB3FBF2F300FB03F023
:101C480070470548704700BF00100240C4270008CD
:101C5800D427000800093D0000127A00704B1B6869
:101C680003F007038B420CD26D4A136823F0070375
:101C78000B431360136803F007038B4201D0012064
:101C8800704770B5036813F0020F06D0654A5368B1
:101C980023F0F0038468234353600C460546036829
:101CA80013F0010F7AD04368012B2FD0022B42D0BA
:101CB800022292FAA2F25B4A1068022292FAA2F277
:101CC800B2FA82F202F01F02012101FA02F2104276
:101CD80000F0A48053494A6822F0030213434B6082
:101CE800FFF7CCF906466B68012B39D0022B46D09A
:101CF8004C4B5B6813F00C0F50D0FFF7BFF9801BFB
:101D080041F288339842F3D9032086E04FF4003239
:101D180092FAA2F2434A10684FF4003292FAA2F201
:101D2800B2FA82F202F01F02012101FA02F2024223
:101D3800D0D1012071E04FF0007292FAA2F2394A34
:101D480010684FF0007292FAA2F2B2FA82F202F030
:101D58001F02012101FA02F21042BBD101205CE00E
:101D6800304B5B6803F00C03042B17D0FFF786F9A0
:101D7800801B41F288339842F2D903204DE0294B69
:101D88005B6803F00C03082B08D0FFF777F9801B7A
:101D980041F288339842F2D903203EE0204B1B6879
:101DA80003F00703A3420CD91D4A136823F0070365
:101DB80023431360136803F00703A34201D00120F3
:101DC8002BE02B6813F0040F06D0164A536823F44F
:101DD800E063E9680B4353602B6813F0080F07D0E2
:101DE800104A536823F46053296943EAC1035360D6
:101DF800FFF7FCFE0B4B5B6803F0F003F02292FA4E
:101E0800A2F2B2FA82F2D340074AD35CD840074B19
:101E180018600020FFF702F9002070BD0120FCE7E0
:101E28000020024000100240A0270008C00A00203D
:101E3800014B1868704700BFC00A002008B5FFF7BB
:101E4800F7FF074B5B6803F4E0634FF4E06292FA34
:101E5800A2F2B2FA82F2D340024AD35CD84008BD5B
:101E680000100240B027000808B5FFF7E1FF074B54
:101E78005B6803F460534FF4605292FAA2F2B2FA2C
:101E880082F2D340024AD35CD84008BD0010024019
:101E9800B0270008F0B583B00446036813F4803F08
:101EA80044D05F4BDB6913F0805F6ED15C4BDA691D
:101EB80042F08052DA61DB6903F080530193019BA1
:101EC8000125584B1B6813F4807F60D0544B1B6A64
:101ED80013F4407321D0626802F440729A421CD015
:101EE8004F48016A21F440764FF4803393FAA3F205
:101EF800B2FA82F24C4F3A4492004FF0010CC2F809
:101F080000C093FAA3F3B3FA83F33B449B00002287
:101F18001A60066211F0010F4DD1414A136A23F489
:101F2800407361680B431362002D6FD1236813F06F
:101F3800010F06D03A4A136B23F00303A1680B4341
:101F48001363236813F0200F06D0354A136B23F070
:101F58001003E1680B431363236813F0800F06D066
:101F68002F4AD36A23F4F87321690B43D362236899
:101F780013F4805F51D02A4A136B23F4807361698C
:101F88000B431363002003B0F0BD002599E7254AF1
:101F9800136843F480731360FFF770F80646214B0B
:101FA8001B6813F4807F91D1FFF768F8801B6428C1
:101FB800F5D90320E7E7FFF761F8064614E0184B68
:101FC800196A022393FAA3F3B3FA83F303F01F0306
:101FD800012202FA03F30B429FD1FFF74FF8801B4F
:101FE80041F28833984216D8022393FAA3F293FA5F
:101FF800A3F3B3FA83F35B0943F00203022BDED0A9
:10200800022393FAA3F3064B596ADAE7D36923F05C
:102018008053D3618AE70320B5E70020B3E700BF08
:102028000010024000700040008190100022914290
:102038000FDD10B4845C084B1C85074BDB6913F07B
:10204800800FFAD001329142F4DC00205DF8044B95
:1020580070470020704700BF0038014008B5FFF7FF
:102068000DF808BD064B834200D070470B78022B51
:10207800FBD18A784B7843EA0223024A1380F4E7BB
:10208800F00A0020E80A002010B58EB0334B9A6998
:1020980042F480429A619B6903F480430093009B59
:1020A8004FF4C06301930223029303230393002494
:1020B800049405940723069301A94FF0904000F07B
:1020C800FFF8274B1A6822F4804222F010021A60A7
:1020D8001A6822F4405242F400521A601A6842F018
:1020E80020021A601A6822F040021A601A6842F048
:1020F80080021A601A6822F440721A601A6822F480
:1021080040621A60174BDB68174B83F8254320227F
:102118005A604FF4E1330793089409940A940C2306
:102128000B930C940D94114C07A9204600F0E0F98C
:10213800A36823F48063A360A36843F48053A36077
:10214800636823F490436360A36823F02A03A360C1
:10215800236843F0010323600EB010BD0010024055
:102168005800024000ED00E000E100E000380140C6
:1021780008B50C480C4B03604FF41643436000232A
:10218800C36003610C2242618361C36103624362DD
:10219800FFF7F0F900B908BD95210448FEF79FFF45
:1021A800F9E700BF080F002000440040E4270008BA
:1021B8000268114B9A4200D0704700B587B003F50A
:1021C800E633DA6942F40032DA61DB6903F400339A
:1021D8000093009B0C230193022302930023039393
:1021E800032304930723059301A94FF09040FEF7BA
:1021F800D1FD07B05DF804FB00440040F0B589B09C
:102208002C4B5A6942F480025A615A6902F48002DE
:102218000092009A5A6942F400325A615A6902F4EB
:1022280000320192019A5A6942F480225A615B692C
:1022380003F480230293029B002241F6F3114FF02E
:102248009040FEF76BFE1C4E002203213046FEF73D
:1022580065FE0324039404940025059503A91748F3
:10226800FEF798FD41F6F3130393012704970595AC
:10227800069403A94FF09040FEF78CFD0394049751
:102288000595069403A93046FEF784FD4FF40043F4
:1022980003930494059503A94FF09040FEF77AFD47
:1022A800F82303930494059503A93046FEF772FDBD
:1022B80009B0F0BD001002400004004800140048B6
:1022C800F0B40A6892FAA2F2B2FA82F218E00E6941
:1022D800C46893FAA3F5B5FA85F56D00032707FAE4
:1022E80005F524EA050493FAA3F5B5FA85F56D001A
:1022F80006FA05F52C43C4604C68022C36D001322E
:102308000B6833FA02F464D0012494402340F6D0D9
:102318004E68046893FAA3F5B5FA85F56D000327AE
:1023280007FA05F524EA050493FAA3F5B5FA85F545
:102338006D0006FA05F52C4304604C68013C012C3D
:10234800C5D88E68846893FAA3F5B5FA85F56D004B
:1023580007FA05F524EA050493FAA3F5B5FA85F515
:102368006D0006FA05F52C438460B0E793FAA3F4F0
:10237800B4FA84F4072C15D84D69046A93FAA3F6C5
:10238800B6FA86F6B6000F2707FA06F624EA060418
:1023980093FAA3F3B3FA83F39B0005FA03F32343F9
:1023A8000362ACE74C69456A1B0A93FAA3F6B6FACE
:1023B80086F6B6000F2707FA06F625EA060593FA09
:1023C800A3F3B3FA83F39B0004FA03F32B434362AA
:1023D80095E74A68013A012A02D90120F0BC704702
:1023E800C968426822EA030201FB03F3134343600E
:1023F800F3E70000034B834200D07047024B0122F1
:102408001A60FAE7780F0020E40A002000B589B0C6
:1024180018484FF08043036000234360836041F213
:102428008832C26003618361FEF784FB98B908A90A
:102438004FF4805341F8103D0E48FEF7A1FB78B9E0
:1024480000230193039301A90A48FEF71DFE60B912
:1024580009B05DF804FB47210748FEF740FEE6E7B0
:102468004D210548FEF73BFEEAE754210248FEF7F6
:1024780036FEEDE7780F0020F02700080368B3F177
:10248800804F00D0704700B583B003F50433DA6994
:1024980042F00102DA61DB6903F001030193019B59
:1024A800002211461C20FEF709FC1C20FEF73AFC0E
:1024B80003B05DF804FB000082B00A4B5A6942F091
:1024C80001025A615B6903F001030193019B064B0A
:1024D800DB68064B002283F80F234FF400421A6092
:1024E80002B070470010024000ED00E000E100E09B
:1024F800036813F0010F51D130B585B00D4604467D
:102508000368294A1A404B68C9680B4329690B4379
:10251800A9690B4313430360AB68426822F4405235
:10252800134343606B69826822F4407213438360EB
:102538001E4B984208D01E4B984217D01D4B98420C
:1025480019D0002005B030BD002000F09DF838B348
:102558002A683AB3AB69B3F5004F11D000EB5203C8
:10256800B3FBF2F39BB2E3600120EBE7684600F0AF
:102578007BF80298EBE7684600F076F80298E6E701
:10258800530803EB4003B3FBF2F34FF6F0721A4023
:10259800C3F342031343E3600120D3E700207047ED
:1025A8000020CFE70020CDE7F369FFEF00380140B6
:1025B8000044004000480040034B5B68C3F303132A
:1025C800024AD35CD840704700100240A027000898
:1025D800034B5B68C3F30223024AD35CD8407047BD
:1025E80000100240B0270008034B5B68C3F3C22306
:1025F800024AD35CD840704700100240B027000858
:102608000E4B5B6803F480330BB90D4B00E00D4BA8
:102618000A4AD06A00F00F000130B3FBF0F05368AB
:1026280003F470134FF4701292FAA2F2B2FA82F223
:10263800D340023303FB00F0704700BF0010024094
:1026480000093D0000127A0008B5054B5B6803F0ED
:102658000C03082B02D1FFF7D3FF08BD0148FCE7A4
:102668000010024000127A0010B50446FFF7ECFF94
:102678002060FFF7A1FF6060FFF7AAFFA060606815
:10268800FFF7B2FFE06010BD30BB08B5134A126B0C
:10269800032181400A4042EA0062022A14D0032A38
:1026A8000BD0012A06D0FFF7CFFFFFF785FFFFF712
:1026B8008FFF01E0FFF7C8FF08BD084A126812F053
:1026C800020FF9D00648F7E7044A126A12F0020F1F
:1026D800F2D04FF40040EFE70020704700100240AE
:1026E80000127A00DFF834D0002103E00C4B5B586D
:1026F800435004310B480C4B42189A42F6D30B4A0C
:1027080002E0002342F8043B094B9A42F9D3FEF752
:102718004BF800F011F8FEF72FFDFEE7003000201F
:102728000428000800000020C40A0020C40A002071
:10273800B80F0020FEE7000070B50D4E0D4CA41B2D
:10274800A4100025A54209D10B4E0C4C00F018F836
:10275800A41BA4100025A54205D170BD56F825304C
:1027680098470135EEE756F8253098470135F2E7E6
:10277800FC270008FC270008FC27000800280008A0
:10278800F8B500BFF8BC08BC9E467047F8B500BF56
:08279800F8BC08BC9E46704726
:1027A0000000000000000000010203040607080901
:1027B00000000000010203045372632F6D61696E13
:1027C0002E63000002030405060708090A0B0C0D1E
:1027D0000E0F10100102030405060708090A0B0C6E
:1027E0000D0E0F105372632F75736172742E630098
:0C27F0005372632F74696D2E63000000AB
:0427FC00AD01000823
:042800008901000842
:1028040000003F007F807380E1C0E1C0C1C0C1C04F
:10281400C1C0C1C0E1C0E1C063807F803F0000004F
:1028240000003E007F806180E1C0E1C0C0C0C0C044
:10283400C0C0C0C0E1C0E1C061807F803E00000034
:1028440000001E003F0061806180C0C0C0C0C0C0E5
:10285400C0C0C0C0C0C0E18061803F001E00000055
:1028640000001E003F0061806180C0C0C0C0C0C0C5
:10287400C0C0C0C0C0C0618061803F001E000000B5
:1028840000001E003700618041804080C0C0C0C08D
:10289400C0C0C0C040804180618033001E00000081
:1028A40000001C003300618040804080C080C080F4
:1028B400C080C08040804080618033001C000000E4
:1028C40000000C0033006100408040804080408064
:1028D4004080408040804080610033000C00000054
:1028E4001FC01FC01FC01C001C001C001C001C00BB
:1028F4001C001C001C001C001C001C00FFC0FFC0AE
:102904001F801FC01DC01C001C001C001C001C00DC
:102914001C001C001C001C001C001C00FF80FFC0CD
:102924001F801FC01CC01C001C001C001C001C00BD
:102934001C001C001C001C001C001C00FF80FF80ED
:102944000F000FC00C800C000C000C000C000C00DD
:102954000C000C000C000C000C000C00FF80FF802D
:102964000F000F800C000C000C000C000C000C007D
:102974000C000C000C000C000C000C00FF80FF800D
:102984000E000F8008000800080008000800080076
:10299400080008000800080008000800FF80FF8005
:1029A4000C000F8008000800080008000800080058
:1029B4000800080008000800080008001C00FF8048
:1029C40000003F807FC0F0C0E000E000E000700045
:1029D40038001C000E0007000380FFC0FFC0000089
:1029E40000003F807FC0E0C0E000E000E000700035
:1029F40038001C000E0007000380FFC0FFC0000069
:102A040000003F007FC06080E000E00060007000D4
:102A140038001C000E0007000380FFC0FFC0000048
:102A240000001F007F806000C000C00060006000E4
:102A3400300018000C00070003807F80FFC00000F6
:102A440000001F007F8060004000400060006000C4
:102A5400300018000C00060003007F80FF80000097
:102A640000001E003B806000400040006000200029
:102A7400300018000C000600010001807F80000077
:102A840000000C0031806000400040004000200045
:102A94001000080004000200010001807F80000093
:102AA40000003F807FC07000E00060007E003F00B7
:102AB4007800E000E000E000F0C07FC03FC000000C
:102AC40000003F807F806000600060007E003E0068
:102AD4007000E000E000E00060007FC03F80000084
:102AE40000001F807F806000600060007E003E0068
:102AF40070006000C000E00060007FC01F80000024
:102B040000001F807F806000600060003E001E00A7
:102B140070006000C000C00060007FC01F80000023
:102B240000001F003F8060006000600038001E004D
:102B3400200040004000400060003F801F00000073
:102B440000000F00318060004000600030001E0073
:102B54002000400040004000600039800F00000069
:102B640000000E00308060004000600030001E0055
:102B74002000400040004000600030800E00000053
:102B84000000380038003C003E00360037003300B7
:102B940031807F80FFC0FF803000300000000000E3
:102BA4000000380038003C003C003600330033009D
:102BB40031803180FF80FF80300030000000000051
:102BC4000000300038003C0034003600320033008E
:102BD40031803180FF807000300030000000000040
:102BE4000000300038003C0034003600320033006E
:102BF40031803180FF803000300030000000000060
:102C040000003000380028002400260022002100A3
:102C140021003080FF8030002000200000000000F0
:102C24000000300038002800240020002200210089
:102C340021002080FF8020002000200000000000F0
:102C44000000300038002000240020002200200072
:102C5400210020807F802000200020000000000050
:102C640000007F807F80018001801F807F80F98049
:102C7400E000C000C000E000F0C07FC03FC0000022
:102C840000007F807F80018001801F807F80F18031
:102C9400E000C000C000E000E0007FC03F80000012
:102CA40000007F807F80018001801F803F807080D2
:102CB400E000C000C000C000E0007FC01F80000032
:102CC40000007F807F80018001800D803F80700044
:102CD400E000C000C000C00060007F801F800000D2
:102CE40000007F803F800180018001803F80600080
:102CF400C000C000C000C00060007F801F00000052
:102D040000007F8001800180018001803F8060009D
:102D14004000C000C000C000600039800F00000007
:102D240000007F0001000100010001003F0060007D
:102D34004000C000C0004000600030800E00000071
:102D440000007E007F00038001801DC07FC0F7C0AB
:102D5400E1C0C1C0C1C0E1C0E3807F803F0000008A
:102D640000007E007F00038001801DC07FC073C00F
:102D7400E1C0C1C0C1C0C180E3807F003E0000004B
:102D840000007E007F00038001801D807FC063C03F
:102D9400E1C0C1C0C1C0C180E1807F003E0000002D
:102DA40000007C007F000380018008803FC063C076
:102DB400C1C0C1C0C180C18061807F003E000000ED
:102DC40000003C007F000100018000803E8063C061
:102DD400C1C0C180C080C180618077001E00000036
:102DE40000003C0066000100018000803E8061809C
:102DF4004180C080C080C180418073001C000000FD
:102E04000000180046000100008000803E806180C0
:102E140041804080C0804080410023000C000000BD
:102E24000000FFC0FFC060007000300038003800B0
:102E340018001C001C000E000E0006000700000015
:102E44000000FFC07FC06000700030003800380010
:102E540018001C000C000C000E0006000700000007
:102E64000000FFC07F806000700030003000180058
:102E740018001C000C000C000E00060006000000E8
:102E840000007F807F806000200030003000180048
:102E9400180018000C000C000600060006000000D4
:102EA40000007F807F806000200030003000180028
:102EB400180008000C000C000400060006000000C6
:102EC40000007F80600060002000300010001000CF
:102ED400180008000C000C000400060002000000AA
:102EE40000007F80600020002000200010001000FF
:102EF4001800080008000400040006000200000096
:102F040000003F007F80E1C0E1C0E1C07F803F005E
:102F14007380E1C0C1C0E1C0E1C07F803F00000018
:102F240000003F007F80E180E1C061807F803F003E
:102F34007380E1C0C0C0C1C0E1C07F803F00000019
:102F440000003F007F806180E18061807F803F00DE
:102F54006380C180C0C0C0C0E1C07F803F0000006A
:102F640000001E007F806180418061803F803E00C0
:102F74006180C080C0C0C0C061807F803F0000000D
:102F840000001E00738061804080618033003E0039
:102F940061004080C080C0C0618073801E0000005A
:102FA40000001E00730041804080418033001E00F9
:102FB40061004080C0804080418073801E0000001A
:102FC40000000C00230040804080408021001E004F
:102FD4006100408040804080408023000C0000005D
:102FE40000003F007F8071C0E1C0E1C0E1C0F1C0DA
:102FF400FF80FF00E000E00070803F801F80000041
:1030040000001F007F8061C0E1C0E0C0E1C0E1C0FA
:10301400FF80FF00E000600070003F801F80000020
:1030240000001F003F80618060C0E0C0E0C0E1C0DC
:10303400FF80DF00E000600070003F801F80000020
:1030440000001E003F80618060C0C0C0E0C0E1801D
:10305400FF80DF004000600070003F800F00000030
:1030640000001E003B80618040C040C0C0C0E180C1
:10307400FB80CE004000600020003F800F00000075
:1030840000000E0033006180408040C040806080BA
:1030940073804E0040006000200019800F00000083
:1030A40000000C003100208040804080408060801F
:1030B40051004C0040004000200018800600000031
:1030C400000005800F800A001B801E001400118080
:1030D400338036003C00398028002D802780220070
:1030E400638066006C00698078007D807780720060
:1030F400500055805F805A004B804E004400418050
:10310400C380C600CC00C980D800DD80D780D2003F
:10311400F000F580FF80FA00EB80EE00E400E1802F
:10312400A000A580AF80AA00BB80BE00B400B1801F
:10313400938096009C00998088008D80878082000F
:10314400838186018C01898198019D8197819201F7
:10315400B001B581BF81BA01AB81AE01A401A181E7
:10316400E001E581EF81EA01FB81FE01F401F181D7
:10317400D381D601DC01D981C801CD81C781C201C7
:10318400400145814F814A015B815E0154015181B7
:10319400738176017C01798168016D8167816201A7
:1031A400238126012C01298138013D813781320197
:1031B400100115811F811A010B810E010401018187
:1031C400038306030C03098318031D831783120367
:1031D400300335833F833A032B832E032403218357
:1031E400600365836F836A037B837E037403718347
:1031F400538356035C03598348034D834783420337
:10320400C003C583CF83CA03DB83DE03D403D18326
:10321400F383F603FC03F983E803ED83E783E20316
:10322400A383A603AC03A983B803BD83B783B20306
:10323400900395839F839A038B838E0384038183F6
:10324400800285828F828A029B829E0294029182EE
:10325400B382B602BC02B982A802AD82A782A202DE
:10326400E382E602EC02E982F802FD82F782F202CE
:10327400D002D582DF82DA02CB82CE02C402C182BE
:10328400438246024C02498258025D8257825202AE
:10329400700275827F827A026B826E02640261829E
:1032A400200225822F822A023B823E02340231828E
:1032B400138216021C02198208020D82078202027E
:0432C40000127A007A
:04000005080026EDDC
:00000001FF
