:020000040800F2
:1000000000800120B9190008091A0008091A00081F
:10001000091A0008091A0008091A0008000000005F
:10002000000000000000000000000000091A0008A5
:10003000091A000800000000091A0008A1030008BE
:10004000091A0008091A0008091A0008091A000804
:10005000091A0008091A0008091A0008091A0008F4
:10006000091A0008091A0008091A0008091A0008E4
:10007000091A0008091A0008091A0008091A0008D4
:10008000091A0008091A0008091A000800000000EF
:10009000000000000000000000000000091A000835
:1000A000091A0008091A0008091A0008091A0008A4
:1000B000091A0008091A0008091A0008091A000894
:1000C000091A0008091A0008091A0008091A000884
:1000D000091A0008091A0008091A0008000000009F
:1000E000091A0008091A0008091A0008000000008F
:1000F000000000000000000000000000091A0008D5
:1001000000000000091A0008091A0008091A00086E
:1001100000000000000000000000000000000000DF
:10012000091A0008091A0008091A0008091A000823
:10013000091A000800000000000000000000000094
:10014000000000000000000000000000091A000884
:10015000091A0008091A0008091A0008091A0008F3
:10016000091A0008091A0008000000000000000039
:10017000000000000000000000000000000000007F
:1001800000000000091A0008000000000000000044
:04019000091A000840
:1001940053B94AB9002908BF00281CBF4FF0FF31EA
:1001A4004FF0FF3000F00CB8ADF1080C6DE904CE4F
:1001B40001F04EFCDDF804E0DDE9022304B07047F1
:1001C400704700BF10B5054C227832B9044B13B107
:1001D4000448AFF300800123237010BD0400002005
:1001E400000000000C1D000808B5034B1BB10349B7
:1001F4000348AFF3008008BD0000000008000020A1
:100204000C1D0008074AD36823F4E0631B041B0C8D
:10021400000200F4E060184340F0BF6040F4003096
:10022400D060704700ED00E030B4174BDB68C3F3D7
:100234000223C3F10704042C28BF04241D1D062D2A
:1002440018D9033B4FF0FF3505FA04F421EA040101
:10025400994005FA03F322EA0303194300280BDB50
:100264000901C9B200F1604000F5614080F8001353
:1002740030BC70470023E5E700F00F000901C9B264
:10028400024B1954F4E700BF00ED00E014ED00E068
:100294000138B0F1807F0AD2064B5860064AF0213B
:1002A40082F823100020986007221A60704701200A
:1002B400704700BF10E000E000ED00E0042805D026
:1002C400054A136823F0040313607047024A136855
:1002D40043F004031360704710E000E0704708B572
:1002E400FFF7FCFF08BD08B50720FFF78BFF0022CE
:1002F40011466FF00B00FFF797FF002211466FF0D5
:100304000A00FFF791FF002211466FF00900FFF782
:100314008BFF002211466FF00400FFF785FF0022D7
:1003240011466FF00300FFF77FFF002211466FF0C4
:100334000100FFF779FF002211464FF0FF30FFF76D
:1003440073FF08BD0268124B9A4200D0704700B593
:1003540087B0002300930F4B5A6C42F010025A648A
:100364005B6C03F010030093009B4FF4C063019394
:100374000223029301230393032304930723059386
:1003840001A9054800F068FC07B05DF804FB00BF54
:1003940000100140003802400000024008B500F09F
:1003A40015FCFFF79CFF08BD08B513460A46014635
:1003B400034801F08DFA003018BF012008BD00BFCA
:1003C400B400002008B513460A460146034801F06C
:1003D4000FFA003018BF012008BD00BFB400002090
:1003E40008B5B0FA80F252094FF40071014800F0E8
:1003F40005FD08BD0008024008B500F0F5FB08BD86
:100404002DE9F0418AB000240094494B1A6B42F064
:1004140004021A631A6B02F004020092009A019417
:100424001A6B42F080021A631A6B02F08002019286
:10043400019A02941A6B42F001021A631A6B02F0D9
:1004440001020292029A03941A6B42F002021A63A6
:100454001A6B02F002020392039A04941A6B42F09C
:1004640008021A631B6B03F008030493049B314FC7
:1004740022462021384600F0C1FC2F4E22464FF47C
:100484000071304600F0BAFC4FF4005305932B4B37
:100494000693079405A9304600F0DEFB41F6FF53AE
:1004A400059303250695079405A9304600F0D4FB6F
:1004B40049F6D31305930695079405A9384600F029
:1004C400CBFB0C230593022306930794089407237C
:1004D400099305A9384600F0BFFB202305934FF08C
:1004E4000108CDF818800794089405A9384600F04F
:1004F400B3FB4FF2F77305930695079405A91048CB
:1005040000F0AAFB4FF400730593CDF8188007940C
:10051400089405A9304600F09FFB04230593069533
:10052400079405A9074800F097FB0AB0BDE8F081DD
:100534000038024000000240000802400000211080
:1005440000040240000C0240FEE7000008B50A481F
:100554000A4B03600A4B436000238360C36003615A
:100564000C2242618361C36101F013F900B908BD33
:10057400DC210448FFF7E8FFB4000020001001402C
:1005840040420F002C1D000800B595B000220192D6
:100594002A4B196C41F0805119641B6C03F0805391
:1005A4000193019B029226490B6823F4404343F4D0
:1005B40000430B600B6803F440430293029B022147
:1005C400089101230B9310230C930E910F92109317
:1005D4004FF4A8731193042312930723139308A8C9
:1005E40000F012FC08BB0F230393022104910023A3
:1005F40005934FF480520692079303A800F02CFE53
:10060400B8B900F0D5FE0F4BA3FB00308009FFF70B
:100614003FFE0420FFF752FE002211464FF0FF3048
:10062400FFF702FE15B05DF804FBB1210648FFF7A1
:100634008BFFBF210448FFF787FF00BF003802404B
:1006440000700040D34D62102C1D000800B585B029
:1006540000F0A2FAFFF798FFFFF7D2FEFFF776FF4C
:10066400114B124A5A60124A1A60124A9A60124A8C
:10067400DA604FF47A7000F0B7FA104B02AC93E8EA
:10068400030084E80300204600F046FA0DF1060159
:10069400204600F064FA4FF47A7000F0A5FA0121C4
:1006A400204600F013FAFEE74C000020AD030008DA
:1006B400C9030008E5030008FD030008241D000821
:1006C400C3681A78FF2A00D070470133C360014B16
:1006D4000360F9E7DD060008C3681A78FF2A04D02E
:1006E400044B03608368C36070470133C360024BEB
:1006F40003607047C506000801070008C3681A783C
:10070400FF2A04D00133C360034B03607047034BDB
:1007140003608368C360704725070008C5060008A6
:10072400C26813780371012B02D90433202B04DD32
:10073400044B03608368C36070470132C260024B9C
:1007440003607047C506000851070008C3680133F9
:10075400C3600379013BDBB203710BB9012303745A
:10076400704700231A468B420CD210B4C45C224456
:10077400D2B201339BB28B42F8D3D043C0B25DF8FE
:10078400044B7047D843C0B270470000F8B5054623
:100794000C461646D11E89B2A01CFFF7E2FF013EAB
:1007A400A719A35D984205D00C4B4FF480721A80B0
:1007B4000120F8BDA3782B7023796B700023AB70F4
:1007C400611D06E0AB785A1CAA700A782B44DA70D3
:1007D40001318F42F6D10020EBE700BF200000205A
:1007E400F8B520292ED817460D4604468368012003
:1007F4009847204B23610023237504F12406A66146
:10080400E66184F8203063683A46294630469847C2
:10081400E0B9204650F8103F9847E369A269934233
:1008240003D094F820100129F3D194F8201099B141
:100834009B1A9BB29D4215D00F4B4FF480721A80C5
:10084400012008E001200C4B188004E00A4B40F220
:1008540001121A800120F8BD074B4FF480721A80F0
:100864000120F8E72A46314604F14400FFF78EFFE1
:10087400F1E700BFC50600082000002038B5D0B15C
:1008840003464268A2B1B1B11A78FF2A17D09A7808
:100894000632202A17DCFF220A704A701A788A70FE
:1008A4009A780232CA704C1D5A780A71002214E0F8
:1008B4008278002AE7D000200F4B188038BD002032
:1008C4000D4B1880FAE70C4B01221A800020F5E743
:1008D4005868805C20700132013498789042F7DCCB
:1008E4000D46611A023989B2A81CFFF73AFF631C4E
:1008F4002070581BC0B2E1E720000020F8B5044680
:100904000846174604F124052946FFF7B7FF88B1C6
:100914000646A3680020984723683A46B1B22846A1
:100924009847012801D00020F8BD034B40F2011282
:100934001A80F9E70120F7E720000020436893F8C4
:10094400453013F03F0305D043F40073024A13808B
:10095400012070470020704720000020F0B110B53E
:1009640082B0044603788DF8003001228DF801200E
:1009740000238DF80230019369464068FFF7BEFFFB
:10098400012809D0012206216068FFF729FF012808
:1009940002D02046FFF7D2FF02B010BD024B002266
:1009A4001A800120704700BF200000201F2904D9AD
:1009B4001F4B00221A800120704770B584B0154681
:1009C400044603788DF8083002238DF809308DF839
:1009D4000A30184B5B5C8DF80430174B5E5C8DF865
:1009E400056001AB0393012202A94068FFF786FF6B
:1009F400012812D00122B11D6068FFF7F1FE012821
:100A04000BD02046FFF79AFF012806D0636893F8BD
:100A140047302B80022E02D0002004B070BD6268E3
:100A240092F8482043EA02232B800020F5E700BF18
:100A340020000020381D0008581D0008002838D068
:100A440070B506461F2936D81846DC1D202C34DC28
:100A54001B4C645C1B490C70002104E054180131E8
:100A64002578184C65548842F8DC3178164A1170A0
:100A74009DF81020012A1AD0042213494A70013328
:100A84008B70104B4B6001227068FFF737FF012811
:100A940012D0012206217068FFF7A2FE01280BD0B4
:100AA4003046FFF74BFF012806D0002004E0032264
:100AB400E3E701207047012070BD0120FCE700BF7F
:100AC400381D00082C0000202400002000B585B04B
:100AD40004AA002302F8013D009101230E21FFF72F
:100AE400ADFF05B05DF804FB012904D9094B0022D0
:100AF4001A800120704700B585B0134604AA02F895
:100B0400011D009301230F21FFF798FF05B05DF845
:100B140004FB00BF2000002038B50446FFF71EFF89
:100B240001281BD0002515E0012211462046FFF7BD
:100B3400DBFF6368DB684FF4FA70984701220021F9
:100B44002046FFF7D1FF6368DB684FF4FA709847DB
:100B54000135EDB22378AB42E6D8002038BD08B5A4
:100B64000A461D21FFF722FF08BD000010B5044608
:100B7400074B1868074BA3FB00308009FFF788FB7D
:100B8400002221464FF0FF30FFF74EFB002010BD3E
:100B940000000020D34D621008B50B4B1A6842F4D4
:100BA40000721A601A6842F480621A601A6842F489
:100BB40080721A600320FFF725FB0020FFF7D6FFA1
:100BC400FFF791FB002008BD003C0240024A136875
:100BD40001331360704700BFF4000020014B186814
:100BE400704700BFF400002030B583B00190FFF7D8
:100BF400F5FF0546019CB4F1FF3F00D00134FFF737
:100C0400EDFF401BA042FAD303B030BD0F49D1F829
:100C1400883043F47003C1F888300D4B1A6842F0F1
:100C240001021A60002098601A6822F0847222F48B
:100C340080321A60074A5A601A6822F480221A60C5
:100C4400D8604FF000638B60704700BF00ED00E098
:100C5400003802401030002400230F2B00F2C5801E
:100C6400F0B482B039E0042200E00022B2403A43FA
:100C740002345E4E46F824205D4A1468EA4302EAD0
:100C840004064F6817F4803F01D045EA0406584C27
:100C94002660646802EA04064F6817F4003F01D036
:100CA40045EA0406524C6660A46802EA04064F68EA
:100CB40017F4801F01D045EA04064D4CA660E46891
:100CC40022404E6816F4001F01D045EA0402484C45
:100CD400E26001330F2B00F2858001229A400C68F8
:100CE40004EA0205AA42F4D14C68022C01D0122C69
:100CF40010D1DE08083650F826C003F00704A70018
:100D04000F24BC402CEA040C0C69BC4044EA0C04DB
:100D140040F8264004685F000326BE40F64306EA16
:100D2400040C4C6804F00304BC4044EA0C04046062
:100D34004C6804F1FF3CBCF1010F03D9112C01D024
:100D4400122C10D1846806EA040CCC68BC4044EA36
:100D54000C048460446824EA02024C68C4F300145E
:100D64009C4014434460C26816408A68BA403243C7
:100D7400C2604A6812F0805FABD0002201921D4A23
:100D8400546C44F480445464526C02F480420192E2
:100D9400019A9C08A61C154A52F8267003F0030217
:100DA40096000F22B24027EA0207134A90423FF40A
:100DB4005CAF02F5806290420ED002F580629042F0
:100DC4000CD002F5806290420AD002F58062904213
:100DD4003FF449AF072249E7012247E7022245E7EA
:100DE400032243E702B0F0BC70477047003801406B
:100DF400003C0140003802400000024012B90904DE
:100E04008161704781617047002800F0AB8130B583
:100E140083B00446036813F0010F3BD0A74B9B68D3
:100E240003F00C03042B2CD0A44B9B6803F00C039D
:100E3400082B21D06368B3F5803F4FD0B3F5A02FC2
:100E440052D09E4B1A6822F480321A601A6822F437
:100E540080221A606368002B50D0FFF7BFFE05465E
:100E6400964B1B6813F4003F14D1FFF7B7FE401BE9
:100E74006428F5D903207AE1904B5B6813F4800F62
:100E8400D8D08E4B1B6813F4003F03D06368002B4B
:100E940000F06A81236813F0020F55D0874B9B68DA
:100EA40013F00C0F3ED0854B9B6803F00C03082B0A
:100EB40033D0E368002B68D0814B01221A60FFF71E
:100EC4008DFE05467D4B1B6813F0020F54D1FFF7CE
:100ED40085FE401B0228F5D9032048E1774A1368B0
:100EE40043F480331360B5E7744B1A6842F48022EC
:100EF4001A601A6842F480321A60ABE7FFF76EFE9C
:100F040005466E4B1B6813F4003FC3D0FFF766FE23
:100F1400401B6428F5D9032029E1684B5B6813F46E
:100F2400800FC6D1654B1B6813F0020F04D0E36831
:100F3400012B01D001201AE1604A136823F0F80361
:100F4400216943EAC1031360236813F0080F40D0FA
:100F5400636963B35B4B01221A60FFF73FFE0546EA
:100F6400564B5B6F13F0020F33D1FFF737FE401B74
:100F74000228F5D90320FAE0504A136823F0F80355
:100F8400216943EAC1031360DEE74D4B00221A6076
:100F9400FFF724FE0546494B1B6813F0020FD3D01C
:100FA400FFF71CFE401B0228F5D90320DFE0454B68
:100FB40000221A60FFF712FE0546404B5B6F13F0E8
:100FC400020F06D0FFF70AFE401B0228F5D90320C2
:100FD400CDE0236813F0040F1FD1A369002B00F0A8
:100FE400C580364A926802F00C02082A00F0C180DB
:100FF400022B7FD0344B00221A60FFF7EFFD04462A
:101004002E4B1B6813F0007F00F0AA80FFF7E6FD6B
:10101400001B0228F4D90320A9E000230193274BE5
:101024001A6C42F080521A641B6C03F080530193D3
:10103400019B264A136843F480731360FFF7CEFDC7
:101044000546224B1B6813F4807F06D1FFF7C6FDCB
:10105400401B0228F5D9032089E0A368012B1DD089
:10106400052B21D0154B1A6F22F001021A671A6F53
:1010740022F004021A67A36853B3FFF7AFFD0546D5
:101084000E4B1B6F13F0020FA7D1FFF7A7FD401BF8
:1010940041F288339842F3D9032068E0074A136F7A
:1010A40043F001031367E6E7044B1A6F42F00402AE
:1010B4001A671A6F42F001021A67DCE7003802402F
:1010C40000004742800E47426000474200700040E3
:1010D400FFF784FD0546284B1B6F13F0020F3FF406
:1010E4007CAFFFF77BFD401B41F288339842F2D975
:1010F40003203CE0214B00221A60FFF76FFD0546F8
:101104001D4B1B6813F0007F06D0FFF767FD401BE3
:101114000228F5D903202AE0E369226A1343626AAC
:1011240043EA8213A26A5208013A43EA0243E26A9A
:1011340043EA0263104A5360104B01221A60FFF71E
:101144004DFD04460C4B1B6813F0007F06D1FFF7DE
:1011540045FD001B0228F5D9032008E0002006E025
:10116400002004E001207047012000E0002003B0CB
:1011740030BD0120FBE700BF003802406000474259
:10118400324B9B6803F00C03042B5CD0082B01D07A
:101194002F4870472DE9F04B2C4B5A6802F03F0260
:1011A4005B6813F4800F2BD0284B5B68C3F3881360
:1011B4001E4600275C010025E41A65EB0705A9011A
:1011C40041EA9461A001001B61EB0501CB0043EAF5
:1011D4005073C400A01943EB07014B0243EAD053F8
:1011E4004402204619460023FEF7D2FF174B5B68E2
:1011F400C3F3014301335B00B0FBF3F0BDE8F08BB4
:10120400124B5B68C3F388131E4600275C0100255C
:10121400E41A65EB0705A90141EA9461A001001BEA
:1012240061EB0501CB0043EA5073C400A01943EB02
:1012340007018B0243EA9053840220461946002397
:10124400FEF7A6FFD2E70348704700BF003802400C
:101254000024F40000127A00002800F09D8070B58C
:1012640004464F4B1B6803F00F038B4209D2CBB2E9
:101274004B4A1370136803F00F038B4201D0012013
:1012840070BD236813F0020F17D013F0040F04D0BD
:10129400444A936843F4E0539360236813F0080FBF
:1012A40004D0404A936843F4604393603D4A936892
:1012B40023F0F003A068034393600D46236813F002
:1012C400010F32D06368012B21D09A1E012A25D93F
:1012D400344A126812F0020F60D032498A6822F050
:1012E400030213438B60FFF779FC06462D4B9B6882
:1012F40003F00C036268B3EB820F16D0FFF76EFCA9
:10130400801B41F288339842F0D90320B8E7254A7C
:10131400126812F4003FE0D10120B1E7214A1268BB
:1013240012F0007FD9D10120AAE71D4B1B6803F0FE
:101334000F03AB4209D9EAB2194B1A701B6803F0C8
:101344000F03AB4201D001209AE7236813F0040F86
:1013540006D0144A936823F4E053E1680B43936086
:10136400236813F0080F07D00E4A936823F46043F0
:10137400216943EAC1039360FFF702FF094B9B68AD
:10138400C3F30313084AD35CD840084B1860002009
:10139400FFF7ECFB002073E70120704701206FE7A3
:1013A400003C024000380240781D00080000002084
:1013B400014B1868704700BF0000002008B5FFF714
:1013C400F7FF044B9B68C3F38223034AD35CD840E2
:1013D40008BD00BF00380240881D000808B5FFF7AB
:1013E400E7FF044B9B68C3F34233034AD35CD84002
:1013F40008BD00BF00380240881D00082DE9F843ED
:10140400044601680A6922F44052C36813430B611D
:101414000168CA6822F4164222F00C02836800694B
:10142400034360690343E06903431343CB602168CA
:101434004A6922F44072A36913434B61E369B3F52B
:10144400004F60D02368B84A934200F0148102F53B
:101454008062934200F00F81FFF7B0FF00EB800041
:1014640000EB80006568AD00B0FBF5F5AF4FA7FB5E
:1014740005356D092E01FFF7A1FF00EB800000EB9D
:1014840080006568AD00B0FBF5F9FFF797FF00EB4E
:10149400800000EB80006568AD00B0FBF5F5A7FBAC
:1014A40005356D094FF0640808FB15952D0132359B
:1014B400A7FB05356D0905F0F0053544FFF77EFF00
:1014C40000EB800000EB80006668B600B0FBF6F627
:1014D400FFF774FF00EB800000EB800063689B0063
:1014E400B0FBF3F0A7FB0030400908FB10684FEA9B
:1014F400081808F13208A7FB0837C7F34317236815
:101504002F449F600DE12368874A93425BD002F524
:101514008062934257D0FFF751FF00EB800000EB4D
:10152400800065686D00B0FBF5F5804FA7FB0535BD
:101534006D092E01FFF742FF00EB800000EB8000F5
:1015440065686D00B0FBF5F9FFF738FF00EB80002C
:1015540000EB800065686D00B0FBF5F5A7FB053571
:101564006D094FF0640808FB1595ED003235A7FBB3
:1015740005356D096D0005F4F8753544FFF71EFF58
:1015840000EB800000EB800066687600B0FBF6F6A6
:10159400FFF714FF00EB800000EB800063685B0042
:1015A400B0FBF3F3A7FB03235B0908FB13684FEAC3
:1015B400C80808F13208A7FB0837C7F342172368A5
:1015C4002F449F60ADE0FFF709FF00EB800000EBC4
:1015D400800065686D00B0FBF5F5544FA7FB053539
:1015E4006D092E01FFF7FAFE00EB800000EB80008E
:1015F40065686D00B0FBF5F9FFF7F0FE00EB8000C5
:1016040000EB800065686D00B0FBF5F5A7FB0535C0
:101614006D094FF0640808FB1595ED003235A7FB02
:1016240005356D096D0005F4F8753544FFF7D6FEF0
:1016340000EB800000EB800066687600B0FBF6F6F5
:10164400FFF7CCFE00EB800000EB800063685B00DA
:10165400B0FBF3F3A7FB03235B0908FB13684FEA12
:10166400C80808F13208A7FB0837C7F342172368F4
:101674002F449F6055E0FFF7B1FE00EB800000EBC4
:1016840080006568AD00B0FBF5F5284FA7FB053574
:101694006D092E01FFF7A2FE00EB800000EB800035
:1016A4006568AD00B0FBF5F9FFF798FE00EB80002C
:1016B40000EB80006568AD00B0FBF5F5A7FB0535D0
:1016C4006D094FF0640808FB15952D013235A7FB11
:1016D40005356D0905F0F0053544FFF77FFE00EB95
:1016E400800000EB80006668B600B0FBF6F6FFF7FA
:1016F40075FE00EB800000EB800063689B00B0FB8C
:10170400F3F0A7FB0030400908FB10684FEA081803
:1017140008F13208A7FB0837C7F3431723682F449F
:101724009F60BDE8F88300BF001001401F85EB51A6
:101734002DE9F04105460F4616469846069C2B684F
:101744001B6837EA03030CBF01230023B3421DD1F6
:10175400B4F1FF3FF3D02CB1FFF740FAA0EB08003F
:10176400A042ECD92A68D36823F4D073D3602A68E2
:10177400536923F001035361202385F8393085F838
:101784003A30002385F83830032000E00020BDE81B
:10179400F08158B310B5044690F839300BB32423C4
:1017A40084F839302268D36823F40053D360204688
:1017B400FFF724FE2268136923F49043136122681F
:1017C400536923F02A0353612268D36843F4005316
:1017D400D3600020E063202384F8393084F83A3061
:1017E40010BD80F83830FEF7ADFDD8E70120704712
:1017F4002DE9F04182B01E4690F83930DBB2202B3F
:1018040055D104460D469046002955D0002A55D09E
:1018140090F83830012B53D0012380F8383000235E
:10182400C363212380F83930FFF7D8F90746A4F8B9
:101834002480A4F8268010E000963B4600228021F4
:101844002046FFF775FF00283CD12B882268C3F39C
:10185400080353602369C3B90235E38C9BB2B3B167
:10186400E38C013B9BB2E384A368B3F5805FE3D0D0
:1018740000963B46002280212046FFF759FF18BB03
:101884002A7823685A600135E7E70135E5E70096D1
:101894003B46002240212046FFF74AFF0346A8B9F1
:1018A400202284F83920002284F8382000E0022322
:1018B400184602B0BDE8F0810123F9E70123F7E7F8
:1018C4000223F5E70323F3E70323F1E70323EFE719
:1018D4002DE9F04182B01E4690F83A30DBB2202B5D
:1018E4005AD104460D469046002959D0002A59D0B1
:1018F40090F83830012B57D0012380F8383000237A
:10190400C363222380F83A30FFF768F90746A4F846
:101914002C80A4F82E801DE000963B460022202156
:101924002046FFF705FF002840D1236933B9236817
:101934005B68C3F3080325F8023B0BE023685B688C
:10194400DBB225F8013B05E023685B6803F07F0305
:101954002B700135E38D9BB2BBB1E38D013B9BB290
:10196400E385A368B3F5805FD6D000963B4600229A
:1019740020212046FFF7DCFED0B92369002BE3D1F8
:1019840023685B682B700135E4E7202384F83A3040
:10199400002084F8380000E0022002B0BDE8F081A5
:1019A4000120FAE70120F8E70220F6E70320F4E734
:1019B4000320F2E7DFF834D0002103E00C4B5B583E
:1019C400435004310B480C4B42189A42F6D30B4A4D
:1019D40002E0002342F8043B094B9A42F9D3FFF793
:1019E40015F900F011F8FEF731FE70470080012070
:1019F400A01D0008000000200400002004000020B6
:101A0400F8000020FEE7000070B50D4E0D4CA41B3D
:101A1400A4100025A54209D10B4E0C4C00F074F91A
:101A2400A41BA4100025A54205D170BD56F825308D
:101A340098470135EEE756F8253098470135F2E727
:101A4400981D0008981D0008981D00089C1D00089A
:101A54002DE9F04F099F154604468E461E46002B7D
:101A640040F0CD808A42B2FA82FC4CD9BCF1000F1E
:101A74000BD0CCF1200801FA0CFE20FA08F802FA87
:101A84000CF548EA0E0E00FA0CF44FEA15491FFA59
:101A940085F8BEFBF9FA210C09FB1AE30AFB08FBE3
:101AA40041EA03439B452AD9EB180AF1FF3004D2DB
:101AB4009B4502D9AAF102002B44A3EB0B03A4B269
:101AC400B3FBF9F209FB123302FB08F844EA0344BE
:101AD400A04516D92C1902F1FF3303D2A04501D930
:101AE400931E2C44A4EB080443EA004027B124FAD3
:101AF4000CF400233C607B603146BDE8F08F504617
:101B0400DBE71346EEE702B9FFDEBCF1000F2ED18E
:101B14008B1A01264FEA154EAAB2B3FBFEF8210C2C
:101B24000EFB183308FB02F941EA0343994562D9D5
:101B3400EB1808F1FF3004D2994502D9A8F102004C
:101B44002B44A3EB0903A4B2B3FBFEF10EFB113348
:101B54004A4344EA0344A2424FD92C1901F1FF330A
:101B640003D2A24201D98B1E2C44A41ABCE7CCF1A7
:101B7400200E02FA0CF521FA0EF901FA0CF320FA00
:101B84000EFE4EEA03024FEA154E00FA0CF4B9FBBE
:101B9400FEF8ABB20EFB1890160C08FB03FA46EAEB
:101BA4000040824523D9281808F1FF3104D2824528
:101BB40002D9A8F102012844A0EB0A0092B2B0FBBA
:101BC400FEF80EFB180008FB03F942EA00439945AE
:101BD4000FD9EB1808F1FF3604D2994502D9A8F1C0
:101BE40002062B44A3EB090346EA014692E7414669
:101BF400E2E74646F6E74046A3E70B46B5E78B42E5
:101C040005D90FB1C7E900010026304674E7B3FADD
:101C140083FCBCF1000F0FD18B4201D3824209D85F
:101C2400841A61EB030E0120002F6AD0C7E9004E2D
:101C3400002661E76046F7E7CCF1200E03FA0CF3C7
:101C440022FA0EF521FA0EF41D4301FA0CF320FAE0
:101C54000EF10B434FEA154A00FA0CF6B4FBFAF9FD
:101C64001FFA85F80AFB19401C0C09FB08F144EA29
:101C74000044A14202FA0CF23FD92C1909F1FF30B9
:101C840004D2A14202D9A9F102002C44641A9BB2E5
:101C9400B4FBFAF90AFB194409FB08F843EA0441C6
:101CA40088452CD9691809F1FF3304D2884502D933
:101CB400A9F10203294443EA0040A1EB0801A0FB77
:101CC40002894945C2464C4602D306D1464504D250
:101CD400B8EB020A69EB0504013897B1B6EB0A03C5
:101CE40061EB040606FA0EFE23FA0CF34EEA030334
:101CF40026FA0CF6C7E900369AE74846C6E74B468B
:101D0400D9E73E46F8E60000F8B500BFF8BC08BCC9
:101D14009E467047F8B500BFF8BC08BC9E467047A5
:101D2400010000004C0000205372632F6D61696E46
:101D34002E63000003040506080B0C0D0E1011128F
:101D4400000218191A1B1C1D1E20222F30242628BD
:101D54002A2B2C2E010101020201010102010101C1
:101D64000201010101010101020202010202020257
:101D74000101010100000000000000000102030451
:0C1D84000607080900000000010203042B
:081D9000C4FCFF7F010000000C
:041D9800ED01000851
:041D9C00C901000871
:041DA0000024F40027
:04000005080019B91D
:00000001FF
